:100000000C94AD000C943E040C9417040C94D50091
:100010000C9403090C94D5000C94D5000C94D500D5
:100020000C94D5000C94C6110C94D5000C94D500FA
:100030000C94D5000C94D5000C94D5000C94D500EC
:100040000C94CD030C94D5000C94C0020C949A022D
:100050000C94D5000C94D5000C94D5000C94D500CC
:100060000C94D5000C94D500D31B691D4E1F4F2155
:10007000341CB51DC71FEB21751CEB1EFD1F4B2249
:10008000CA1DD11DDA1DE31DEC1DF51DFE1D071E49
:10009000351E351E351E101E161E1D1E241E2B1E3F
:1000A00069206D2069206D20692069206D206920FC
:1000B0006D2069206D20692069206D2069208A20CB
:1000C0008A208A208A208A20332133213321332138
:1000D00033219220CB20D420E92004210D21130DBF
:1000E0003D0D030E880D880D880D880D880D880D37
:1000F000880D880D880D030E8D0DCB0DE10D0000D0
:100100000000240027002A0000000000250028002D
:100110002B00000000002300260029000404040432
:1001200004040404020202020202030303030303A1
:10013000010204081020408001020408102001027E
:10014000040810200000000800020100000304075A
:100150000000000000000000132511241FBECFEF97
:10016000D8E0DEBFCDBF11E0A0E0B1E0EAE3F1E509
:1001700002C005900D92A833B107D9F723E0A8E398
:10018000B1E001C01D92AC37B207E1F710E0CDEA53
:10019000D0E004C02197FE010E947C28CC3AD10710
:1001A000C9F70E947B120C949B280C940000CF92FC
:1001B000DF92EF92FF920F931F93CF93DF936C0127
:1001C0007A018B01C0E0D0E0CE15DF0589F0D801BF
:1001D0006D918D01D601ED91FC910190F081E02DA2
:1001E000C6010995892B11F47E0102C02196ECCF3E
:1001F000C701DF91CF911F910F91FF90EF90DF909A
:10020000CF900895089580E090E00895FC01538D0B
:10021000448D252F30E0842F90E0821B930B5417E0
:1002200010F0CF96089501970895FC01918D828D6D
:10023000981761F0828DDF01A80FB11D5D968C913A
:10024000928D9F5F9F73928F90E008958FEF9FEF45
:100250000895FC01918D828D981731F0828DE80F01
:10026000F11D858D90E008958FEF9FEF0895FC01BB
:10027000918D228D892F90E0805C9F4F821B910988
:100280008F739927089589ED92E00E94370121E04C
:10029000892B09F420E0822F0895FC01848DDF0171
:1002A000A80FB11DA35ABF4F2C91848D90E00196E9
:1002B0008F739927848FA689B7892C93A089B189D8
:1002C0008C9180648C93938D848D981306C00288E2
:1002D000F389E02D80818F7D80830895EF92FF92D6
:1002E0000F931F93CF93DF93EC0181E0888F9B8D59
:1002F0008C8D981305C0E889F989808185FD24C01B
:10030000F62E0B8D10E00F5F1F4F0F731127E02E9D
:100310008C8DE8120CC00FB607FCFACFE889F9897A
:10032000808185FFF5CFCE010E944D01F1CF8B8DED
:10033000FE01E80FF11DE35AFF4FF0820B8FEA89AF
:10034000FB898081806207C0EE89FF896083E8892C
:10035000F98980818064808381E090E0DF91CF9192
:100360001F910F91FF90EF900895CF93DF93EC01D1
:10037000888D8823C9F0EA89FB89808185FD05C0C5
:10038000A889B9898C9186FD0FC00FB607FCF5CFFF
:10039000808185FFF2CFA889B9898C9185FFEDCF47
:1003A000CE010E944D01E7CFDF91CF91089580E00B
:1003B00090E0892B29F00E94430181110C940000E8
:1003C0000895833081F028F4813099F08230A1F0D3
:1003D00008958730A9F08830B9F08430D1F4809145
:1003E00080008F7D03C0809180008F778093800094
:1003F000089584B58F7702C084B58F7D84BD08953C
:100400008091B0008F7703C08091B0008F7D809382
:10041000B00008953FB7F8948091D5029091D6022C
:10042000A091D702B091D80226B5A89B05C02F3F56
:1004300019F00196A11DB11D3FBFBA2FA92F982F0A
:100440008827820F911DA11DB11DBC01CD0142E085
:10045000660F771F881F991F4A95D1F70895089551
:10046000803E21E092079CF4BC01990F880B990B08
:100470000E943F2720E030E040EF53E40E949526A1
:1004800020E030E040E054E40E94EF271FC08032BB
:1004900022E0920704F1BC016F517240072E000C5C
:1004A000880B990B0E943F2720E030E040E054E4A5
:1004B0000E94EF2720E030E040EF53E40E949526B1
:1004C00020E030E040E054E40E9424260E94072708
:1004D00077FF03C009C060E072E0CB016115744092
:1004E0002CF08FEF93E0089580E090E008959093D2
:1004F00049018093480128E1289FB001299F700D90
:100500001124072E000C880B990B0E943F279B019A
:10051000AC0160E070E68AE697E40E94952660935D
:100520004C0170934D0180934E0190934F010895BB
:100530000E9496281F920F920FB60F9211242F93AC
:100540003F934F935F936F937F938F939F93AF935B
:10055000BF93EF93FF9389ED92E00E944D01FF91CD
:10056000EF91BF91AF919F918F917F916F915F912B
:100570004F913F912F910F900FBE0F901F901895A4
:100580001F920F920FB60F9211242F938F939F9368
:10059000EF93FF93E091E902F091EA028081E0910C
:1005A000EF02F091F00282FD12C090818091F20280
:1005B0008F5F8F732091F302821751F0E091F20266
:1005C000F0E0E752FD4F958F8093F20201C08081E9
:1005D000FF91EF919F918F912F910F900FBE0F90F0
:1005E0001F901895CF93DF93282F30E0F901EC5B33
:1005F000FE4F8491F901E05DFE4FD491F901E45E74
:10060000FE4FC491CC2391F081110E94E101EC2FA7
:10061000F0E0EE0FFF1FEE5EFE4FA591B491EC915E
:10062000ED2381E090E021F480E002C080E090E0E2
:10063000DF91CF9108951F93CF93DF93282F30E060
:10064000F901EC5BFE4F8491F901E05DFE4FD4911E
:10065000F901E45EFE4FC491CC23C9F0162F81113D
:100660000E94E101EC2FF0E0EE0FFF1FE85FFE4F6C
:10067000A591B4918FB7F894111105C09C91ED2FFD
:10068000E095E92302C0EC91ED2BEC938FBFDF9155
:10069000CF911F910895CF93DF9390E0FC01E05D2F
:1006A000FE4F2491FC01E45EFE4F8491882361F1AA
:1006B00090E0880F991FFC01E250FF4FC591D49143
:1006C000FC01E85FFE4FA591B491611109C09FB78D
:1006D000F8948881209582238883EC912E230BC087
:1006E000623061F49FB7F8943881822F809583231C
:1006F0008883EC912E2B2C939FBF06C08FB7F89464
:10070000E8812E2B28838FBFDF91CF9108958F92A0
:100710009F92AF92BF92CF92DF92EF92FF926B01C6
:100720007C010E940A024B015C01C114D104E10466
:10073000F104F1F00E940A02DC01CB018819990949
:10074000AA09BB09883E9340A105B10570F321E0D9
:10075000C21AD108E108F10888EE880E83E0981EDD
:10076000A11CB11CC114D104E104F10419F7DDCFBF
:10077000FF90EF90DF90CF90BF90AF909F908F90C1
:1007800008952FB7F8946091D1027091D2028091B0
:10079000D3029091D4022FBF08951F920F920FB6EB
:1007A0000F9211242F933F938F939F93AF93BF93F7
:1007B0008091D1029091D202A091D302B091D40243
:1007C0003091D00223E0230F2D3720F40196A11D94
:1007D000B11D05C026E8230F0296A11DB11D20936F
:1007E000D0028093D1029093D202A093D302B0930F
:1007F000D4028091D5029091D602A091D702B091F7
:10080000D8020196A11DB11D8093D5029093D60206
:10081000A093D702B093D802BF91AF919F918F91CF
:100820003F912F910F900FBE0F901F9018951F9220
:100830000F920FB60F9211242F933F934F935F9314
:100840006F937F938F939F93AF93BF93EF93FF9398
:10085000E0910201F09103010995FF91EF91BF91A1
:10086000AF919F918F917F916F915F914F913F9148
:100870002F910F900FBE0F901F9018951F920F92FF
:100880000FB60F9211242F933F934F935F936F9363
:100890007F938F939F93AF93BF93EF93FF93E091D9
:1008A0000001F09101010995FF91EF91BF91AF9186
:1008B0009F918F917F916F915F914F913F912F9178
:1008C0000F900FBE0F901F9018950C94B2258F3F7C
:1008D00051F0E82F880FFF0BE650FE4F908181E02A
:1008E0008927808306C0611104C08091F7018823A5
:1008F00019F140917102EAEFF1E080E090E031916E
:10090000232F217030FD242FDC01AF59BD4F2C93D4
:1009100001968031910599F78091F5019091F6014A
:10092000892B41F0E091F401F0E080916002EF59F1
:10093000FD4F80831092F701089580917A02909183
:100940007B029C01237033272230310581F0233054
:100950003105A9F02130310511F024E601C02FEF57
:100960002093600223E02093710221E00FC02FEF5B
:100970002093600229E12093710224E007C02FEF49
:100980002093600223E2209371022AE020937202F6
:100990008C7099278430910569F018F4892B39F00F
:1009A00008958830910549F00C9751F008958AEF29
:1009B00090E008C084EF91E005C088EE93E002C0AB
:1009C0008CED95E090937502809374020895609188
:1009D0007A0289E690E00E94650460917B028AE6D3
:1009E00090E00C9465042F923F924F925F926F9229
:1009F0007F928F929F92AF92BF92CF92DF92EF92AF
:100A0000FF920F931F93CF93DF93CDB7DEB7C55AF5
:100A1000D1090FB6F894DEBF0FBECDBF8FEF809324
:100A20006E0180935D011092F6011092F5018091A4
:100A30005C0290915D02892B09F4ACC3809136026F
:100A4000833008F041C0CE0187589F4F0E94F124A7
:100A500020915C0230915D0221503109FE01E7587E
:100A6000FF4F80E090E0DD24D39482179307BCF41D
:100A700041915191608171817A01E894E7F8FF24F6
:100A8000DB01AF77BB27AE15BF053CF4DF01129742
:100A90006D937C9351834083D12C0196E6CFDD206A
:100AA000E9F28091440280935D01E1E0F0E0612C85
:100AB000712C2FE730E0CF56DF4F39832883C1599F
:100AC000D040E12CF12C6DC0CE0187589F4F0E9481
:100AD000F124E9CF6CE3E616F1040CF060C240911A
:100AE000360220915C0230915D02423009F41FC150
:100AF00008F46CC0433009F48DC0463008F4F5C0EA
:100B000020915C0230915D02C656DF4F3983288305
:100B1000CA59D04080913702482F880F550BC456D0
:100B2000DF4F59834883CC59D0402091390230910E
:100B30003A02C856DF4F39832883C859D04049014B
:100B4000882430E79322A201440F551FC256DF4F7D
:100B500059834883CE59D0409801220F331FC05685
:100B6000DF4F39832883C05AD040CC56DF4F1982DB
:100B70001882C459D04041E017FF33C14FEFC41A67
:100B8000D40A50913B02852F90E0C816D9060CF488
:100B9000A1CF309709F403C27CE3E716F1040CF00F
:100BA000FEC18091390290913A02905890933A0296
:100BB00080933902392F331F3327331FCD56DF4F30
:100BC0003883C359D040C12CD12CDBCF442309F446
:100BD0008CC0413009F094CF890101501109209156
:100BE000730230913802830F911D37FD9A958C194D
:100BF0009D0901973CE0389F1001399F300C11246A
:100C0000220E311C27FD3A9444244A94542CA12CE2
:100C1000B12C8AC0FE01E758FF4F80E090E08217B8
:100C2000930724F4119211920196F9CFB4E4AB2EFC
:100C3000B2E0BB2E00E010E080915C0290915D027A
:100C4000081719070CF051C020915C0230915D0229
:100C5000032E000C440B550B2115310541055105A0
:100C600071F1CE55DF4F2883C25AD040CD55DF4FAA
:100C70003883C35AD040CC55DF4F4883C45AD04044
:100C8000CB55DF4F5883C55AD0400E949C25CE5586
:100C9000DF4F2881C25AD040CD55DF4F3881C35A2B
:100CA000D040CC55DF4F4881C45AD040CB55DF4FA0
:100CB0005881C55AD0400E94C0259B01AC01220F2B
:100CC000331FE9E7F0E0EC0FFD1FE20FF31F808117
:100CD0009181892B09F0B8CFD5018D919D915D014E
:100CE000918380830F5F1F4FA7CFA0905C02B090CD
:100CF0005D02B1E0AB1AB1088091730290913802A5
:100D00009601290F311D97FD3A959CE0929F1001A5
:100D1000939F300C1124280E311C87FD3A944424F3
:100D20004394512C00E010E0E0E0F0E0E9CE609167
:100D3000730270913802E130F10501F5590141E08B
:100D4000A41AB1089601270F311D77FD3A954CE0A2
:100D5000429F1001439F300C1124260E311C67FD69
:100D60003A94019744244394512C00E010E0C816B3
:100D7000D90609F0C5CEE2E0F0E0C2CE513021F450
:100D800089010250110910C0C114D10421F4890154
:100D9000025011090FC0AC014150510989010150A5
:100DA0001109C416D50631F4AA24A394B12CE0E0AD
:100DB000F0E002C0A12CB12C870F911D77FD9A9510
:100DC0008C199D0901972CE0289F1001299F300C58
:100DD0001124260E311C67FD3A9444244A94542C65
:100DE0008FCEC656DF4F28813981CA59D0400217AD
:100DF00013070CF0C3CE3CE3E316F1040CF0BECEB7
:100E0000CC56DF4FA881B981C459D040C056DF4FBE
:100E100028813981C05AD040A20FB31F69E770E022
:100E20006C0F7D1FA60FB71F2D913C91CA56DF4F47
:100E300039832883C659D0402F773327220D331D9D
:100E4000C901C456DF4F68817981CC59D040861BD7
:100E5000970B97FF02C00C96FCCF6CE070E00E94ED
:100E60006828A0E0B8E002C0B595A7958A95E2F79A
:100E7000CD01C856DF4F68817981C859D04086239B
:100E80009723892BB1F5811470E29706A9F058F4E5
:100E90008114910409F468C0811490E1990649F520
:100EA00020E030E026C08114A0E39A0641F08114CE
:100EB000B0E49B0639F01DC0215031091AC02F5FE4
:100EC0003F4F17C0CD56DF4F5881C359D0405523EF
:100ED00019F02F5F3F4F02C021503109CD56DF4F2F
:100EE0006881C359D0406427CD56DF4F6883C3590A
:100EF000D040203831051CF02C503109FACF37FF93
:100F000003C0245F3F4FFBCFC956DF4F8881C759CD
:100F1000D0408F77D901B82BCD01B3016F777727F8
:100F2000621773070CF43D01CF56DF4F688179815A
:100F3000C159D0406F7777272617370734F4CF563B
:100F4000DF4F99838883C159D040D701AA0FBB1FB7
:100F500021E030E02C0F3D1FA20FB31F8D939C9317
:100F6000B7016F5F7F4F7B01CC56DF4F28813981FE
:100F7000C459D040C256DF4F68817981CE59D040E4
:100F8000260F371FCC56DF4F39832883C459D040F2
:100F90000A151B0509F4F2CD040D151DEDCD1092B7
:100FA000F6011092F501809136028530A1F4DE0140
:100FB000119680E090E08E159F0509F485C02D9173
:100FC0003D91FC01EE0FFF1FED58FE4F306831835D
:100FD00020830196F0CF80915E028230D1F060F4E0
:100FE0008823F1F0813009F0D5C0DE01119680E050
:100FF00090E020E030E041C0833009F46AC08430E2
:1010000009F0C8C020E030E040E050E080E090E02F
:10101000B7C0DE01119680E090E020E030E051C0E2
:10102000DE01119680E090E08E159F0509F44CC01A
:101030002D913D91FC01EE0FFF1FED58FE4F3183C6
:1010400020830196F1CF8C339105F4F54D915D919C
:101050004615570581F0FC01EE0FFF1FED58FE4FBE
:1010600071826082FC013196EE0FFF1F0296ED58EF
:10107000FE4F518340832F5F3F4F2E153F0519F7D9
:1010800023C08C33910504F54D915D91CF56DF4F10
:1010900068817981C159D0404617570781F0FC011A
:1010A000EE0FFF1FED58FE4F71836083FC013196F8
:1010B000EE0FFF1F0296ED58FE4F518340832F5FC6
:1010C0003F4F2E153F05E9F69093F6018093F50109
:1010D00061C0E0E0F0E000E010E020E030E0A3E0FC
:1010E000CA2ED12C2E153F053CF5EC33F10521F12C
:1010F000D801AA0FBB1FBD016D587E4FC901880FD3
:10110000991FA1E0B0E0AC0FBD1F8A0F9B1FDC014F
:101110008D919C91DB018D939C930F5F1F4FC801B4
:10112000B6010E946828892B19F42150310902C0A8
:101130002F5F3F4F3196D6CFF093F601E093F50144
:1011400029C02C33310511F1FA01EE0FFF1FED58C4
:10115000FE4FDC01AA0FBB1F61E070E06C0F7D1F2A
:10116000A60FB71F6D917C91718360834F5F5F4FB6
:10117000BA0163707727672B39F402972F5F3F4FCF
:101180008E159F05F4F202C00196F8CF3093F60158
:101190002093F501CB55DF4F0FB6F894DEBF0FBE9D
:1011A000CDBFDF91CF911F910F91FF90EF90DF9016
:1011B000CF90BF90AF909F908F907F906F905F90F7
:1011C0004F903F902F90089510925D0210925C0214
:1011D00010924302109242028091790281608093C2
:1011E000790280917E02816080937E0208956091F1
:1011F000F8018BE690E00E9465046091F9018CE6AD
:1012000090E00C9465041F920F920FB60F92112478
:101210002F933F934F935F936F937F938F939F93FE
:10122000AF93BF93EF93FF93309B3FC00E94C103E6
:10123000AB01BC0180913C0190913D01A0913E0128
:10124000B0913F01892B8A2B8B2B29F180913C0196
:1012500090913D01A0913E01B0913F018417950707
:10126000A607B707C0F480913C0190913D01A09181
:101270003E01B0913F019A01281B390B3093510177
:101280002093500140933C0150933D0160933E01F7
:1012900070933F010AC080917C0290917D02926020
:1012A00090937D0280937C02EDCFFF91EF91BF91EF
:1012B000AF919F918F917F916F915F914F913F91EE
:1012C0002F910F900FBE0F901F9018959091520183
:1012D0009F5F977020915B01921741F0E09152015E
:1012E000F0E0ED5AFE4F808390935201089588EF0D
:1012F0000C9466098AEF0C9466090E94C1036093FE
:1013000040017093410180934201909343011092F8
:10131000CC021092CD021092CE021092CF02109207
:10132000EB011092EC011092ED011092EE0110927F
:101330004B0180917C0290917D02846090937D02AC
:1013400080937C0280917C0290917D0298609093C2
:101350007D0280937C02089580935C0180917C02E1
:1013600090917D02886090937D0280937C020C9422
:101370007D09CF92DF92EF92FF920F931F93CF934D
:10138000C82F80917C0290917D0292FF11C0109233
:10139000CC021092CD021092CE021092CF02109287
:1013A000EB011092EC011092ED011092EE01B5C02C
:1013B00080917C0290917D0291FF12C080917C020D
:1013C00090917D029D7F90937D0280937C0210928C
:1013D000CC021092CD021092CE021092CF0213C016
:1013E0008091CC029091CD02A091CE02B091CF021B
:1013F0000196A11DB11D8093CC029093CD02A093C4
:10140000CE02B093CF026091CC027091CD02809158
:10141000CE029091CF0220913D0230913E02032EE8
:10142000000C440B550B0E94F225672B682B692B8F
:1014300009F04FC00E94C103009140011091410189
:101440002091420130914301012B022B032BB1F07B
:1014500000914001109141012091420130914301DE
:101460006B017C01C01AD10AE20AF30AC0926F0133
:10147000D0927001E0927101F0927201609340018C
:1014800070934101809342019093430180917C02CB
:1014900090917D0280FF06C080915C018C1711F055
:1014A0008430B9F480917C0290917D0287FF4EC018
:1014B0001092EB011092EC011092ED011092EE01EE
:1014C00080917C0290917D02986090937D02809340
:1014D0007C0280917C0290917D028F7790937D02B7
:1014E00080937C026091CC027091CD028091CE02FB
:1014F0009091CF0228E130E040E050E00E94F225D8
:10150000672B682B692B49F480917C0290917D02B6
:10151000846090937D0280937C0280917C02909104
:101520007D0281FF05C080914B018F5F80934B014D
:1015300080917A0290917B02882781159048D1F49E
:1015400080914A018F5F80934A0114C08091EB0122
:101550009091EC01A091ED01B091EE010196A11DD9
:10156000B11D8093EB019093EC01A093ED01B0933A
:10157000EE01A6CFCF911F910F91FF90EF90DF90DA
:10158000CF900895AF92BF92CF92DF92EF92FF92E9
:101590000F931F93CF93DF93C82FA62EB42ED22F75
:1015A00067017801807F803F11F46C2F15C0809116
:1015B0003C028C1739F06C2F89ED92E00E946E018D
:1015C000C0933C02DD2361F06A2D89ED92E00E9418
:1015D0006E01D23028F06B2D89ED92E00E946E01F1
:1015E00061E081E10E941B0384E1C80ED11CE11C73
:1015F000F11CC092F001D092F101E092F201F09260
:10160000F301DF91CF911F910F91FF90EF90DF9049
:10161000CF90BF90AF900895CF92DF92EF92FF925C
:101620000F931F93FC016E3008F06E50677060647A
:1016300060937C0080917A00806480937A0080912E
:101640007A0086FDFCCF609178008091790070E08F
:10165000782B808191818F3F5FEF950719F471831B
:101660006083F0C0DB01A81BB90BCD01B7FF03C03D
:1016700091958195910905970CF4E4C0718360837D
:10168000423809F465C068017901942F433828F481
:10169000403851F0413869F197C0433809F47DC0B2
:1016A000443809F46CC090C0CB010E943002BC01E8
:1016B000990F880B990B0E943F2720E030E040E013
:1016C00054E40E94232620E030E040E451E40E94EC
:1016D000EF2720E030E84FEF53E40E9495260E9468
:1016E00007276093730280917E02816080937E025F
:1016F00029C0643071053CF06C3FB3E07B072CF0EF
:101700006FEF73E002C060E070E0072E000C880B02
:10171000990B0E943F2720E030EC4FE754E40E94F1
:10172000952620E030E04AE753E40E94EF2720E0CE
:1017300030E040EF51E40E9424260E940727CB01AD
:101740000E947702809179028160809379027AC049
:10175000643071053CF06C3F53E075072CF06FEF7F
:1017600073E002C060E070E043E0759567954A95CC
:10177000E1F76093400281E080933F02E3CF643061
:1017800071053CF06C3F83E07807E4F11092410270
:10179000D9CF81E080934102D5CFCB010E943002A6
:1017A00024E0880F991F2A95E1F7AC01440F452FDB
:1017B000441F550B4F77682F6F7780915F02870129
:1017C000760122E0806E1BC0643071053CF06C3FF6
:1017D000A3E07A072CF06FEF73E002C060E070E0E6
:1017E000191684F5AB0183E0559547958A95E1F785
:1017F00080915F028701760122E0692F806B0E9451
:10180000C20A20C06A30710524F2072E000C880B32
:10181000990B0E943F2720E030E046E153E40E940C
:10182000EF2720E030EC4FE754E40E94952620E0BB
:1018300030E040E251E40E9424260E940E2760938B
:10184000410280CF1F910F91FF90EF90DF90CF90DA
:1018500008952F923F924F925F926F927F928F9254
:101860009F92AF92BF92CF92DF92EF92FF920F932F
:101870001F93CF93DF9300D000D0CDB7DEB71B010D
:101880002C014A018EE591E09C838B83C12CD12CE5
:10189000EB81FC819081911123C0FFEFCF1ADF0A09
:1018A0008B819C8101969C838B8390E1C916D10426
:1018B00079F70F900F900F900F90DF91CF911F91BC
:1018C0000F91FF90EF90DF90CF90BF90AF909F90DF
:1018D0008F907F906F905F904F903F902F900895E2
:1018E000BC2CBB0CBB0CBB0C38E03B0DAA24A39456
:1018F00034016C0C7D1C8A2D8923E1F08114910444
:1019000021F0F30180818A21A9F480915F02820194
:10191000710122E040E06B2D80693A8399830E9437
:10192000C20AEB81FC8120818A2D809582238083ED
:1019300099813A81B394AA0CB312DDCFAECFEF9266
:10194000FF920F931F93CF93DF93D82F10923C02F7
:10195000C0E00E94C103D11102C04FE701C040E0C6
:101960007B018C0122E06AE78C2F806B0E94C20A07
:10197000CF5FC03171F7DF91CF911F910F91FF9031
:10198000EF9008950F931F93CF93DF93EC018B019A
:10199000909160027091720220E030E040E050E8E7
:1019A000F901EF59FD4FDA01A023B123AB2B11F060
:1019B000908308C0DA01AC23BD23AB2B11F07083F8
:1019C00001C01082569547952F5F3F4F203131055A
:1019D00039F7DF91CF911F910F9108959B018031CD
:1019E00091055CF41216130644F4FC01EF59FD4F07
:1019F0004083215031090196F2CF0895CF92DF92B2
:101A0000EF92FF92CF93C62F482F082E000C550B54
:101A1000660B770B4031510508F0F5C0FA01E1592A
:101A2000FF4F0C947C2880917C0290917D0221E0F4
:101A3000822790937D0280937C0280917C0290911A
:101A40007D0280FD11C080917C0290917D028068B2
:101A500090937D0280937C0210923C0110923D0194
:101A600010923E0110923F0160917C0270917D02C4
:101A70006170772786E690E048C080917C02909163
:101A80007D0281FF13C080917C0290917D02806174
:101A900090937D0280937C0280917C0290917D02E4
:101AA0008D7F90937D0280937C0226C080917C0282
:101AB00090917D02886090937D0280937C0280915A
:101AC0007C0290917D02806490937D0280937C02E1
:101AD00080917C0290917D02886090937D0280933A
:101AE0007C0280917C0290917D02826090937D02C5
:101AF00080937C020E947D0960917C0270917D023E
:101B000076956795617087E690E00E9465047EC0D7
:101B100064E18602C001112473C080917C0290911F
:101B20007D0280FF08C010925C0180917C02909140
:101B30007D02806154C00E94C1036B017C018091D1
:101B4000380190913901A0913A01B0913B018C1577
:101B50009D05AE05BF05B0F4A7019601281B390B02
:101B60004A0B5B0B283E73E037074105510550F4E3
:101B700060E67AEE80E090E00E94F225C9010E94C2
:101B80007702C1E0C0923801D0923901E0923A0167
:101B9000F0923B0138C080917C0290917D0280FFE1
:101BA00004C084E00E94AC092EC08091480190914D
:101BB0004901459744F1809148019091490101976D
:101BC0001FC080917C0290917D0280FF0DC084E057
:101BD00080935C0180917C0290917D028062909361
:101BE0007D0280937C020FC0809148019091490151
:101BF0008C32914044F480914801909149010196C2
:101C00000E94770203C0CC2309F4AFC340E060E137
:101C100070E080E090E00E94EE0C20917C02309118
:101C20007D02909160028091710220FF11C090931B
:101C3000610220917C0230917D0220FF982F9093C9
:101C4000620280936E0280936F02809370028DC354
:101C5000282F8093610240917C0250917D0241FFC8
:101C600002C0392F01C0382F3093620240914801E1
:101C700050914901493251050CF459C06091480115
:101C8000709149014CE350E0FA01E61BF70B1E1678
:101C90001F0654F46091480170914901461B570B8F
:101CA0004530510544F009C0409148015091490127
:101CB0004134510514F4392F40C0609148017091AE
:101CC00049014CE350E0FA01E61BF70B1E161F0614
:101CD00054F46091480170914901461B570B4C30F8
:101CE000510544F107C040914801509149014834E1
:101CF000510504F160914801709149014CE350E0B5
:101D0000FA01E61BF70B1E161F0654F460914801FA
:101D100070914901461B570B4431510544F00CC0EA
:101D20004091480150914901403551052CF43091C2
:101D3000720203C0382F01C030E03093640260911A
:101D400048017091490140E550E0FA01E61BF70BAC
:101D50001E161F0654F46091480170914901461BFC
:101D6000570B4530510544F009C04091480150914E
:101D700049014535510514F4392F40C0609148019F
:101D80007091490140E550E0FA01E61BF70B1E1681
:101D90001F0654F46091480170914901461B570B8E
:101DA0004C30510544F107C0409148015091490120
:101DB0004C35510504F1609148017091490140E5AD
:101DC00050E0FA01E61BF70B1E161F0654F4609153
:101DD000480170914901461B570B4431510544F0AD
:101DE0000CC04091480150914901443651052CF4F2
:101DF0003091720203C0382F01C030E03093650289
:101E0000609148017091490144E650E0FA01E61BF7
:101E1000F70B1E161F0654F460914801709149019A
:101E2000461B570B4530510544F009C0409148010D
:101E3000509149014936510514F4392F40C0609141
:101E400048017091490144E650E0FA01E61BF70BA6
:101E50001E161F0654F46091480170914901461BFB
:101E6000570B4C30510544F107C040914801509147
:101E700049014037510504F16091480170914901D1
:101E800044E650E0FA01E61BF70B1E161F0654F459
:101E90006091480170914901461B570B443151052F
:101EA00044F00CC040914801509149014837510518
:101EB0002CF43091720203C0382F01C030E030930F
:101EC0006602609148017091490148E750E0FA01CB
:101ED000E61BF70B1E161F0654F460914801709123
:101EE0004901461B570B4530510544F009C040914C
:101EF0004801509149014D37510514F4392F40C024
:101F0000609148017091490148E750E0FA01E61BF1
:101F1000F70B1E161F0654F4609148017091490199
:101F2000461B570B4C30510544F107C04091480106
:101F3000509149014438510504F160914801709174
:101F4000490148E750E0FA01E61BF70B1E161F0691
:101F500054F46091480170914901461B570B44317C
:101F6000510544F00CC040914801509149014C3852
:101F700051052CF43091720203C0382F01C030E0BB
:101F80003093670260914801709149014CE850E03C
:101F9000FA01E61BF70B1E161F0654F46091480168
:101FA00070914901461B570B4530510544F009C05B
:101FB00040914801509149014139510514F4392F9C
:101FC00040C060914801709149014CE850E0FA012D
:101FD000E61BF70B1E161F0654F460914801709122
:101FE0004901461B570B4C30510544F107C0409145
:101FF0004801509149014839510504F16091480167
:10200000709149014CE850E0FA01E61BF70B1E16EF
:102010001F0654F46091480170914901461B570B0B
:102020004431510544F00CC04091480150914901A0
:10203000403A51052CF43091720203C0382F01C090
:1020400030E030936802609148017091490140EAA4
:1020500050E0FA01E61BF70B1E161F0654F46091C0
:10206000480170914901461B570B4530510544F01A
:1020700009C04091480150914901453A510514F475
:10208000392F40C0609148017091490140EA50E009
:10209000FA01E61BF70B1E161F0654F46091480167
:1020A00070914901461B570B4C30510544F107C054
:1020B00040914801509149014C3A510504F1609119
:1020C00048017091490140EA50E0FA01E61BF70B24
:1020D0001E161F0654F46091480170914901461B79
:1020E000570B4431510544F00CC0409148015091C8
:1020F0004901443B51052CF43091720203C0382F42
:1021000001C030E03093690260914801709149014B
:1021100044EB50E0FA01E61BF70B1E161F0654F4C1
:102120006091480170914901461B570B453051059C
:1021300044F009C04091480150914901493B510583
:1021400014F4392F40C0609148017091490144EB6B
:1021500050E0FA01E61BF70B1E161F0654F46091BF
:10216000480170914901461B570B4C30510544F111
:1021700007C04091480150914901403C510504F18C
:10218000609148017091490144EB50E0FA01E61B6F
:10219000F70B1E161F0654F4609148017091490117
:1021A000461B570B4431510544F00CC04091480187
:1021B00050914901483C51052CF43091720203C002
:1021C000382F01C030E030936A026091480170916D
:1021D000490148EC50E0FA01E61BF70B1E161F06FA
:1021E00054F46091480170914901461B570B4530EA
:1021F000510544F009C040914801509149014D3CBE
:10220000510514F4892F3EC0609148017091490135
:1022100048EC50E0FA01E61BF70B1E161F0654F4BB
:102220006091480170914901461B570B4C30510594
:102230004CF107C04091480150914901443D51057E
:102240000CF1609148017091490148EC50E0FA01AD
:10225000E61BF70B1E161F0654F46091480170919F
:102260004901461B570B4431510544F00AC04091C7
:102270004801509149014C3D51051CF48091720276
:1022800001C080E080936B02409148015091490168
:10229000403F51052CF08091720280936C025FC028
:1022A00060914801709149014CED50E0FA01E61B44
:1022B000F70B1E161F0654F46091480170914901F6
:1022C000461B570B4530510544F009C04091480169
:1022D00050914901413E510514F4292F3EC06091AF
:1022E0004801709149014CED50E0FA01E61BF70BF3
:1022F0001E161F0654F46091480170914901461B57
:10230000570B4C3051054CF107C04091480150919A
:102310004901483E51050CF1409148015091490155
:102320002CED30E0B901641B750B1616170654F43A
:102330004091480150914901241B350B243131054E
:1023400044F00AC02091480130914901203F3105F5
:102350001CF42091720201C020E020936C02909343
:102360006E0290936F0290937002CF91FF90EF9066
:10237000DF90CF90089580E090E0FC01EF59FD4F91
:102380001082019680319105C1F708951F920F9236
:102390000FB60F9211242F933F934F935F938F9318
:1023A0009F93EF93FF93419880914401882341F0DC
:1023B0008091440180958093B200109244016CC0DA
:1023C0008091EF018F5F8093EF01809145018F3005
:1023D00018F05D985F9A5D9A5F985D985D9A80911C
:1023E00045019FE0981B292F30E0F901EF59FD4F7F
:1023F00080818111419A80958093440140914601EA
:1024000041111EC01A9B10C040914701042E000CC0
:10241000550B42175307C9F0909378024091780208
:102420004093470142E30FC040914701042E000C46
:10243000550B2417350749F44FEF4093470105C06A
:10244000409146014150409346014E9B0DC0409142
:102450007602042E000C550B2417350781F090935B
:1024600077029091770209C040917602042E000C09
:10247000550B2417350719F49FEF9093760290912E
:102480004501911102C09FE003C090914501915018
:10249000909345018093B200FF91EF919F918F91AE
:1024A0005F914F913F912F910F900FBE0F901F9012
:1024B0001895FF920F931F93CF93DF931F92CDB781
:1024C000DEB7F42E082F10E0C80169830E94AA2508
:1024D00069818F1541F0681728F46F2DC8010E949B
:1024E000650401C0F82E8F2D0F90DF91CF911F91C1
:1024F0000F91FF900895CF93DF93CDB7DEB7689724
:102500000FB6F894DEBF0FBECDBF789484B582605D
:1025100084BD84B5816084BD85B5826085BD85B587
:10252000816085BD80916E00816080936E00109205
:102530008100809181008260809381008091810080
:102540008160809381008091800081608093800011
:102550008091B10084608093B1008091B00081606F
:102560008093B00080917A00846080937A0080919B
:102570007A00826080937A0080917A0081608093F3
:102580007A0080917A00806880937A001092C1006E
:1025900040E06FEF8AE60E94591210927A0280930F
:1025A0007B0240E06FEF89E60E94591220917A0287
:1025B00030917B02282B30937B0220937A020E9479
:1025C0009D04E091E902F091EA0282E08083E091CB
:1025D000E502F091E6021082E091E702F091E80254
:1025E0008FE380831092F102E091ED02F091EE0210
:1025F00086E08083E091EB02F091EC0280818061C3
:102600008083E091EB02F091EC028081886080830E
:10261000E091EB02F091EC02808180688083E09190
:10262000EB02F091EC0280818F7D808389ED92E056
:102630000E94B5011092870210923C02109286020D
:102640001092880240E06FE085E60E945912809364
:102650005F024FEF6FE084E60E9459128093AC0254
:1026600049E16FEF88E60E9459128093AB02109205
:1026700036021092380291E090933B0210925E0273
:1026800084E6809340022FE72093A70290933F02B5
:1026900010925D0210925C021092A9021092A802A0
:1026A00090E19093A6021092F70110927E0280931F
:1026B00041021092F6011092F50110928B021092D5
:1026C0008C0210928D0210928E0210927302109260
:1026D00037028FEF9FE390933A0280933902FF24F1
:1026E000FA94F0925D01109294021092930210926B
:1026F0004302109242021092BF021092C002109246
:10270000BE021092BD0240E06FEF8CE60E945912AB
:10271000082F10E0102F002740E06FEF8BE60E949B
:102720005912C8018827907A0091F8011091F90197
:1027300000781F75082B192B01601093F901009385
:10274000F801F0926E01EAEFF1E081E0819322E07E
:10275000EA30F207D9F7EEE5F1E0119231E0EE361A
:10276000F307D9F761E08DE00E944B0310929602C7
:10277000109297021092980210929902109295026C
:102780001092C5021092C60281E0809379021092E5
:10279000C7021092C8021092C9021092CA02109287
:1027A000C1021092C2021092C3021092C40210928F
:1027B00038011092390110923A0110923B01F894BD
:1027C00010927D0210927C021092520110925B01D5
:1027D00040E061E086E60E945912882349F080912A
:1027E0007C0290917D02816090937D0280937C02B7
:1027F00040E061E087E60E945912882349F0809109
:102800007C0290917D02826090937D0280937C0295
:1028100010924B0110925C0186E090E090933E0292
:1028200080933D02109240011092410110924201AA
:102830001092430110926F01109270011092710179
:10284000109272010E947D0988E790E090934901FF
:10285000809348018BEA9AEAA6EAB1E480934C019E
:1028600090934D01A0934E01B0934F0110928202BC
:1028700010928302109284021092850262E082E03C
:102880000E944B0362E083E00E944B0362E084E01D
:102890000E944B038AE799E0909301018093000125
:1028A00080916900836080936900E89A87E799E0E6
:1028B0009093030180930201809169008C60809362
:1028C0006900E99A10924A011092800210927F02E8
:1028D00010923C0110923D0110923E0110923F0176
:1028E00010925101109250011092810280917A024F
:1028F00090917B0288278115904839F561E082E14B
:102900000E944B0360E08EE00E944B0362E083E193
:102910000E944B036AE070E080E090E00E94870331
:1029200035990EC08FEF809380028091680082609D
:102930008093680010926C0080916C00816003C0ED
:1029400080916C008E7F80936C00789461E085E0CC
:102950000E944B0361E087E00E944B0360E08AE045
:102960000E944B0360E086E00E944B0361E08FE031
:102970000E944B0362E08CE00E944B0361E088E020
:102980000E944B0361E081E10E944B0361E080E122
:102990000E944B0361E089E00E944B0380E090E0DD
:1029A000FC01EF59FD4F1082019680319105C1F76E
:1029B0008FEF809378028093470180937702109283
:1029C00046019FE090934501109244011092A202AB
:1029D0001092A3021092A4021092A5021092F0018C
:1029E0001092F1011092F2011092F30110929E02E6
:1029F00010929F021092A0021092A10210929A02CD
:102A000010929B0210929C0210929D021092AA02B8
:102A10001092EF012CED35E0309375022093740293
:102A20008093600289E18093710284E08093720256
:102A30001092B00083E08093B10081E08093700039
:102A40001092B200789480917A0290917B0297FD67
:102A500010C062E08BE00E944B0360E083E10E94C3
:102A60004B0360E082E10E944B0360E08EE00E9435
:102A70004B038FEF9FEF90937B0380937A039093A8
:102A80007903809378039093770380937603109271
:102A9000CB020E949D048CE00E94F202892B29F057
:102AA00080917702883059F5E0C38091720280935B
:102AB0006102809362028093630280936402809338
:102AC00065029091600290936602809367029093F2
:102AD00068028093690280936A0280936B028093FC
:102AE0006C0280936D0280936E0290936F028093CC
:102AF00070028CE00E94F202892BD9F3D1CF40E022
:102B00006FEF83E60E945912823209F0AEC38091C2
:102B1000AB0287FF03C081E00E949F0C0E94C103AB
:102B20004B015C014C9B07C080917C0290917D021F
:102B300090FFECC306C080917C0290917D0290FDD5
:102B4000F0C380917C0290917D0280FDDBC080917A
:102B5000500190915101892B09F456C060915001A8
:102B600070915101072E000C880B990B0E943F2792
:102B700020E030E040E451E40E94952660934C014F
:102B800070934D0180934E0190934F0120E030E00F
:102B900040EC51E40E94EF279B01AC0160E070E63D
:102BA0008AE697E40E9495260E9407272091480113
:102BB000309149012617370749F070934901609316
:102BC00048018091790281608093790210925101CD
:102BD00010925001C501B4010E943D27609382020A
:102BE0007093830280938402909385028091810286
:102BF00091E0980F909381028C3020F481E00E9444
:102C0000B909F4CF10928102809180028F3F29F49C
:102C1000809181028C3008F075C080917C02909187
:102C20007D0286FF15C020914C0130914D014091ED
:102C30004E0150914F01C501B4012D8B388F4E8B41
:102C40005F8B0E943D272D89388D4E895F8950C04A
:102C500040908202509083026090840270908502BE
:102C6000C501B4010E943D276B017C019B01AC01B1
:102C7000C301B2010E94902687FF44C08091810267
:102C80008F5F8093810281E00E94B90920914C01FD
:102C900030914D0140914E0150914F01609182025F
:102CA0007091830280918402909185020E94242673
:102CB00060938202709383028093840290938502D2
:102CC00060918202709183028091840290918502CA
:102CD000A70196010E94902687FF14C020914C0105
:102CE00030914D0140914E0150914F01C701B60105
:102CF0000E94242660938202709383028093840250
:102D00009093850280917C0290917D028F7B9093BD
:102D10007D0280937C0280917C0290917D0281FFF4
:102D200030C080917C0290917D0284FF08C06CEFDE
:102D300089ED92E00E946E0110924B0113C08091C8
:102D40007C0290917D0283FF02C06AEF07C08091F0
:102D50007C0290917D0285FF05C06BEF89ED92E0CA
:102D60000E946E0180914B011816C4F480914B01B2
:102D7000815080934B0168EF89ED92E00E946E01D3
:102D80000DC080917C0290917D0284FF05C06CEFA4
:102D900089ED92E00E946E0110924B0180917C02BD
:102DA00090917D02877C90937D0280937C0280913C
:102DB00080028F3F19F181110EC080914A018C3041
:102DC000ECF0449A80914A018C5080934A0181E052
:102DD0008093800213C090917F02981579F08092C1
:102DE0007F028F5F843118F48093800202C01092BA
:102DF0008002809180028A3009F4449880917C029C
:102E000090917D0282FF1AC061E080E10E941B0365
:102E1000D501C4010596A11DB11D80939E0290931A
:102E20009F02A093A002B093A10280917C02909196
:102E30007D028B7F90937D0280937C02BE016F5F49
:102E40007F4F3B0180E1FB0111928A95E9F713E086
:102E500090915B01809152019817D1F080917C0292
:102E600090917D0280FF0DC08091AB0284FD66C20F
:102E700008C08B3F08F06FC2883F19F483E00E94BE
:102E8000B90980915B018F5F877080935B01E0CF10
:102E900014012501F4E12F0E311C411C511C89ED58
:102EA00092E00E943701892B09F473C289ED92E008
:102EB0000E941501AC01807F9927803F910509F0A0
:102EC00051C055274A3F5105D1F024F4483F5105E0
:102ED00041F0E5CF4B3F510501F14C3F510581F1E8
:102EE000DECF80917C0290917D0280FFD8CF8091CF
:102EF000AB0283FFD4CF82E00E94B909D0CF80918A
:102F00007C0290917D0280FFCACF8091AB0283FF4B
:102F1000C6CF82E00E94AC09C2CF80917C02909122
:102F20007D0280FFBCCF8091AB0283FFB8CF32E03F
:102F300030935C0180917C0290917D02806224C27A
:102F400080917C0290917D0280FFA9CF8091AB029D
:102F500083FFA5CF10925C0180917C0290917D024D
:102F6000806112C247FF15C0109288024093870209
:102F7000803C910531F0803D910519F0803A910532
:102F800021F421E0209386028ACF32E0309386023A
:102F900086CF90918702992309F481CFE09188022E
:102FA00021E02E0F209388020E2E000CFF0BE75716
:102FB000FD4F4083D0908602022E000C330B4D2D26
:102FC00050E0241735070CF46ACF1092880261E0B4
:102FD00088E09D8B0E941B032092A2023092A302E4
:102FE0004092A4025092A5028091AC029D898F3F2D
:102FF00021F0292F2F7028134AC0392F307FC0901D
:10300000AB02303921F0303BE1F0303809F5C1FC3A
:1030100004C08091AA0283FF0CC0850174012D2D8C
:1030200040918A0260918902892F388F0E94C20ADA
:10303000388DD0908902C0908A02303909F0C7C01B
:1030400031C0C5FE05C080918902883708F027CFBE
:10305000C2FC04C08091AA0283FF0CC085017401E8
:103060002D2D40918A0260918902892F388F0E940C
:10307000C20A388DC0FE13CF80915F0285017401B2
:103080002D2D40918A0260918902832B08C0850111
:1030900074012D2D40918A0260918902892F0E942E
:1030A000C20AFDCECC2009F495C0DD2009F492C0FF
:1030B0009091AA0293FF19C08091F8019091F901B3
:1030C00097FFEDCE80915D018F3F09F4E8CED81ACD
:1030D000D092730280917E02816080937E02809103
:1030E0007902816080937902DACE60915C027091FE
:1030F0005D02E4E4F2E000E010E08FEF20E030E079
:10310000AD2DB0E0261737078CF4419151917A012B
:10311000E894E7F8FF24EA16FB0609F4822F57FF2C
:1031200002C00F5F1F4F2F5F3F4FECCF1093A902DC
:103130000093A80287FD16C00115110599F0880FAC
:10314000990BFC01EC5BFD4F2081318137FDA7CE4F
:103150003068318320830F5F1F4F1093A9020093C3
:10316000A8029DCE0115110591F410925D021092F6
:103170005C0292FF0AC080917C0290917D0280687F
:1031800090937D0280937C0202C00E947D09209171
:103190005C0230915D022B3031050CF080CEF901DC
:1031A000EE0FFF1FEC5BFD4F8D2D90E090689C298A
:1031B000918380832F5F3F4F30935D0220935C02A9
:1031C0000F5F1F4F1093A9020093A80248C0303828
:1031D00009F065CE20915C0230915D02E4E4F2E0FA
:1031E000A0E0B0E0FF24FA9460E070E08D2D90E064
:1031F000621773079CF4408151818A010F77112770
:103200000817190729F45F7751834083F62E02C00F
:1032100057FD11966F5F7F4F3296EACFB093A902A8
:10322000A093A8028091AA0282FD39CEF7FC37CE86
:103230008F2DFF0C990BFC01EE0FFF1FEC5BFD4F78
:10324000215031098217930734F40196428153814A
:1032500041935193F7CF30935D0220935C028091AC
:103260007E02816080937E021ACE10925F028FEF01
:103270008093AC0289E18093AB0210927D021092A0
:103280007C028AE190E090937B0280937A0280E056
:1032900090E29093F9018093F80160E085E690E078
:1032A0000E9465046091AC0284E690E00E9465048F
:1032B00069E188E690E00E94650460E086E690E0BF
:1032C0000E94650460E087E690E00E9465040E9429
:1032D000E7040E949D040E94F70862E283E690E002
:1032E0000E9465044091600260E170E080E090E03F
:1032F0000E94EE0C68EE73E080E090E00E9487038D
:103300008091790281608093790201CC80917C0266
:1033100090917D02916090937D0280937C028BEF6F
:103320000AC080917C0290917D029E7F90937D02E5
:1033300080937C028CEF0E94660903CCE0915B01D4
:10334000F0E0ED5AFE4F80818A3F09F092CD83E094
:103350000E94AC0996CD8B3F41F410935C018091A3
:103360007C0290917D0280620AC08C3F09F089CD79
:1033700010925C0180917C0290917D02806190931B
:103380007D0280937C027DCD90937D0280937C02B0
:1033900086CD8091AA0282FD0EC08091A8029091F4
:1033A000A902892B41F480915C0290915D02892BE6
:1033B00011F00E94E40880917E0280FF09C00E9403
:1033C000F30480917E028E7F80937E0210923C02F5
:1033D00080917C0290917D0293FF0BC08091F5015A
:1033E0009091F601892B29F02091A60221110C94CD
:1033F0006B2380918F0290919002A0919102B091E5
:1034000092020097A105B10531F088159905AA052A
:10341000BB0538F014C08091F5019091F601892B1D
:1034200071F440E050E0C501B4010E94290C1092F3
:103430008F0210929002109291021092920280914B
:10344000960290919702A0919802B09199028815E6
:103450009905AA05BB05C8F410919502612F8DE06E
:103460000E941B0381E0111180E080939502D50139
:10347000C4018C509E4FAF4FBF4F809396029093E4
:103480009702A0939802B09399028091A202909122
:10349000A302A091A402B091A5020097A105B105D5
:1034A00089F088159905AA05BB0560F460E088E0FD
:1034B0000E941B031092A2021092A3021092A40277
:1034C0001092A5028091F0019091F101A091F2017A
:1034D000B091F3010097A105B10589F08815990510
:1034E000AA05BB0560F460E081E10E941B03109215
:1034F000F0011092F1011092F2011092F30180910B
:103500009E0290919F02A091A002B091A10200970B
:10351000A105B10589F088159905AA05BB0560F4D8
:1035200060E080E10E941B0310929E0210929F02B5
:103530001092A0021092A102C0909A02D0909B0219
:10354000E0909C02F0909D02D701C6018C599F4FDC
:10355000AF4FBF4F88169906AA06BB06D8F18CE07C
:103560000E94F2022091AA02892BD9F420FD04C006
:1035700021602093AA0226C021FD2CC080917402F4
:1035800090917502C80ED91EE11CF11CC814D90413
:10359000EA04FB04F8F42A602093AA021092EF01D7
:1035A00019C020FF17C021FD08C023FF02C0277FDC
:1035B00002C084E028272093AA028091AA028C7F6F
:1035C0008093AA0280929A0290929B02A0929C02FF
:1035D000B0929D026091AA0263FF06C06091EF0164
:1035E000661F6627661F03C062FB662760F989E0D5
:1035F0000E941B0380917902482F4170542E982F0E
:103600009E7F90937902109178021F3F89F02FEFEF
:1036100020937802B501A401405F584D6F4F7F4F52
:103620004093C7025093C8026093C9027093CA02C4
:10363000209177022F3F41F42091C602233091F56B
:1036400024E02093C6022EC03FEF309377024091D2
:10365000C50250E0622F022E000C770B641775072D
:1036600021F43091C602343079F42093C50221E070
:103670002093C6021092C1021092C2021092C3029D
:103680001092C40255245394B501A401405F584DD3
:103690006F4F7F4F4093C7025093C8026093C90297
:1036A0007093CA02209176022F3F09F440C09260C5
:1036B000909379028091C1029091C202A091C302BD
:1036C000B091C4020097A105B10599F480917402EC
:1036D00090917502A5019401280F391F411D511DBC
:1036E0002093C1023093C2024093C3025093C4029C
:1036F0002AC088159905AA05BB0528F58091C60240
:10370000823020F482E08093C6020EC083E0809372
:10371000C6028FEF9FEFDC018093C1029093C2023B
:10372000A093C302B093C402552453940CC08C7F61
:103730008460809379021092C1021092C2021092AA
:10374000C3021092C4028091C7029091C802A09156
:10375000C902B091CA020097A105B105B9F0881558
:103760009905AA05BB0590F480917A0284FF04C0F4
:103770001092C5021092C6021092C7021092C8029F
:103780001092C9021092CA0255245394E091C502C6
:103790008E2F90E08C30910508F0F9C6FC01EC5CAE
:1037A000FF4F0C947C288091C602833008F4EFC64A
:1037B0008091F80180FD18C081FD0CC082FD0CC015
:1037C00083FD0CC084FD0CC085FD0CC086FF0CC0C1
:1037D00080E80BC082E009C084E007C080E105C03A
:1037E00080E203C080E401C088E01F3F49F0E12F80
:1037F000110FFF0BE650FE4F90819827908307C072
:10380000511005C09091F701992309F4C4C6509155
:10381000710260917202EAEFF1E020E030E0419144
:10382000942F982331F4942F917040FF03C0962F6A
:1038300001C0952FD901AF59BD4F9C932F5F3F4FCA
:103840002031310561F78091F5019091F601892BC6
:1038500041F0E091F401F0E080916002EF59FD4FFA
:1038600080831092F70197C68091C602833060F181
:10387000103100F52FE030E0211B310917FD3395A1
:1038800081E090E002C0880F991F2A95E2F79C0121
:103890002F71232B79F020917A0230917B028227BD
:1038A000932790937B0280937A020E94E7040E9400
:1038B0009D0403C0552009F46EC660917A02709190
:1038C0007B028FE19FEF4CC0103120F41F5F1093FB
:1038D000A60203C0552009F45EC60E94BB110091E8
:1038E000A60210E04091720272C38091C60283303A
:1038F000D0F1103160F52FE030E0211B310917FDC8
:10390000339581E090E002C0880F991F2A95E2F775
:103910009C012F77307A232BD1F02091F801309140
:10392000F901AC014F775527452B41F02078822BC8
:10393000932B9093F9018093F8010CC08227932771
:103940009093F9018093F8010E94F70803C0552075
:1039500009F421C66091F8017091F9018FE790EAAE
:103960000E94C20C18C61C30C1F05CF4163008F07E
:1039700094C01093360280917E02816080937E0213
:103980008FC01E3009F478C00CF44DC01F3009F010
:1039900084C0EAEFF1E081E07AC00AEF11E0F801BB
:1039A0008081817080838823B1F10E949C2528E06A
:1039B00030E040E050E00E94C0256530710581058F
:1039C000910509F174F46330710581059105B9F031
:1039D0006430710581059105F1F4F80180818460FE
:1039E00019C0663071058105910589F06730710550
:1039F0008105910581F4F801808182610BC0F80195
:103A00008081886007C0F8018081826003C0F8016E
:103A10008081806180830F5F1F4FF2E00A301F07B3
:103A200009F0BDCF3AC00AEF11E0FF24F39489E01A
:103A3000E82E0E949C2525E030E040E050E00E9406
:103A4000C02597FD10C0623071058105910544F0D5
:103A5000643071058105910531F4F801E08205C0FB
:103A6000F801108202C0F801F0820F5F1F4FF2E0F0
:103A70000A301F07F1F611C0EAEFF1E0119222E0DF
:103A8000EA30F207D9F780E18093A60206C081935D
:103A900032E0EA30F307D9F7F6CF552009F47BC5B9
:103AA0000E94BB1110917102412F66E070E080E02E
:103AB00090E00E94EE0CE0913602F0E0809160020E
:103AC000EF59FD4F8083412F64E070E08CE090E07F
:103AD000B0C48091C602833048F11C3040F410938A
:103AE000370280917E02816080937E0203C0552060
:103AF00009F451C50E94BB11409171026CE070E065
:103B000080E090E00E94EE0C80917202809362024D
:103B100080936402809367028093690280936B02B2
:103B2000E09137020E2E000CFF0BB0C4173048F4A2
:103B300013501093380280917E02816080937E0240
:103B400003C0552009F427C50E94BB1140917202A1
:103B500067E070E080E090E00E94EE0C80917102DE
:103B600080936402E091380209C58091C6028330D7
:103B700008F413C117FD7FC0812F110F990BAA0BF9
:103B8000BB0B8031910508F070C0FC01E05CFF4F79
:103B90000C947C288091390290913A028F6F9F603B
:103BA00060C08091390290913A028827907F856D9C
:103BB0009A6057C08091390290913A028827907F8D
:103BC00086659B604EC08091390290913A028827A9
:103BD000907F8A659D6045C08091390290913A023C
:103BE0008827907F856B9A603CC0809139029091C4
:103BF0003A028827907F866D9A6033C0809139029F
:103C000090913A028827907F8A659B602AC08091B4
:103C1000390290913A028827907F8A669D6021C080
:103C20008091390290913A029F781BC080913902AD
:103C300090913A029F78906114C0809139029091DE
:103C40003A029F7890620DC08091390290913A02B9
:103C50009F78906306C08091390290913A029F78D4
:103C6000906490933A028093390280917E02816041
:103C700080937E0203C0552009F48DC40E94BB11BD
:103C800010917202412F68E070E080E090E00E94A5
:103C9000EE0C412F65E070E08BE090E00E94EE0CAE
:103CA000809171028093610280936F0220913902AA
:103CB00030913A02C9019F7086354BE0940779F143
:103CC00080F4853D6AE0960729F1863D7AE0970702
:103CD00081F1853B9A40B1F5809160028093650245
:103CE00031C08A35FDE09F07F9F040F48A359B40EA
:103CF00049F5809160028093670224C08A366DE0A6
:103D00009607E1F08F3F9F40E9F480916002809335
:103D1000610218C0809160028093620213C080919A
:103D20006002809363020EC08091600280936402FF
:103D300009C0809160028093660204C08091600295
:103D400080936802C901882790778115E0E29E0779
:103D5000D1F058F4009791F08115904109F01BC4FF
:103D60008091600280936D0216C4811530E3930741
:103D700079F08115904409F43DC10DC48091600231
:103D800080936C0208C48091600280936E0203C429
:103D90008091600280936F02FEC3143048F41F5F6D
:103DA00010933B0280917E02816080937E0203C06B
:103DB000552009F4F0C30E94BB114091720264E0E7
:103DC00070E080E090E00E94EE0CE0913B02F0E0B9
:103DD0008091600204C18091C6028230B1F40E94D9
:103DE000E40810923C02D12C0E94C1037B018C019B
:103DF00080915F0222E040E06D2D80690E94C20A3E
:103E0000D39450E8D512F0CFC6C38EE0E8E0F1E0DD
:103E1000D30101900D928A95E1F71E3060F4F30111
:103E2000E10FF11D17FDFA95808190E090933E021D
:103E300080933D0203C0552009F4ADC30E94BB111D
:103E4000409172026DE070E080E090E00E94EE0C24
:103E50008091710280936102809363028093660275
:103E60008093690280936C0280936E02F30180E07C
:103E700090E040913D0250913E02219130E0421786
:103E8000530739F420916002FC01EF59FD4F208364
:103E900082C301968E30910561F77DC38091C60281
:103EA000833060F180E1E6E1F1E0D30101900D9211
:103EB0008A95E1F7103148F4F301E10FF11D17FD88
:103EC000FA9580818093A70203C0552009F463C34B
:103ED0000E94BB113091A702209171028FE090E007
:103EE000F301E80FF91F4081FC01EF59FD4F341732
:103EF00008F044C02083019798F74DC380E1E6E1C4
:103F0000F1E0D30101900D928A95E1F711110BC0F8
:103F100080914002811109C080913F02882329F0DD
:103F200010923F0211C0103160F4F301E10FF11D56
:103F300017FDFA9580818093400281E080933F02D3
:103F400003C0552009F427C30E94BB1180913F0292
:103F5000811107C08091600280936102809370029A
:103F60001AC33091400220917102D30180E090E0A9
:103F70004D91FC01EF59FD4F431718F080916002FD
:103F800004C3208301968031910591F704C31F304B
:103F900048F4110F1E5FE12FEE0FEE0F1E0F10936E
:103FA000410208C01F3019F41092410203C055208D
:103FB00009F4F1C20E94BB1180914102882391F063
:103FC0006AE00E945C28082F10E040917102B8015D
:103FD00080E090E00E94EE0C80916002F801E05ACF
:103FE000FD4FD3C24091710260E170E080E090E04B
:103FF0000E94EE0C80916002B1CF8091C6028330A6
:1040000008F479C0103108F043C041E050E002C02C
:10401000440F551F1A95E2F7809142029091430296
:104020004827592750934302409342021092A90215
:104030001092A80280E090E020E330E061E070E0C0
:10404000FB01E423F523EF2B69F08B30910554F449
:10405000FC01EE0FFF1FEC5BFD4FD901BF67B18381
:10406000A0830196660F771F2F5F3F4F20343105E5
:1040700039F790935D0280935C0280917E028160AB
:1040800080937E028091AA0284608093AA0203C07A
:10409000552009F480C2A0914202B09143021091D0
:1040A000600200917102F090720221E030E080E045
:1040B00090E0A9014A235B23FC01EF59FD4F6F01FA
:1040C0008F30910550F4BC01605B7F4FFB010C9475
:1040D0007C28452B31F4402F05C0452B11F44F2D82
:1040E00001C0412FF6014083220F331F019680311A
:1040F0009105F9F650C2812F012E000C990BAA0BE5
:10410000BB0B8031910508F0AEC0FC01E15AFF4FB6
:104110000C947C2810935E0280917E0281608093D3
:104120007E02A4C00E949C2523E030E040E050E0E5
:104130000E94C0256E5F7F4F70935D0260935C02AA
:10414000E4E4CE2EE2E0DE2E00E010E080915C029E
:1041500090915D02081719070CF077C00E949C250A
:104160002CE030E040E050E00E94C0257B01F0E30D
:10417000EF0EF11CE4E4F2E080E090E0801791079C
:104180000CF013C4219131912F7733272E153F0561
:1041900029F30196F3CF80E39FE790934502809344
:1041A000440283E39FE71DC080E39FE790934502AD
:1041B0008093440284E39FE79093470280934602F2
:1041C00087E39FE790934902809348028BE39FE740
:1041D00014C080E39FE7909345028093440284E3F8
:1041E0009FE7909347028093460287E39FE790936F
:1041F0004902809348028AE39FE790934B028093A1
:104200004A0284E090E01DC080E39FE7909345025E
:104210008093440283E39FE708C080E39FE7909385
:1042200045028093440284E39FE790934702809382
:10423000460287E39FE7909349028093480283E018
:1042400090E090935D0280935C0210924302109282
:10425000420280917E02816080937E028091AA0258
:1042600084608093AA02552009F495C10E94BB1175
:104270004091720265E070E080E090E00E94EE0CF8
:10428000E0915E02F0E080916002EF59FD4F808383
:104290004091710266E070E08AE090E0CAC08091CF
:1042A000C602833008F492C0111104C06091AB02C1
:1042B00081E023C0113021F46091AB0282E01DC087
:1042C000123021F46091AB0284E017C0133021F466
:1042D0006091AB0288E011C0143021F46091AB0210
:1042E00080E10BC0153021F46091AB0280E205C083
:1042F000163059F46091AB0280E468276093AB02FA
:1043000088E690E00E94650414C0173079F460914B
:10431000AB0260586093AB0288E690E00E946504AF
:104320008091AB0280780E949F0C03C0552009F455
:1043300032C10E94BB118091AB0280FF03C09091FB
:10434000600202C0909172029093610281FF03C0EB
:104350009091600202C0909172029093620282FF7B
:1043600003C09091600202C0909172029093630228
:1043700083FF03C09091600202C0909172029093FB
:10438000640284FF03C09091600202C090917202A7
:104390009093650285FF03C09091600202C09091E6
:1043A00072029093660286FF03C09091600202C081
:1043B000909172029093670287FF03C08091600220
:1043C00002C08091720280936802E5C0652D812F42
:1043D0000E94FE0CE0C08091C602833068F110316B
:1043E000C8F48091AC0290E0212F012E000C330B19
:1043F0008217930729F48FEF8093AC026FEF03C00D
:104400001093AC02612F84E690E00E9465040E9444
:10441000E40803C0552009F4BEC00E94BB11E0911E
:10442000AC02EF3F91F54091600260E170E080E006
:1044300090E00E94EE0CAFC01031C0F480915F029A
:1044400090E0212F012E000C330B8217930731F0DF
:104450000E94C10340E050E00E94290C10935F02CB
:10446000612F85E690E00E94650403C0552009F4A1
:1044700092C00E94BB114091720260E170E080E046
:1044800090E00E94EE0CE0915F02F0E0809160020B
:10449000EF59FD4F7AC0103108F042C08091790287
:1044A00081FF2DC082FF0BC01092C0021092BF028C
:1044B0001092BE021092BD028B7F80937902A09170
:1044C000BF02AF3078F581E090E0012E02C0880F86
:1044D000991F0A94E2F72091BD023091BE02822B0F
:1044E000932B9093BE028093BD0281E08A0F80934C
:1044F000BF02B0E0A355BD4F13501C9313C01092E0
:10450000C0021092BF021092BE021092BD02135060
:104510001093730280917E02816080937E0202C0BC
:104520005520C9F14091720260E170E080E090E0B6
:104530000E94EE0C2091BD023091BE0228603093A3
:10454000BE022093BD026091710280E090E041E0E4
:1045500050E0FA01E223F323EF2B21F0FC01EF59A5
:10456000FD4F6083440F551F01968031910589F7F7
:10457000E091730283E08E0F803168F40E2E000C00
:10458000FF0B80916002EC59FD4F808304C0652DC4
:10459000812F0E946704D501C40134E0B695A79528
:1045A000979587953A95D1F72091CB02281709F472
:1045B0008EC08093CB0280917E028D7F80937E029D
:1045C00080917C0290917D029B7F90937D028093ED
:1045D0007C02E0907A02F0907B02F7FC78C0C70181
:1045E00088279370811522E0920759F0811533E0F6
:1045F000930759F08115914089F49501840141E0B8
:1046000007C09501840140E803C09501840142E19F
:1046100065E070E08AE793E00E940C0BC7018827F1
:104620009C70811558E0950759F081156CE096074C
:1046300059F08115944089F49501840142E807C03E
:104640009501840143E803C09501840141E164E0E0
:1046500070E088E793E00E940C0BC70188279073F5
:104660008115E0E29E0759F08115F0E39F0759F0AC
:104670008115904189F49501840141E807C09501B5
:10468000840144E803C09501840140E160E070E0EA
:1046900086E793E00E940C0B8BE0F6FE0FC00E94B1
:1046A000F202892BA1F480917C0290917D028068B6
:1046B000966090937D0280937C0209C00E94F20272
:1046C000892B29F480917E02826080937E020E9471
:1046D000D7010C948E156091EB017091EC018091E3
:1046E000ED019091EE0130E040E050E00E94F225B3
:1046F0006093F401672B682B692B01F58091BF0251
:104700008823E1F0E091C002F0E0E355FD4F8081A5
:10471000809373020E94F30410923C028091C002C5
:104720008F5F8093C0029091BF02891710F01092A2
:10473000C00280917902816080937902E091F40156
:10474000F0E0E650FE4F8081482F4170542E80FDEE
:1047500006C02091F8013091F90135FF12C182FDA8
:1047600004C081FB332730F901C032E0398B20903F
:10477000F5013090F60120919302309194022215B8
:10478000330524F01092940210929302282F221FD6
:104790002227221F220F40E0582F50725A8B382FA9
:1047A00038703B8B582F5071452E80748C8B8091C4
:1047B000930290919402223069F0FC01EE0FFF1FEA
:1047C000ED58FE4FC180CC1CCC24CC1C552009F4E4
:1047D0007AC005C0552009F4E2C0CC24C394880FE8
:1047E000991FFC01ED58FE4F308151813F776A8956
:1047F000662321F03D3010F03C500CC0442021F0E5
:10480000343710F4345F06C07C89772319F03530D3
:1048100008F0355080917E0281FD10C08B8988237D
:1048200019F0D090A7020BC080913F02882319F0A5
:10483000D090400204C05F77D52E01C0D12C332325
:1048400009F441C08091AB0286FF14C080916E01D3
:104850008D1581F0388F0E94C1037B018C018091FE
:104860005F0222E04D2D69E2806B0E94C20AD09265
:104870006E01388D80915F028501740122E04D2D1B
:10488000632F8069388F0E94C20A388D832F87700A
:10489000E1E0F0E002C0EE0FFF1F8A95E2F7CF01E2
:1048A000E32FF0E093E0F595E7959A95E1F7DF01C6
:1048B000A25ABE4F9C91982B9C93E60DF71D9081B8
:1048C000892B808341E0809193029091940201961C
:1048D0009093940280939302CC2029F021E08215DA
:1048E00093050CF464CF442329F0A301C501B4015E
:1048F0000E94290C3989323049F410928F021092AB
:104900009002109291021092920233C03989313094
:1049100069F480916F0190917001A0917101B09143
:104920007201880D991DAA1DBB1D1BC0A0914102DB
:10493000AA2319F320916F01309170014091710108
:1049400050917201B0E00E94DF2526E930E040E09E
:1049500050E00E94F225D501C401820F931FA41FCD
:10496000B51F80938F0290939002A0939102B09311
:10497000920280928B0290928C02A0928D02B09251
:104980008E0281E08093F70180917C0290917D02FC
:10499000977F90937D0280937C020C941F1A01965E
:1049A000909394028093930299CF0E949C2520E4D7
:1049B00030E040E050E00E94C025DC01CB01805C8B
:1049C0009F4FAF4FBF4FBA2FA92F982F8827B701FE
:1049D000682B792BF601619371936F010F5F1F4F65
:1049E000B5CBE4E4F2E0DC0120E030E08FEF409171
:1049F0005C0250915D0224173507A4F44081518177
:104A00004D935D938F3F49F060817181482F082E4F
:104A1000000C550B6417750708F480812F5F3F4F1A
:104A20003296E5CF0895E9EDF2E01382128288EE26
:104A300093E0A0E0B0E084839583A683B7838AE205
:104A400091E09183808385EC90E09587848784EC66
:104A500090E09787868780EC90E0918B808B81EC4B
:104A600090E0938B828B82EC90E0958B848B86EC2C
:104A700090E0978B868B118E128E138E148E8FEF93
:104A80009FEF90937B0380937A03909379038093B5
:104A90007803909377038093760308958F929F9283
:104AA000AF92BF92CF92DF92EF92FF92CF93DF93BC
:104AB000EC01688179818A819B816115710581058D
:104AC000910521F464E279ED8BE597E02DE133EF78
:104AD00041E050E00E94C02549015A019B01AC0110
:104AE000A7EAB1E40E94DF256B017C01ACEEB4EFD4
:104AF000A50194010E94ED25DC01CB018C0D9D1DCB
:104B0000AE1DBF1DB7FF03C00197A109B048888340
:104B10009983AA83BB83BC01CD019F77DF91CF919D
:104B2000FF90EF90DF90CF90BF90AF909F908F90CD
:104B300008950E944E25089584E091E00E944E253C
:104B4000089560930401709305018093060190938A
:104B500007010895F999FECF92BD81BDF89A992772
:104B600080B50895262FF999FECF1FBA92BD81BD59
:104B700020BD0FB6F894FA9AF99A0FBE01960895DF
:104B8000052E97FB1EF400940E94D72557FD07D0F1
:104B90000E94F22507FC03D04EF40C94D7255095C3
:104BA0004095309521953F4F4F4F5F4F0895909519
:104BB0008095709561957F4F8F4F9F4F08950E940C
:104BC0001426A59F900DB49F900DA49F800D911D5C
:104BD00011240895B7FF0C94DF250E94DF25821B66
:104BE000930B0895A1E21A2EAA1BBB1BFD010DC059
:104BF000AA1FBB1FEE1FFF1FA217B307E407F5078D
:104C000020F0A21BB30BE40BF50B661F771F881F68
:104C1000991F1A9469F760957095809590959B01FE
:104C2000AC01BD01CF010895A29FB001B39FC001A7
:104C3000A39F700D811D1124911DB29F700D811DC8
:104C40001124911D08955058BB27AA270E943B2686
:104C50000C94B5270E94A72738F00E94AE2720F0B9
:104C600039F49F3F19F426F40C94A4270EF4E09530
:104C7000E7FB0C949E27E92F0E94C62758F3BA172A
:104C8000620773078407950720F079F4A6F50C9462
:104C9000E8270EF4E0950B2EBA2FA02D0B01B901D9
:104CA00090010C01CA01A0011124FF27591B99F0A2
:104CB000593F50F4503E68F11A16F040A22F232FAE
:104CC000342F4427585FF3CF469537952795A795FE
:104CD000F0405395C9F77EF41F16BA0B620B730BA5
:104CE000840BBAF09150A1F0FF0FBB1F661F771F16
:104CF000881FC2F70EC0BA0F621F731F841F48F4CB
:104D0000879577956795B795F7959E3F08F0B0CF53
:104D10009395880F08F09927EE0F9795879508953A
:104D20000E947A2708F481E008950E94A9260C9435
:104D3000B5270E94AE2758F00E94A72740F029F41B
:104D40005F3F29F00C949E2751110C94E9270C9495
:104D5000A4270E94C62768F39923B1F3552391F342
:104D6000951B550BBB27AA2762177307840738F0DA
:104D70009F5F5F4F220F331F441FAA1FA9F335D037
:104D80000E2E3AF0E0E832D091505040E695001CEB
:104D9000CAF72BD0FE2F29D0660F771F881FBB1FA5
:104DA000261737074807AB07B0E809F0BB0B802D83
:104DB000BF01FF2793585F4F3AF09E3F510578F0AF
:104DC0000C949E270C94E9275F3FE4F3983ED4F3BC
:104DD000869577956795B795F7959F5FC9F7880F83
:104DE000911D9695879597F90895E1E0660F771FD5
:104DF000881FBB1F621773078407BA0720F0621B66
:104E0000730B840BBA0BEE1F88F7E09508950E9490
:104E10000E276894B1110C94E92708950E94CE27BB
:104E200088F09F5798F0B92F9927B751B0F0E1F06B
:104E3000660F771F881F991F1AF0BA95C9F714C01B
:104E4000B13091F00E94E827B1E008950C94E82772
:104E5000672F782F8827B85F39F0B93FCCF3869554
:104E600077956795B395D9F73EF4909580957095B1
:104E700061957F4F8F4F9F4F0895E89409C097FB2E
:104E80003EF490958095709561957F4F8F4F9F4F21
:104E90009923A9F0F92F96E9BB279395F695879565
:104EA00077956795B795F111F8CFFAF4BB0F11F428
:104EB00060FF1BC06F5F7F4F8F4F9F4F16C08823CF
:104EC00011F096E911C0772321F09EE8872F762F05
:104ED00005C0662371F096E8862F70E060E02AF046
:104EE0009A95660F771F881FDAF7880F9695879532
:104EF00097F90895990F0008550FAA0BE0E8FEEF07
:104F000016161706E807F907C0F012161306E4078D
:104F1000F50798F0621B730B840B950B39F40A2686
:104F200061F0232B242B252B21F408950A2609F464
:104F3000A140A6958FEF811D811D089597F99F6768
:104F400080E870E060E008959FEF80EC0895002411
:104F50000A941616170618060906089500240A94DE
:104F600012161306140605060895092E0394000C64
:104F700011F4882352F0BB0F40F4BF2B11F460FFF3
:104F800004C06F5F7F4F8F4F9F4F089557FD90581C
:104F9000440F551F59F05F3F71F04795880F97FBFD
:104FA000991F61F09F3F79F08795089512161306B7
:104FB0001406551FF2CF4695F1DF08C016161706E6
:104FC0001806991FF1CF869571056105089408951B
:104FD000E894BB2766277727CB0197F908950E94AD
:104FE00002280C94B5270E94A72738F00E94AE270C
:104FF00020F0952311F00C949E270C94A4271124E3
:105000000C94E9270E94C62770F3959FC1F3950F72
:1050100050E0551F629FF001729FBB27F00DB11D3C
:10502000639FAA27F00DB11DAA1F649F6627B00DCC
:10503000A11D661F829F2227B00DA11D621F739FB5
:10504000B00DA11D621F839FA00D611D221F749FC3
:105050003327A00D611D231F849F600D211D822F0A
:10506000762F6A2F11249F5750409AF0F1F0882331
:105070004AF0EE0FFF1FBB1F661F771F881F91505E
:105080005040A9F79E3F510580F00C949E270C9448
:10509000E9275F3FE4F3983ED4F3869577956795CB
:1050A000B795F795E7959F5FC1F7FE2B880F911D88
:1050B0009695879597F90895991B79E004C0991FF3
:1050C000961708F0961B881F7A95C9F78095089562
:1050D00097FB072E16F4009407D077FD09D00E94A5
:1050E000822807FC05D03EF4909581959F4F089546
:1050F000709561957F4F0895EE0FFF1F0590F49115
:10510000E02D0994AA1BBB1B51E107C0AA1FBB1FBE
:10511000A617B70710F0A61BB70B881F991F5A9543
:10512000A9F780959095BC01CD01089581E090E0AC
:0A513000F8940C949B28F894FFCF2C
:10513A002F022F02010000006048302420181210AC
:10514A000C09080604030009111A222B333C444DAA
:10515A00555E666F777F000000006E01D70006017A
:08516A00B5013701150129010F
:00000001FF
