:100000000C94AC000C94D0190C94A9190C94D40045
:100010000C94E0070C94D4000C94D4000C94D400FD
:100020000C94D4000C945F110C94D4000C94D40064
:100030000C94D4000C94D4000C94D4000C94D400F0
:100040000C945F190C94D4000C9452180C942C1836
:100050000C94D4000C94D4000C94D4000C94D400D0
:100060000C94F7190C94D40095269C26A526AE2650
:10007000B726C026C926D226002700270027DB2660
:10008000E126E826EF26F6263529392935293929AA
:100090003529352939293529392935293929352964
:1000A00035293929352956295629562956295629B7
:1000B000FF29FF29FF29FF29FF295E299729A02968
:1000C000B529D029D9294A014F01540159015E01AE
:1000D000630168016D01720177017C01070C310C2D
:1000E000F70C7C0C7C0C7C0C7C0C7C0C7C0C7C0C55
:1000F0007C0C7C0CF70C810CBF0CD50C00000000B4
:10010000240027002A0000000000250028002B0002
:100110000000000023002600290004040404040455
:1001200004040202020202020303030303030102A6
:100130000408102040800102040810200102040875
:100140001020000000080002010000030407000066
:10015000000000000000942D11241FBECFEFD8E056
:10016000DEBFCDBF11E0A0E0B1E0E4E5F2E602C001
:1001700005900D92A235B107D9F724E0A2E5B1E0D0
:1001800001C01D92AD33B207E1F710E0CCEAD0E038
:1001900004C02197FE010E940931CB3AD107C9F76B
:1001A0000E94D11B0C9428310C94000090935301B1
:1001B0008093520128E1289FB001299F700D1124DE
:1001C000072E000C880B990B0E94CC2F9B01AC01D1
:1001D00060E070E68AE697E40E94222F60935D015A
:1001E00070935E0180935F01909360010895CF93B7
:1001F000DF931F92CDB7DEB7682F81E080936A034B
:1002000080E680938C0310926B0310928D03292F4C
:10021000392F330F330BC9018F70992769830E94DF
:100220004D1B69818BE294E00E942E120F90DF91AA
:10023000CF910C94521B8F929F92AF92BF92CF920C
:10024000DF92EF92FF920F931F93CF934B015C01CC
:10025000C42F8091A7029091A802E0907601F090BF
:10026000750195FF90C068E486169104A104B1045D
:1002700009F447C0882D6CE00E94E930092F10E096
:10028000F8013197EB30F10508F040C0ED59FF4F10
:100290000C94093107E418E020E030E03BC005ECA5
:1002A00018E020E030E036C00AE419E020E030E059
:1002B00031C008ED19E020E030E02CC00EE61AE075
:1002C00020E030E027C00CE01BE020E030E022C05E
:1002D00005EB1BE020E030E01DC007E61CE020E05D
:1002E00030E018C004E21DE020E030E013C00CEE66
:1002F0001DE020E030E00EC00FEB1EE020E030E01B
:1003000009C000EA1FE020E030E004C000ED17E083
:1003100020E030E0882D6CE00E94E930863008F063
:1003200085E045E050E0BA01681B7109A901980118
:1003300004C055954795379527956A95D2F7AE2D08
:10034000EE0CBB0BB05F0E94772EDC01CB012CE0E2
:10035000B595A795979587952A95D1F7CF2CFF0C42
:10036000DD08EE08FF08C80ED91EEA1EFB1EC114E8
:1003700070E1D706E104F1040CF440C0F594E79471
:10038000D794C794F4CFA50194012C5031094109A9
:100390005109A4EFB1E00E946C2E2CE030E040E067
:1003A00050E00E944D2EAE2DEE0CBB0BB05F0E94B4
:1003B000772E20E030E140E050E00E944D2ECF2C1F
:1003C000FF0CDD08EE08FF08C20ED31EE41EF51E6A
:1003D000F7FE07C084EFC80E81E0D81EE11CF11CB7
:1003E000F7CFC11470E1D706E104F1043CF064EFEB
:1003F000C61A61E0D60AE108F108F3CFD6019927C1
:1004000088278093AC029093AD02A093AE02B09384
:10041000AF0220918C0130918D0140918E0150915D
:100420008F018090B0029090B102A090B202B09083
:10043000B302BC01CD01681979098A099B090E94A0
:100440004D2E2093B4023093B5024093B6025093E0
:10045000B702CC2321F0232B242B252BD9F4C60162
:100460000E94F7008091AC029091AD02A091AE0283
:10047000B091AF028093B0029093B102A093B20208
:10048000B093B3021092B4021092B5021092B60269
:100490001092B702CF911F910F91FF90EF90DF90D4
:1004A000CF90BF90AF909F908F900895AF92BF92E2
:1004B000CF92DF92EF92FF920F931F93CF93DF9330
:1004C0008C017B01EA01BB24B39480E5A82E1C16A5
:1004D0001D060CF040C0B0926A03A0928C031092EB
:1004E0006B0310928D03812F912F990F990B0E940E
:1004F0004D1BC80199270E944D1BCE01C131D1056A
:1005000014F080E190E0080F191FC81BD90B670198
:10051000E80EF91EF60161916F018BE294E00E94F2
:100520002E12CE14DF04B1F70E94521BB0926A0360
:10053000A0928C0310926B0310928D0380E090E0E8
:100540000E944D1B80E090E00E944D1B0E94521BB8
:10055000823061F3BCCFDF91CF911F910F91FF905B
:10056000EF90DF90CF90BF90AF9008958F929F92C1
:10057000AF92BF92CF92DF92EF92FF920F931F93B1
:10058000CF93DF937C018B01EA0181E080936A03C2
:1005900080E580938C0310926B0310928D038F2D56
:1005A0009F2D990F990B0E944D1BC70199270E94FF
:1005B0004D1B0E94521BDD24D394CC24CA9485EE9B
:1005C000982E95EC892E21EDE22E22E0F22E1C16BB
:1005D0001D060CF063C0FE01C132D10514F0E0E24B
:1005E000F0E0CE1BDF0B809169038111FCCF2E2F31
:1005F000D0926903D0926803C09267031092660399
:100600009FEF9E0F90936503D09244039091440313
:10061000906A9093440390914303913069F410924F
:100620004303909144039093BB009091BC0093FDD1
:10063000F8CF8092BC0002C09092BC0090916903F8
:100640009130E1F390916603921710F420916603C4
:1006500045E453E061ED72E0962F9E19921738F44D
:10066000DA019D91AD01DB019D93BD01F5CF1092A3
:10067000F2022093F10230E02E173F0781F4580177
:100680000E0F1F1FA016B10609F4A1CF8BE294E054
:100690000E941618F50181935F01F4CF81E0DF918C
:1006A000CF911F910F91FF90EF90DF90CF90BF906F
:1006B000AF909F908F900895CF93DF931F92CDB707
:1006C000DEB71982982F990F41E050E0BE016F5FAD
:1006D0007F4F80E00E94B602882321F081E099815B
:1006E000903A09F080E00F90DF91CF9108958091CA
:1006F000A7029091A8029C01237033272230310574
:1007000099F023303105C1F02130310529F024E67C
:100710002093350223E004C02FEF2093350229E116
:100720002093470221E00FC02FEF2093350229E1EB
:100730002093470224E007C02FEF2093350223E2E5
:10074000209347022AE0209346028C709927843038
:10075000910569F018F4892B39F0089588309105D6
:1007600049F00C9751F008958AEF90E008C084EFAB
:1007700091E005C088EE93E002C08CED95E0909387
:1007800096028093950208956091A70289E690E011
:100790000E94A4126091A8028AE690E00C94A41230
:1007A0002F923F924F925F926F927F928F929F9281
:1007B000AF92BF92CF92DF92EF92FF920F931F936F
:1007C000CF93DF93CDB7DEB7C55AD1090FB6F894F2
:1007D000DEBF0FBECDBF8FEF80938A0180933202C0
:1007E000109234021092330280916F029091700245
:1007F000892B09F4ACC380914B02833008F041C0CF
:10080000CE0187589F4F0E94722D20916F02309128
:10081000700221503109FE01E758FF4F80E090E05F
:10082000DD24D39482179307BCF4419151916081E8
:1008300071817A01E894E7F8FF24DB01AF77BB27E9
:10084000AE15BF053CF4DF0112976D937C93518385
:100850004083D12C0196E6CFDD20E9F2809157024A
:1008600080933202E1E0F0E0612C712C2FE730E060
:10087000CF56DF4F39832883C159D040E12CF12C6A
:100880006DC0CE0187589F4F0E94722DE9CF6CE357
:10089000E616F1040CF060C240914B0220916F0209
:1008A00030917002423009F41FC108F46CC043302B
:1008B00009F48DC0463008F4F5C020916F023091E4
:1008C0007002C656DF4F39832883CA59D0408091C1
:1008D0005402482F880F550BC456DF4F5983488365
:1008E000CC59D0402091550230915602C856DF4F66
:1008F00039832883C859D0404901882430E793229E
:10090000A201440F551FC256DF4F59834883CE5969
:10091000D0409801220F331FC056DF4F3983288300
:10092000C05AD040CC56DF4F19821882C459D040EB
:1009300041E017FF33C14FEFC41AD40A50914D0262
:10094000852F90E0C816D9060CF4A1CF309709F492
:1009500003C27CE3E716F1040CF0FEC1809155025E
:100960009091560290589093560280935502392FD9
:10097000331F3327331FCD56DF4F3883C359D04041
:10098000C12CD12CDBCF442309F48CC0413009F0B9
:1009900094CF8901015011092091530230914C02EA
:1009A000830F911D37FD9A958C199D0901973CE0A5
:1009B000389F1001399F300C1124220E311C27FD65
:1009C0003A9444244A94542CA12CB12C8AC0FE01A0
:1009D000E758FF4F80E090E08217930724F41192CC
:1009E00011920196F9CFB7E5AB2EB2E0BB2E00E035
:1009F00010E080916F0290917002081719070CF0B7
:100A000051C020916F0230917002032E000C440BF4
:100A1000550B211531054105510571F1CE55DF4FBB
:100A20002883C25AD040CD55DF4F3883C35AD040B7
:100A3000CC55DF4F4883C45AD040CB55DF4F588345
:100A4000C55AD0400E94292ECE55DF4F2881C25A68
:100A5000D040CD55DF4F3881C35AD040CC55DF4F01
:100A60004881C45AD040CB55DF4F5881C55AD04039
:100A70000E944D2E9B01AC01220F331FE9E7F0E0ED
:100A8000EC0FFD1FE20FF31F80819181892B09F08C
:100A9000B8CFD5018D919D915D01918380830F5FCA
:100AA0001F4FA7CFA0906F02B0907002B1E0AB1AB9
:100AB000B1088091530290914C029601290F311D8B
:100AC00097FD3A959CE0929F1001939F300C112462
:100AD000280E311C87FD3A9444244394512C00E0A5
:100AE00010E0E0E0F0E0E9CE6091530270914C023A
:100AF000E130F10501F5590141E0A41AB108960170
:100B0000270F311D77FD3A954CE0429F1001439F1E
:100B1000300C1124260E311C67FD3A9401974424B1
:100B20004394512C00E010E0C816D90609F0C5CE58
:100B3000E2E0F0E0C2CE513021F489010250110907
:100B400010C0C114D10421F48901025011090FC051
:100B5000AC0141505109890101501109C416D50653
:100B600031F4AA24A394B12CE0E0F0E002C0A12C5F
:100B7000B12C870F911D77FD9A958C199D090197CE
:100B80002CE0289F1001299F300C1124260E311CC7
:100B900067FD3A9444244A94542C8FCEC656DF4FB6
:100BA00028813981CA59D040021713070CF0C3CEEF
:100BB0003CE3E316F1040CF0BECECC56DF4FA88127
:100BC000B981C459D040C056DF4F28813981C05AFD
:100BD000D040A20FB31F69E770E06C0F7D1FA60F16
:100BE000B71F2D913C91CA56DF4F39832883C659D0
:100BF000D0402F773327220D331DC901C456DF4F54
:100C000068817981CC59D040861B970B97FF02C031
:100C10000C96FCCF6CE070E00E94F530A0E0B8E0EC
:100C200002C0B595A7958A95E2F7CD01C856DF4F6A
:100C300068817981C859D04086239723892BB1F5E3
:100C4000811470E29706A9F058F48114910409F414
:100C500068C0811490E1990649F520E030E026C093
:100C60008114A0E39A0641F08114B0E49B0639F0A8
:100C70001DC0215031091AC02F5F3F4F17C0CD56FC
:100C8000DF4F5881C359D040552319F02F5F3F4F94
:100C900002C021503109CD56DF4F6881C359D04081
:100CA0006427CD56DF4F6883C359D04020383105C3
:100CB0001CF02C503109FACF37FF03C0245F3F4F9F
:100CC000FBCFC956DF4F8881C759D0408F77D901F4
:100CD000B82BCD01B3016F777727621773070CF438
:100CE0003D01CF56DF4F68817981C159D0406F7780
:100CF00077272617370734F4CF56DF4F9983888339
:100D0000C159D040D701AA0FBB1F21E030E02C0F02
:100D10003D1FA20FB31F8D939C93B7016F5F7F4F51
:100D20007B01CC56DF4F28813981C459D040C2564F
:100D3000DF4F68817981CE59D040260F371FCC56BE
:100D4000DF4F39832883C459D0400A151B0509F4A5
:100D5000F2CD040D151DEDCD109234021092330228
:100D600080914B028530A1F4DE01119680E090E085
:100D70008E159F0509F485C02D913D91FC01EE0F64
:100D8000FF1FEF56FE4F3068318320830196F0CF6E
:100D900080914E028230D1F060F48823F1F08130EE
:100DA00009F0D5C0DE01119680E090E020E030E04F
:100DB00041C0833009F46AC0843009F0C8C020E023
:100DC00030E040E050E080E090E0B7C0DE011196F6
:100DD00080E090E020E030E051C0DE01119680E03C
:100DE00090E08E159F0509F44CC02D913D91FC01BA
:100DF000EE0FFF1FEF56FE4F318320830196F1CF98
:100E00008C339105F4F54D915D914615570581F0B0
:100E1000FC01EE0FFF1FEF56FE4F71826082FC0156
:100E20003196EE0FFF1F0296EF56FE4F518340831F
:100E30002F5F3F4F2E153F0519F723C08C339105C7
:100E400004F54D915D91CF56DF4F68817981C1598D
:100E5000D0404617570781F0FC01EE0FFF1FEF56F9
:100E6000FE4F71836083FC013196EE0FFF1F0296E7
:100E7000EF56FE4F518340832F5F3F4F2E153F05A6
:100E8000E9F6909334028093330261C0E0E0F0E031
:100E900000E010E020E030E0A3E0CA2ED12C2E15B7
:100EA0003F053CF5EC33F10521F1D801AA0FBB1F3A
:100EB000BD016F567E4FC901880F991FA1E0B0E0B8
:100EC000AC0FBD1F8A0F9B1FDC018D919C91DB0134
:100ED0008D939C930F5F1F4FC801B6010E94F530A0
:100EE000892B19F42150310902C02F5F3F4F3196F1
:100EF000D6CFF0933402E093330229C02C3331056E
:100F000011F1FA01EE0FFF1FEF56FE4FDC01AA0FA1
:100F1000BB1F61E070E06C0F7D1FA60FB71F6D91C6
:100F20007C91718360834F5F5F4FBA016370772755
:100F3000672B39F402972F5F3F4F8E159F05F4F210
:100F400002C00196F8CF3093340220933302CB5580
:100F5000DF4F0FB6F894DEBF0FBECDBFDF91CF914C
:100F60001F910F91FF90EF90DF90CF90BF90AF90C7
:100F70009F908F907F906F905F904F903F902F90B9
:100F800008951092700210926F02109294021092C3
:100F900093028091A60281608093A6028091AB02A9
:100FA00081608093AB020895609124028BE690E00B
:100FB0000E94A412609125028CE690E00C94A41289
:100FC0001F920F920FB60F9211242F933F934F93BE
:100FD0005F936F937F938F939F93AF93BF93EF93A1
:100FE000FF93309B4FC08091B902823061F48091B1
:100FF000A9029091AA0280FF06C080915C018F5FD8
:1010000080935C013FC00E945319AB01BC018091E9
:10101000C9029091CA02A091CB02B091CC02892B57
:101020008A2B8B2B29F18091C9029091CA02A09141
:10103000CB02B091CC0284179507A607B707C0F47E
:101040008091C9029091CA02A091CB02B091CC02CA
:101050009A01281B390B3093690120936801409352
:10106000C9025093CA026093CB027093CC020AC0AB
:101070008091A9029091AA0292609093AA02809313
:10108000A902EDCFFF91EF91BF91AF919F918F9109
:101090007F916F915F914F913F912F910F900FBE74
:1010A0000F901F90189590916A019F5F9770209103
:1010B0007301921741F0E0916A01F0E0E559FE4FAB
:1010C000808390936A01089588EF0C9453088AEF07
:1010D0000C9453080E94531960935801709359015E
:1010E00080935A0190935B011092C0021092C1024A
:1010F0001092C2021092C30210920A0210920B02C6
:1011000010920C0210920D0210925701109256018B
:101110008091A9029091AA0284609093AA02809380
:10112000A9028091A9029091AA0298609093AA02C4
:101130008093A9020895809374018091A9029091EF
:10114000AA0288609093AA028093A9020C946A086C
:10115000CF92DF92EF92FF920F931F93CF93C82FFE
:101160008091A9029091AA0292FF11C01092C00230
:101170001092C1021092C2021092C30210920A028F
:1011800010920B0210920C0210920D02B7C08091C7
:10119000A9029091AA0291FF12C08091A902909198
:1011A000AA029D7F9093AA028093A9021092C00286
:1011B0001092C1021092C2021092C30213C0809119
:1011C000C0029091C102A091C202B091C3020196E7
:1011D000A11DB11D8093C0029093C102A093C202D1
:1011E000B093C3026091C0027091C1028091C202AB
:1011F0009091C3022091490230914A02032E000CC3
:10120000440B550B0E947F2E672B682B692B09F02E
:101210004FC00E945319009158011091590120911B
:101220005A0130915B01012B022B032BB1F000918D
:1012300058011091590120915A0130915B016B01C5
:101240007C01C01AD10AE20AF30AC0928C01D09242
:101250008D01E0928E01F0928F016093580170939E
:10126000590180935A0190935B018091A90290915A
:10127000AA0280FF06C0809174018C1711F084309F
:10128000B9F48091A9029091AA0287FF4DC01092F3
:101290000A0210920B0210920C0210920D02809121
:1012A000A9029091AA0298609093AA028093A90241
:1012B0008091A9029091AA028F779093AA028093BD
:1012C000A9026091C0027091C1028091C202909106
:1012D000C30228E130E040E050E00E947F2E672BFF
:1012E000682B692B59F4109256018091A9029091B4
:1012F000AA0284609093AA028093A9028091A90215
:101300009091AA0281FF05C0809157018F5F809361
:1013100057018091B90282508230D0F480915601F9
:101320008F5F8093560114C080910A0290910B0246
:10133000A0910C02B0910D020196A11DB11D8093E8
:101340000A0290930B02A0930C02B0930D02A7CF58
:10135000CF911F910F91FF90EF90DF90CF90089564
:10136000AF92BF92CF92DF92EF92FF920F931F93B3
:10137000CF93DF93C82FA62EB42ED22F670178010A
:10138000807F803F11F46C2F15C0809126028C174E
:1013900039F06C2F8EE893E00E943A17C093260232
:1013A000DD2361F06A2D8EE893E00E943A17D23077
:1013B00028F06B2D8EE893E00E943A1761E081E1FE
:1013C0000E94AD1884E1C80ED11CE11CF11CC09232
:1013D0001C02D0921D02E0921E02F0921F02DF91C9
:1013E000CF911F910F91FF90EF90DF90CF90BF9022
:1013F000AF900895CF92DF92EF92FF920F931F93D9
:10140000FC016E3008F06E506770606460937C0081
:1014100080917A00806480937A0080917A0086FDC2
:10142000FCCF609178008091790070E0782B80810A
:1014300091818F3F5FEF950719F471836083F0C04E
:10144000DB01A81BB90BCD01B7FF03C091958195B6
:10145000910905970CF4E4C071836083423809F464
:1014600065C068017901942F433828F4403851F061
:10147000413869F197C0433809F47DC0443809F414
:101480006CC090C0CB010E945D12BC01990F880B0B
:10149000990B0E94CC2F20E030E040E054E40E9401
:1014A000B02E20E030E040E451E40E947C3020E0A7
:1014B00030E84FEF53E40E94222F0E94942F609354
:1014C00053028091AB0281608093AB0229C06430EB
:1014D00071053CF06C3FB3E07B072CF06FEF73E0DD
:1014E00002C060E070E0072E000C880B990B0E9490
:1014F000CC2F20E030EC4FE754E40E94222F20E074
:1015000030E04AE753E40E947C3020E030E040EFD6
:1015100051E40E94B12E0E94942FCB010E94D6006C
:101520008091A60281608093A6027AC06430710522
:101530003CF06C3F53E075072CF06FEF73E002C096
:1015400060E070E043E0759567954A95E1F7609338
:10155000500281E080934F02E3CF643071053CF08C
:101560006C3F83E07807E4F110925202D9CF81E01A
:1015700080935202D5CFCB010E945D1224E0880FE8
:10158000991F2A95E1F7AC01440F452F441F550BD5
:101590004F77682F6F7780912C028701760122E0C8
:1015A000806E1BC0643071053CF06C3FA3E07A078D
:1015B0002CF06FEF73E002C060E070E0191684F564
:1015C000AB0183E0559547958A95E1F780912C0210
:1015D0008701760122E0692F806B0E94B00920C04C
:1015E0006A30710524F2072E000C880B990B0E94BB
:1015F000CC2F20E030E046E153E40E947C3020E034
:1016000030EC4FE754E40E94222F20E030E040E22B
:1016100051E40E94B12E0E949B2F6093520280CF12
:101620001F910F91FF90EF90DF90CF9008952F9230
:101630003F924F925F926F927F928F929F92AF9262
:10164000BF92CF92DF92EF92FF920F931F93CF93AF
:10165000DF9300D000D0CDB7DEB71B012C014A01CB
:101660008AE791E09C838B83C12CD12CEB81FC8198
:101670009081911123C0FFEFCF1ADF0A8B819C81EB
:1016800001969C838B8390E1C916D10479F70F9062
:101690000F900F900F90DF91CF911F910F91FF90BE
:1016A000EF90DF90CF90BF90AF909F908F907F9002
:1016B0006F905F904F903F902F900895BC2CBB0C83
:1016C000BB0CBB0C38E03B0DAA24A39434016C0C7A
:1016D0007D1C8A2D892311F18114910421F0F301DD
:1016E00080818A21D9F42091290280912C0220FF47
:1016F00002C0806801C080698201710122E040E07F
:101700006B2D3A8399830E94B009EB81FC81208183
:101710008A2D80958223808399813A81B394AA0C83
:10172000B312D7CFA8CFEF92FF920F931F93CF930F
:10173000DF93D82F10922602C0E00E945319D111D6
:1017400002C04FE701C040E07B018C0122E06AE764
:101750008C2F806B0E94B009CF5FC03171F7DF9191
:10176000CF911F910F91FF90EF9008950F931F93CA
:10177000CF93DF93EC018B0190913502709146027B
:1017800020E030E040E050E8F901EA5CFD4FDA018A
:10179000A023B123AB2B11F0908308C0DA01AC2356
:1017A000BD23AB2B11F0708301C010825695479575
:1017B0002F5F3F4F2031310539F7DF91CF911F91D6
:1017C0000F9108959B01803191055CF41216130668
:1017D00044F4FC01EA5CFD4F40832150310901963D
:1017E000F2CF0895CF92DF92EF92FF92CF93C62F60
:1017F000482F082E000C550B660B770B4031510516
:1018000008F0F5C0FA01E259FF4F0C9409318091BC
:10181000A9029091AA0221E082279093AA028093C4
:10182000A9028091A9029091AA0280FD11C0809125
:10183000A9029091AA0280689093AA028093A902BB
:101840001092C9021092CA021092CB021092CC02DE
:101850006091A9027091AA026170772786E690E0F4
:1018600048C08091A9029091AA0281FF13C0809183
:10187000A9029091AA0280619093AA028093A90282
:101880008091A9029091AA028D7F9093AA028093E1
:10189000A90226C08091A9029091AA028860909323
:1018A000AA028093A9028091A9029091AA02806461
:1018B0009093AA028093A9028091A9029091AA0212
:1018C00088609093AA028093A9028091A9029091C6
:1018D000AA0282609093AA028093A9020E946A08D9
:1018E0006091A9027091AA0276956795617087E66A
:1018F00090E00E94A4127EC064E18602C00111241F
:1019000073C08091A9029091AA0280FF08C0109232
:1019100074018091A9029091AA02806154C00E9432
:1019200053196B017C018091C5029091C602A09170
:10193000C702B091C8028C159D05AE05BF05B0F475
:10194000A7019601281B390B4A0B5B0B283E73E05D
:1019500037074105510550F460E67AEE80E090E0EB
:101960000E947F2EC9010E94D600C1E0C092C5022C
:10197000D092C602E092C702F092C80238C08091AD
:10198000A9029091AA0280FF04C084E00E949B08F3
:101990002EC08091520190915301459744F180915E
:1019A00052019091530101971FC08091A90290911B
:1019B000AA0280FF0DC084E0809374018091A90287
:1019C0009091AA0280629093AA028093A9020FC00C
:1019D00080915201909153018C32914044F4809156
:1019E00052019091530101960E94D60003C0CC236E
:1019F00009F4AFC340E060E170E080E090E00E9455
:101A0000E20B2091A9023091AA02909135028091B7
:101A1000470220FF11C0909336022091A902309115
:101A2000AA0220FF982F909337028093430280935D
:101A30004402809345028DC3282F80933602409143
:101A4000A9025091AA0241FF02C0392F01C0382FCC
:101A50003093370240915201509153014932510560
:101A60000CF459C060915201709153014CE350E065
:101A7000FA01E61BF70B1E161F0654F46091520183
:101A800070915301461B570B4530510544F009C076
:101A900040915201509153014134510514F4392FB2
:101AA00040C060915201709153014CE350E0FA0143
:101AB000E61BF70B1E161F0654F46091520170913D
:101AC0005301461B570B4C30510544F107C0409160
:101AD0005201509153014834510504F16091520173
:101AE000709153014CE350E0FA01E61BF70B1E1610
:101AF0001F0654F46091520170915301461B570B1D
:101B00004431510544F00CC04091520150915301B1
:101B1000403551052CF43091460203C0382F01C0E6
:101B200030E030933902609152017091530140E5E9
:101B300050E0FA01E61BF70B1E161F0654F46091E5
:101B4000520170915301461B570B4530510544F02B
:101B500009C040915201509153014535510514F48B
:101B6000392F40C0609152017091530140E550E01F
:101B7000FA01E61BF70B1E161F0654F46091520182
:101B800070915301461B570B4C30510544F107C06F
:101B900040915201509153014C35510504F160912F
:101BA00052017091530140E550E0FA01E61BF70B3A
:101BB0001E161F0654F46091520170915301461B8A
:101BC000570B4431510544F00CC0409152015091E3
:101BD0005301443651052CF43091460203C0382F8E
:101BE00001C030E030933A0260915201709153018C
:101BF00044E650E0FA01E61BF70B1E161F0654F4EC
:101C00006091520170915301461B570B45305105AD
:101C100044F009C040915201509153014936510599
:101C200014F4392F40C0609152017091530144E681
:101C300050E0FA01E61BF70B1E161F0654F46091E4
:101C4000520170915301461B570B4C30510544F122
:101C500007C040915201509153014037510504F1A2
:101C6000609152017091530144E650E0FA01E61B85
:101C7000F70B1E161F0654F4609152017091530128
:101C8000461B570B4431510544F00CC040915201A2
:101C900050915301483751052CF43091460203C04E
:101CA000382F01C030E030933B02609152017091B7
:101CB000530148E750E0FA01E61BF70B1E161F061A
:101CC00054F46091520170915301461B570B4530FB
:101CD000510544F009C040915201509153014D37D4
:101CE000510514F4392F40C0609152017091530195
:101CF00048E750E0FA01E61BF70B1E161F0654F4E6
:101D00006091520170915301461B570B4C305105A5
:101D100044F107C04091520150915301443851059C
:101D200004F1609152017091530148E750E0FA01CB
:101D3000E61BF70B1E161F0654F4609152017091BA
:101D40005301461B570B4431510544F00CC04091E0
:101D50005201509153014C3851052CF430914602F8
:101D600003C0382F01C030E030933C026091520133
:101D7000709153014CE850E0FA01E61BF70B1E1678
:101D80001F0654F46091520170915301461B570B8A
:101D90004530510544F009C0409152015091530122
:101DA0004139510514F4392F40C0609152017091AE
:101DB00053014CE850E0FA01E61BF70B1E161F0614
:101DC00054F46091520170915301461B570B4C30F3
:101DD000510544F107C040915201509153014839D7
:101DE000510504F160915201709153014CE850E0AB
:101DF000FA01E61BF70B1E161F0654F46091520100
:101E000070915301461B570B4431510544F00CC0EF
:101E10004091520150915301403A51052CF43091B8
:101E2000460203C0382F01C030E030933D0260917C
:101E300052017091530140EA50E0FA01E61BF70BA2
:101E40001E161F0654F46091520170915301461BF7
:101E5000570B4530510544F009C040915201509153
:101E60005301453A510514F4392F40C06091520195
:101E70007091530140EA50E0FA01E61BF70B1E1681
:101E80001F0654F46091520170915301461B570B89
:101E90004C30510544F107C040915201509153011B
:101EA0004C3A510504F1609152017091530140EA9E
:101EB00050E0FA01E61BF70B1E161F0654F4609162
:101EC000520170915301461B570B4431510544F0A8
:101ED0000CC04091520150915301443B51052CF4E8
:101EE0003091460203C0382F01C030E030933E02EB
:101EF000609152017091530144EB50E0FA01E61BEE
:101F0000F70B1E161F0654F4609152017091530195
:101F1000461B570B4530510544F009C04091520112
:101F200050915301493B510514F4392F40C0609141
:101F300052017091530144EB50E0FA01E61BF70B9C
:101F40001E161F0654F46091520170915301461BF6
:101F5000570B4C30510544F107C04091520150914C
:101F60005301403C510504F16091520170915301BD
:101F700044EB50E0FA01E61BF70B1E161F0654F463
:101F80006091520170915301461B570B443151052A
:101F900044F00CC04091520150915301483C51050E
:101FA0002CF43091460203C0382F01C030E030934A
:101FB0003F02609152017091530148EC50E0FA01E8
:101FC000E61BF70B1E161F0654F460915201709128
:101FD0005301461B570B4530510544F009C0409151
:101FE0005201509153014D3C510514F4892F3EC0CC
:101FF000609152017091530148EC50E0FA01E61BE8
:10200000F70B1E161F0654F4609152017091530194
:10201000461B570B4C3051054CF107C04091520103
:1020200050915301443D51050CF160915201709162
:10203000530148EC50E0FA01E61BF70B1E161F0691
:1020400054F46091520170915301461B570B443177
:10205000510544F00AC040915201509153014C3D4A
:1020600051051CF48091460201C080E0809340023B
:102070004091520150915301403F51052CF0809105
:102080004602809341025FC06091520170915301FA
:102090004CED50E0FA01E61BF70B1E161F0654F438
:1020A0006091520170915301461B570B4530510509
:1020B00044F009C04091520150915301413E5105F5
:1020C00014F4292F3EC060915201709153014CEDE0
:1020D00050E0FA01E61BF70B1E161F0654F4609140
:1020E000520170915301461B570B4C3051054CF176
:1020F00007C04091520150915301483E51050CF1E7
:1021000040915201509153012CED30E0B901641B14
:10211000750B1616170654F4409152015091530155
:10212000241B350B2431310544F00AC020915201A3
:1021300030915301203F31051CF42091460201C02B
:1021400020E02093410290934302909344029093A5
:102150004502CF91FF90EF90DF90CF90089580E0FF
:1021600090E0FC01EA5CFD4F108201968031910500
:10217000C1F70895E82F8091A602982F907181FFF2
:1021800013C0911104C080618093A60261E087EFC3
:102190008E0F873020F4E850E093C40225C0E7FD9D
:1021A0001CC01092C40220C09923A1F08F7E80939E
:1021B000A602EF3FC9F00E2E000CFF0BE85BFD4FAF
:1021C000A091C402B0E0AA5DBE4F91A58C91892771
:1021D00081A70AC0EF3F79F727C0611105C0809140
:1021E0008B01882309F46AC08091A60284FF1EC077
:1021F0000E94AF104091470267E070E089E090E0F4
:102200000E94E20BE091C40280913502E11103C00B
:102210008093360242C09091470290933602F0E0DC
:10222000E25CFD4F808339C06623C9F2E091C402AD
:1022300050914702E11113C080E090E0FC01E85B9F
:10224000FD4F31A5232F217030FD252FFC01EA5CC5
:10225000FD4F208301968031910581F71EC040918A
:10226000460280E090E0F0E0EA5DFE4FDC01A85B12
:10227000BD4F99962C91DC01AA5CBD4F308120FFA7
:1022800004C0232321F0252F03C0232309F0242F8A
:102290002C9301968031910549F7809133029091FA
:1022A0003402892B41F0E0910902F0E0809135027F
:1022B000EA5CFD4F808310928B01089508951F9270
:1022C0000F920FB60F9211242F933F934F935F936A
:1022D0008F939F93EF93FF9341988091CD02882332
:1022E00041F08091CD0280958093B2001092CD0292
:1022F0006CC0809113028F5F809313028091CE0295
:102300008F3018F05D985F9A5D9A5F985D985D9A3E
:102310008091CE029FE0981B292F30E0F901EA5C02
:10232000FD4F80818111419A80958093CD0240912B
:10233000CF0241111EC01A9B10C04091D002042E42
:10234000000C550B42175307C9F09093A40240911B
:10235000A4024093D00242E30FC04091D002042E69
:10236000000C550B2417350749F44FEF4093D0026A
:1023700005C04091CF0241504093CF024E9B0DC00B
:1023800040919702042E000C550B2417350781F05D
:1023900090939F0290919F0209C040919702042E52
:1023A000000C550B2417350719F49FEF90939702F3
:1023B0009091CE02911102C09FE003C09091CE0295
:1023C00091509093CE028093B200FF91EF919F9134
:1023D0008F915F914F913F912F910F900FBE0F9072
:1023E0001F9018958091F10290E02091F202821BDB
:1023F00091090895089580E090E00895CF92DF92CA
:10240000EF92FF920F931F93CF93DF937C01262FC0
:10241000972F8A0180916A03882391F0C62FD72FC6
:102420006E01C40ED51ECC15DD0571F06991D70182
:10243000ED91FC910190F081E02DC7010995F3CF5A
:10244000642F822F0E94251BC801DF91CF911F911D
:102450000F91FF90EF90DF90CF900895CF93DF938F
:102460001F92CDB7DEB7698320916A032223D1F092
:1024700020918D03203240F021E030E0FC013383D5
:10248000228380E090E015C080916B03E82FF0E09C
:10249000E459FC4F998190838F5F80936B03809305
:1024A0008D0305C061E0CE0101960E94251B81E0ED
:1024B00090E00F90DF91CF910895803E21E0920748
:1024C0009CF4BC01990F880B990B0E94CC2F20E043
:1024D00030E040EF53E40E94222F20E030E040E063
:1024E00054E40E947C301FC0803222E0920704F145
:1024F000BC016F517240072E000C880B990B0E9493
:10250000CC2F20E030E040E054E40E947C3020E01A
:1025100030E040EF53E40E94222F20E030E040E022
:1025200054E40E94B12E0E94942F77FF03C009C08B
:1025300060E072E0CB01611574402CF08FEF93E006
:10254000089580E090E008950C943F2E0F931F9320
:10255000CF93DF9300D01F92CDB7DEB740E06FEF8F
:102560008EE60E94AF1B8093B90240E06FEF8AE6CF
:102570000E94AF1B1092A7028093A80240E06FEF69
:1025800089E60E94AF1B2091A7023091A802282B58
:102590003093A8022093A7020E947703E0919E0344
:1025A000F0919F0382E08083E0919A03F0919B0376
:1025B0001082E0919C03F0919D038FE38083109241
:1025C000A603E091A203F091A30386E08083E0914B
:1025D000A003F091A103808180618083E091A0033A
:1025E000F091A103808188608083E091A003F09145
:1025F000A103808180688083E091A003F091A10312
:1026000080818F7D80838EE893E00E9481171092F5
:10261000780110922602109277011092790140E021
:102620006FE085E60E94AF1B80932C024FEF6FE0B6
:1026300084E60E94AF1B80932B0249E16FEF88E68E
:102640000E94AF1B80932A0240E061E08DE60E9469
:10265000AF1B809329021092280210922702109239
:102660008B011092AB028FEF80938A011092C4020B
:1026700010924B0210924C0291E090934D021092F6
:102680004E0284E6809350022FE7209351029093EC
:102690004F021092700210926F0290E190938102AB
:1026A0008093520210925302109254028FEF9FE3D4
:1026B00090935602809355021092940210929302C6
:1026C0001092920240E06FEF8CE60E94AF1B082F41
:1026D00010E0102F002740E06FEF8BE60E94AF1B49
:1026E0000027107A80912402909125029F75082B73
:1026F000192B1093250200932402E1E7F2E081E018
:10270000819392E0E138F907D9F7EAE7F1E0119215
:1027100081E0EA38F807D9F71092340210923302B8
:102720008FEF809332021092310210923002109299
:102730002F0210922E0210922D0261E08DE00E9475
:10274000DD1810920F0210921002109211021092D6
:10275000120210920E0210929C0210929E0281E0D0
:102760008093A6021092A0021092A1021092A202DF
:102770001092A302109298021092990210929A025B
:1027800010929B021092C5021092C6021092C702CC
:102790001092C8021092A502F8941092AA02109208
:1027A000A90210926A011092730140E061E086E68E
:1027B0000E94AF1B882349F08091A9029091AA0240
:1027C00081609093AA028093A90240E061E087E6CD
:1027D0000E94AF1B882349F08091A9029091AA0220
:1027E00082609093AA028093A902109257011092DE
:1027F000740186E090E090934A028093490210921F
:1028000058011092590110925A0110925B011092D6
:102810008C0110928D0110928E0110928F010E94F6
:102820006A0888E790E090935301809352018BEA05
:102830009AEAA6EAB1E480935D0190935E01A093C9
:102840005F01B093600110926301109264011092D5
:1028500065011092660162E082E00E94DD1862E08C
:1028600083E00E94DD1862E084E00E94DD1887E6C4
:1028700098E090930101809300018091690083604A
:1028800080936900E89A84E698E09093030180932E
:102890000201809169008C6080936900E99A10922E
:1028A000560110926101109254011092C9021092C7
:1028B000CA021092CB021092CC02109269011092BF
:1028C0006801109262011092550110925C01809192
:1028D000A7029091A80297FD02C086E001C08CE09B
:1028E000809367018091B902823049F561E082E10D
:1028F0000E94DD1860E08EE00E94DD1862E083E156
:102900000E94DD186AE070E080E090E00E941919F2
:1029100035990EC08FEF80936101809168008260CD
:102920008093680010926C0080916C00816003C0FD
:1029300080916C008E7F80936C0082E107C08330B1
:1029400039F461E08BE00E94DD188BE08093550143
:10295000789461E085E00E94DD1861E087E00E94E4
:10296000DD1860E08AE00E94DD1860E086E00E94E9
:10297000DD1861E08FE00E94DD1862E08CE00E94CB
:10298000DD1861E088E00E94DD1861E081E10E94CD
:10299000DD1861E080E10E94DD1861E089E00E94BD
:1029A000DD1880E090E0FC01EA5CFD4F10820196AA
:1029B00080319105C1F78FEF8093A4028093D002FC
:1029C00080939F021092CF029FE09093CE021092CC
:1029D000CD02109220021092210210922202109237
:1029E000230210921C0210921D0210921E021092DD
:1029F0001F02109218021092190210921A021092DD
:102A00001B021092140210921502109216021092DC
:102A1000170210929D02109213022CED35E03093B4
:102A20009602209395028093350289E180934702B4
:102A300084E0809346021092B00083E08093B1005E
:102A400081E0809370001092B20078940E94770326
:102A50008CE00E948418892B09F05FC080914602A7
:102A60008093360280933702809338028093390234
:102A700080933A029091350290933B0280933C02FE
:102A800090933D0280933E0280933F0280934002E8
:102A900080934102909342028093430280934402C8
:102AA000809345028CE00E948418892BD9F3809191
:102AB0009F02883009F4D5C040E06FEF83E60E94A2
:102AC000AF1B843209F0CDC08091A40287FF20C1E2
:102AD0008091A4028F3F09F140E060E170E080E066
:102AE00090E00E94E20B4091470265E070E080E0D8
:102AF00090E00E94E20B8091B9024091350261E0C2
:102B000070E090E00E94E20B68EE73E080E090E0FD
:102B10000E941919E0E0F0E009958091B902813036
:102B200081F462E08BE00E94DD1860E083E10E94A6
:102B3000DD1860E082E10E94DD1860E08EE00E9416
:102B4000DD188FEF9FEF90933C0480933B049093AC
:102B50003A04809339049093380480933704109298
:102B6000B80210927601109275011092B002109284
:102B7000B1021092B2021092B3021092AC02109203
:102B8000AD021092AE021092AF021092B4021092F7
:102B9000B5021092B6021092B70210929001809185
:102BA000B902833009F055C01092F2021092F1027E
:102BB00010926B0310928D031092690311E0109331
:102BC00068031092430361E082E10E94AD1861E066
:102BD00083E10E94AD188091B9008E7F8093B90087
:102BE0008091B9008D7F8093B90088E48093B8000C
:102BF00085E48093BC0010936A0380E680938C0385
:102C000010926B0310928D0389E990E00E944D1B96
:102C10000E94521B61E08EE00E94DD1860E08EE0B1
:102C20000E94AD1819821A821B8243E050E0BE0157
:102C30006F5F7F4F87EF9FE10E94B602882349F0C4
:102C40008981823131F48A81809376018B818093EE
:102C5000750180912A0287FF72C081E00E94930B68
:102C60006EC010922C028FEF80932B0289E180932B
:102C70002A021092AA021092A9028AE190E090938F
:102C8000A8028093A70280E090E2909325028093AF
:102C9000240260E085E690E00E94A41260912B027D
:102CA00084E690E00E94A41269E188E690E00E9428
:102CB000A41260E08DE690E00E94A41260E086E637
:102CC00090E00E94A41260E087E690E00E94A412C7
:102CD00060E08EE690E00E94A4120E94C4030E946D
:102CE000D40764E283E690E00E94A412409135028A
:102CF00060E170E080E090E00E94E20B68EE73E03B
:102D000080E090E00E941919E0E0F0E00995DCCE47
:102D10008091A40285300CF0DBCE6091A402609318
:102D2000B9028091A7029091A80299279093A802D6
:102D30008093A7028EE690E00E94A412C9CE0F9065
:102D40000F900F90DF91CF911F910F910895CF9227
:102D5000DF92EF92FF920F931F93CF93DF936C015B
:102D60007A018B01C0E0D0E0CE15DF0589F0D801F3
:102D70006D918D01D601ED91FC910190F081E02DD6
:102D8000C6010995892B11F47E0102C02196ECCF72
:102D9000C701DF91CF911F910F91FF90EF90DF90CE
:102DA000CF900895FC01538D448D252F30E0842F62
:102DB00090E0821B930B541710F0CF960895019763
:102DC0000895FC01918D828D981761F0828DDF014D
:102DD000A80FB11D5D968C91928D9F5F9F73928F0E
:102DE00090E008958FEF9FEF0895FC01918D828D03
:102DF000981731F0828DE80FF11D858D90E00895D0
:102E00008FEF9FEF0895FC01918D228D892F90E027
:102E1000805C9F4F821B91098F73992708958EE8DC
:102E200093E00E94031721E0892B09F420E0822F10
:102E30000895FC01848DDF01A80FB11DA35ABF4F77
:102E40002C91848D90E001968F739927848FA689A9
:102E5000B7892C93A089B1898C9180648C93938DD0
:102E6000848D981306C00288F389E02D80818F7DC0
:102E700080830895EF92FF920F931F93CF93DF9378
:102E8000EC0181E0888F9B8D8C8D981305C0E889BB
:102E9000F989808185FD24C0F62E0B8D10E00F5F2F
:102EA0001F4F0F731127E02E8C8DE8120CC00FB648
:102EB00007FCFACFE889F989808185FFF5CFCE013B
:102EC0000E941917F1CF8B8DFE01E80FF11DE35A17
:102ED000FF4FF0820B8FEA89FB898081806207C0F7
:102EE000EE89FF896083E889F98980818064808325
:102EF00081E090E0DF91CF911F910F91FF90EF90D3
:102F00000895CF93DF93EC01888D8823C9F0EA8977
:102F1000FB89808185FD05C0A889B9898C9186FDD2
:102F20000FC00FB607FCF5CF808185FFF2CFA889CF
:102F3000B9898C9185FFEDCFCE010E941917E7CF9B
:102F4000DF91CF91089580E090E0892B29F00E94D5
:102F50000F1781110C9400000895833081F028F43C
:102F6000813099F08230A1F008958730A9F088303F
:102F7000B9F08430D1F4809180008F7D03C08091BE
:102F800080008F7780938000089584B58F7702C08A
:102F900084B58F7D84BD08958091B0008F7703C084
:102FA0008091B0008F7D8093B00008953FB7F89472
:102FB00080913F0390914003A0914103B09142035F
:102FC00026B5A89B05C02F3F19F00196A11DB11D84
:102FD0003FBFBA2FA92F982F8827820F911DA11DBF
:102FE000B11DBC01CD0142E0660F771F881F991FFC
:102FF0004A95D1F70895089585ED8093BC0080919E
:10300000BC0084FDFCCF1092690308950895E091FF
:10301000F2028091F102E81730F4F0E0EF52FD4F38
:10302000808190E008958FEF9FEF08959091F202D4
:103030008091F102981750F4E92FF0E0EF52FD4F24
:10304000208130E09F5F9093F20202C02FEF3FEFAC
:10305000C90108950E9423311F920F920FB60F925B
:1030600011242F933F934F935F936F937F938F938D
:103070009F93AF93BF93EF93FF938EE893E00E94EB
:103080001917FF91EF91BF91AF919F918F917F9110
:103090006F915F914F913F912F910F900FBE0F90C5
:1030A0001F9018951F920F920FB60F9211242F9315
:1030B0008F939F93EF93FF93E0919E03F0919F0373
:1030C0008081E091A403F091A50382FD12C090815C
:1030D0008091A7038F5F8F732091A803821751F00F
:1030E000E091A703F0E0E257FC4F958F8093A70390
:1030F00001C08081FF91EF919F918F912F910F904F
:103100000FBE0F901F901895CF93DF93282F30E0BC
:10311000F901EE5BFE4F8491F901E25DFE4FD4911F
:10312000F901E65EFE4FC491CC2391F081110E941B
:10313000AD17EC2FF0E0EE0FFF1FE05FFE4FA59103
:10314000B491EC91ED2381E090E021F480E002C0A5
:1031500080E090E0DF91CF9108951F93CF93DF93AC
:10316000282F30E0F901EE5BFE4F8491F901E25D1A
:10317000FE4FD491F901E65EFE4FC491CC23C9F015
:10318000162F81110E94AD17EC2FF0E0EE0FFF1FFC
:10319000EA5FFE4FA591B4918FB7F894111105C065
:1031A0009C91ED2FE095E92302C0EC91ED2BEC937F
:1031B0008FBFDF91CF911F910895CF93DF9390E060
:1031C000FC01E25DFE4F2491FC01E65EFE4F84911E
:1031D000882361F190E0880F991FFC01E450FF4FB4
:1031E000C591D491FC01EA5FFE4FA591B4916111A4
:1031F00009C09FB7F8948881209582238883EC9139
:103200002E230BC0623061F49FB7F8943881822F6F
:10321000809583238883EC912E2B2C939FBF06C02F
:103220008FB7F894E8812E2B28838FBFDF91CF9141
:1032300008958F929F92AF92BF92CF92DF92EF92BA
:10324000FF926B017C010E94D6174B015C01C114F7
:10325000D104E104F104F1F00E94D617DC01CB01A6
:1032600088199909AA09BB09883E9340A105B105AF
:1032700070F321E0C21AD108E108F10888EE880E47
:1032800083E0981EA11CB11CC114D104E104F10417
:1032900019F7DDCFFF90EF90DF90CF90BF90AF9008
:1032A0009F908F9008952FB7F89460913B03709191
:1032B0003C0380913D0390913E032FBF08951F92E0
:1032C0000F920FB60F9211242F933F938F939F93DA
:1032D000AF93BF9380913B0390913C03A0913D033A
:1032E000B0913E0330913A0323E0230F2D3720F4B1
:1032F0000196A11DB11D05C026E8230F0296A11D50
:10330000B11D20933A0380933B0390933C03A09319
:103310003D03B0933E0380913F0390914003A09101
:103320004103B09142030196A11DB11D80933F035B
:1033300090934003A0934103B0934203BF91AF9198
:103340009F918F913F912F910F900FBE0F901F90E3
:1033500018951F920F920FB60F9211242F933F933F
:103360004F935F936F937F938F939F93AF93BF938D
:10337000EF93FF93E0910201F09103010995FF9112
:10338000EF91BF91AF919F918F917F916F915F91DD
:103390004F913F912F910F900FBE0F901F90189556
:1033A0001F920F920FB60F9211242F933F934F93BA
:1033B0005F936F937F938F939F93AF93BF93EF939D
:1033C000FF93E0910001F09101010995FF91EF91C8
:1033D000BF91AF919F918F917F916F915F914F912D
:1033E0003F912F910F900FBE0F901F9018951F9235
:1033F0000F920FB60F9211242F933F934F935F9329
:103400006F937F938F939F93AF93BF93EF93FF93AC
:103410008091B900887F803609F49CC068F58832B5
:1034200009F45BC090F4803109F454C038F4882367
:1034300009F4F6C0883009F44DC0F6C0883109F4AB
:103440004CC0803209F45DC0EFC0803409F468C01C
:1034500048F4803309F455C0883309F0E5C08093FF
:103460006703D8C0803509F44FC0883509F45DC0C2
:10347000883409F0D9C0D6C0883909F4C7C0A8F487
:10348000883709F467C038F4883609F463C0803798
:1034900009F460C0C9C0883809F4B8C0803909F49B
:1034A0005FC0803809F0C0C05BC0803B09F486C0B3
:1034B00038F4803A09F466C0883A09F47FC0B4C091
:1034C000803C09F4A7C0883C09F4A4C0883B09F4F7
:1034D0008AC0AAC08091440310C090916603809175
:1034E0006503981770F5E091660381E08E0F809375
:1034F0006603F0E0EB5BFC4F80818093BB0085ECC2
:1035000086C0809367038EC0E091660381E08E0FD2
:10351000809366038091BB00F0E0EB5BFC4F8083FF
:1035200090916603809165036EC0E091660381E02F
:103530008E0F809366038091BB00F0E0EB5BFC4F45
:1035400080838091680381116DC081E08093430383
:1035500084EA61C083E08093690310923903CFCF7E
:1035600080913903803208F051C0E091390381E045
:103570008E0F809339038091BB00F0E0E75EFC4F33
:103580008083BDCF85EC8093BC001092690380914D
:103590003903803230F4E0913903F0E0E75EFC4F0C
:1035A00010826091390370E0E0911703F0911803E5
:1035B00089E193E009951092390336C084E0809345
:1035C00069031092160310921503E0911303F09112
:1035D0001403099580911503811105C081E0809342
:1035E00015031092F302E091160381E08E0F809391
:1035F0001603F0E0ED50FD4F80818093BB00909169
:10360000160380911503981708F479CF85E8809305
:10361000BC000AC085EC8093BC001092690304C012
:10362000109267030E94FC17FF91EF91BF91AF9139
:103630009F918F917F916F915F914F913F912F91CA
:103640000F900FBE0F901F90189540911503262FD5
:1036500030E0240F311D21323105DCF42091690363
:103660002430C9F4FC0180E090E0861758F43091D2
:1036700015032191DC01AD50BD4FA30FB11D2C935B
:103680000196F3CF80911503680F6093150380E0D6
:10369000089581E0089582E00895682F8BE294E018
:1036A0000C942E1220918D0390918C03213208F0FE
:1036B0004AC0809169038111FCCF32E030936903E5
:1036C00031E0309368033FEF309367031092660355
:1036D00020936503ACE6B3E045E453E0FA013E2FE6
:1036E000341B321718F43D913193F9CF10924403F3
:1036F00020914403990F922B90934403909143039C
:10370000913061F410924303909144039093BB0075
:103710009091BC0093FDF8CF95EC01C095EE90938D
:10372000BC00909169039230E1F3909167039F3F51
:1037300079F080916703803241F080916703803394
:1037400031F084E005C081E003C082E001C083E085
:1037500010926B0310928D0310926A030895FF92EA
:103760000F931F93CF93DF931F92CDB7DEB7F42E45
:10377000082F10E0C80169830E94372E69818F15D8
:1037800041F0681728F46F2DC8010E94A41201C0EF
:10379000F82E8F2D0F90DF91CF911F910F91FF90F9
:1037A0000895CF93DF93CDB7DEB76B970FB6F8943C
:1037B000DEBF0FBECDBF789484B5826084BD84B572
:1037C000816084BD85B5826085BD85B5816085BD1C
:1037D00080916E00816080936E00109281008091D4
:1037E000810082608093810080918100816080935C
:1037F0008100809180008160809380008091B10081
:1038000084608093B1008091B00081608093B000AB
:1038100080917A00846080937A0080917A0082603F
:1038200080937A0080917A00816080937A00809101
:103830007A00806880937A001092C1000E94A612DC
:103840000E9453194B015C014C9B07C08091A90257
:103850009091AA0290FFC2C406C08091A9029091E3
:10386000AA0290FDC6C48091A9029091AA0280FD8F
:10387000E8C08091680190916901892B09F460C0CA
:10388000609168017091690110916701072E000C29
:10389000880B990B0E94CC2F6B017C01612F70E08B
:1038A00080E090E00E94CC2F9B01AC01C701B601E3
:1038B0000E94222F60935D0170935E0180935F01EF
:1038C0009093600120E030E040EC51E40E947C30B5
:1038D0009B01AC0160E070E68AE697E40E94222F2B
:1038E0000E94942F209152013091530126173707DF
:1038F00049F070935301609352018091A602816058
:103900008093A6021092690110926801C501B4016A
:103910000E94CA2F609363017093640180936501D4
:10392000909366018091620191E0980F90936201FB
:10393000811720F481E00E94A808F4CF1092620160
:10394000809161018F3F39F490916201809167010C
:10395000981708F0E9C08091A9029091AA0286FF09
:1039600015C020915D0130915E0140915F01509141
:103970006001C501B4012A8F3B8F488F598F0E9487
:10398000CA2F2A8D3B8D488D598D50C040906301C0
:10399000509064016090650170906601C501B401AA
:1039A0000E94CA2F6B017C019B01AC01C301B201D3
:1039B0000E941D2F87FFB8C0809162018F5F8093A6
:1039C000620181E00E94A80820915D0130915E01B2
:1039D00040915F01509160016091630170916401B9
:1039E00080916501909166010E94B12E6093630100
:1039F0007093640180936501909366016091630107
:103A0000709164018091650190916601A701960112
:103A10000E941D2F87FF88C020915D0130915E01BB
:103A200040915F0150916001C701B6010E94B12E23
:103A300060936301709364018093650190936601C4
:103A400073C080915C01882309F46EC080915C0191
:103A5000815080935C010E9453190091580110918C
:103A6000590120915A0130915B01012B022B032B4C
:103A7000B1F0009158011091590120915A013091F3
:103A80005B016B017C01C01AD10AE20AF30AC09201
:103A90008C01D0928D01E0928E01F0928F016093A3
:103AA00058017093590180935A0190935B01809162
:103AB000A9029091AA0287FF09C010920A021092EF
:103AC0000B0210920C0210920D0213C080910A0298
:103AD00090910B02A0910C02B0910D020196A11DD4
:103AE000B11D80930A0290930B02A0930C02B09335
:103AF0000D028091A9029091AA0298609093AA0267
:103B00008093A9028091A9029091AA028F77909345
:103B1000AA028093A9028091A9029091AA028460CE
:103B20009093AA028093A9028091A9029091AA027F
:103B30008F7B9093AA028093A9028091A902909111
:103B4000AA0281FF30C08091A9029091AA0284FF4D
:103B500008C06CEF8EE893E00E943A17109257016C
:103B600013C08091A9029091AA0283FF02C06AEF5C
:103B700007C08091A9029091AA0285FF05C06BEF52
:103B80008EE893E00E943A17809157011816C4F40A
:103B90008091570181508093570168EF8EE893E040
:103BA0000E943A170DC08091A9029091AA0284FF49
:103BB00005C06CEF8EE893E00E943A17109257010F
:103BC0008091A9029091AA02877C9093AA02809387
:103BD000A902809161018F3F09F44FC081112EC06D
:103BE0008091560110916701082E000C990B212F2E
:103BF00030E0821793070CF440C080915501882370
:103C000049F02091A7023091A80236FD03C061E07F
:103C10000E94AD1880915601811B8093560181E06E
:103C2000809361018091A7029091A80297FD02C044
:103C300086E001C08CE0809367011FC09091540121
:103C40009815D9F0809254018F5F843118F48093D5
:103C5000610102C010926101809161018A3069F4B2
:103C600080915501882349F02091A7023091A80244
:103C700036FD03C060E00E94AD188091A9029091CA
:103C8000AA0282FF1AC061E080E10E94AD18D5014E
:103C9000C4010596A11DB11D8093180290931902CD
:103CA000A0931A02B0931B028091A9029091AA02DC
:103CB0008B7F9093AA028093A9029E012F5F3F4FB2
:103CC000290180E1D9011D928A95E9F713E09091CD
:103CD000730180916A019817D1F08091A9029091A7
:103CE000AA0280FF0DC080912A0284FD8FC208C005
:103CF0008B3F08F098C2883F19F483E00E94A8081F
:103D0000809173018F5F877080937301E0CF809102
:103D10009D0283FF07C0C0902502C094CC1CCC2418
:103D2000CC1C01C0C12CA50194012C5E3F4F4F4F0C
:103D30005F4F2C8B3D8B4E8B5F8B72E0672E222466
:103D40002394E2E13E2E8EE893E00E940317892B34
:103D500009F487C28EE893E00E94E1169C01207F5F
:103D60003327203F310509F050C099278A3F91053C
:103D7000D1F024F4883F910541F0E5CF8B3F9105C8
:103D800001F18C3F910579F1DECF8091A9029091EC
:103D9000AA0280FFD8CF80912A0283FFD4CF82E08D
:103DA0000E94A808D0CF8091A9029091AA0280FF1A
:103DB000CACF80912A0283FFC6CF82E00E949B086F
:103DC000C2CF8091A9029091AA0280FFBCCF8091BE
:103DD0002A0283FFB8CF609274018091A90290916A
:103DE000AA02806239C28091A9029091AA0280FF42
:103DF000AACF80912A0283FFA6CF109274018091EE
:103E0000A9029091AA02806127C287FF10C0109278
:103E1000790180937801203C310519F0203D31056E
:103E200019F4209277018FCF609277018CCF309177
:103E30007801332309F487CFE091790191E09E0F57
:103E4000909379010E2E000CFF0BE654FD4F8083FA
:103E500020917701892F990F990B422F50E08417F9
:103E600095070CF470CF1092790161E088E02A8FF9
:103E70003B8F0E94AD184C895D896E897F89409384
:103E800020025093210260932202709323028091BA
:103E90002B022A8D3B8D8F3F21F0932F9F7098131B
:103EA000A9C0932F907F80912A02903929F0903BEE
:103EB000D1F0903809F079C081FD02C0CC2059F0D2
:103EC000850174014091BB026091BA02832F988FE3
:103ED0000E94B009988DD090BA027090BB029039C0
:103EE00009F027C191C085FF05C08091BA028837CB
:103EF00008F029CF8091B902833009F056C0209193
:103F0000A7023091A80230FF50C08091BA028734D6
:103F100081F050F4863409F048C08091BB028F775D
:103F200080548093760141C0883451F0893489F0FF
:103F30003CC08091BB028F7780548093750135C05F
:103F40006091BB0270E080E090E040E00E941B01C5
:103F50002CC03E7F3093A8022093A702398A80911B
:103F600076018A8B809175018B8B43E050E0BE0116
:103F70006F5E7F4F87EF9FE10E945602882399F082
:103F80004091350260E170E080E090E00E94E20B39
:103F900068EE73E080E090E00E9419198091A6021B
:103FA00081608093A6020E94C403D0902A02D2FCB2
:103FB00004C080919D0283FF0CC085017401209193
:103FC00077014091BB026091BA02809178010E9412
:103FD000B009D0FEB8CE80917801807F90912C02FC
:103FE00085017401209177014091BB026091BA0272
:103FF000892B07C0850174014091BB026091BA0210
:10400000832F0E94B0099FCE772009F495C0DD2050
:1040100009F492C090919D0293FF19C080912402EF
:104020009091250297FF8FCE809132028F3F09F445
:104030008ACED81AD09253028091AB0281608093CD
:10404000AB028091A60281608093A6027CCE609133
:104050006F0270917002E7E5F2E000E010E08FEF90
:1040600020E030E0AD2DB0E0261737078CF4419109
:1040700051917A01E894E7F8FF24EA16FB0609F467
:10408000822F57FF02C00F5F1F4F2F5F3F4FECCFB4
:10409000109328020093270287FD16C00115110511
:1040A00099F0880F990BFC01E85BFD4F878590899B
:1040B00097FD49CE9068908B87870F5F1F4F1093B5
:1040C0002802009327023FCE0115110591F41092AA
:1040D000700210926F0292FF0AC08091A902909123
:1040E000AA0280689093AA028093A90202C00E944B
:1040F0006A0820916F02309170022B3031050CF06C
:1041000022CEF901EE0FFF1FE85BFD4F8D2D90E0F1
:1041100090689729908B87872F5F3F4F309370026D
:1041200020936F020F5F1F4F109328020093270206
:104130004FC0903809F007CE20916F023091700285
:10414000E8E4F2E0A0E0B0E0FF24FA9460E070E080
:104150008D2D90E0621773079CF4478550898A0182
:104160000F7711270817190729F45F77508B4787B6
:10417000F62E02C057FD11966F5F7F4F3296EACF41
:10418000B0932802A093270280919D0282FDDBCD8F
:10419000F7FCD9CD8F2DFF0C990BBC01660F771F53
:1041A00040E050E0215031094E5F5F4F8217930786
:1041B0005CF40196FA01E60FF71FE85BFD4FA78557
:1041C000B089B687A587F0CF3093700220936F0235
:1041D0008091AB0281608093AB02B5CD8091A90242
:1041E0009091AA0291609093AA028093A9028BEF0A
:1041F0000AC08091A9029091AA029E7F9093AA0280
:104200008093A9028CEF0E9453082DCBE09173019B
:10421000F0E0E559FE4F80818A3F09F069CD83E0E7
:104220000E949B086DCD8B3F41F4109374018091E7
:10423000A9029091AA0280620AC08C3F09F060CD69
:10424000109274018091A9029091AA0280619093CA
:10425000AA028093A90254CD9093AA028093A90246
:1042600072CD80919D0282FD0EC0809127029091B7
:104270002802892B41F480916F0290917002892B62
:1042800011F00E94C1078091AB0280FF09C00E941B
:10429000D0038091AB028E7F8093AB0210922602F6
:1042A0008091A9029091AA0293FF9DC1809133024F
:1042B00090913402892B09F496C120918102222326
:1042C00009F491C160910A0270910B0280910C0275
:1042D00090910D0230E040E050E00E947F2E60930C
:1042E0000902672B682B692B01F5809192028823C4
:1042F000E1F0E0912F02F0E0E85BFD4F82AD8093AA
:1043000053020E94D0031092260280912F028F5FE9
:1043100080932F0290919202891710F010922F0231
:104320008091A60281608093A60260900902862D8A
:1043300090E0BC01685B7D4F3B01DB0199962C91BD
:1043400020FD06C0809124029091250295FF3EC178
:10435000C0903302D09034028091300290913102AB
:104360008C159D0524F01092310210923002221F0C
:104370002227221F220F30E0F301B996FD8BEC8B30
:104380008091300290913102223051F0FC01EE0F09
:10439000FF1FEF56FE4F3180331C3324331C02C005
:1043A00033243394AC89BD892C9120FF82C0880FBF
:1043B000991FFC01EF56FE4F308181813F7725FF29
:1043C00004C03D3010F03C500BC024FF04C0343713
:1043D00010F4345F05C026FF03C0353008F03550B7
:1043E0009091AB0291FD0FC023FF03C020905102BA
:1043F0000BC090914F02992319F02090500204C0F5
:104400008F77282E01C0212C8091B902833071F45E
:104410008091A7029091A80296FF08C023FB66270F
:1044200060F98BE03B8F0E94AD183B8D332309F47C
:1044300040C080912A0286FF15C080918A018215B2
:1044400089F03B8F0E94531950912C027B018C0103
:1044500022E0422D69E2852F806B0E94B0092092F4
:104460008A013B8D80912C028501740122E0422D4E
:10447000632F80693B8F0E94B0093B8D832F87702B
:1044800041E050E001C0440F8A95EAF7832F90E0A5
:1044900023E0959587952A95E1F7FC01E658FE4FB4
:1044A0002081242B2083F201E80FF91F8081482B03
:1044B00040838091300290913102019690933102B5
:1044C00080933002311003C0311107C051C021E088
:1044D0008C159D050CF454CFF7CFF30111A512FDF7
:1044E00003C01695117001C012E08091B9028330AB
:1044F000E9F420919001632F70E080E090E02223A6
:1045000021F041E00E941B010DC040E00E941B0110
:1045100060E08EE00E94AD1861E070E080E090E025
:104520000E94191961E08EE00E94AD18A201C50138
:10453000B4010E94170B123061F41092BC02109269
:10454000BD021092BE021092BF0281E080939001E2
:104550003DC0113069F480918C0190918D01A09142
:104560008E01B0918F01880D991DAA1DBB1D1BC026
:10457000A0915202AA2301F120918C0130918D016A
:1045800040918E0150918F01B0E00E946C2E26E97F
:1045900030E040E050E00E947F2ED501C401820F40
:1045A000931FA41FB51F8093BC029093BD02A093DC
:1045B000BE02B093BF0208C01092BC021092BD02AE
:1045C0001092BE021092BF021092900181E080937F
:1045D0008B018091A9029091AA02977F9093AA02E1
:1045E0008093A90215C08091BC029091BD02A09158
:1045F000BE02B091BF020097A105B10511F40C9461
:10460000342D88159905AA05BB0510F40C943C2D92
:1046100080910F0290911002A0911102B0911202AC
:1046200088159905AA05BB05C8F410910E02612FE3
:104630008DE00E94AD1881E0111180E080930E02A0
:10464000D501C4018C509E4FAF4FBF4F80930F02D6
:1046500090931002A0931102B09312028091200255
:1046600090912102A0912202B09123020097A1050E
:10467000B10589F088159905AA05BB0560F460E0CD
:1046800088E00E94AD181092200210922102109230
:1046900022021092230280911C0290911D02A0918F
:1046A0001E02B0911F020097A105B10589F088157F
:1046B0009905AA05BB0560F460E081E10E94AD1890
:1046C00010921C0210921D0210921E0210921F02E4
:1046D0008091180290911902A0911A02B0911B02C8
:1046E0000097A105B10589F088159905AA05BB05B4
:1046F00060F460E080E10E94AD1810921802109200
:10470000190210921A0210921B02C0901402D0904B
:104710001502E0901602F0901702D701C6018C59DD
:104720009F4FAF4FBF4F88169906AA06BB0608F4E5
:104730003FC08CE00E94841820919D02892BF1F4E7
:1047400020FD04C0216020939D022AC0822F827127
:1047500079F58091950290919602B701A601480FD4
:10476000591F611D711D481559056A057B0500F526
:104770002A6020939D02109213021AC020FF18C0D5
:10478000822F827141F423FF02C0277F02C084E0A0
:10479000282720939D0280919D028C7E80939D020C
:1047A0008092140290921502A0921602B092170203
:1047B000F0909D02F3FE06C060911302661F66270B
:1047C000661F03C0F2FA662760F989E00E94AD18FF
:1047D0009091A602592F5170652E692F6E7F6093BC
:1047E000A602782C082D007F8091A502807F80177B
:1047F00019F08092A50201601091A4021F3F89F078
:104800008FEF8093A402A5019401205F384D4F4F94
:104810005F4F2093A0023093A1024093A2025093D5
:10482000A30280919F028F3F49F480919E028330C2
:1048300009F04EC084E080939E024AC02FEF20937F
:104840009F022F2D23702130B1F42091B902235003
:10485000223088F42F2D206120939D02843031F086
:10486000883031F0882331F080E005C081E403C056
:1048700082E401C080E420919C0230E0482F082EA1
:10488000000C550B4217530721F420919E0224304F
:1048900079F480939C0281E080939E0210929802AA
:1048A0001092990210929A0210929B0266246394CD
:1048B0007501640170E1C70E77E2D71EE11CF11C9F
:1048C000C092A002D092A102E092A202F092A302B2
:1048D000809197028F3F09F441C0862F82608093B8
:1048E000A6028091980290919902A0919A02B091AB
:1048F0009B020097A105B10599F4809195029091D2
:10490000960275016401C80ED91EE11CF11CC0920B
:104910009802D0929902E0929A02F0929B022AC0E9
:1049200088159905AA05BB0528F580919E0282305D
:1049300020F482E080939E020EC083E080939E026A
:104940008FEF9FEFDC018093980290939902A093E0
:104950009A02B0939B02662463940CC09C7F94607F
:104960009093A602109298021092990210929A02C5
:1049700010929B028091A0029091A102A091A202AC
:10498000B091A3020097A105B105B9F08816990668
:10499000AA06BB0690F08091A70284FF04C0109283
:1049A0009C0210929E021092A0021092A1021092FC
:1049B000A2021092A3026624639480919C02863026
:1049C00009F4ABC390F4823009F42EC338F4882381
:1049D00009F448C7813009F449C144C790919E0247
:1049E0008430C1F008F427C58DC18A3009F4D1C3E1
:1049F00040F490919E02883009F451C008F4CBC570
:104A0000B2C28B3009F425C690EC980F933008F4AD
:104A10009FC628C7933060F1103100F52FE030E0D9
:104A2000211B310917FD339581E090E002C0880F0A
:104A3000991F2A95E2F79C012F71232B79F0209181
:104A4000A7023091A802822793279093A80280930F
:104A5000A7020E94C4030E94770303C0662009F4E2
:104A600005C76091A7027091A8028FE19FEF43C034
:104A7000103120F41F5F1093810203C0662009F4F7
:104A8000F5C60E94AF106091810270E0409146022D
:104A900080E090E00E94E20BE091810269C39330D4
:104AA00068F11031F8F42FE030E0211B310917FDD7
:104AB000339581E090E002C0880F991F2A95E2F7B4
:104AC0009C012227307A232B69F020912402309117
:104AD00025028227932790932502809324020E9427
:104AE000D40703C0662009F4C1C660912402709106
:104AF000250280E090EA0E94B60BB8C61C30C1F0D7
:104B00005CF4163008F096C010934B028091AB0213
:104B100081608093AB0291C01E3009F47AC00CF41E
:104B20004FC01F3009F086C0E1E7F2E081E07CC0B1
:104B300001E712E0D8018C9181708C938823C1F138
:104B40000E94292E28E030E040E050E00E944D2EE7
:104B5000653071058105910509F174F463307105C3
:104B600081059105B9F0643071058105910501F564
:104B7000D8018C91846019C066307105810591055A
:104B800089F0673071058105910591F4F801808104
:104B900082610DC0F8018081886009C0F8018081C0
:104BA000826005C0D8018C9180618C9301C08083A4
:104BB0000F5F1F4FF2E001381F0709F0BBCF3AC06B
:104BC00001E712E0FF24F39489E0E82E0E94292EE9
:104BD00025E030E040E050E00E944D2E97FD10C0EF
:104BE000623071058105910544F0643071058105DD
:104BF000910531F4F801E08205C0D8011C9202C091
:104C0000D801FC920F5F1F4FB2E001381B07F1F68D
:104C100011C0E1E7F2E0119222E0E138F207D9F7A2
:104C200080E18093810206C0819332E0E138F3078E
:104C3000D9F7F6CF662009F419C60E94AF1010917B
:104C40004702412F66E070E080E090E00E94E20BB6
:104C5000E0914B02F0E080913502EA5CFD4F8083E9
:104C6000412F64E070E08CE090E0C1C480919E022E
:104C7000833048F11C3040F4109354028091AB0211
:104C800081608093AB0203C0662009F4EFC50E94E7
:104C9000AF10409147026CE070E080E090E00E942D
:104CA000E20B809146028093370280933902809311
:104CB0003C0280933E0280934002E09154020E2E0B
:104CC000000CFF0BC1C4173048F4135010934C0272
:104CD0008091AB0281608093AB0203C0662009F42F
:104CE000C5C50E94AF104091460267E070E080E0C9
:104CF00090E00E94E20B8091470280933902E0919C
:104D00004C021DC5933008F413C117FD7FC0812FDD
:104D1000110F990BAA0BBB0B8031910508F070C0E5
:104D2000FC01EC5CFF4F0C9409318091550290918D
:104D300056028F6F9F6060C080915502909156021D
:104D40008827907F856D9A6057C080915502909119
:104D500056028827907F86659B604EC080915502E1
:104D6000909156028827907F8A659D6045C080910A
:104D70005502909156028827907F856B9A603CC0BF
:104D800080915502909156028827907F866D9A6097
:104D900033C080915502909156028827907F8A6592
:104DA0009B602AC080915502909156028827907F7F
:104DB0008A669D6021C080915502909156029F782D
:104DC0001BC080915502909156029F78906114C04B
:104DD00080915502909156029F7890620DC080910B
:104DE0005502909156029F78906306C080915502BB
:104DF000909156029F78906490935602809355024A
:104E00008091AB0281608093AB0203C0662009F4FD
:104E10002DC50E94AF1010914602412F68E070E04E
:104E200080E090E00E94E20B412F65E070E08BE0B3
:104E300090E00E94E20B80914702809336028093BB
:104E400044022091550230915602C9019F70863567
:104E50004BE0940779F180F4853D6AE0960729F1EB
:104E6000863D7AE0970781F1853B9A40B1F58091C4
:104E7000350280933A0231C08A35BDE09B07F9F0D4
:104E800040F48A359B4049F58091350280933C027D
:104E900024C08A364DE09407E1F08F3F9F40E9F44B
:104EA000809135028093360218C08091350280933C
:104EB000370213C080913502809338020EC0809172
:104EC00035028093390209C08091350280933B02FC
:104ED00004C08091350280933D02C90188279077F4
:104EE000811560E29607D1F058F4009791F0811592
:104EF000904109F0BBC48091350280934202B6C450
:104F00008115B0E39B0779F08115904409F43EC107
:104F1000ADC48091350280934102A8C480913502CE
:104F200080934302A3C480913502809344029EC4BF
:104F3000143048F41F5F10934D028091AB028160E2
:104F40008093AB0203C0662009F490C40E94AF10A6
:104F50004091460264E070E080E090E00E94E20B45
:104F6000E0914D0205C19230B1F40E94C107109248
:104F70002602D12C0E9453197B018C0180912C02B6
:104F800022E040E06D2D80680E94B009D394F0E8E3
:104F9000DF12F0CF6BC48EE0E8E0F1E0D2010190C7
:104FA0000D928A95E1F71E3060F4F201E10FF11DD8
:104FB00017FDFA95808190E090934A028093490210
:104FC00003C0662009F452C40E94AF10409146020B
:104FD0006DE070E080E090E00E94E20B809147027B
:104FE000809336028093380280933B0280933E0286
:104FF00080934102809343024091490250914A02BA
:10500000F20180E090E0219130E04217530739F43B
:1050100020913502FC01EA5CFD4F208327C40196F4
:105020008E30910581F722C480919E02833060F119
:1050300080E1E6E1F1E0D20101900D928A95E1F77D
:10504000103148F4F201E10FF11D17FDFA9580814E
:105050008093510203C0662009F408C40E94AF1077
:1050600030915102209147028FE090E0F201E80F69
:10507000F91F4081FC01EA5CFD4F341708F044C081
:105080002083019798F7F2C380E1E6E1F1E0D201D5
:1050900001900D928A95E1F711110BC08091500299
:1050A000811109C080914F02882329F010924F028C
:1050B00011C0103160F4F201E10FF11D17FDFA95F6
:1050C00080818093500281E080934F0203C066206C
:1050D00009F4CCC30E94AF1080914F02811107C028
:1050E000809135028093360280934502BFC3309190
:1050F000500220914702D20180E090E04D91FC01E6
:10510000EA5CFD4F431718F0809135021FC32083DE
:1051100001968031910591F7A9C31F3048F4110F12
:105120001E5FE12FEE0FEE0F1E0F1093520208C00C
:105130001F3019F41092520203C0662009F496C37E
:105140000E94AF10809152028823C1F01AE0612FB3
:105150000E94E930682F70E04091470280E090E0C3
:105160000E94E20B80915202612F0E94E930E82FE9
:10517000F0E080913502EB5CFD4FE8C240914702C0
:1051800060E170E080E090E00E94E20B80913502E7
:10519000ABCF80919E02833008F479C0103108F0C3
:1051A00043C041E050E002C0440F551F1A95E2F79A
:1051B000809193029091940248275927509394022A
:1051C00040939302109228021092270280E090E010
:1051D00020E330E061E070E0FB01E423F523EF2BF6
:1051E00069F08B30910554F4FC01EE0FFF1FE85B72
:1051F000FD4FD901BF67B08BA7870196660F771F58
:105200002F5F3F4F2034310539F790937002809320
:105210006F028091AB0281608093AB0280919D020E
:10522000846080939D0203C0662009F41FC3A0918F
:105230009302B09194021091350200914702F090D0
:10524000460221E030E080E090E0A9014A235B23A0
:10525000BC016A5C7D4F6B018F30910550F4BC013D
:105260006C5B7F4FFB010C940931452B31F4402FCF
:1052700005C0452B11F44F2D01C0412FF60140838D
:10528000220F331F019680319105F9F6EFC2812F6D
:10529000012E000C990BAA0BBB0B8031910508F075
:1052A000AEC0FC01ED5AFF4F0C94093110934E0231
:1052B0008091AB0281608093AB02A4C00E94292E32
:1052C00023E030E040E050E00E944D2E6E5F7F4FC3
:1052D0007093700260936F02E7E5CE2EE2E0DE2E5F
:1052E00000E010E080916F0290917002081719079A
:1052F0000CF077C00E94292E2CE030E040E050E016
:105300000E944D2E7B01F0E3EF0EF11CE7E5F2E089
:1053100080E090E0801791070CF0C8C32191319193
:105320002F7733272E153F0529F30196F3CF80E31E
:105330009FE7909358028093570283E39FE71DC035
:1053400080E39FE7909358028093570284E39FE79E
:1053500090935A028093590287E39FE790935C02EF
:1053600080935B028BE39FE714C080E39FE79093F9
:1053700058028093570284E39FE790935A028093E8
:10538000590287E39FE790935C0280935B028AE374
:105390009FE790935E0280935D0284E090E01DC0E1
:1053A00080E39FE7909358028093570283E39FE73F
:1053B00008C080E39FE7909358028093570284E3EC
:1053C0009FE790935A028093590287E39FE7909357
:1053D0005C0280935B0283E090E090937002809384
:1053E0006F0210929402109293028091AB0281603E
:1053F0008093AB0280919D02846080939D02662021
:1054000009F434C20E94AF104091460265E070E09A
:1054100080E090E00E94E20BE0914E02F0E080918B
:105420003502EA5CFD4F80834091470266E070E000
:105430008AE090E0DCC0933008F4A8C0111104C0E9
:1054400060912A0281E023C0113021F460912A0288
:1054500082E01DC0123021F460912A0284E017C05E
:10546000133021F460912A0288E011C0143021F435
:1054700060912A0280E10BC0153021F460912A026C
:1054800080E205C0163049F460912A0280E4682762
:1054900060932A0288E690E01BC0173079F460918F
:1054A0002A02605860932A0288E690E00E94A412C3
:1054B00080912A0280780E94930B10C0183059F412
:1054C0006091290281E06827609329028DE690E0CF
:1054D0000E94A41203C0662009F4C8C10E94AF1044
:1054E00080912A0280FF03C09091350202C0909102
:1054F00046029093360281FF03C09091350202C0AC
:10550000909146029093370282FF03C0909135023A
:1055100002C0909146029093380283FF03C090919D
:10552000350202C0909146029093390284FF03C075
:105530009091350202C09091460290933A0285FF05
:1055400003C09091350202C09091460290933B02B5
:1055500086FF03C09091350202C09091460290935D
:105560003C0287FF03C08091350202C08091460251
:1055700080933D028091290280FF03C08091350213
:1055800002C08091460280933E0270C1662D812F39
:105590000E94F20B6BC1933068F11031C8F4809116
:1055A0002B0290E0212F012E000C330B8217930762
:1055B00029F48FEF80932B026FEF03C010932B021F
:1055C000612F84E690E00E94A4120E94C10703C0EC
:1055D000662009F44BC10E94AF10E0912B02EF3F0F
:1055E00091F54091350260E170E080E090E00E942A
:1055F000E20B3CC11031C0F480912C0290E0212FCD
:10560000012E000C330B8217930731F00E945319BF
:1056100040E050E00E94170B10932C02612F85E6AA
:1056200090E00E94A41203C0662009F41FC10E94EA
:10563000AF104091460260E170E080E090E00E948F
:10564000E20BE0912C02F0E080913502EA5CFD4F24
:105650007DC0103108F043C08091A60281FF2EC0AA
:1056600082FF0BC010922F021092920210922E0213
:1056700010922D028B7F8093A602A0919202AF30F0
:1056800088F581E090E0012E02C0880F991F0A94EE
:10569000E2F720912D0230912E02822B932B9093D2
:1056A0002E0280932D0281E08A0F80939202B0E057
:1056B000A85BBD4F1350DA961C9314C010922F02B2
:1056C0001092920210922E0210922D0213501093FB
:1056D00053028091AB0281608093AB0203C06620CD
:1056E00009F4C4C04091460260E170E080E090E0BF
:1056F0000E94E20B20912D0230912E0228603093FF
:105700002E0220932D026091470280E090E041E05C
:1057100050E0FA01E223F323EF2B21F0FC01EA5CD5
:10572000FD4F6083440F551F01968031910589F725
:10573000E091530283E08E0F803108F097C00E2E67
:10574000000CFF0B80913502E75CFD4F80838EC01B
:10575000103108F051C08134E9F1823409F442C0BB
:10576000812F0E945C03882309F446C04DE450E079
:1057700068E472E080E0912F990F0E94B6021092C7
:105780003402109233028FEF809332021092310272
:105790001092300210922F0210922E0210922D02BF
:1057A00080919D028C7E846080939D0210929E0267
:1057B00081E08093A6028091AB0281608093AB026E
:1057C0008091A9029091AA0280689093AA02809386
:1057D000A90212C080EA809348024DE450E068E4D8
:1057E00072E004C0198241E050E0B20180E0912FE4
:1057F000990F0E94560202C06620B1F000E010E04E
:10580000802F0E945C03882319F08091470202C018
:1058100080914602F801EA5CFD4F80830F5F1F4FC5
:105820000031110569F722C000FF20C0007F3091D0
:105830004602509147024091350280E090E0FC0121
:10584000EA5CFD4F2081231721F0002321F0242F53
:1058500003C0232F01C0252F20830196803191059D
:1058600071F704C0662D812F0E94BA108091B90291
:10587000833009F058C08091B802781609F4F0C05E
:105880008092B8024091B4025091B5026091B60284
:105890007091B702411551056105710509F4E0C029
:1058A0008091B0029091B102A091B202B091B30286
:1058B000840F951FA61FB71F8093B0029093B1026B
:1058C000A093B202B093B3020091AC021091AD026A
:1058D0002091AE023091AF02141615061606170677
:1058E00034F480179107A207B30734F415C00817E2
:1058F00019072A073B0784F00093B0021093B10206
:105900002093B2023093B3021092B4021092B50207
:105910001092B6021092B7028091B2029091B30237
:105920000E94F7009DC0813009F09AC0D501C401E2
:1059300034E0B695A795979587953A95D1F720913C
:10594000B802281709F48CC08093B8028091AB028A
:105950008D7F8093AB028091A9029091AA029B7FD8
:105960009093AA028093A902E090A702F090A80267
:10597000C70188279370811522E0920759F081159D
:1059800033E0930759F08115914089F49501840122
:1059900041E007C09501840140E803C095018401FE
:1059A00042E165E070E08BE394E00E94FA09C701F0
:1059B00088279C70811558E0950759F081156CE097
:1059C000960759F08115944089F49501840142E8C5
:1059D00007C09501840143E803C09501840141E1BA
:1059E00064E070E089E394E00E94FA09C701882727
:1059F00090738115A0E29A0759F08115B0E39B07D7
:105A000059F08115904189F49501840141E807C05E
:105A10009501840144E803C09501840140E160E000
:105A200070E087E394E00E94FA098BE0F6FE0FC075
:105A30000E948418892BA1F48091A9029091AA0256
:105A4000806896609093AA028093A90209C00E9480
:105A50008418892B29F48091AB0282608093AB0279
:105A60000E94A3170C94201C809133029091340261
:105A7000892B11F00C94082340E050E0C501B401DB
:105A80000E94170B1092BC021092BD021092BE022F
:105A90001092BF028091B902833011F00C94082358
:105AA00060E08EE00E94AD180C9408230E94292E1D
:105AB00020E430E040E050E00E944D2EDC01CB01BC
:105AC000805C9F4FAF4FBF4FBA2FA92F982F8827C9
:105AD000B701682B792BD6016D937D936D010F5F14
