:100000000C94B3000C9499170C9472170C94DB00A9
:100010000C9412080C94DB000C94DB000C94DB00B5
:100020000C94DB000C94290C0C94DB000C94DB008A
:100030000C94DB000C94DB000C94DB000C94DB00D4
:100040000C94311B0C94DB000C94E6170C94C01735
:100050000C94DB000C94DB000C94DB000C94DB00B4
:100060000C9418180C94DB00FD2404250D2516258E
:100070001F25282531253A2568256825682543252B
:100080004925502557255E2589278D2789278D27C6
:10009000892789278D2789278D2789278D278927D4
:1000A00089278D278927A927A927A927A927A9272C
:1000B0006D286D286D286D286D28B12705280E281C
:1000C00023283E28472829012E01330138013D010C
:1000D000420147014C01510156015B01E504050550
:1000E0002405A204A204E504E5045A108310491172
:1000F000CE10CE10CE10CE10CE10CE10CE10CE1010
:10010000CE104911D3101111271100000000240056
:1001100027002A0000000000250028002B00000016
:10012000000023002600290004040404040404043D
:100130000202020202020303030303030102040892
:100140001020408001020408102001020408102041
:100150000000000800020100000304070000000086
:1001600000000000A52D11241FBECFEFD8E0DEBF98
:10017000CDBF11E0A0E0B1E0E2E0F3E602C00590FF
:100180000D92A235B107D9F724E0A2E5B1E001C094
:100190001D92AD33B207E1F710E0C3EBD0E004C02D
:1001A0002197FE010E946031C23BD107C9F70E942E
:1001B0007B1B0C947F310C940000CF93C82F292F08
:1001C00081E08093610380E6809383031092620351
:1001D00010928403822F922F990F990B8F70992779
:1001E0000E94DD196C2F82E294E00E943D17CF91AE
:1001F0000C94FB198F929F92AF92BF92CF92DF9295
:10020000EF92FF920F931F93CF934B015C01C42F8A
:100210008091A7029091A802E0907501F09074017E
:1002200095FF90C068E486169104A104B10409F416
:1002300047C0882D6CE00E944031892F90E0FC017E
:100240003197EB30F10508F040C0ED59FF4F0C94A9
:10025000603107E418E020E030E03BC005EC18E036
:1002600020E030E036C00AE419E020E030E031C0A0
:1002700008ED19E020E030E02CC00EE61AE020E0A6
:1002800030E027C00CE01BE020E030E022C005EBAE
:100290001BE020E030E01DC007E61CE020E030E07D
:1002A00018C004E21DE020E030E013C00CEE1DE0B9
:1002B00020E030E00EC00FEB1EE020E030E009C08F
:1002C00000EA1FE020E030E004C000ED17E020E08D
:1002D00030E0882D6CE00E944031863008F085E0E7
:1002E00045E050E0BA01681B7109A901980104C0FA
:1002F00055954795379527956A95D2F7AE2DEE0C13
:10030000BB0BB05F0E94CE2EDC01CB012CE0B5957B
:10031000A795979587952A95D1F7CF2CFF0CDD08E7
:10032000EE08FF08C80ED91EEA1EFB1EC11470E1BC
:10033000D706E104F1040CF440C0F594E794D79497
:10034000C794F4CFA50194012C50310941095109FA
:10035000A4EFB1E00E94C32E2CE030E040E050E07A
:100360000E94A42EAE2DEE0CBB0BB05F0E94CE2ED1
:1003700020E030E140E050E00E94A42ECF2CFF0CA2
:10038000DD08EE08FF08C20ED31EE41EF51EF7FEC0
:1003900007C084EFC80E81E0D81EE11CF11CF7CF26
:1003A000C11460E1D606E104F1043CF074EFC71A11
:1003B00071E0D70AE108F108F3CFD6019927882721
:1003C0008093AC029093AD02A093AE02B093AF02C3
:1003D00020918B0130918C0140918D0150918E01C3
:1003E0008090B0029090B102A090B202B090B3029F
:1003F000BC01CD01681979098A099B090E94A42EC4
:100400002093B4023093B5024093B6025093B702E2
:10041000CC2321F0232B242B252BD9F4C6010E94B9
:10042000DD008091AC029091AD02A091AE02B0913E
:10043000AF028093B0029093B102A093B202B09346
:10044000B3021092B4021092B5021092B60210924A
:10045000B702CF911F910F91FF90EF90DF90CF9057
:10046000BF90AF909F908F9008958F929F92AF9280
:10047000BF92CF92DF92EF92FF920F931F93CF9391
:10048000DF938C016B017A019924939480E5882E87
:100490001E141F040CF049C09092610380928303E4
:1004A0001092620310928403812F912F990F990B60
:1004B0000E94DD19C80199270E94DD19E70181E139
:1004C000E816F10414F0C0E1D0E00C0F1D1FEC1A87
:1004D000FD0A5601F50161915F0182E294E00E94FC
:1004E0003D17C5018C199D098C179D079CF31C169F
:1004F0001D0614F0C1E0D0E0CC0EDD1E0E94FB19F9
:10050000909261038092830310926203109284039D
:1005100080E090E00E94DD1980E090E00E94DD190B
:100520000E94FB19823061F3B3CFDF91CF911F910D
:100530000F91FF90EF90DF90CF90BF90AF909F9082
:100540008F900895AF92BF92CF92DF92EF92FF9279
:100550000F931F93CF93DF937C018B01EA0181E01E
:100560008093610380E5809383031092620310926D
:1005700084038F2D9F2D990F990B0E94DD19C701C0
:1005800099270E94DD190E94FB19DD24D394CC2405
:10059000CA9485EEB82E95ECA92E1C161D060CF0FB
:1005A0005FC0AE01C132D10514F040E250E0C41B7F
:1005B000D50B809160038111FCCF942FD092600302
:1005C000D0925F03C0925E0310925D032FEF240F61
:1005D00020935C03D0923B0320913B03206A20933D
:1005E0003B0320913A03213069F410923A032091A1
:1005F0003B032093BB002091BC0023FDF8CFA092C9
:10060000BC0002C0B092BC00209160032130E1F335
:1006100020915D03291710F490915D03ECE3F3E062
:10062000A1EDB2E020E0291721F031913D932F5F39
:10063000FACF1092F2022093F10230E0241735072E
:1006400081F47801040F151FE016F10609F4A5CF17
:1006500082E294E00E94F416F70181937F01F4CFC7
:1006600081E0DF91CF911F910F91FF90EF90DF908C
:10067000CF90BF90AF900895CF93DF931F92CDB7E7
:10068000DEB71982982F990F41E050E0BE016F5FED
:100690007F4F80E00E94A202882321F081E09981AF
:1006A000903A09F080E00F90DF91CF91089580910A
:1006B000A7029091A8029C012370332722303105B4
:1006C00099F023303105C1F02130310529F024E6BD
:1006D0002093340223E004C02FEF2093340229E159
:1006E0002093460221E00FC02FEF2093340229E12E
:1006F0002093460224E007C02FEF2093340223E228
:10070000209346022AE0209345028C70992784307A
:10071000910569F018F4892B39F008958830910516
:1007200049F00C9751F008958AEF90E008C084EFEB
:1007300091E005C088EE93E002C08CED95E09093C7
:1007400096028093950208956091A70289E690E051
:100750000E948D196091A8028AE690E00C948D1990
:100760002F923F924F925F926F927F928F929F92C1
:10077000AF92BF92CF92DF92EF92FF920F931F93AF
:10078000CF93DF93CDB7DEB7CF59D1090FB6F89429
:10079000DEBF0FBECDBF8FEF809389018093310202
:1007A000109233021092320280916F029091700287
:1007B000892B09F465C380914B02833088F5CE0103
:1007C00087589F4F0E94832D20916F0230917002B5
:1007D00021503109FE01E758FF4F80E090E0DD2411
:1007E000D394821793072CF0DD20A1F38091570258
:1007F0001CC041915191608171817A01E894E7F8C0
:10080000FF24DB01AF77BB27AE15BF053CF4DF014A
:1008100012976D937C9351834083D12C0196E1CF45
:10082000CE0187589F4F0E94832D809331028824E8
:100830008394912C612C712C2FE730E0CF56DF4F41
:1008400039832883C159D040E12CF12C5DC05CE391
:10085000E516F1040CF023C2E0914B024E2F50E05C
:100860004730510508F465C040916F025091700205
:10087000C656DF4F59834883CA59D04080915402ED
:10088000E82F880FFF0BC456DF4FF983E883CC595C
:10089000D0402091550230915602C856DF4F39831F
:1008A0002883C859D040F901EE27F077A201440F00
:1008B000551FC256DF4F59834883CE59D040C801D7
:1008C000880F991F29E730E02C0F3D1F280F391F93
:1008D000CC56DF4F39832883C459D04017FF0DC150
:1008E0005FEFC51AD50A20914D02822F90E0C816FD
:1008F000D9060CF4ACCF8114910409F4D0C13CE3C7
:10090000E316F1040CF0CBC1809155029091560290
:1009100090589093560280935502492F441F4427C4
:10092000441FCD56DF4F4883C359D040C12CD12C32
:10093000DACFFA01E259FF4F00916F021091700275
:100940000C946031FE01E758FF4F80E090E0801783
:10095000910724F4119211920196F9CF37E5A32E55
:1009600032E0B32E00E010E080916F0290917002AF
:100970000817190754F520906F0230907002032C6D
:10098000000C44085508211431044104510441F07D
:100990000E94372EA20191010E94A42E1B012C015E
:1009A000220C331CE9E7F0E0EC0FFD1FE20DF31D14
:1009B00080819181892BF9F6D5018D919D915D0101
:1009C000918380830F5F1F4FCFCFA0906F02B090B5
:1009D0007002B1E0AB1AB10880914C02F601E80F49
:1009E000F11D87FDFA952CE02E9F10012F9F300CF2
:1009F000112480915302280E311C87FD3A9444241F
:100A00004394512C00E010E01CC0015011092091CA
:100A10004C02820F911D27FD9A958C199D09019713
:100A20002CE0289F1001299F300C11248091530243
:100A3000280E311C87FD3A9444244A94542CA12C4E
:100A4000B12C812C912C10CF50914C02409153022B
:100A5000F1E08F16910409F5580121E0A21AB108BE
:100A60009601250F311D57FD3A955CE0529F10010C
:100A7000539F300C1124240E311C47FD3A940197EA
:100A800044244394512C00E010E0C816D90609F024
:100A9000EBCEB2E08B2E912CE7CE213019F4025030
:100AA00011090EC0C114D10419F4025011090EC06D
:100AB0009C012150310901501109C216D30631F4AD
:100AC000AA24A394B12C812C912C02C0A12CB12C6E
:100AD000850F911D57FD9A958C199D0901972CE062
:100AE000289F1001299F300C1124240E311C47FD32
:100AF0003A9444244A94542CB7CEC656DF4F4881CA
:100B00005981CA59D040041715070CF0E9CE5CE3AF
:100B1000E516F1040CF0E4CECC56DF4FA881B98184
:100B2000C459D0400D90BC91A02DCA56DF4FB98357
:100B3000A883C659D0409D012F773327220D331D3E
:100B4000C901C456DF4F48815981CC59D040841B1C
:100B5000950B97FF02C00C96FCCF6CE070E00E94F2
:100B60004C3160E078E002C0759567958A95E2F7B0
:100B7000CB01C856DF4F48815981C859D0408423E2
:100B80009523892BB1F5E11550E2F507A1F050F45A
:100B9000309709F469C0E11570E1F70751F520E0DD
:100BA00030E027C0E11580E3F80741F0E11590E45B
:100BB000F90739F01EC0215031091BC02F5F3F4F8C
:100BC00018C0CD56DF4FA881C359D040AA2319F0D1
:100BD0002F5F3F4F02C021503109CD56DF4FB88102
:100BE000C359D04041E0B427CD56DF4FB883C35935
:100BF000D040203831051CF02C503109FACF37FF96
:100C000003C0245F3F4FFBCFC956DF4F8881C759D0
:100C1000D0408F77B901782BCB01A3014F775527AF
:100C2000421753070CF43B01CF56DF4F48815981DF
:100C3000C159D0404F7755272417350734F4CF5684
:100C4000DF4F99838883C159D040D701AA0FBB1FBA
:100C500021E030E02C0F3D1FA20FB31F8D939C931A
:100C6000A7014F5F5F4F7A01CC56DF4F2881398152
:100C7000C459D040C256DF4F48815981CE59D04027
:100C8000240F351FCC56DF4F39832883C459D040F9
:100C90000A151B0509F424CE040D151D1FCE109254
:100CA00033021092320280914B02863089F4DE01C9
:100CB0001196E0E9F1E080E090E0E816F90609F429
:100CC000DBC02D913D913068219331930196F5CF92
:100CD00080914E02823009F453C060F4882311F1F0
:100CE000813009F0CDC0DE01119680E090E020E077
:100CF00030E042C0833051F0843009F0C1C0A0E937
:100D0000B1E020E030E080E090E0AAC0E0E9CE2E43
:100D1000E1E0DE2E00E010E020E030E0F3E0AF2E76
:100D2000B12C79C0DE011196E0E9F1E080E090E0BD
:100D3000E816F90609F4A0C02D913D912193319355
:100D40000196F6CF8C3391053CF54D915D9164167B
:100D5000750681F0FC01EE0FFF1FE057FE4F718218
:100D60006082FC013196EE0FFF1F0296E057FE4FA6
:100D7000518340832F5F3F4FE216F30619F70CC0F3
:100D8000DE01119680E090E020E030E0E216F3060C
:100D900019F08C3391052CF090933302809332023A
:100DA0006FC04D915D91CF56DF4F68817981C159F8
:100DB000D0406417750781F0FC01EE0FFF1FE0576C
:100DC000FE4F71836083FC013196EE0FFF1F029688
:100DD000E057FE4F518340832F5F3F4FD7CF0C33F7
:100DE0001105E1F00F5F1F4FC801B5010E944C31A2
:100DF000892BC9F4C9010197220F331FE1E0F0E00C
:100E0000EC0FFD1FE20FF31F20813181D6012D93DE
:100E10003D936D019C012E153F050CF31093330299
:100E2000009332022DC0C9010196E6CF2C33310563
:100E3000D1F02F5F3F4FA90143705527452BC1F4D7
:100E4000AC0142505109880F991FE1E0F0E0EC0F2E
:100E5000FD1FE80FF91F808191818D939D93CA0139
:100E60008E159F051CF3309333022093320208C085
:100E7000AC014F5F5F4FE7CFF0923302E092320256
:100E8000C156DF4F0FB6F894DEBF0FBECDBFDF9166
:100E9000CF911F910F91FF90EF90DF90CF90BF9077
:100EA000AF909F908F907F906F905F904F903F900A
:100EB0002F9008951092700210926F021092940277
:100EC000109293028091A60281608093A602809185
:100ED000AB0281608093AB020895CF93DF931092B1
:100EE00027021092260210928A011092AB028FEF15
:100EF000809389011092C40210924B0210924C020E
:100F000091E090934D0210924E0284E6809350023D
:100F10002FE72093510290934F021092700210928B
:100F20006F0290E1909381028093520210925302DB
:100F3000109254028FEF9FE39093560280935502D4
:100F400010929402109293021092920240E06FEF7E
:100F50008CE60E94E219C82FD0E0DC2FCC2740E0BD
:100F60006FEF8BE60E94E219809123029091240298
:100F70009F75CC27D07AC82BD92BD0932402C0934D
:100F80002302E1E7F2E081E0819392E0E138F907A2
:100F9000D9F7E9E7F1E089E891E011928E179F0710
:100FA000E1F710923302109232028FEF80933102F8
:100FB0001092300210922F0210922E0210922D02E7
:100FC00010922C02DF91CF910895609123028BE65D
:100FD00090E00E948D19609124028CE690E00C94C0
:100FE0008D19909353018093520128E1289FB001FD
:100FF000299F700D1124072E000C880B990B0E945D
:101000001E309B01AC0160E070E68AE697E40E9426
:10101000742F60935D0170935E0180935F019093E4
:10102000600108951F920F920FB60F9211242F9313
:101030003F934F935F936F937F938F939F93AF9360
:10104000BF93EF93FF93309B4FC08091B9028230E2
:1010500061F48091A9029091AA0280FF06C080915C
:101060005C018F5F80935C013FC00E94251BAB0138
:10107000BC018091C5029091C602A091C702B091B7
:10108000C802892B8A2B8B2B29F18091C502909164
:10109000C602A091C702B091C80284179507A6079F
:1010A000B707C0F48091C5029091C602A091C70213
:1010B000B091C8029A01281B390B30936801209324
:1010C00067014093C5025093C6026093C7027093B4
:1010D000C8020AC08091A9029091AA0292609093DE
:1010E000AA028093A902EDCFFF91EF91BF91AF913A
:1010F0009F918F917F916F915F914F913F912F9130
:101100000F900FBE0F901F901895909171019F5FE7
:10111000977020917201921741F0E0917101F0E017
:10112000E759FE4F808390937101089588EF0C94E6
:1011300085088AEF0C9485080E94251B609358014E
:101140007093590180935A0190935B011092C002F1
:101150001092C1021092C2021092C30210920902B0
:1011600010920A0210920B0210920C021092570178
:10117000109256018091A9029091AA0284609093E6
:10118000AA028093A9028091A9029091AA02986074
:101190009093AA028093A90208958093730180918D
:1011A000A9029091AA0288609093AA028093A90252
:1011B0000C949C08CF92DF92EF92FF920F931F93B3
:1011C000CF93C82F8091A9029091AA0292FF11C0DB
:1011D0001092C0021092C1021092C2021092C30279
:1011E0001092090210920A0210920B0210920C0245
:1011F000B7C08091A9029091AA0291FF12C080917C
:10120000A9029091AA029D7F9093AA028093A902BD
:101210001092C0021092C1021092C2021092C30238
:1012200013C08091C0029091C102A091C202B091FE
:10123000C3020196A11DB11D8093C0029093C1020B
:10124000A093C202B093C3026091C0027091C10228
:101250008091C2029091C3022091490230914A02CA
:10126000032E000C440B550B0E94D62E672B682BC7
:10127000692B09F04FC00E94251B00915801109165
:10128000590120915A0130915B01012B022B032B54
:10129000B1F0009158011091590120915A013091FB
:1012A0005B016B017C01C01AD10AE20AF30AC09209
:1012B0008B01D0928C01E0928D01F0928E016093AF
:1012C00058017093590180935A0190935B0180916A
:1012D000A9029091AA0280FF06C0809173018C1729
:1012E00011F08430B9F48091A9029091AA0287FF8D
:1012F0004DC01092090210920A0210920B02109235
:101300000C028091A9029091AA0298609093AA027F
:101310008093A9028091A9029091AA028F7790935D
:10132000AA028093A9026091C0027091C1028091CB
:10133000C2029091C30228E130E040E050E00E94F8
:10134000D62E672B682B692B59F410925601809189
:10135000A9029091AA0284609093AA028093A902A4
:101360008091A9029091AA0281FF05C08091570146
:101370008F5F809357018091B90282508230D0F400
:10138000809156018F5F8093560114C080910902AD
:1013900090910A02A0910B02B0910C020196A11D3E
:1013A000B11D8093090290930A02A0930B02B0939F
:1013B0000C02A7CFCF911F910F91FF90EF90DF907C
:1013C000CF900895AF92BF92CF92DF92EF92FF92AB
:1013D0000F931F93CF93DF93C82FA62EB42ED22F37
:1013E00067017801807F803F11F46C2F15C08091D8
:1013F0002502C81739F06C2F85E893E00E94371654
:10140000C0932502DD2361F06A2D85E893E00E94F8
:101410003716D23028F06B2D85E893E00E943716FE
:1014200061E081E10E94801A84E1C80ED11CE11CB8
:10143000F11CC0921B02D0921C02E0921D02F0929D
:101440001E02DF91CF911F910F91FF90EF90DF90DF
:10145000CF90BF90AF900895CF92DF92EF92FF921E
:101460000F931F93FC016E3008F06E50677060643C
:1014700060937C0080917A00806480937A008091F0
:101480007A0086FDFCCF609178008091790070E051
:10149000782B808191818F3F5FEF950719F47183DD
:1014A0006083F0C0DB01A81BB90BCD01B7FF03C0FF
:1014B00091958195910905970CF4E4C0718360833F
:1014C000423809F465C068017901942F433828F443
:1014D000403851F0413869F197C0433809F47DC074
:1014E000443809F46CC090C0CB010E944619BC017D
:1014F000990F880B990B0E941E3020E030E040E0ED
:1015000054E40E94072F20E030E040E451E40E94C0
:10151000AF3020E030E84FEF53E40E94742F0E9478
:10152000E62F609353028091AB0281608093AB02FF
:1015300029C0643071053CF06C3FB3E07B072CF0B0
:101540006FEF73E002C060E070E0072E000C880BC4
:10155000990B0E941E3020E030EC4FE754E40E94CB
:10156000742F20E030E04AE753E40E94AF3020E0DF
:1015700030E040EF51E40E94082F0E94E62FCB019B
:101580000E94F1078091A60281608093A6027AC032
:10159000643071053CF06C3F53E075072CF06FEF41
:1015A00073E002C060E070E043E0759567954A958E
:1015B000E1F76093500281E080934F02E3CF643003
:1015C00071053CF06C3F83E07807E4F11092520221
:1015D000D9CF81E080935202D5CFCB010E9446192A
:1015E00024E0880F991F2A95E1F7AC01440F452F9D
:1015F000441F550B4F77682F6F7780912B0287011F
:10160000760122E0806E1BC0643071053CF06C3FB7
:10161000A3E07A072CF06FEF73E002C060E070E0A7
:10162000191684F5AB0183E0559547958A95E1F746
:1016300080912B028701760122E0692F806B0E9446
:10164000E20920C06A30710524F2072E000C880BD5
:10165000990B0E941E3020E030E046E153E40E94E6
:10166000AF3020E030EC4FE754E40E94742F20E0CC
:1016700030E040E251E40E94082F0E94ED2F609379
:10168000520280CF1F910F91FF90EF90DF90CF908B
:1016900008952F923F924F925F926F927F928F9216
:1016A0009F92AF92BF92CF92DF92EF92FF920F93F1
:1016B0001F93CF93DF9300D01F92CDB7DEB72B01DE
:1016C0003C014A0189E791E09B838A835A01312CCE
:1016D000EA81FB812080211022C08A819B810196B2
:1016E0009B838A839FEFA91AB90A3394E0E13E12E3
:1016F000EFCF0F900F900F90DF91CF911F910F912F
:10170000FF90EF90DF90CF90BF90AF909F908F9021
:101710007F906F905F904F903F902F900895D32CC3
:10172000DD0CDD0CDD0CF8E0FD0DF983CC24C39459
:10173000822D8C21F1F08114910421F0F50180813A
:101740008C21B9F49091280280912B0290FF02C065
:10175000806801C080698301720122E040E06D2D44
:101760000E94E209EA81FB8190818C2D809589237A
:101770008083D394CC0CF981DF12DACFAECFEF9215
:10178000FF920F931F93CF93DF931092250288232C
:1017900011F0D0E001C0DFE7C0E00E94251B7B0113
:1017A0008C0122E04D2F6AE78C2F806B0E94E209AA
:1017B000CF5FC03191F7DF91CF911F910F91FF90D3
:1017C000EF9008950F931F93CF93DF93EC018B015C
:1017D000909134027091450220E030E040E050E802
:1017E000F901EB5CFD4FD801A423B523AB2B11F01D
:1017F000908308C0DE01A423B523AB2B11F07083C6
:1018000001C01082569547952F5F3F4F203131051B
:1018100039F7DF91CF911F910F9108959B0180318E
:1018200091055CF41216130644F4FC01EB5CFD4FC9
:101830004083215031090196F2CF089580E090E075
:10184000FC01EB5CFD4F1082019680319105C1F7E0
:1018500008951F920F920FB60F9211242F933F936A
:101860004F935F938F939F93EF93FF934198809152
:10187000C902882341F08091C90280958093B2000B
:101880001092C9026CC0809112028F5F8093120285
:101890008091CA028F3018F05D985F9A5D9A5F98C8
:1018A0005D985D9A8091CA029FE0981B292F30E0D5
:1018B000F901EB5CFD4F80818111419A8095809305
:1018C000C9024091CB0241111EC01A9B10C0409129
:1018D000CC02042E000C550B24173507C9F0909349
:1018E000A4024091A4024093CC0242E30FC0409175
:1018F000CC02042E000C550B2417350749F44FEF8A
:101900004093CC0205C04091CB0241504093CB02A2
:101910004E9B0DC040919702042E000C550B2417CE
:10192000350781F090939F0290919F0209C04091EA
:101930009702042E000C550B2417350719F49FEF5E
:10194000909397029091CA02911102C09FE003C048
:101950009091CA0291509093CA028093B200FF9175
:10196000EF919F918F915F914F913F912F910F90A8
:101970000FBE0F901F9018951F93CF93DF9300D049
:101980001F92CDB7DEB740E06FEF8EE60E94E219FE
:101990008093B90240E06FEF8AE60E94E21910924C
:1019A000A7028093A80240E06FEF89E60E94E21947
:1019B0002091A7023091A802282B3093A8022093EF
:1019C000A7020E945703E0919503F091960382E0ED
:1019D0008083E0919103F09192031082E091930350
:1019E000F09194038FE3808310929D03E09199031B
:1019F000F0919A0386E08083E0919703F091980339
:101A0000808180618083E0919703F09198038081C9
:101A100088608083E0919703F091980380818068CB
:101A20008083E0919703F091980380818F7D80837C
:101A300085E893E00E9484161092770110922502A7
:101A4000109276011092780140E06FE085E60E94E6
:101A5000E21980932B024FEF6FE084E60E94E219B7
:101A600080932A0249E16FEF88E60E94E219809391
:101A7000290240E061E08DE60E94E219809328028D
:101A80000E946D0761E08DE00E94AF1A10920E0275
:101A900010920F02109210021092110210920D0279
:101AA00010929C0210929E0281E08093A6021092F6
:101AB000A0021092A1021092A2021092A302109210
:101AC00098021092990210929A0210929B02109220
:101AD000CD021092CE021092CF021092D00210923C
:101AE000A502F8941092AA021092A9021092710114
:101AF00010927201109257011092730110925801C6
:101B00001092590110925A0110925B0110928B01B0
:101B100010928C0110928D0110928E01109263012F
:101B200010926401109265011092660140E061E03C
:101B300086E60E94E219882349F08091A9029091DB
:101B4000AA0281609093AA028093A90240E061E01A
:101B500087E60E94E219882349F08091A9029091BA
:101B6000AA0282609093AA028093A90286E090E084
:101B700090934A028093490288E790E00E94F1071F
:101B80000E949C0862E082E00E94AF1A62E083E05B
:101B90000E94AF1A62E084E00E94AF1A89E998E0DF
:101BA000909301018093000180916900836080938C
:101BB0006900E89A86E998E0909303018093020116
:101BC000809169008C6080936900E99A10925601B7
:101BD00010926101109254011092C5021092C60237
:101BE0001092C7021092C802109268011092670109
:101BF000109262011092550110925C018091B9021D
:101C0000823049F561E082E10E94AF1A60E08EE027
:101C10000E94AF1A62E083E10E94AF1A6AE070E0AE
:101C200080E090E00E94EB1A35990EC08FEF809310
:101C300061018091680082608093680010926C005E
:101C400080916C00816003C080916C008E7F8093D6
:101C50006C0082E107C0833039F461E08BE00E94C0
:101C6000AF1A8BE080935501789461E085E00E9483
:101C7000AF1A61E087E00E94AF1A60E08AE00E943C
:101C8000AF1A60E086E00E94AF1A61E08FE00E9428
:101C9000AF1A62E08CE00E94AF1A61E088E00E9417
:101CA000AF1A61E081E10E94AF1A61E080E10E9419
:101CB000AF1A61E089E00E94AF1A80E090E0FC0179
:101CC000EB5CFD4F1082019680319105C1F78FEFDB
:101CD0008093A4028093CC0280939F021092CB0247
:101CE0009FE09093CA021092C90210921F021092B4
:101CF0002002109221021092220210921B021092D6
:101D00001C0210921D0210921E02109217021092D5
:101D100018021092190210921A02109213021092D5
:101D20001402109215021092160210929D02109247
:101D300012022CED35E030939602209395028093A9
:101D4000340289E18093460284E080934502109238
:101D5000B00083E08093B10081E080937000109226
:101D6000B20078940E9457038CE00E94571A892B86
:101D700009F05FC08091450280933502809336025E
:101D80008093370280933802809339029091340215
:101D900090933A0290933B0280933C0280933D02E1
:101DA00080933E0280933F028093400280934102E1
:101DB0008093420280934302909344028CE00E94FD
:101DC000571A892BD9F380919F02883009F4E8C013
:101DD00040E06FEF83E60E94E219843209F0E0C030
:101DE0008091A40287FF33C18091A4028F3F09F143
:101DF00040E060E170E080E090E00E940E0C4091D5
:101E0000460265E070E080E090E00E940E0C809158
:101E1000B9024091340261E070E090E00E940E0C43
:101E200068EE73E080E090E00E94EB1AE0E0F0E002
:101E300009958091B902813081F462E08BE00E94C3
:101E4000AF1A60E083E10E94AF1A60E082E10E9475
:101E5000AF1A60E08EE00E94AF1A8FEF9FEF909371
:101E60003304809332049093310480933004909330
:101E70002F0480932E041092B802109275011092D4
:101E800074011092B0021092B1021092B20210923C
:101E9000B3021092AC021092AD021092AE021092F8
:101EA000AF021092B4021092B5021092B6021092D4
:101EB000B70210928F01809347028091B90283503C
:101EC000823008F042C01092F2021092F102109299
:101ED0006203109284031092600311E010935F0379
:101EE00010923A0361E082E10E94801A61E083E18E
:101EF0000E94801A8091B9008E7F8093B9008091F2
:101F0000B9008D7F8093B90088E48093B80085E4A0
:101F10008093BC0082EE96E19093F4028093F302EA
:101F200083EE96E19093F6028093F502109361039D
:101F300080E680938303109262031092840389E900
:101F400090E00E94DD190E94FB198091B902833054
:101F5000F9F461E08EE00E94AF1A60E08EE00E942A
:101F6000801A19821A821B8243E050E0BE016F5F23
:101F70007F4F87EF9FE10E94A202882349F0898169
:101F8000823131F48A81809375018B818093740151
:101F90008091290287FF72C081E00E94BF0B6EC052
:101FA00010922B028FEF80932A0289E180932902FD
:101FB0001092AA021092A9028AE190E09093A802DE
:101FC0008093A70280E090E2909324028093230202
:101FD00060E085E690E00E948D1960912A0284E617
:101FE00090E00E948D1969E188E690E00E948D19C9
:101FF00060E08DE690E00E948D1960E086E690E05A
:102000000E948D1960E087E690E00E948D1960E0E3
:102010008EE690E00E948D190E94A4030E94E507BD
:1020200064E283E690E00E948D194091340260E101
:1020300070E080E090E00E940E0C68EE73E080E0BB
:1020400090E00E94EB1AE0E0F0E00995C9CE8091A3
:10205000A40285300CF0C8CE6091A4026093B9024E
:102060008091A7029091A80299279093A80280934B
:10207000A7028EE690E00E948D19B6CE0F900F90C9
:102080000F90DF91CF911F910895CF92DF92EF9241
:10209000FF92CF93C62F482F082E000C550B660BCE
:1020A000770B4031510508F0F4C0FA01EB58FF4FAF
:1020B0000C9460318091A9029091AA0221E08227BC
:1020C0009093AA028093A9028091A9029091AA02FA
:1020D00080FD11C08091A9029091AA02806890931E
:1020E000AA028093A9021092C5021092C602109211
:1020F000C7021092C8026091A9027091AA02617091
:1021000086E690E048C08091A9029091AA0281FFE2
:1021100013C08091A9029091AA0280619093AA02B3
:102120008093A9028091A9029091AA028D7F909339
:10213000AA028093A90226C08091A9029091AA02C6
:1021400088609093AA028093A9028091A90290913D
:10215000AA0280649093AA028093A9028091A902A6
:102160009091AA0288609093AA028093A90280911C
:10217000A9029091AA0282609093AA028093A90278
:102180000E949C086091A9027091AA0276956795B9
:10219000617087E690E00E948D197EC064E186023E
:1021A000C001112473C08091A9029091AA0280FFFE
:1021B00008C0109273018091A9029091AA028061D7
:1021C00054C00E94251B6B017C018091CD0290912F
:1021D000CE02A091CF02B091D0028C159D05AE0524
:1021E000BF05B0F4A7019601281B390B4A0B5B0B06
:1021F000283E73E037074105510550F460E67AEE5A
:1022000080E090E00E94D62EC9010E94F107C1E053
:10221000C092CD02D092CE02E092CF02F092D002D4
:1022200038C08091A9029091AA0280FF04C084E086
:102230000E94CD082EC08091520190915301459784
:1022400044F1809152019091530101971FC08091F8
:10225000A9029091AA0280FF0DC084E080937301CF
:102260008091A9029091AA0280629093AA02809321
:10227000A9020FC080915201909153018C3291407C
:1022800044F4809152019091530101960E94F1070C
:1022900003C0CC2309F4ABC340E060E170E080E010
:1022A00090E00E940E0C4091A9025091AA02209148
:1022B00034028091460240FF11C0209335024091C4
:1022C000A9025091AA0241FF282F20933602809341
:1022D0004202809343028093440289C3382F809343
:1022E00035024091A9025091AA0241FF02C0922FEB
:1022F00001C0982F909336024091520150915301A2
:10230000493251050CF459C060915201709153014A
:102310004CE350E0FA01E61BF70B1E161F0654F4BF
:102320006091520170915301461B570B4530510586
:1023300044F009C04091520150915301413451057C
:1023400014F4922F40C060915201709153014CE3FC
:1023500050E0FA01E61BF70B1E161F0654F46091BD
:10236000520170915301461B570B4C30510544F1FB
:1023700007C040915201509153014834510504F176
:1023800060915201709153014CE350E0FA01E61B59
:10239000F70B1E161F0654F4609152017091530101
:1023A000461B570B4431510544F00CC0409152017B
:1023B00050915301403551052CF49091450203C0D2
:1023C000982F01C090E09093380260915201709173
:1023D000530140E550E0FA01E61BF70B1E161F06FD
:1023E00054F46091520170915301461B570B4530D4
:1023F000510544F009C040915201509153014535B7
:10240000510514F4922F40C0609152017091530114
:1024100040E550E0FA01E61BF70B1E161F0654F4C8
:102420006091520170915301461B570B4C3051057E
:1024300044F107C040915201509153014C35510570
:1024400004F1609152017091530140E550E0FA01AE
:10245000E61BF70B1E161F0654F460915201709193
:102460005301461B570B4431510544F00CC04091B9
:10247000520150915301443651052CF4909145027C
:1024800003C0982F01C090E09093390260915201EF
:102490007091530144E650E0FA01E61BF70B1E165B
:1024A0001F0654F46091520170915301461B570B63
:1024B0004530510544F009C04091520150915301FB
:1024C0004936510514F4922F40C060915201709129
:1024D000530144E650E0FA01E61BF70B1E161F06F7
:1024E00054F46091520170915301461B570B4C30CC
:1024F000510544F107C040915201509153014037BA
:10250000510504F1609152017091530144E650E08D
:10251000FA01E61BF70B1E161F0654F460915201D8
:1025200070915301461B570B4431510544F00CC0C8
:102530004091520150915301483751052CF490912C
:10254000450203C0982F01C090E090933A02609139
:1025500052017091530148E750E0FA01E61BF70B76
:102560001E161F0654F46091520170915301461BD0
:10257000570B4530510544F009C04091520150912C
:1025800053014D37510514F4922F40C06091520110
:102590007091530148E750E0FA01E61BF70B1E1655
:1025A0001F0654F46091520170915301461B570B62
:1025B0004C30510544F107C04091520150915301F4
:1025C0004438510504F1609152017091530148E77C
:1025D00050E0FA01E61BF70B1E161F0654F460913B
:1025E000520170915301461B570B4431510544F081
:1025F0000CC040915201509153014C3851052CF4BC
:102600009091450203C0982F01C090E090933B0247
:1026100060915201709153014CE850E0FA01E61BC1
:10262000F70B1E161F0654F460915201709153016E
:10263000461B570B4530510544F009C040915201EB
:10264000509153014139510514F4922F40C06091CB
:102650005201709153014CE850E0FA01E61BF70B70
:102660001E161F0654F46091520170915301461BCF
:10267000570B4C30510544F107C040915201509125
:1026800053014839510504F1609152017091530191
:102690004CE850E0FA01E61BF70B1E161F0654F437
:1026A0006091520170915301461B570B4431510503
:1026B00044F00CC04091520150915301403A5105F1
:1026C0002CF49091450203C0982F01C090E09093A4
:1026D0003C02609152017091530140EA50E0FA01CE
:1026E000E61BF70B1E161F0654F460915201709101
:1026F0005301461B570B4530510544F009C040912A
:10270000520150915301453A510514F4922F40C0A3
:10271000609152017091530140EA50E0FA01E61BCA
:10272000F70B1E161F0654F460915201709153016D
:10273000461B570B4C30510544F107C040915201E4
:10274000509153014C3A510504F16091520170913E
:10275000530140EA50E0FA01E61BF70B1E161F0674
:1027600054F46091520170915301461B570B443150
:10277000510544F00CC04091520150915301443B2B
:1027800051052CF49091450203C0982F01C090E0B0
:1027900090933D02609152017091530144EB50E0DF
:1027A000FA01E61BF70B1E161F0654F46091520146
:1027B00070915301461B570B4530510544F009C039
:1027C0004091520150915301493B510514F4922F0D
:1027D00040C0609152017091530144EB50E0FA0106
:1027E000E61BF70B1E161F0654F460915201709100
:1027F0005301461B570B4C30510544F107C0409123
:10280000520150915301403C510504F16091520135
:102810007091530144EB50E0FA01E61BF70B1E16D2
:102820001F0654F46091520170915301461B570BDF
:102830004431510544F00CC0409152015091530174
:10284000483C51052CF49091450203C0982F01C0DB
:1028500090E090933E02609152017091530148ECD8
:1028600050E0FA01E61BF70B1E161F0654F46091A8
:10287000520170915301461B570B4530510544F0EE
:1028800009C040915201509153014D3C510514F43F
:10289000822F3DC0609152017091530148EC50E08D
:1028A000FA01E61BF70B1E161F0654F46091520145
:1028B00070915301461B570B4C30510544F107C032
:1028C0004091520150915301443D510504F1409112
:1028D00052015091530188EC90E0BC01641B750BD0
:1028E000161617064CF44091520150915301841B67
:1028F000950B449744F00AC0809152019091530186
:102900008C3D91051CF48091450201C080E08093CC
:102910003F028091520190915301803F91052CF02C
:1029200080914502809340025CC0409152015091D9
:1029300053018CED90E0FC01E41BF50B1E161F0605
:102940004CF44091520150915301841B950B059713
:1029500044F009C08091520190915301813E91054C
:1029600014F4322F3CC040915201509153018CED30
:1029700090E0BC01641B750B161617064CF44091D1
:10298000520150915301841B950B0C9744F107C0E1
:102990008091520190915301883E910504F140913C
:1029A0005201509153018CED90E0FC01E41BF50BBA
:1029B0001E161F064CF44091520150915301841B86
:1029C000950B449744F00AC08091520190915301B5
:1029D000803F91051CF43091450201C030E03093F6
:1029E0004002209342022093430220934402CF915D
:1029F000FF90EF90DF90CF900895CF93DF93E82F73
:102A00008091A602982F907181FF13C0911104C08C
:102A100080618093A60261E087EF8E0F873020F4FB
:102A2000E850E093C40225C0E7FD1CC01092C40228
:102A300020C09923A1F08F7E8093A602EF3FC9F0BA
:102A40000E2E000CFF0BE85BFD4FA091C402B0E01E
:102A5000AA5DBE4F9C9181A5892781A70AC0EF3F3F
:102A600079F727C0611105C080918A01882309F494
:102A700067C08091A60284FF1EC00E941E0C409178
:102A8000460267E070E089E090E00E940E0CE09161
:102A9000C40280913402E11103C08093350240C02A
:102AA0009091460290933502F0E0E35CFD4F808305
:102AB00037C06623C9F2E091C40250914602E11189
:102AC00012C0E1E7F2E080E090E03191232F217025
:102AD00030FD252FDC01AB5CBD4F2C93019680317E
:102AE000910599F71DC040914502A1E7B2E020E0B1
:102AF00030E0F0E0EA5DFE4F8D91E901CB5CDD4F07
:102B0000908180FF04C0892321F0852F03C0892391
:102B100009F0842F88832F5F3F4F2031310561F703
:102B20008091320290913302892B41F0E0910802AA
:102B3000F0E080913402EB5CFD4F808310928A01BB
:102B4000DF91CF9108950895CF92DF92EF92FF9297
:102B50000F931F93CF93DF936C017A018B01C0E039
:102B6000D0E0CE15DF0581F0D8016D918D01D60141
:102B7000ED91FC910190F081E02DC6010995892B22
:102B800011F02196EECF7E01C701DF91CF911F9109
:102B90000F91FF90EF90DF90CF900895FC01538D3F
:102BA000448D252F30E0842F90E0821B930B541727
:102BB00010F0CF96089501970895FC01918D828DB4
:102BC000981761F0828DDF01A80FB11D5D968C9181
:102BD000928D9F5F9F73928F90E008958FEF9FEF8C
:102BE0000895FC01918D828D981731F0828DE80F48
:102BF000F11D858D90E008958FEF9FEF0895FC0102
:102C0000918D228D892F90E0805C9F4F821B9109CE
:102C10008F739927089585E893E00E94FF1521E0BE
:102C2000892B09F420E0822F0895FC01848DDF01B7
:102C3000A80FB11DA35ABF4F2C91848D90E001962F
:102C40008F739927848FA689B7892C93A089B1891E
:102C50008C91837080648C93938D848D981306C0BF
:102C60000288F389E02D80818F7D80830895EF9223
:102C7000FF920F931F93CF93DF93EC0181E0888F36
:102C80009B8D8C8D981305C0E889F989808185FD1D
:102C900026C0F62E0B8D10E00F5F1F4F0F7311270C
:102CA000E02E8C8DE8120CC00FB607FCFACFE88935
:102CB000F989808185FFF5CFCE010E941516F1CFED
:102CC0008B8DFE01E80FF11DE35AFF4FF0829FB795
:102CD000F8940B8FEA89FB89808180620AC09FB7D4
:102CE000F894EE89FF896083E889F989808183708F
:102CF000806480839FBF81E090E0DF91CF911F913E
:102D00000F91FF90EF900895CF93DF93EC01888DA2
:102D10008823C9F0EA89FB89808185FD05C0A889DF
:102D2000B9898C9186FD0FC00FB607FCF5CF808165
:102D300085FFF2CFA889B9898C9185FFEDCFCE01AF
:102D40000E941516E7CFDF91CF91089580E090E0C3
:102D5000892B29F00E940B1681110C940000089514
:102D600085ED8093BC008091BC0084FDFCCF109267
:102D70006003089540911703262F30E0240F311D82
:102D800021323105DCF4209160032430C9F4FC01C8
:102D900080E090E0861758F4309117032191DC0110
:102DA000A950BD4FA30FB11D2C930196F3CF809175
:102DB0001703680F6093170380E0089581E008957A
:102DC00082E00895089508950895E091F2028091B7
:102DD000F102E81730F4F0E0EF52FD4F808190E00F
:102DE00008958FEF9FEF08959091F2028091F10284
:102DF000981750F4E92FF0E0EF52FD4F208130E0BA
:102E00009F5F9093F20202C02FEF3FEFC901089538
:102E10008091F10290E02091F202821B91090895C5
:102E2000CF92DF92EF92FF920F931F93CF93DF9396
:102E30007C01CB018A0120916103222389F0EB01FF
:102E40006B01C40ED51ECC15DD0569F06991D70163
:102E5000ED91FC910190F081E02DC7010995F3CF30
:102E6000642F0E94BA16C801DF91CF911F910F9174
:102E7000FF90EF90DF90CF900895CF93DF931F9254
:102E8000CDB7DEB76983209161032223D1F0209171
:102E90008403203240F021E030E0FC0133832283C0
:102EA00080E090E015C080916203E82FF0E0ED59DA
:102EB000FC4F998190838F5F80936203809384039A
:102EC00005C061E0CE0101960E94BA1681E090E053
:102ED0000F90DF91CF910895089580E090E00895DC
:102EE0000E947A311F920F920FB60F9211242F93E6
:102EF0003F934F935F936F937F938F939F93AF9382
:102F0000BF93EF93FF93E0910201F09103010995C4
:102F1000FF91EF91BF91AF919F918F917F916F91B1
:102F20005F914F913F912F910F900FBE0F901F9087
:102F300018951F920F920FB60F9211242F933F9363
:102F40004F935F936F937F938F939F93AF93BF93B1
:102F5000EF93FF93E0910001F09101010995FF913A
:102F6000EF91BF91AF919F918F917F916F915F9101
:102F70004F913F912F910F900FBE0F901F9018957A
:102F80001F920F920FB60F9211242F933F934F93DE
:102F90005F936F937F938F939F93AF93BF93EF93C1
:102FA000FF9385E893E00E941516FF91EF91BF9182
:102FB000AF919F918F917F916F915F914F913F91D1
:102FC0002F910F900FBE0F901F9018951F920F9288
:102FD0000FB60F9211242F938F939F93EF93FF932C
:102FE000E0919503F09196038081E0919B03F0912D
:102FF0009C0382FD12C0908180919E038F5F8F732E
:1030000020919F03821751F0E0919E03F0E0EB576F
:10301000FC4F958F80939E0301C08081FF91EF91BB
:103020009F918F912F910F900FBE0F901F90189529
:103030001F920F920FB60F9211242F933F934F932D
:103040005F936F937F938F939F93AF93BF93EF9310
:10305000FF938091B900887F803609F49CC068F5A1
:10306000883209F45BC090F4803109F454C038F41C
:10307000882309F4F6C0883009F44DC0F6C08831C1
:1030800009F44CC0803209F45DC0EFC0803409F40B
:1030900068C048F4803309F455C0883309F0E5C0AE
:1030A00080935E03D8C0803509F44FC0883509F499
:1030B0005DC0883409F0D9C0D6C0883909F4C7C0CA
:1030C000A8F4883709F467C038F4883609F463C077
:1030D000803709F460C0C9C0883809F4B8C08039A5
:1030E00009F45FC0803809F0C0C05BC0803B09F4C0
:1030F00086C038F4803A09F466C0883A09F47FC083
:10310000B4C0803C09F4A7C0883C09F4A4C0883B43
:1031100009F48AC0AAC080913B0310C090915D035E
:1031200080915C03981770F5E0915D0381E08E0F4C
:1031300080935D03F0E0E45CFC4F80818093BB00F2
:1031400085EC86C080935E038EC0E0915D0381E0D4
:103150008E0F80935D038091BB00F0E0E45CFC4F38
:10316000808390915D0380915C036EC0E0915D036C
:1031700081E08E0F80935D038091BB00F0E0E45C02
:10318000FC4F808380915F0381116DC081E080934B
:103190003A0384EA61C083E08093600310923903AC
:1031A000CFCF80913903803208F051C0E0913903CC
:1031B00081E08E0F809339038091BB00F0E0E75EE1
:1031C000FC4F8083BDCF85EC8093BC0010926003E0
:1031D00080913903803230F4E0913903F0E0E75E0A
:1031E000FC4F10826091390370E0E091F502F0919C
:1031F000F60289E193E009951092390336C084E024
:10320000809360031092180310921703E091F30269
:10321000F091F402099580911703811105C081E0B6
:10322000809317031092F702E091180381E08E0F4C
:1032300080931803F0E0E950FD4F80818093BB003C
:103240009091180380911703981708F479CF85E8B7
:103250008093BC000AC085EC8093BC001092600390
:1032600004C010925E030E94B016FF91EF91BF91CF
:10327000AF919F918F917F916F915F914F913F910E
:103280002F910F900FBE0F901F901895803E21E058
:1032900092079CF4BC01990F880B990B0E941E3079
:1032A00020E030E040EF53E40E94742F20E030E053
:1032B00040E054E40E94AF301FC0803222E0920709
:1032C00004F1BC016F517240072E000C880B990B62
:1032D0000E941E3020E030E040E054E40E94AF3015
:1032E00020E030E040EF53E40E94742F20E030E013
:1032F00040E054E40E94082F0E94E62F77FF03C0AD
:1033000009C060E072E0CB01611574402CF08FEFD2
:1033100093E0089580E090E008950C94962E833019
:1033200081F028F4813099F08230A1F0089587303F
:10333000A9F08830B9F08430D1F4809180008F7D7D
:1033400003C0809180008F7780938000089584B5BA
:103350008F7702C084B58F7D84BD08958091B000C1
:103360008F7703C08091B0008F7D8093B000089567
:103370003FB7F8948091390490913A04A0913B04AE
:10338000B0913C0426B5A89B05C02F3F19F00196CB
:10339000A11DB11D3FBFBA2FA92F982F8827820FDB
:1033A000911DA11DB11DBC01CD0142E0660F771F2B
:1033B000881F991F4A95D1F70895682F82E294E0FB
:1033C0000C943D170F931F93CF93DF93062F142F69
:1033D000C82FD0E0CE010E948E2E181739F00817A2
:1033E00028F4612FCE010E948D19812FDF91CF919A
:1033F0001F910F91089530918403313208F04BC032
:10340000809160038111FCCF9091830322E020938F
:10341000600321E020935F032FEF20935E0310925F
:103420005D0330935C03E3E6F3E0ACE3B3E020E05C
:10343000321721F041914D932F5FFACF10923B0349
:1034400020913B03990F922B90933B0390913A0369
:10345000913061F410923A0390913B039093BB003A
:103460009091BC0093FDF8CF95EC01C095EE909340
:10347000BC00909160039230E1F390915E039F3F16
:1034800079F080915E03803241F080915E03803359
:1034900031F084E005C081E003C082E001C083E038
:1034A0001092620310928403109261030895CF93E7
:1034B000DF93282F30E0F901E05BFE4F8491F901A2
:1034C000E45CFE4FD491F901E85DFE4FC491CC233A
:1034D00091F081110E948F19EC2FF0E0EE0FFF1F89
:1034E000E25EFE4FA591B491EC91ED2381E090E076
:1034F00021F480E002C080E090E0DF91CF91089558
:103500001F93CF93DF93282F30E0F901E05BFE4F4C
:103510008491F901E45CFE4FD491F901E85DFE4F1E
:10352000C491CC23C1F0162F81110E948F19EC2F6A
:10353000F0E0EE0FFF1FEC5EFE4FA591B4919FB738
:10354000F894111104C08C91D095D82302C0EC914D
:10355000DE2BDC939FBFDF91CF911F910895CF9316
:10356000DF9390E0FC01E45CFE4F2491FC01E85DF8
:10357000FE4F8491882361F190E0880F991FFC0130
:10358000E65FFE4FC591D491FC01EC5EFE4FA59124
:10359000B491611109C09FB7F89488812095822366
:1035A0008883EC912E230BC0623061F49FB7F894AE
:1035B0008881322F309583238883EC912E2B2C9396
:1035C0009FBF06C08FB7F894E8812E2B28838FBF4A
:1035D000DF91CF9108958F929F92AF92BF92CF9239
:1035E000DF92EF92FF926B017C010E94B8194B01B0
:1035F0005C01C114D104E104F104F1F00E94B81996
:10360000DC01CB0188199909AA09BB09883E9340BE
:10361000A105B10570F321E0C21AD108E108F10853
:1036200088EE880E83E0981EA11CB11CC114D10441
:10363000E104F10419F7DDCFFF90EF90DF90CF9018
:10364000BF90AF909F908F9008952FB7F89460919E
:1036500035047091360480913704909138042FBF5F
:1036600008951F920F920FB60F9211242F933F933C
:103670008F939F93AF93BF938091350490913604BD
:10368000A0913704B09138043091340423E0230F23
:103690002D3720F40196A11DB11D05C026E8230F8A
:1036A0000296A11DB11D209334048093350490939C
:1036B0003604A0933704B093380480913904909174
:1036C0003A04A0913B04B0913C040196A11DB11DA8
:1036D0008093390490933A04A0933B04B0933C0444
:1036E000BF91AF919F918F913F912F910F900FBEFE
:1036F0000F901F901895CF93DF93CDB7DEB76B97E0
:103700000FB6F894DEBF0FBECDBF789484B582604B
:1037100084BD84B5816084BD85B5826085BD85B575
:10372000816085BD80916E00816080936E001092F3
:10373000810080918100826080938100809181006E
:1037400081608093810080918000816080938000FF
:103750008091B10084608093B1008091B00081605D
:103760008093B00080917A00846080937A00809189
:103770007A00826080937A0080917A0081608093E1
:103780007A0080917A00806880937A001092C1005C
:103790000E94BC0C0E94251B4B015C014C9B07C086
:1037A0008091A9029091AA0290FF76C306C08091F1
:1037B000A9029091AA0290FD7AC38091A9029091EA
:1037C000AA0280FD91C08091670190916801892BC8
:1037D00009F472C06091670170916801072E000CB6
:1037E000880B990B0E941E306B017C010091A7028F
:1037F0001091A80217FD03C066E070E002C06CE003
:1038000070E0072E000C880B990B0E941E309B0164
:10381000AC01C701B6010E94742F60935D017093E3
:103820005E0180935F019093600120E030E040EC06
:1038300051E40E94AF309B01AC0160E070E68AE683
:1038400097E40E94742F0E94E62F2091520130913C
:1038500053012617370749F07093530160935201C3
:103860008091A60281608093A60210926801109256
:103870006701C501B4010E941C306093630170931D
:103880006401809365019093660117FF03C00CE00B
:1038900010E002C006E010E08091620191E0980F14
:1038A0009093620190E08017910724F481E00E94D8
:1038B000DA08F2CF10926201809161018F3F09F026
:1038C00003C38091620190E02091A7023091A80289
:1038D00037FD03C026E030E002C02CE030E0821764
:1038E00093070CF4F1C273C080915C01882309F442
:1038F0006EC080915C01815080935C010E94251B09
:10390000009158011091590120915A0130915B01A9
:10391000012B022B032BB1F000915801109159019A
:1039200020915A0130915B016B017C01C01AD10AD0
:10393000E20AF30AC0928B01D0928C01E0928D01D1
:10394000F0928E01609358017093590180935A014F
:1039500090935B018091A9029091AA0287FF09C010
:103960001092090210920A0210920B0210920C029D
:1039700013C08091090290910A02A0910B02B091AC
:103980000C020196A11DB11D8093090290930A02B9
:10399000A0930B02B0930C028091A9029091AA020D
:1039A00098609093AA028093A9028091A9029091B5
:1039B000AA028F779093AA028093A9028091A9020C
:1039C0009091AA0284609093AA028093A9028091A8
:1039D000A9029091AA028F7B9093AA028093A902D8
:1039E0008091A9029091AA0281FF30C08091A90222
:1039F0009091AA0284FF08C06CEF85E893E00E94D2
:103A000037161092570113C08091A9029091AA0213
:103A100083FF02C06AEF07C08091A9029091AA02B9
:103A200085FF05C06BEF85E893E00E943716809113
:103A300057011816C4F480915701815080935701A3
:103A400068EF85E893E00E9437160DC08091A902C7
:103A50009091AA0284FF05C06CEF85E893E00E9474
:103A60003716109257018091A9029091AA02877C83
:103A70009093AA028093A902809161018F3F09F47B
:103A80004BC081112AC080915601082E000C990B61
:103A90000091A7021091A80217FD03C026E030E0B4
:103AA00002C02CE030E082179307B4F180915501F9
:103AB000882329F016FD03C061E00E94801A17FDDB
:103AC00002C096E001C09CE080915601891B809362
:103AD000560181E0809361011FC0909154019815B7
:103AE000D9F0809254018F5F843118F48093610182
:103AF00002C010926101809161018A3069F4809165
:103B00005501882349F02091A7023091A80236FD83
:103B100003C060E00E94801A8091A9029091AA02DD
:103B200082FF1AC061E080E10E94801AD501C401C1
:103B30000596A11DB11D8093170290931802A093C2
:103B40001902B0931A028091A9029091AA028B7F68
:103B50009093AA028093A9029E012F5F3F4F190103
:103B600080E1D9011D928A95E9F713E090917201E5
:103B7000809171019817D1F08091A9029091AA02C9
:103B800080FF0DC08091290284FD0CC208C08B3FCC
:103B900008F015C2883F19F483E00E94DA0880918A
:103BA00072018F5F877080937201E0CF80919D02D8
:103BB00083FF07C0D0902402D094DD1CDD24DD1CDF
:103BC00001C0D12CA50194012C5E3F4F4F4F5F4F98
:103BD0002C8B3D8B4E8B5F8BB2E05B2E4424439449
:103BE00085E893E00E94FF153C01892B09F4F2C29D
:103BF00085E893E00E94DD159C01207F3327203F5C
:103C0000310509F050C099278A3F9105D1F024F47D
:103C1000883F910541F0E4CF8B3F910501F18C3F46
:103C2000910579F1DDCF8091A9029091AA0280FFE0
:103C3000D7CF8091290283FFD3CF82E00E94DA0898
:103C4000CFCF8091A9029091AA0280FFC9CF809125
:103C5000290283FFC5CF82E00E94CD08C1CF8091A9
:103C6000A9029091AA0280FFBBCF8091290283FF15
:103C7000B7CF509273018091A9029091AA028062FD
:103C8000B7C18091A9029091AA0280FFA9CF80912B
:103C9000290283FFA5CF109273018091A902909110
:103CA000AA028061A5C187FF10C01092780180939D
:103CB0007701203C310519F0203D310519F440927F
:103CC00076018ECF509276018BCF7090770177205E
:103CD00009F486CFE091780191E09E0F90937801EE
:103CE0000E2E000CFF0BE654FD4F80836090760192
:103CF000892F990F990B262D30E0821793070CF42A
:103D00006FCF1092780161E088E00E94801A8C8960
:103D10009D89AE89BF8980931F0290932002A09352
:103D20002102B093220280912A028F3F21F0972D29
:103D30009F708913A6C0972D907FC92E809129026C
:103D4000A0E99A1731F0B0EB9B1799F0E0E89E13C9
:103D500073C081FD03C0DD2009F44FC185017401EA
:103D6000262D4091BB026091BA02872D0E94E20984
:103D700044C185FF05C08091BA02883708F030CF72
:103D80008091B902833009F057C02091A702309189
:103D9000A80230FF51C08091BA02873481F050F4FC
:103DA000863409F049C08091BB028F77805480939C
:103DB000750142C0883451F0893489F03DC080914A
:103DC000BB028F7780548093740136C06091BB0230
:103DD00070E080E090E040E00E94FA002DC03E7F5D
:103DE0003093A8022093A702F2E1F98B809175012C
:103DF0008A8B809174018B8B43E050E0BE016F5E33
:103E00007F4F87EF9FE10E943502882399F0409110
:103E1000340260E170E080E090E00E940E0C68EEF9
:103E200073E080E090E00E94EB1A8091A60281602E
:103E30008093A6020E94A403C0902902C2FC04C081
:103E400080919D0283FF0CC0850174012091760151
:103E50004091BB026091BA02809177010E94E20911
:103E6000C0FEBECE80917701807F90912B028501AC
:103E70007401209176014091BB026091BA02892BB6
:103E800008C085017401262D4091BB026091BA02E1
:103E9000872D0E94E209A4CE8091A9029091AA02E6
:103EA00091609093AA028093A9028BEF0AC080913F
:103EB000A9029091AA029E7F9093AA028093A902E0
:103EC0008CEF0E94850879CC8091A9029091AA027A
:103ED00086FF0FC0C0905D01D0905E01E0905F0151
:103EE000F0906001C501B4010E941C30A701960149
:103EF0004EC0C501B4010E941C306B017C012091B1
:103F000063013091640140916501509166010E9406
:103F1000AA3018160CF05BCD809162018F5F809300
:103F2000620181E00E94DA0860915D0170915E019A
:103F300080915F0190916001209163013091640153
:103F400040916501509166010E94082F60936301C2
:103F500070936401809365019093660120916301E1
:103F6000309164014091650150916601C701B6012D
:103F70000E94AA3018160CF02ACD20915D013091D4
:103F80005E0140915F0150916001C701B6010E943E
:103F9000082F60936301709364018093650190938F
:103FA000660115CDE0917201F0E0E759FE4F808186
:103FB0008A3F09F0ECCD83E00E94CD08F0CD8B3F25
:103FC00041F4109373018091A9029091AA0280623A
:103FD0000AC08C3F09F0E3CD109273018091A902D1
:103FE0009091AA0280619093AA028093A902D7CDF2
:103FF0009093AA028093A902F3CD1091BA02F0E93E
:10400000CF1298C00091BB02002309F496C011237F
:1040100009F493C070909D0273FE19C08091230231
:104020009091240297FFDCCD809131028F3F09F4FB
:10403000D7CD181B109353028091AB0281608093FF
:10404000AB028091A60281608093A602C9CDA091A7
:104050006F02B0917002E7E5F2E0E12CF12CCC2484
:10406000CA9480E090E0412F50E08A179B0784F4C7
:1040700021913191B9016F7777276417750709F49A
:10408000C82E37FF03C02FEFE21AF20A0196EDCFD8
:10409000F0922702E0922602C7FC17C0E114F10457
:1040A000A1F0EC2DEE0FFF0BE85BFD4F87859089AB
:1040B00097FD96CD9068908B87873FEFE31AF30AC0
:1040C000F0922702E09226028BCDE114F10491F4E4
:1040D0001092700210926F0272FE0AC08091A902C3
:1040E0009091AA0280689093AA028093A90202C0CC
:1040F0000E949C0880916F02909170028B30910514
:104100000CF06ECDFC01EE0FFF1FE85BFD4F212F81
:1041100030E03068302B308B278701969093700207
:1041200080936F024FEFE41AF40AF0922702E092B4
:1041300026024AC050E8C51253CD80916F0290917B
:104140007002E8E4F2E060E070E0FF24FA9440E0FE
:1041500050E0A12FB0E048175907ACF4278530890B
:1041600089010F7711270A171B0729F43F77308B36
:104170002787F42E04C037FF02C06F5F7F4F4F5F69
:104180005F4F3296E8CF709327026093260220910A
:104190009D0222FD25CDF7FC23CD2F2DFF0C330BE7
:1041A000F901EE0FFF1FE95AFD4F01972817390754
:1041B0003CF42F5F3F4F4281538141935193F6CF9F
:1041C0009093700280936F028091AB028160809324
:1041D000AB0206CD80919D0282FD0EC08091260229
:1041E00090912702892B41F480916F029091700287
:1041F000892B11F00E945A078091AB0280FF09C001
:104200000E94B0038091AB028E7F8093AB0210922C
:1042100025028091A9029091AA0293FF0BC0809180
:10422000320290913302892B29F0209181022111D1
:104230000C94B92B8091BC029091BD02A091BE025A
:10424000B091BF020097A105B10531F0881599051D
:10425000AA05BB0538F01CC0809132029091330250
:10426000892BB1F440E050E0C501B4010E94490B34
:104270001092BC021092BD021092BE021092BF02B8
:104280008091B902833021F460E08EE00E94801AB0
:1042900080910E0290910F02A0911002B091110234
:1042A00088159905AA05BB05C8F410910D02612F68
:1042B0008DE00E94801A81E0111180E080930D0250
:1042C000D501C4018C509E4FAF4FBF4F80930E025B
:1042D00090930F02A0931002B093110280911F02DD
:1042E00090912002A0912102B09122020097A10595
:1042F000B10589F088159905AA05BB0560F460E051
:1043000088E00E94801A10921F02109220021092E0
:1043100021021092220280911B0290911C02A09116
:104320001D02B0911E020097A105B10589F0881504
:104330009905AA05BB0560F460E081E10E94801A3E
:1043400010921B0210921C0210921D0210921E026B
:104350008091170290911802A0911902B0911A024F
:104360000097A105B10589F088159905AA05BB0537
:1043700060F460E080E10E94801A109217021092AF
:1043800018021092190210921A02C0901302D090D3
:104390001402E0901502F0901602D701C6018C5964
:1043A0009F4FAF4FBF4F88169906AA06BB0608F469
:1043B0003DC08CE00E94571A20919D02892BE1F4A8
:1043C00020FD04C0216020939D0228C0822F8271AD
:1043D00069F58091950290919602C80ED91EE11C54
:1043E000F11CC814D904EA04FB0400F52A602093E8
:1043F0009D02109212021AC020FF18C0822F8271F3
:1044000041F423FF02C0277F02C084E028272093C5
:104410009D0280919D028C7E80939D02809213026A
:1044200090921402A0921502B0921602F0909D0292
:10443000F3FE06C060911202661F6627661F03C066
:10444000F2FA662760F989E00E94801A9091A6022C
:10445000B92FB1705B2E392F3E7F3093A602482CC6
:10446000082D007F8091A502807F801719F080922F
:10447000A50201601091A4021F3F89F08FEF809385
:10448000A402B501A401405F584D6F4F7F4F409388
:10449000A0025093A1026093A2027093A3028091A4
:1044A0009F028F3F49F480919E02833009F04CC0F7
:1044B00084E080939E0248C02FEF20939F022F2D0F
:1044C00023702130B1F42091B9022350223088F4B6
:1044D0002F2D206120939D02843031F0883031F0FF
:1044E000882331F080E005C081E403C082E401C08C
:1044F00080E440919C0250E0682F082E000C770B5E
:104500006417750721F420919E02243079F480937A
:104510009C0281E080939E02109298021092990270
:1045200010929A0210929B0255245394B501A40153
:10453000405F584D6F4F7F4F4093A0025093A102B0
:104540006093A2027093A302809197028F3F09F4B7
:1045500040C032603093A6028091980290919902F7
:10456000A0919A02B0919B020097A105B10599F420
:10457000809195029091960275016401C80ED91E32
:10458000E11CF11CC0929802D0929902E0929A022A
:10459000F0929B022AC088159905AA05BB0528F54B
:1045A00080919E02823020F482E080939E020EC0B1
:1045B00083E080939E028FEF9FEFDC01809398024F
:1045C00090939902A0939A02B0939B02552453941E
:1045D0000CC09C7F94609093A60210929802109257
:1045E000990210929A0210929B028091A0029091DF
:1045F000A102A091A202B091A3020097A105B1056A
:10460000B9F088169906AA06BB0690F08091A70219
:1046100084FF04C010929C0210929E021092A0028D
:104620001092A1021092A2021092A3025524539458
:1046300080919C02863009F4C5C390F4823009F45D
:104640005BC338F4882309F492C7813009F476C13A
:104650008EC790919E028430C1F008F45AC5BAC149
:104660008A3009F4EBC340F490919E02883009F43B
:1046700053C008F4F3C5DFC28B3009F44DC690EC8B
:10468000980F933008F4C7C672C7933070F1103199
:1046900000F52FE030E0211B310917FD339581E053
:1046A00090E002C0880F991F2A95E2F79C012F71B4
:1046B000232B79F02091A7023091A802822793271B
:1046C0009093A8028093A7020E94A4030E9457031C
:1046D00003C0552009F44FC76091A7027091A8024A
:1046E0008FE19FEF0E94E20B46C7103120F41F5F5D
:1046F0001093810203C0552009F43DC70E941E0C8F
:104700006091810270E04091450280E090E00E945B
:104710000E0CE091810281C3933008F449C01F3030
:10472000D1F40E94251B40E050E00E94490B86E036
:1047300090E090934A028093490288E790E00E94BB
:10474000F1070E949C080E946D0780919D02887E5F
:1047500080939D0221C01031F8F42FE030E0211B3E
:10476000310917FD339581E090E002C0880F991F51
:104770002A95E2F79C012227307A232B69F02091B9
:10478000230230912402822793279093240280935E
:1047900023020E94E50703C0552009F4ECC660918E
:1047A00023027091240280E090EA0E94E20B4CC543
:1047B0001C30D1F05CF4173008F0A4C010934B0209
:1047C0008091AB0281608093AB029FC01E3009F4E0
:1047D00089C00CF45CC01F3009F094C0E1E7F2E03E
:1047E00081E892E021E089C008E412E098E5E92E32
:1047F00092E0F92ED80199968C91999781709996AB
:104800008C938823E9F10E94372E28E030E040E0C5
:1048100050E00E94A42E653071058105910519F1C3
:1048200084F46330710581059105C9F06430710528
:104830008105910529F5D80199968C919997846005
:104840001BC0663071058105910589F067307105DF
:1048500081059105A9F4F80181A5826110C0F801D4
:1048600081A588600CC0F80181A5826008C0D801CC
:1048700099968C919997806199968C9301C081A7A4
:104880000F5F1F4FE016F10609F0B4CF3BC008E4FC
:1048900012E0FF24F39489E0E82E0E94372E25E0F1
:1048A00030E040E050E00E94A42E97FD11C062303D
:1048B00071058105910544F064307105810591050C
:1048C00039F4F801E1A607C0D80199961C9203C0FB
:1048D000D8019996FC920F5F1F4FB2E008351B0775
:1048E000E1F610C0E1E7F2E0119222E0E138F207D0
:1048F000D9F780E18093810205C021938E179F072D
:10490000E1F7F7CF552009F436C60E941E0C10912E
:104910004602412F67E070E080E090E00E940E0CBC
:10492000E0914B02F0E080913402EB5CFD4F80831C
:10493000412F64E070E08CE090E0BCC480919E0266
:10494000833048F11C3040F4109354028091AB0244
:1049500081608093AB0203C0552009F40CC60E940D
:104960001E0C409146026CE070E080E090E00E94F6
:104970000E0C80914502809336028093380280931A
:104980003B0280933D0280933F02E09154020E2E41
:10499000000CFF0BBCC4173048F4135010934C02AA
:1049A0008091AB0281608093AB0203C0552009F473
:1049B000E2C50E941E0C4091450267E070E080E075
:1049C00090E00E940E0C8091460280933802E091A4
:1049D0004C0218C5933008F413C117FD7FC0812F16
:1049E000110F990BAA0BBB0B8031910508F070C019
:1049F000FC01EC5CFF4F0C9460318091550290916A
:104A000056028F6F9F6060C0809155029091560250
:104A10008827907F856D9A6057C08091550290914C
:104A200056028827907F86659B604EC08091550214
:104A3000909156028827907F8A659D6045C080913D
:104A40005502909156028827907F856B9A603CC0F2
:104A500080915502909156028827907F866D9A60CA
:104A600033C080915502909156028827907F8A65C5
:104A70009B602AC080915502909156028827907FB2
:104A80008A669D6021C080915502909156029F7860
:104A90001BC080915502909156029F78906114C07E
:104AA00080915502909156029F7890620DC080913E
:104AB0005502909156029F78906306C080915502EE
:104AC000909156029F78906490935602809355027D
:104AD0008091AB0281608093AB0203C0552009F442
:104AE0004AC50E941E0C10914502412F68E070E0FB
:104AF00080E090E00E940E0C412F65E070E08BE0BA
:104B000090E00E940E0C80914602809335028093C3
:104B100043022091550230915602C9019F7086359B
:104B20004BE0940779F180F4853D6AE0960729F11E
:104B3000863DAAE09A0781F1853B9A40B1F58091C4
:104B400034028093390231C08A35EDE09E07F9F0D6
:104B500040F48A359B4049F58091340280933B02B2
:104B600024C08A365DE09507E1F08F3F9F40E9F46D
:104B7000809134028093350218C080913402809372
:104B8000360213C080913402809337020EC08091A8
:104B900034028093380209C08091340280933A0233
:104BA00004C08091340280933C02C9018827907729
:104BB0008115A0E29A07D1F058F4009791F0811581
:104BC000904109F0D8C48091340280934102D3C44B
:104BD0008115F0E39F0779F08115904409F42BC10A
:104BE000CAC48091340280934002C5C480913402CB
:104BF00080934202C0C48091340280934302BBC4BC
:104C0000143048F41F5F10934D028091AB02816015
:104C10008093AB0203C0552009F4ADC40E941E0C62
:104C20004091450264E070E080E090E00E940E0C4C
:104C3000E0914D02F2C09230B1F40E945A071092F6
:104C40002502D12C0E94251B7B018C0180912B0217
:104C500022E040E06D2D80680E94E209D39430E8A4
:104C6000D312F0CF88C48EE0E8E0F1E0D1010190EA
:104C70000D928A95E1F71E3060F4F101E10FF11D0C
:104C800017FDFA95808190E090934A028093490243
:104C900003C0552009F46FC40E941E0C40914502C8
:104CA0006DE070E080E090E00E940E0C8091460282
:104CB000809335028093370280933A0280933D02BD
:104CC00080934002809342024091490250914A02EF
:104CD000F10180E090E0219130E04217530739F470
:104CE00020913402FC01EB5CFD4F208344C401960B
:104CF0008E30910581F73FC480919E02833050F140
:104D000080E1E6E1F1E0D10101900D928A95E1F7B1
:104D1000103148F4F101E10FF11D17FDFA95808182
:104D20008093510203C0552009F425C40E941E0C33
:104D30003091510220914602DE0151968FE090E0C1
:104D40004E91FC01EB5CFD4F3417C8F520830197B1
:104D5000B8F711C480E1E6E1F1E0D10101900D92D4
:104D60008A95E1F711110BC080915002811109C0A1
:104D700080914F02882329F010924F0297C610317C
:104D800060F4F101E10FF11D17FDFA958081809328
:104D9000500281E080934F0289C6552009F4EBC38D
:104DA00085C63091500220914602D10180E090E00A
:104DB0004D91FC01EB5CFD4F431708F482C68091D6
:104DC000340227C31F3048F4110F1E5FE12FEE0F8E
:104DD000EE0F1E0F1093520208C01F3019F41092EC
:104DE000520203C0552009F4C6C30E941E0C8091D4
:104DF00052028823C1F01AE0612F0E944031682FCF
:104E000070E04091460280E090E00E940E0C80919C
:104E10005202612F0E944031E82FF0E0809134026D
:104E2000EC5CFD4FF6C24091460260E170E080E02C
:104E300090E00E940E0C8091340208C280919E0284
:104E4000833008F477C0103108F044C081E090E06E
:104E500002C0880F991F1A95E2F7209193023091B2
:104E60009402822793279093940280939302109246
:104E700027021092260220E330E041E050E0BC011E
:104E800064237523672B81F06BE06616710464F46C
:104E9000F301EE0FFF1FE85BFD4FB9017F67708BD9
:104EA0006787AFEF6A1A7A0A440F551F2F5F3F4F8B
:104EB0002034310521F77092700260926F02809168
:104EC000AB0281608093AB0280919D0284608093ED
:104ED0009D0203C0552009F44EC360919302709166
:104EE00094021091340200914602F090450221E0B4
:104EF00030E080E090E0AB0142235323DC01AB5C67
:104F0000BD4F8F30910548F4FC01EC5BFF4F0C94D2
:104F10006031452B31F4402F05C0452B11F44F2D46
:104F200001C0412F4C93220F331F01968031910510
:104F300011F721C3812F012E000C990BAA0BBB0B7B
:104F40008031910508F0C9C0FC01ED5AFF4F0C9467
:104F5000603110934E028091AB0281608093AB026E
:104F6000BFC00E94372E23E030E040E050E00E94B6
:104F7000A42E6E5F7F4F7093700260936F02F7E50F
:104F8000CF2EF2E0DF2E00E010E080916F029091D2
:104F90007002081719070CF092C00E94372E2CE0FF
:104FA00030E040E050E00E94A42E7B01B0E3EB0E25
:104FB000F11CE7E5F2E080E090E00817190749F0FE
:104FC000219131912F773327E216F30631F30196C1
:104FD000F4CF0E94372E20E430E040E050E00E9401
:104FE000A42EDC01CB01805C9F4FAF4FBF4FBA2F87
:104FF000A92F982F8827B701682B792BF601619389
:1050000071936F010F5F1F4FC0CF80E39FE79093B5
:1050100058028093570283E39FE71DC080E39FE718
:10502000909358028093570284E39FE790935A022B
:105030008093590287E39FE790935C0280935B0221
:105040008BE39FE714C080E39FE79093580280931F
:10505000570284E39FE790935A028093590287E3B3
:105060009FE790935C0280935B028AE39FE79093B3
:105070005E0280935D0284E090E01DC080E39FE7C4
:10508000909358028093570283E39FE708C080E320
:105090009FE7909358028093570284E39FE7909391
:1050A0005A028093590287E39FE790935C028093B2
:1050B0005B0283E090E09093700280936F02109205
:1050C0009402109293028091AB0281608093AB02B4
:1050D00080919D02846080939D02552009F44BC20B
:1050E0000E941E0C4091450265E070E080E090E077
:1050F0000E940E0CE0914E02F0E080913402EB5CD5
:10510000FD4F80834091460266E070E08AE090E0C7
:10511000D1C0933008F49DC0111104C060912902E0
:1051200081E023C0113021F46091290282E01DC08A
:10513000123021F46091290284E017C0133021F469
:105140006091290288E011C0143021F46091290295
:1051500080E10BC0153021F46091290280E205C086
:10516000163049F46091290280E46827609329028F
:1051700088E690E01BC0173079F4609129026058EE
:105180006093290288E690E00E948D19809129029F
:1051900080780E94BF0B1CC0183059F4609128021F
:1051A00081E06827609328028DE690E00E948D19C7
:1051B0000FC01F3051F48091A9029091AA0280681B
:1051C00092609093AA028093A902552009F4D3C15A
:1051D0000E941E0C8091290280FF7AC490913402B3
:1051E0009093350281FF77C49091340290933602F8
:1051F00082FF74C4909134029093370283FF71C48C
:10520000909134029093380284FF6EC490913402DE
:105210009093390285FF6BC49091340290933A02C7
:1052200086FF68C49091340290933B0287FF65C467
:105230008091340280933C028091280280FF60C4F8
:105240008091340280933D02809146028093440213
:1052500092C1652D812F0E9445108DC1933068F158
:105260001031C8F480912A0290E0212F012E000C09
:10527000330B8217930729F48FEF80932A026FEF85
:1052800003C010932A02612F84E690E00E948D19DA
:105290000E945A0703C0552009F46DC10E941E0CDC
:1052A000E0912A02EF3F91F54091340260E170E015
:1052B00080E090E00E940E0C5EC11031C0F480913D
:1052C0002B0290E0212F012E000C330B8217930745
:1052D00031F00E94251B40E050E00E94490B1093E2
:1052E0002B02612F85E690E00E948D1903C05520A6
:1052F00009F441C10E941E0C4091450260E170E03A
:1053000080E090E00E940E0CE0912B02F0E0809192
:105310003402EB5CFD4F7DC0103108F043C080913A
:10532000A60281FF2EC082FF0BC010922E021092A7
:10533000920210922D0210922C028B7F8093A60273
:10534000A0919202AF3088F581E090E0012E02C07A
:10535000880F991F0A94E2F720912C0230912D02B8
:10536000822B932B90932D0280932C0281E08A0F45
:1053700080939202B0E0A85BBD4F1350DA961C9365
:1053800014C010922E021092920210922D021092CE
:105390002C021350109353028091AB0281608093D2
:1053A000AB0203C0552009F4E6C04091450260E11C
:1053B00070E080E090E00E940E0C20912C02309171
:1053C0002D02286030932D0220932C02609146021A
:1053D00080E090E041E050E0F901E423F523EF2B79
:1053E00021F0FC01EB5CFD4F6083440F551F0196DB
:1053F0008031910589F7E091530283E08E0F80316F
:1054000008F0B9C00E2E000CFF0B80913402E85C4E
:10541000FD4F8083B0C0103108F062C0813409F4C0
:105420003FC0823409F44BC0812F0E943C03882383
:1054300009F456C04DE450E068E472E080E0912F3A
:10544000990F0E94A20210923302109232028FEF43
:10545000809331021092300210922F0210922E028D
:1054600010922D0210922C0280919D028C7E8460FD
:1054700080939D0210929E0281E08093A60280910B
:10548000AB0281608093AB028091A9029091AA0245
:1054900080689093AA028093A9021093470220C0CB
:1054A00080EA809348024DE450E068E472E080E0D6
:1054B000912F990F0E9435021093470213C0198251
:1054C00041E050E0B10180E0912F990F0E94350238
:1054D00080914702181306C08FEF8093470202C0E5
:1054E0005520B1F000E010E0802F0E943C0388239B
:1054F00019F08091460202C080914502F801EB5CF0
:10550000FD4F80830F5F1F4F0031110569F733C0D6
:1055100000FF31C0007F20914702022E000C330BA8
:1055200040914502609134027091460280E090E023
:10553000D901AB5CBD4FFC01EB5CFD4F281739076F
:1055400031F45C91541751F001110AC005C050812B
:10555000451721F0002321F0562F03C0542F01C01E
:10556000572F508301968031910529F704C0652D8E
:10557000812F0E94FD148091B902833009F058C038
:105580008091B802841509F4F0C08092B80240916D
:10559000B4025091B5026091B6027091B702411504
:1055A00051056105710509F4E0C08091B002909148
:1055B000B102A091B202B091B302840F951FA61F51
:1055C000B71F8093B0029093B102A093B202B09340
:1055D000B3020091AC021091AD022091AE02309165
:1055E000AF02141615061606170634F48017910735
:1055F000A207B30734F415C0081719072A073B0799
:1056000084F00093B0021093B1022093B202309361
:10561000B3021092B4021092B5021092B602109228
:10562000B7028091B2029091B3020E94DD009DC04A
:10563000813009F09AC0D501C40124E0B695A79540
:10564000979587952A95D1F72091B802281709F4E4
:105650008CC08093B8028091AB028D7F8093AB02A7
:105660008091A9029091AA029B7F9093AA028093B5
:10567000A902E090A702F090A802C70188279370C2
:105680008115F2E09F0759F0811523E0920759F048
:105690008115914089F49501840141E007C095018D
:1056A000840140E803C09501840142E165E070E0B7
:1056B00082E394E00E942C0AC70188279C70811520
:1056C00048E0940759F081155CE0950759F0811581
:1056D000944089F49501840142E807C09501840152
:1056E00043E803C09501840141E164E070E080E398
:1056F00094E00E942C0AC701882790738115A0E2CC
:105700009A0759F08115B0E39B0759F08115904134
:1057100089F49501840141E807C09501840144E8BA
:1057200003C09501840140E160E070E08EE294E006
:105730000E942C0A8BE0F6FE0FC00E94571A892B9C
:10574000A1F48091A9029091AA028068966090933A
:10575000AA028093A90209C00E94571A892B29F432
:105760008091AB0282608093AB020E94A6160C94DB
:10577000CA1B6091090270910A0280910B029091FC
:105780000C0230E040E050E00E94D62E6093080208
:10579000611120C0809192028823E1F0E0912E02F5
:1057A000F0E0E85BFD4F82AD809353020E94B003AE
:1057B0001092250280912E028F5F80932E0290918D
:1057C0009202891710F010922E028091A602816039
:1057D0008093A6028091080290E0DC01A85BBD4F97
:1057E000B98FA88F99964C9040FC06C080912302F7
:1057F0009091240295FF4CC1C0903202D0903302A8
:1058000080912F02909130028C159D056CF01092C2
:10581000300210922F0280914B02843029F4809143
:10582000AB0281608093AB02441C4424441CB42D21
:10583000BB0FBC8B512CE88DF98DB996FB8FEA8F8D
:10584000E0912F02F09130022C89223061F0DF01CB
:10585000AA0FBB1FA057BE4F11964C90441C442466
:10586000441C4C8A02C031E03C8BAA8DBB8D8C91CC
:1058700080FF83C0EE0FFF1FE057FE4F60819181D4
:105880006F77562E85FF06C0BCE0B61718F4E4EF1C
:105890005E0E11C084FF07C0F3E7F51520F04CE061
:1058A000E42E5E0C08C086FF06C034E0F32EF5142B
:1058B00010F42BEF520E2091AB0221FD0FC083FF9D
:1058C00003C0409051020BC020914F02222319F0D7
:1058D0004090500204C09F77492E01C0412C909106
:1058E000B902933061F42091A7023091A80236FFEB
:1058F00006C083FB662760F98BE00E94801A552062
:10590000E1F18091290286FF12C080918901481639
:1059100071F00E94251B7B018C0180912B0222E0FB
:10592000442D69E2806B0E94E209409289018091D6
:105930002B028501740122E0442D652D80690E94AF
:10594000E209852D877041E050E002C0440F551FE9
:105950008A95E2F7CA01E52DF0E023E0F595E79599
:105960002A95E1F7DF01A758BE4F9C91982B9C9395
:10597000E20DF31D9081892B808380912F029091FD
:10598000300201969093300280932F025C8951116E
:1059900003C0511006C04EC08C159D050CF450CFAD
:1059A000F8CFA88DB98D99961C9112FD03C016955C
:1059B000117001C012E08091B9028330E9F42091A6
:1059C0008F01652D70E080E090E0222321F041E01E
:1059D0000E94FA000DC040E00E94FA0060E08EE0F4
:1059E0000E94801A61E070E080E090E00E94EB1A73
:1059F00061E08EE00E94801AA101C501B4010E94FD
:105A0000490B123061F41092BC021092BD02109248
:105A1000BE021092BF0281E080938F0139C0113025
:105A200049F480918B0190918C01A0918D01B091EE
:105A30008E0117C0A0915202AA2301F120918B017F
:105A400030918C0140918D0150918E01B0E00E9407
:105A5000C32E26E930E040E050E00E94D62EDA0165
:105A6000C901880D991DAA1DBB1D8093BC0290938E
:105A7000BD02A093BE02B093BF0208C01092BC0248
:105A80001092BD021092BE021092BF0210928F01BE
:105A900081E080938A018091A9029091AA02977F68
:105AA0009093AA028093A9020C9448210E941E0C94
:105AB00080914F02811175C9809134028093350223
:105AC000C5CB208301968031910509F071C953CD72
:105AD0009091450285CB9091450288CB90914502EB
