:100000000C94A1000C94BF160C9498160C94C90083
:100010000C947B070C94C9000C94C9000C94C90083
:100020000C94C9000C94820B0C94C9000C94C90068
:100030000C94C9000C94C9000C94C9000C94C9001C
:100040000C94571A0C94C9000C940C170C94E616D7
:100050000C94C9000C94C9000C94C9000C94C900FC
:100060000C943E170C94C90075237C2385238E23A2
:100070009723A023A923B223E023E023E023BB237B
:10008000C123C823CF23D62303260726032607260A
:10009000032603260726032607260326072603260C
:1000A0000326072603262326232623262326232664
:1000B000E726E726E726E726E7262B267F2688265B
:1000C0009D26B826C12626104F1015119A109A1099
:1000D0009A109A109A109A109A109A109A10151154
:1000E0009F10DD10F31000000000240027002A00FC
:1000F00000000000250028002B0000000000230065
:100100002600290004040404040404040202020278
:1001100002020303030303030102040810204080CA
:100120000102040810200102040810200000000849
:1001300000020100000304070000000000000000AE
:10014000E12B11241FBECFEFD8E0DEBFCDBF11E001
:10015000A0E0B1E0EAE7FFE502C005900D92A2350C
:10016000B107D9F724E0A2E5B1E001C01D92AC339C
:10017000B207E1F710E0C1EAD0E004C02197FE0128
:100180000E949C2FC03AD107C9F70E94A11A0C9473
:10019000BB2F0C940000CF93DF93E82F8091A10236
:1001A000982F907181FF11C0911104C08F7D8061E3
:1001B0008093A102E93024F1E850E093BF028091DE
:1001C000A10280628093A10222C0992329F085FDBB
:1001D00003C01092BF0261E08F7C8093A102EF3FC9
:1001E00079F00E2E000CFF0BED5BFD4FA091BF02CE
:1001F000B0E0AA5DBE4F9C9181A5892781A707C069
:10020000611105C080918601882309F446C0E09100
:10021000BF0240914202E11120C0ECE6F2E080E032
:1002200090E03191232F217030FD242FDC01AF5C51
:10023000BD4F2C9301968031910599F780912E0244
:1002400090912F02892B39F1E0910402F0E0809126
:100250003002EF5CFD4F80831EC050914102ACE63E
:10026000B2E020E030E0F0E0EA5DFE4F8D91E90180
:10027000CF5CDD4F908180FF04C0892321F0842F63
:1002800003C0892309F0852F88832F5F3F4F2031DA
:10029000310561F7D3CF10928601DF91CF91089598
:1002A000CF93C82F292F81E08093600380E680934D
:1002B00082031092610310928303822F922F990F71
:1002C000990B8F7099270E9403196C2F81E294E09B
:1002D0000E946316CF910C9421198F929F92AF9236
:1002E000BF92CF92DF92EF92FF92CF93C42F9B01E8
:1002F000AC012C50310941095109A4EFB1E00E9431
:10030000FF2C2CE030E040E050E00E94E02CA09177
:1003100071010A2E000CBB0BB05F0E940A2D20E079
:1003200030E140E050E00E94E02CC09070010C2CC5
:10033000000CDD08EE08FF08C20ED31EE41EF51EF9
:10034000F7FE07C084EFC80E81E0D81EE11CF11C47
:10035000F7CFC11480E1D806E104F1043CF084EF4A
:10036000C81A81E0D80AE108F108F3CFD60199272D
:1003700088278093A7029093A802A093A902B09324
:10038000AA02209187013091880140918901509102
:100390008A018090AB029090AC02A090AD02B09028
:1003A000AE02BC01CD01681979098A099B090E9436
:1003B000E02C2093AF023093B0024093B1025093EF
:1003C000B202CC2321F0232B242B252BD9F4C601F8
:1003D0000E9450018091A7029091A802A091A902C9
:1003E000B091AA028093AB029093AC02A093AD02AD
:1003F000B093AE021092AF021092B0021092B1020E
:100400001092B202CF91FF90EF90DF90CF90BF900B
:10041000AF909F908F9008958F929F92AF92BF92CE
:10042000CF92DF92EF92FF920F931F93CF93DF93C0
:100430008C016B017A019924939480E5882E1E1417
:100440001F040CF049C090926003809282031092C6
:10045000610310928303812F912F990F990B0E94B2
:100460000319C80199270E940319E70181E1E816E1
:10047000F10414F0C0E1D0E00C0F1D1FEC1AFD0ACE
:100480005601F50161915F0181E294E00E946316DB
:10049000C5018C199D098C179D079CF31C161D0620
:1004A00014F0C1E0D0E0CC0EDD1E0E942119909224
:1004B000600380928203109261031092830380E0B4
:1004C00090E00E94031980E090E00E9403190E94CE
:1004D0002119823061F3B3CFDF91CF911F910F913A
:1004E000FF90EF90DF90CF90BF90AF909F908F9054
:1004F0000895AF92BF92CF92DF92EF92FF920F9347
:100500001F93CF93DF937C018B01EA0181E08093FD
:10051000600380E58093820310926103109283034D
:100520008F2D9F2D990F990B0E940319C7019927B1
:100530000E9403190E942119DD24D394CC24CA946B
:1005400085EEB82E95ECA92E1C161D060CF05FC08A
:10055000AE01C132D10514F040E250E0C41BD50B0E
:1005600080915F038111FCCF942FD0925F03D092D2
:100570005E03C0925D0310925C032FEF240F209363
:100580005B03D0923A0320913A03206A20933A0306
:1005900020913903213069F41092390320913A03F4
:1005A0002093BB002091BC0023FDF8CFA092BC009B
:1005B00002C0B092BC0020915F032130E1F3209192
:1005C0005C03291710F490915C03EBE3F3E0A0EDDA
:1005D000B2E020E0291721F031913D932F5FFACF4F
:1005E0001092F1022093F00230E02417350781F4D5
:1005F0007801040F151FE016F10609F4A5CF81E27A
:1006000094E00E941A16F70181937F01F4CF81E0F4
:10061000DF91CF911F910F91FF90EF90DF90CF90DE
:10062000BF90AF900895CF93DF931F92CDB7DEB701
:100630001982982F990F41E050E0BE016F5F7F4F04
:1006400080E00E947902882321F081E09981903A2C
:1006500009F080E00F90DF91CF9108958091A20280
:100660009091A3029C01237033272230310581F041
:1006700023303105A9F02130310511F024E601C005
:100680002FEF2093300223E02093420221E00FC09D
:100690002FEF2093300229E12093420224E007C08B
:1006A0002FEF2093300223E2209342022AE020938E
:1006B00041028C7099278430910569F018F4892BD8
:1006C00039F008958830910549F00C9751F008955C
:1006D0008AEF90E008C084EF91E005C088EE93E0D7
:1006E00002C08CED95E09093910280939002089562
:1006F0006091A20289E690E00E94B3186091A30283
:100700008AE690E00C94B3182F923F924F925F923A
:100710006F927F928F929F92AF92BF92CF92DF9211
:10072000EF92FF920F931F93CF93DF93CDB7DEB776
:10073000CF59D1090FB6F894DEBF0FBECDBF8FEFF2
:100740008093850180932D0210922F0210922E0229
:1007500080916A0290916B02892B09F472C3809197
:100760004602833080F5CE0187589F4F0E94BF2BF1
:1007700020916A0230916B0221503109FE01E75845
:10078000FF4F80E090E0DD24D394821793072CF094
:10079000DD20A1F3809152021BC0419151916081F3
:1007A00071818A010F771127DB01AF77BB27A01773
:1007B000B1073CF4DF0112976D937C935183408322
:1007C000D12C0196E2CFCE0187589F4F0E94BF2BBC
:1007D00080932D02E1E0F0E0612C712C2FE730E0F6
:1007E000CF56DF4F39832883C159D04000E010E055
:1007F00064C00C3311050CF031C2409146022091C7
:100800006A0230916B02423009F4F8C008F46AC001
:10081000433009F48CC0463008F4CDC020916A0200
:1008200030916B02C656DF4F39832883CA59D040B6
:1008300080914F02482F880F550BC456DF4F5983C4
:100840004883CC59D0402091500230915102C85673
:10085000DF4F39832883C859D0404901882430E7C5
:100860009322A201440F551FC256DF4F598348837C
:10087000CE59D040C701880F991F29E730E02C0FCF
:100880003D1F280F391FCC56DF4F39832883C459A9
:10089000D040F7FE13C13FEFC31AD30A509148026C
:1008A000852F90E0C816D9060CF4A3CF309709F431
:1008B000D5C10C3311050CF0D1C18091500290913B
:1008C000510290589093510280935002392F331F58
:1008D0003327331FCD56DF4F3883C359D040C12C47
:1008E000D12CDCCF442309F466C0413009F096CF07
:1008F000790141E0E41AF10820914702820F911D2D
:1009000027FD9A958C199D0901972CE0289F1001CD
:10091000299F300C112480914E02280E311C87FD36
:100920003A9444244A94542CA12CB12C64C0FE0166
:10093000E758FF4F80E090E08217930724F411926C
:1009400011920196F9CF22E5A22E22E0B22EE12CDF
:10095000F12C80916A0290916B02E816F9065CF521
:1009600020906A0230906B02032C000C440855085A
:10097000211431044104510441F00E94732CA2015E
:1009800091010E94E02C1B012C01220C331CE9E791
:10099000F0E0EC0FFD1FE20DF31D80819181892BAA
:1009A000F9F6D5018D919D915D0191838083BFEF13
:1009B000EB1AFB0ACECFA0906A02B0906B02E1E086
:1009C000AE1AB108809147029601280F311D87FDAC
:1009D0003A95C9012CE0289F1001299F300C112461
:1009E00080914E02280E311C87FD3A944424439492
:1009F000512CE12CF12CE0E0F0E010CF7091470297
:100A000060914E02E130F10501F5590151E0A51A5E
:100A1000B1089601270F311D77FD3A954CE0429FB2
:100A20001001439F300C1124260E311C67FD3A94AF
:100A3000019744244394512CE12CF12CC816D9067B
:100A400009F0ECCEE2E0F0E0E9CE513029F4790192
:100A500042E0E41AF10812C0C114D10429F479016A
:100A600052E0E51AF10813C0AC0141505109790177
:100A7000C416D50649F4A1E0EA1AF108AA24A39401
:100A8000B12CE0E0F0E005C0B1E0EB1AF108A12CD8
:100A9000B12C870F911D77FD9A958C199D090197AF
:100AA0002CE0289F1001299F300C1124260E311CA8
:100AB00067FD3A9444244A94542CB0CEC656DF4F76
:100AC00028813981CA59D040E216F3060CF0E3CEF2
:100AD0000C3311050CF0DFCECC56DF4FA881B98165
:100AE000C459D0400D90BC91A02DCA56DF4FB98398
:100AF000A883C659D0409D012F773327220D331D7F
:100B0000C901C456DF4F48815981CC59D040841B5C
:100B1000950B97FF02C00C96FCCF6CE070E00E9432
:100B2000882F60E078E002C0759567958A95E2F7B6
:100B3000CB01C856DF4F48815981C859D040842322
:100B40009523892BB9F5811450E29506A9F058F444
:100B50008114910409F467C0811470E1970651F57E
:100B600020E030E027C0811480E3980641F0811432
:100B700090E4990639F01EC0215031091BC02F5F47
:100B80003F4F18C0CD56DF4FA881C359D040AA238C
:100B900019F02F5F3F4F02C021503109CD56DF4F72
:100BA000B881C359D04041E0B427CD56DF4FB88358
:100BB000C359D040203831051CF02C503109FACFF0
:100BC00037FF03C0245F3F4FFBCFC956DF4F8881FB
:100BD000C759D0408F77B901782BCB01A3014F774C
:100BE0005527421753070CF43B01CF56DF4F48817E
:100BF0005981C159D0404F7755272417350734F410
:100C0000CF56DF4F99838883C159D040D801AA0FAE
:100C1000BB1F21E030E02C0F3D1FA20FB31F8D93AF
:100C20009C930F5F1F4FCC56DF4F48815981C459A9
:100C3000D040C256DF4F28813981CE59D040420F73
:100C4000531FCC56DF4F59834883C459D040EA1410
:100C5000FB0409F420CEE40CF51C1BCE10922F02ED
:100C600010922E0280914602853089F4DE011196A1
:100C7000ECE8F1E080E090E00817190709F4DDC026
:100C80002D913D913068219331930196F5CF80915C
:100C90004902823009F453C060F4882311F1813095
:100CA00009F0CFC0DE01119680E090E020E030E056
:100CB00042C0833051F0843009F0C3C0ACE8B1E0E9
:100CC00020E030E080E090E0ACC07CE8C72E71E02E
:100CD000D72EE12CF12C20E030E0E3E0AE2EB12C59
:100CE0007BC0DE011196ECE8F1E080E090E00817AF
:100CF000190709F4A2C02D913D91219331930196DA
:100D0000F6CF8C3391053CF54D915D9164167506D7
:100D100081F0FC01EE0FFF1FE457FE4F71826082ED
:100D2000FC013196EE0FFF1F0296E457FE4F5183F0
:100D300040832F5F3F4F0217130719F70CC0DE01E6
:100D4000119680E090E020E030E00217130719F0E0
:100D50008C3391052CF090932F0280932E0271C05A
:100D60004D915D91CF56DF4F68817981C159D04057
:100D70006417750781F0FC01EE0FFF1FE457FE4F6B
:100D800071836083FC013196EE0FFF1F0296E457DA
:100D9000FE4F518340832F5F3F4FD7CFBCE3EB160D
:100DA000F104E9F0EFEFEE1AFE0AC701B5010E9467
:100DB000882F892BC9F4C9010197220F331FE1E065
:100DC000F0E0EC0FFD1FE20FF31F20813181D6010F
:100DD0002D933D936D019C0120173107FCF2F09299
:100DE0002F02E0922E022DC0C9010196E6CF2C33CE
:100DF0003105D1F02F5F3F4FA90143705527452B97
:100E0000C1F4AC0142505109880F991FE1E0F0E0B4
:100E1000EC0FFD1FE80FF91F808191818D939D9349
:100E2000CA01801791071CF330932F0220932E02E2
:100E300008C0AC014F5F5F4FE7CF10932F020093C4
:100E40002E02C156DF4F0FB6F894DEBF0FBECDBFE6
:100E5000DF91CF911F910F91FF90EF90DF90CF9096
:100E6000BF90AF909F908F907F906F905F904F90CA
:100E70003F902F90089510926B0210926A02109288
:100E80008F0210928E028091A10281608093A10254
:100E90008091A60281608093A602089560911F024E
:100EA0008BE690E00E94B318609120028CE690E0FF
:100EB0000C94B318909353018093520128E1289F1A
:100EC000B001299F700D1124072E000C880B990B7F
:100ED0000E945A2E9B01AC0160E070E68AE697E41E
:100EE0000E94B02D609358017093590180935A016C
:100EF00090935B0108951F920F920FB60F921124E9
:100F00002F933F934F935F936F937F938F939F9311
:100F1000AF93BF93EF93FF93309B3FC00E944B1A58
:100F2000AB01BC018091C0029091C102A091C202AC
:100F3000B091C302892B8A2B8B2B29F18091C0029F
:100F40009091C102A091C202B091C302841795078B
:100F5000A607B707C0F48091C0029091C102A0918A
:100F6000C202B091C3029A01281B390B309364016D
:100F7000209363014093C0025093C1026093C20268
:100F80007093C3020AC08091A4029091A50292605E
:100F90009093A5028093A402EDCFFF91EF91BF91B2
:100FA000AF919F918F917F916F915F914F913F9101
:100FB0002F910F900FBE0F901F90189590916D017B
:100FC0009F5F977020916E01921741F0E0916D0143
:100FD000F0E0EB59FE4F808390936D01089588EF08
:100FE0000C94DE078AEF0C94DE070E944B1A609384
:100FF000C4027093C5028093C6029093C7021092F8
:10100000BB021092BC021092BD021092BE0210925E
:101010000502109206021092070210920802109226
:101020005701109256018091A4029091A50284600C
:101030009093A5028093A4028091A4029091A502AE
:1010400098609093A5028093A402089580936F0105
:101050008091A4029091A50288609093A50280934C
:10106000A4020C94F507CF92DF92EF92FF920F93B8
:101070001F93CF93C82F8091A4029091A50292FF55
:1010800011C01092BB021092BC021092BD021092CD
:10109000BE021092050210920602109207021092F0
:1010A0000802B7C08091A4029091A50291FF12C0DE
:1010B0008091A4029091A5029D7F9093A5028093B8
:1010C000A4021092BB021092BC021092BD021092B8
:1010D000BE0213C08091BB029091BC02A091BD02E0
:1010E000B091BE020196A11DB11D8093BB029093E9
:1010F000BC02A093BD02B093BE026091BB0270918E
:10110000BC028091BD029091BE02209144023091B8
:101110004502032E000C440B550B0E94122D672B29
:10112000682B692B09F04FC00E944B1A0091C40232
:101130001091C5022091C6023091C702012B022BEB
:10114000032BB1F00091C4021091C5022091C60298
:101150003091C7026B017C01C01AD10AE20AF30A7E
:10116000C0928701D0928801E0928901F0928A01B1
:101170006093C4027093C5028093C6029093C70225
:101180008091A4029091A50280FF06C080916F011A
:101190008C1711F08430B9F48091A4029091A502CB
:1011A00087FF4DC0109205021092060210920702AE
:1011B000109208028091A4029091A50298609093E9
:1011C000A5028093A4028091A4029091A5028F773A
:1011D0009093A5028093A4026091BB027091BC021F
:1011E0008091BD029091BE0228E130E040E050E0E5
:1011F0000E94122D672B682B692B59F4109256010F
:101200008091A4029091A50284609093A50280939E
:10121000A4028091A4029091A50281FF05C0809153
:1012200057018F5F809357018091B40282508230C2
:10123000D0F4809156018F5F8093560114C0809145
:10124000050290910602A0910702B0910802019652
:10125000A11DB11D8093050290930602A093070281
:10126000B0930802A7CFCF911F910F91FF90EF90FD
:10127000DF90CF900895AF92BF92CF92DF92EF921E
:10128000FF920F931F93CF93DF93C82FA62EB42EF8
:10129000D22F67017801807F803F11F46C2F15C039
:1012A00080912102C81739F06C2F84E893E00E94E6
:1012B0005D15C0932102DD2361F06A2D84E893E07F
:1012C0000E945D15D23028F06B2D84E893E00E94D7
:1012D0005D1561E081E10E94A61984E1C80ED11C70
:1012E000E11CF11CC0921702D0921802E092190280
:1012F000F0921A02DF91CF911F910F91FF90EF9022
:10130000DF90CF90BF90AF900895CF92DF92EF9291
:10131000FF920F931F93FC016E3008F06E506770C0
:10132000606460937C0080917A00806480937A008E
:1013300080917A0086FDFCCF6091780080917900E1
:1013400070E0782B808191818F3F5FEF950719F4D2
:1013500071836083F0C0DB01A81BB90BCD01B7FF1F
:1013600003C091958195910905970CF4E4C07183B0
:101370006083423809F465C068017901942F4338CD
:1013800028F4403851F0413869F197C0433809F4E6
:101390007DC0443809F46CC090C0CB010E946C1829
:1013A000BC01990F880B990B0E945A2E20E030E067
:1013B00040E054E40E94432D20E030E040E451E45A
:1013C0000E94EB2E20E030E84FEF53E40E94B02D56
:1013D0000E94222E60934E028091A602816080932B
:1013E000A60229C0643071053CF06C3FB3E07B0776
:1013F0002CF06FEF73E002C060E070E0072E000C8D
:10140000880B990B0E945A2E20E030EC4FE754E4F1
:101410000E94B02D20E030E04AE753E40E94EB2E1A
:1014200020E030E040EF51E40E94442D0E94222E43
:10143000CB010E945A078091A10281608093A10292
:101440007AC0643071053CF06C3F53E075072CF0B6
:101450006FEF73E002C060E070E043E07595679560
:101460004A95E1F760934B0281E080934A02E3CF13
:10147000643071053CF06C3F83E07807E4F1109232
:101480004D02D9CF81E080934D02D5CFCB010E9490
:101490006C1824E0880F991F2A95E1F7AC01440FDE
:1014A000452F441F550B4F77682F6F778091270288
:1014B0008701760122E0806E1BC0643071053CF02C
:1014C0006C3FA3E07A072CF06FEF73E002C060E09E
:1014D00070E0191684F5AB0183E0559547958A9520
:1014E000E1F7809127028701760122E0692F806B66
:1014F0000E943B0920C06A30710524F2072E000CBF
:10150000880B990B0E945A2E20E030E046E153E40C
:101510000E94EB2E20E030EC4FE754E40E94B02D07
:1015200020E030E040E251E40E94442D0E94292E48
:1015300060934D0280CF1F910F91FF90EF90DF904D
:10154000CF9008952F923F924F925F926F927F9229
:101550008F929F92AF92BF92CF92DF92EF92FF92C3
:101560000F931F93CF93DF9300D01F92CDB7DEB7B9
:101570002B013C014A0185E791E09B838A835A0154
:10158000312CEA81FB812080211022C08A819B813D
:1015900001969B838A839FEFA91AB90A3394E0E1ED
:1015A0003E12EFCF0F900F900F90DF91CF911F91D0
:1015B0000F91FF90EF90DF90CF90BF90AF909F90F2
:1015C0008F907F906F905F904F903F902F900895F5
:1015D000D32CDD0CDD0CDD0CF8E0FD0DF983CC2403
:1015E000C394822D8C21F1F08114910421F0F50136
:1015F00080818C21B9F4909124028091270290FF80
:1016000002C0806801C080698301720122E040E06D
:101610006D2D0E943B09EA81FB8190818C2D809584
:1016200089238083D394CC0CF981DF12DACFAECF3B
:10163000EF92FF920F931F93CF93DF9310922102AB
:10164000882311F0D0E001C0DFE7C0E00E944B1A10
:101650007B018C0122E04D2F6AE78C2F806B0E946A
:101660003B09CF5FC03191F7DF91CF911F910F916F
:10167000FF90EF9008950F931F93CF93DF93EC01AA
:101680008B01909130027091410220E030E040E007
:1016900050E8F901EF5CFD4FD801A423B523AB2B33
:1016A00011F0908308C0DE01A423B523AB2B11F009
:1016B000708301C01082569547952F5F3F4F2031B0
:1016C000310539F7DF91CF911F910F9108959B015B
:1016D000803191055CF41216130644F4FC01EF5CB2
:1016E000FD4F4083215031090196F2CF089580E0EB
:1016F00090E0FC01EF5CFD4F108201968031910576
:10170000C1F708951F920F920FB60F9211242F93D5
:101710003F934F935F938F939F93EF93FF934198E2
:101720008091C802882341F08091C80280958093FF
:10173000B2001092C8026CC080910E028F5F80933D
:101740000E028091C9028F3018F05D985F9A5D9A01
:101750005F985D985D9A8091C9029FE0981B292F40
:1017600030E0F901EF5CFD4F80818111419A809555
:101770008093C8024091CA0241111EC01A9B10C03A
:101780004091CB02042E000C550B24173507C9F0ED
:1017900090939F0240919F024093CB0242E30FC07F
:1017A0004091CB02042E000C550B2417350749F449
:1017B0004FEF4093CB0205C04091CA024150409385
:1017C000CA024E9B0DC040919202042E000C550B94
:1017D0002417350781F090939A0290919A0209C0DC
:1017E00040919202042E000C550B2417350719F472
:1017F0009FEF909392029091C902911102C09FE0D5
:1018000003C09091C90291509093C9028093B20095
:10181000FF91EF919F918F915F914F913F912F9108
:101820000F900FBE0F901F9018950F931F93CF939B
:10183000DF9300D01F92CDB7DEB740E06FEF8EE6AA
:101840000E9408198093B40240E06FEF8AE60E947C
:1018500008191092A2028093A30240E06FEF89E67C
:101860000E9408192091A2023091A302282B3093E4
:10187000A3022093A2020E942E03E0919403F09110
:10188000950382E08083E0919003F09191031082B0
:10189000E0919203F09193038FE3808310929C0375
:1018A000E0919803F091990386E08083E09196039C
:1018B000F0919703808180618083E0919603F0919D
:1018C0009703808188608083E0919603F09197036D
:1018D000808180688083E0919603F09197038081F6
:1018E0008F7D808384E893E00E94AA151092730193
:1018F00010922102109272011092740140E06FE088
:1019000085E60E940819809327024FEF6FE084E676
:101910000E9408198093260249E16FEF88E60E9431
:1019200008198093250240E061E08DE60E940819C5
:1019300080932402109223021092220210928601B8
:101940001092A6028FEF809385011092BF02109231
:1019500046021092470291E0909348021092490289
:1019600084E680934B022FE720934C0290934A0227
:1019700010926B0210926A0290E190937C02809325
:101980004D0210924E0210924F028FEF9FE3909300
:1019900051028093500210928F0210928E02109288
:1019A0008D0240E06FEF8CE60E940819082F10E0CE
:1019B000102F002740E06FEF8BE60E9408198091FE
:1019C0001F02909120029F750027107A082B192B77
:1019D0001093200200931F02ECE6F2E08CE792E005
:1019E00021E021938E179F07E1F7E5E7F1E01192DF
:1019F00081E0E538F807D9F710922F0210922E02F5
:101A00008FEF80932D0210922C0210922B021092D5
:101A10002A02109229021092280261E08DE00E94B1
:101A2000D51910920A0210920B0210920C02109219
:101A30000D0210920902109297021092990281E011
:101A40008093A10210929B0210929C0210929D0220
:101A500010929E021092930210929402109295029C
:101A6000109296021092CC021092CD021092CE02E9
:101A70001092CF021092A002F8941092A502109238
:101A8000A40210926D0110926E0140E061E086E6C2
:101A90000E940819882349F08091A4029091A50220
:101AA00081609093A5028093A40240E061E087E604
:101AB0000E940819882349F08091A4029091A50200
:101AC00082609093A5028093A40210925701109215
:101AD0006F0186E090E0909345028093440210925B
:101AE000C4021092C5021092C6021092C702109250
:101AF0008701109288011092890110928A010E9438
:101B0000F50788E790E00E945A0710925E01109254
:101B10005F01109260011092610162E082E00E9418
:101B2000D51962E083E00E94D51962E084E00E944A
:101B3000D51982EF97E09093010180930001809185
:101B40006900836080936900E89A8FEE97E0909334
:101B5000030180930201809169008C608093690089
:101B6000E99A1092560110925C0110925401109261
:101B7000C0021092C1021092C2021092C3021092CF
:101B800064011092630110925D01109255018091E1
:101B9000A2029091A30297FD02C086E001C08CE0F2
:101BA000809362018091B402823049F561E082E164
:101BB0000E94D51960E08EE00E94D51962E083E1B1
:101BC0000E94D5196AE070E080E090E00E94111A4E
:101BD00035990EC08FEF80935C0180916800826020
:101BE0008093680010926C0080916C00816003C04B
:101BF00080916C008E7F80936C0082E107C08330FF
:101C000039F461E08BE00E94D5198BE08093550197
:101C1000789461E085E00E94D51961E087E00E9438
:101C2000D51960E08AE00E94D51960E086E00E9444
:101C3000D51961E08FE00E94D51962E08CE00E9426
:101C4000D51961E088E00E94D51961E081E10E9428
:101C5000D51961E080E10E94D51961E089E00E9418
:101C6000D51980E090E0FC01EF5CFD4F10820196F9
:101C700080319105C1F78FEF80939F028093CB0253
:101C800080939A021092CA029FE09093C902109228
:101C9000C80210921B0210921C0210921D02109298
:101CA0001E0210921702109218021092190210923E
:101CB0001A0210921302109214021092150210923E
:101CC000160210920F02109210021092110210923E
:101CD00012021092980210920E022CED35E0309311
:101CE0009102209390028093300289E18093420216
:101CF00084E0809341021092B00083E08093B100B1
:101D000081E0809370001092B20078948091B402C8
:101D1000813081F462E08BE00E94D51960E083E1BC
:101D20000E94D51960E082E10E94D51960E08EE042
:101D30000E94D5198FEF9FEF909332048093310466
:101D40009093300480932F0490932E0480932D045D
:101D50001092B30210927101109270011092AB02B6
:101D60001092AC021092AD021092AE021092A70235
:101D70001092A8021092A9021092AA021092AF0229
:101D80001092B0021092B1021092B20210928B0126
:101D90008091B402833009F061C01092F102109278
:101DA000F002109261031092830310925F0311E01E
:101DB00010935E031092390361E082E10E94A6193C
:101DC00061E083E10E94A6198091B9008E7F809323
:101DD000B9008091B9008D7F8093B90088E4809329
:101DE000B80085E48093BC0088E096E19093F3020C
:101DF0008093F20289E096E19093F5028093F402D9
:101E00001093600380E68093820310926103109226
:101E1000830389E990E00E9403190E94211961E07F
:101E20008EE00E94D51960E08EE00E94A61919820A
:101E30001A821B8243E050E0BE016F5F7F4F87EF45
:101E40009FE10E947902882349F08981823131F42F
:101E50008A81809371018B81809370010E942E038F
:101E60008CE00E947D19892B09F05DC080914102B0
:101E70008093310280933202809333028093340244
:101E8000809335029091300290933602809337020E
:101E9000909338028093390290933A0280933B02E8
:101EA00090933C0280933D0290933E0280933F02C8
:101EB000909340028CE00E947D19892BD9F3809188
:101EC0009A028830C1F140E06FEF83E60E94081962
:101ED000843289F580919F0287FF84C080919F02A0
:101EE0008F3F09F140E060E170E080E090E00E9407
:101EF000670B4091420265E070E080E090E00E9454
:101F0000670B8091B4024091300261E070E090E094
:101F10000E94670B68EE73E080E090E00E94111A67
:101F2000E0E0F0E009958091250287FF72C081E032
:101F30000E94180B6EC0109227028FEF809326022A
:101F400089E1809325021092A5021092A4028AE1F1
:101F500090E09093A3028093A20280E090E290939D
:101F6000200280931F0260E085E690E00E94B31893
:101F70006091260284E690E00E94B31869E188E649
:101F800090E00E94B31860E08DE690E00E94B318E4
:101F900060E086E690E00E94B31860E087E690E09B
:101FA0000E94B31860E08EE690E00E94B3180E9491
:101FB00078030E944E0764E283E690E00E94B31823
:101FC0004091300260E170E080E090E00E94670B99
:101FD00068EE73E080E090E00E94111AE0E0F0E02B
:101FE000099578CF80919F0285300CF077CF609172
:101FF0009F026093B4028091A2029091A30299275C
:102000009093A3028093A2028EE690E00E94B31800
:1020100065CF0F900F900F90DF91CF911F910F918F
:102020000895CF92DF92EF92FF92CF93C62F482F61
:10203000082E000C550B660B770B4031510508F04C
:10204000F4C0FA01ED59FF4F0C949C2F8091A4022B
:102050009091A50221E082279093A5028093A4028B
:102060008091A4029091A50280FD11C08091A402EC
:102070009091A50280689093A5028093A40210928B
:10208000C0021092C1021092C2021092C30260916B
:10209000A4027091A502617086E690E048C080912C
:1020A000A4029091A50281FF13C08091A402909197
:1020B000A50280619093A5028093A4028091A4025E
:1020C0009091A5028D7F9093A5028093A40226C0D3
:1020D0008091A4029091A50288609093A5028093BC
:1020E000A4028091A4029091A50280649093A5021D
:1020F0008093A4028091A4029091A502886090939D
:10210000A5028093A4028091A4029091A50282600E
:102110009093A5028093A4020E94F5076091A40207
:102120007091A50276956795617087E690E00E94B0
:10213000B3187EC064E18602C001112473C080918F
:10214000A4029091A50280FF08C010926F018091B7
:10215000A4029091A502806154C00E944B1A6B01A9
:102160007C018091CC029091CD02A091CE02B091E1
:10217000CF028C159D05AE05BF05B0F4A7019601F1
:10218000281B390B4A0B5B0B283E73E037074105D0
:10219000510550F460E67AEE80E090E00E94122D46
:1021A000C9010E945A07C1E0C092CC02D092CD0270
:1021B000E092CE02F092CF0238C08091A4029091BA
:1021C000A50280FF04C084E00E9426082EC08091F2
:1021D000520190915301459744F1809152019091A1
:1021E000530101971FC08091A4029091A50280FF26
:1021F0000DC084E080936F018091A4029091A502AC
:1022000080629093A5028093A4020FC08091520136
:10221000909153018C32914044F4809152019091FD
:10222000530101960E945A0703C0CC2309F4ABC3A3
:1022300040E060E170E080E090E00E94670B409138
:10224000A4025091A502209130028091420240FFE9
:1022500011C0209331024091A4025091A50240FF89
:10226000282F2093320280933E0280933F02809376
:10227000400289C3382F809331024091A4025091CB
:10228000A50241FF02C0922F01C0982F9093320205
:102290004091520150915301493251050CF459C0FB
:1022A00060915201709153014CE350E0FA01E61B3A
:1022B000F70B1E161F0654F46091520170915301E2
:1022C000461B570B4530510544F009C0409152015F
:1022D000509153014134510514F4922F40C0609144
:1022E0005201709153014CE350E0FA01E61BF70BE9
:1022F0001E161F0654F46091520170915301461B43
:10230000570B4C30510544F107C040915201509198
:1023100053014834510504F1609152017091530109
:102320004CE350E0FA01E61BF70B1E161F0654F4AF
:102330006091520170915301461B570B4431510576
:1023400044F00CC040915201509153014035510569
:102350002CF49091410203C0982F01C090E090931B
:102360003402609152017091530140E550E0FA014E
:10237000E61BF70B1E161F0654F460915201709174
:102380005301461B570B4530510544F009C040919D
:102390005201509153014535510514F4922F40C01C
:1023A000609152017091530140E550E0FA01E61B43
:1023B000F70B1E161F0654F46091520170915301E1
:1023C000461B570B4C30510544F107C04091520158
:1023D000509153014C35510504F1609152017091B7
:1023E000530140E550E0FA01E61BF70B1E161F06ED
:1023F00054F46091520170915301461B570B4431C4
:10240000510544F00CC040915201509153014436A3
:1024100051052CF49091410203C0982F01C090E027
:1024200090933502609152017091530144E650E05F
:10243000FA01E61BF70B1E161F0654F460915201B9
:1024400070915301461B570B4530510544F009C0AC
:1024500040915201509153014936510514F4922F85
:1024600040C0609152017091530144E650E0FA017E
:10247000E61BF70B1E161F0654F460915201709173
:102480005301461B570B4C30510544F107C0409196
:102490005201509153014037510504F160915201AE
:1024A0007091530144E650E0FA01E61BF70B1E164B
:1024B0001F0654F46091520170915301461B570B53
:1024C0004431510544F00CC04091520150915301E8
:1024D000483751052CF49091410203C0982F01C058
:1024E00090E090933602609152017091530148E759
:1024F00050E0FA01E61BF70B1E161F0654F460911C
:10250000520170915301461B570B4530510544F061
:1025100009C040915201509153014D37510514F4B7
:10252000922F40C0609152017091530148E750E0F2
:10253000FA01E61BF70B1E161F0654F460915201B8
:1025400070915301461B570B4C30510544F107C0A5
:1025500040915201509153014438510504F160916A
:1025600052017091530148E750E0FA01E61BF70B66
:102570001E161F0654F46091520170915301461BC0
:10258000570B4431510544F00CC040915201509119
:1025900053014C3851052CF49091410203C0982FFF
:1025A00001C090E090933702609152017091530105
:1025B0004CE850E0FA01E61BF70B1E161F0654F418
:1025C0006091520170915301461B570B45305105E4
:1025D00044F009C0409152015091530141395105D5
:1025E00014F4922F40C060915201709153014CE855
:1025F00050E0FA01E61BF70B1E161F0654F460911B
:10260000520170915301461B570B4C30510544F158
:1026100007C040915201509153014839510504F1CE
:1026200060915201709153014CE850E0FA01E61BB1
:10263000F70B1E161F0654F460915201709153015E
:10264000461B570B4431510544F00CC040915201D8
:1026500050915301403A51052CF49091410203C02E
:10266000982F01C090E090933802609152017091D0
:10267000530140EA50E0FA01E61BF70B1E161F0655
:1026800054F46091520170915301461B570B453031
:10269000510544F009C04091520150915301453A0F
:1026A000510514F4922F40C0609152017091530172
:1026B00040EA50E0FA01E61BF70B1E161F0654F421
:1026C0006091520170915301461B570B4C305105DC
:1026D00044F107C040915201509153014C3A5105C9
:1026E00004F1609152017091530140EA50E0FA0107
:1026F000E61BF70B1E161F0654F4609152017091F1
:102700005301461B570B4431510544F00CC0409116
:10271000520150915301443B51052CF490914102D8
:1027200003C0982F01C090E090933902609152014C
:102730007091530144EB50E0FA01E61BF70B1E16B3
:102740001F0654F46091520170915301461B570BC0
:102750004530510544F009C0409152015091530158
:10276000493B510514F4922F40C060915201709181
:10277000530144EB50E0FA01E61BF70B1E161F064F
:1027800054F46091520170915301461B570B4C3029
:10279000510544F107C04091520150915301403C12
:1027A000510504F1609152017091530144EB50E0E6
:1027B000FA01E61BF70B1E161F0654F46091520136
:1027C00070915301461B570B4431510544F00CC026
:1027D0004091520150915301483C51052CF4909185
:1027E000410203C0982F01C090E090933A0260919B
:1027F00052017091530148EC50E0FA01E61BF70BCF
:102800001E161F0654F46091520170915301461B2D
:10281000570B4530510544F009C040915201509189
:1028200053014D3C510514F4822F3DC0609152017B
:102830007091530148EC50E0FA01E61BF70B1E16AD
:102840001F0654F46091520170915301461B570BBF
:102850004C30510544F107C0409152015091530151
:10286000443D510504F1409152015091530188ECCF
:1028700090E0BC01641B750B161617064CF44091D2
:10288000520150915301841B950B449744F00AC0A8
:1028900080915201909153018C3D91051CF48091DF
:1028A000410201C080E080933B02809152019091EF
:1028B0005301803F91052CF08091410280933C02AE
:1028C0005CC040915201509153018CED90E0FC01AD
:1028D000E41BF50B1E161F064CF44091520150915B
:1028E0005301841B950B059744F009C08091520158
:1028F00090915301813E910514F4322F3CC04091D8
:102900005201509153018CED90E0BC01641B750B9A
:10291000161617064CF44091520150915301841B36
:10292000950B0C9744F107C080915201909153018F
:10293000883E910504F140915201509153018CED74
:1029400090E0FC01E41BF50B1E161F064CF44091B1
:10295000520150915301841B950B449744F00AC0D7
:102960008091520190915301803F91051CF4309168
:10297000410201C030E030933C0220933E0220939C
:102980003F0220934002CF91FF90EF90DF90CF90D5
:1029900008950895CF92DF92EF92FF920F931F93C5
:1029A000CF93DF936C017A018B01C0E0D0E0CE15AC
:1029B000DF0581F0D8016D918D01D601ED91FC917B
:1029C0000190F081E02DC6010995892B11F0219627
:1029D000EECF7E01C701DF91CF911F910F91FF9044
:1029E000EF90DF90CF900895FC01538D448D252FFB
:1029F00030E0842F90E0821B930B541710F0CF9699
:102A0000089501970895FC01918D828D981761F0CA
:102A1000828DDF01A80FB11D5D968C91928D9F5F15
:102A20009F73928F90E008958FEF9FEF0895FC01C0
:102A3000918D828D981731F0828DE80FF11D858D73
:102A400090E008958FEF9FEF0895FC01918D228D06
:102A5000892F90E0805C9F4F821B91098F7399278B
:102A6000089584E893E00E94251521E0892B09F45C
:102A700020E0822F0895FC01848DDF01A80FB11D95
:102A8000A35ABF4F2C91848D90E001968F739927A4
:102A9000848FA689B7892C93A089B1898C91837082
:102AA00080648C93938D848D981306C00288F3897B
:102AB000E02D80818F7D80830895EF92FF920F93A8
:102AC0001F93CF93DF93EC0181E0888F9B8D8C8DDA
:102AD000981305C0E889F989808185FD26C0F62E06
:102AE0000B8D10E00F5F1F4F0F731127E02E8C8DA1
:102AF000E8120CC00FB607FCFACFE889F98980818B
:102B000085FFF5CFCE010E943B15F1CF8B8DFE01E5
:102B1000E80FF11DE35AFF4FF0829FB7F8940B8F37
:102B2000EA89FB89808180620AC09FB7F894EE89A8
:102B3000FF896083E889F98980818370806480835C
:102B40009FBF81E090E0DF91CF911F910F91FF90A7
:102B5000EF900895CF93DF93EC01888D8823C9F01F
:102B6000EA89FB89808185FD05C0A889B9898C9196
:102B700086FD0FC00FB607FCF5CF808185FFF2CF31
:102B8000A889B9898C9185FFEDCFCE010E943B15B4
:102B9000E7CFDF91CF91089580E090E0892B29F075
:102BA0000E94311581110C940000089585ED8093E9
:102BB000BC008091BC0084FDFCCF10925F0308959F
:102BC00040911603262F30E0240F311D21323105AC
:102BD000DCF420915F032430C9F4FC0180E090E034
:102BE000861758F4309116032191DC01AA50BD4F8D
:102BF000A30FB11D2C930196F3CF80911603680F9C
:102C00006093160380E0089581E0089582E00895BE
:102C1000089508950895E091F1028091F002E81777
:102C200030F4F0E0E053FD4F808190E008958FEFA5
:102C30009FEF08959091F1028091F002981750F45F
:102C4000E92FF0E0E053FD4F208130E09F5F90934B
:102C5000F10202C02FEF3FEFC90108958091F00209
:102C600090E02091F102821B91090895CF92DF92AA
:102C7000EF92FF920F931F93CF93DF937C01CB01D1
:102C80008A0120916003222389F0EB016B01C40EBD
:102C9000D51ECC15DD0569F06991D701ED91FC9148
:102CA0000190F081E02DC7010995F3CF642F0E94B8
:102CB000E015C801DF91CF911F910F91FF90EF9028
:102CC000DF90CF900895CF93DF931F92CDB7DEB7FB
:102CD0006983209160032223D1F020918303203265
:102CE00040F021E030E0FC013383228380E090E07B
:102CF00015C080916103E82FF0E0EE59FC4F9981F7
:102D000090838F5F809361038093830305C061E0AC
:102D1000CE0101960E94E01581E090E00F90DF91D6
:102D2000CF910895089580E090E008950E94B62F15
:102D30001F920F920FB60F9211242F933F934F9330
:102D40005F936F937F938F939F93AF93BF93EF9313
:102D5000FF93E0910201F09103010995FF91EF913A
:102D6000BF91AF919F918F917F916F915F914F91A3
:102D70003F912F910F900FBE0F901F9018951F92AB
:102D80000F920FB60F9211242F933F934F935F939F
:102D90006F937F938F939F93AF93BF93EF93FF9323
:102DA000E0910001F09101010995FF91EF91BF9130
:102DB000AF919F918F917F916F915F914F913F91D3
:102DC0002F910F900FBE0F901F9018951F920F928A
:102DD0000FB60F9211242F933F934F935F936F93EE
:102DE0007F938F939F93AF93BF93EF93FF9384E869
:102DF00093E00E943B15FF91EF91BF91AF919F919E
:102E00008F917F916F915F914F913F912F910F9093
:102E10000FBE0F901F9018951F920F920FB60F9232
:102E200011242F938F939F93EF93FF93E09194033B
:102E3000F09195038081E0919A03F0919B0382FDCC
:102E400012C0908180919D038F5F8F7320919E03AC
:102E5000821751F0E0919D03F0E0EC57FC4F958F05
:102E600080939D0301C08081FF91EF919F918F918D
:102E70002F910F900FBE0F901F9018951F920F92D9
:102E80000FB60F9211242F933F934F935F936F933D
:102E90007F938F939F93AF93BF93EF93FF93809113
:102EA000B900887F803609F49CC068F5883209F43F
:102EB0005BC090F4803109F454C038F4882309F4DD
:102EC000F6C0883009F44DC0F6C0883109F44CC012
:102ED000803209F45DC0EFC0803409F468C048F462
:102EE000803309F455C0883309F0E5C080935D0351
:102EF000D8C0803509F44FC0883509F45DC08834E6
:102F000009F0D9C0D6C0883909F4C7C0A8F48837F9
:102F100009F467C038F4883609F463C0803709F4CF
:102F200060C0C9C0883809F4B8C0803909F45FC0EE
:102F3000803809F0C0C05BC0803B09F486C038F41B
:102F4000803A09F466C0883A09F47FC0B4C0803C76
:102F500009F4A7C0883C09F4A4C0883B09F48AC0DE
:102F6000AAC080913A0310C090915C0380915B03EA
:102F7000981770F5E0915C0381E08E0F80935C03FD
:102F8000F0E0E55CFC4F80818093BB0085EC86C05F
:102F900080935D038EC0E0915C0381E08E0F80938F
:102FA0005C038091BB00F0E0E55CFC4F8083909176
:102FB0005C0380915B036EC0E0915C0381E08E0F47
:102FC00080935C038091BB00F0E0E55CFC4F808364
:102FD00080915E0381116DC081E08093390384EAA2
:102FE00061C083E080935F0310923803CFCF80915C
:102FF0003803803208F051C0E091380381E08E0F31
:10300000809338038091BB00F0E0E85EFC4F808342
:10301000BDCF85EC8093BC0010925F038091380394
:10302000803230F4E0913803F0E0E85EFC4F10822B
:103030006091380370E0E091F402F091F50288E1CC
:1030400093E009951092380336C084E080935F03C3
:103050001092170310921603E091F202F091F3021E
:10306000099580911603811105C081E080931603B4
:103070001092F602E091170381E08E0F8093170300
:10308000F0E0EA50FD4F80818093BB0090911703E0
:1030900080911603981708F479CF85E88093BC00D7
:1030A0000AC085EC8093BC0010925F0304C01092AC
:1030B0005D030E94D615FF91EF91BF91AF919F9153
:1030C0008F917F916F915F914F913F912F910F90D1
:1030D0000FBE0F901F901895803E21E092079CF440
:1030E000BC01990F880B990B0E945A2E20E030E00A
:1030F00040EF53E40E94B02D20E030E040E054E483
:103100000E94EB2E1FC0803222E0920704F1BC0126
:103110006F517240072E000C880B990B0E945A2E9B
:1031200020E030E040E054E40E94EB2E20E030E06C
:1031300040EF53E40E94B02D20E030E040E054E442
:103140000E94442D0E94222E77FF03C009C060E038
:1031500072E0CB01611574402CF08FEF93E008957D
:1031600080E090E008950C94D22C833081F028F414
:10317000813099F08230A1F008958730A9F088302D
:10318000B9F08430D1F4809180008F7D03C08091AC
:1031900080008F7780938000089584B58F7702C078
:1031A00084B58F7D84BD08958091B0008F7703C072
:1031B0008091B0008F7D8093B00008953FB7F89460
:1031C0008091380490913904A0913A04B0913B0465
:1031D00026B5A89B05C02F3F19F00196A11DB11D72
:1031E0003FBFBA2FA92F982F8827820F911DA11DAD
:1031F000B11DBC01CD0142E0660F771F881F991FEA
:103200004A95D1F70895682F81E294E00C946316F3
:103210000F931F93CF93DF93062F142FC82FD0E067
:10322000CE010E94CA2C181739F0081728F4612F14
:10323000CE010E94B318812FDF91CF911F910F9182
:10324000089530918303313208F04BC080915F03C1
:103250008111FCCF9091820322E020935F0321E053
:1032600020935E032FEF20935D0310925C03309355
:103270005B03E2E6F3E0ABE3B3E020E0321721F0DA
:1032800041914D932F5FFACF10923A0320913A0368
:10329000990F922B90933A0390913903913061F4F6
:1032A0001092390390913A039093BB009091BC0027
:1032B00093FDF8CF95EC01C095EE9093BC009091F2
:1032C0005F039230E1F390915D039F3F79F080912D
:1032D0005D03803241F080915D03803331F084E002
:1032E00005C081E003C082E001C083E01092610369
:1032F00010928303109260030895CF93DF93282FD9
:1033000030E0F901E45DFE4F8491F901E85EFE4F83
:10331000D491F901EC5FFE4FC491CC2391F081115F
:103320000E94B518EC2FF0E0EE0FFF1FE650FF4FA4
:10333000A591B491EC91ED2381E090E021F480E03F
:1033400002C080E090E0DF91CF9108951F93CF936A
:10335000DF93282F30E0F901E45DFE4F8491F901FD
:10336000E85EFE4FD491F901EC5FFE4FC491CC238F
:10337000C1F0162F81110E94B518EC2FF0E0EE0F6E
:10338000FF1FE051FF4FA591B4919FB7F894111121
:1033900004C08C91D095D82302C0EC91DE2BDC9335
:1033A0009FBFDF91CF911F910895CF93DF9390E05E
:1033B000FC01E85EFE4F2491FC01EC5FFE4F84911E
:1033C000882361F190E0880F991FFC01EA51FF4FBB
:1033D000C591D491FC01E051FF4FA591B4916111C9
:1033E00009C09FB7F8948881209582238883EC9147
:1033F0002E230BC0623061F49FB7F8948881322F7E
:10340000309583238883EC912E2B2C939FBF06C08D
:103410008FB7F894E8812E2B28838FBFDF91CF914F
:1034200008958F929F92AF92BF92CF92DF92EF92C8
:10343000FF926B017C010E94DE184B015C01C114FC
:10344000D104E104F104F1F00E94DE18DC01CB01AB
:1034500088199909AA09BB09883E9340A105B105BD
:1034600070F321E0C21AD108E108F10888EE880E55
:1034700083E0981EA11CB11CC114D104E104F10425
:1034800019F7DDCFFF90EF90DF90CF90BF90AF9016
:103490009F908F9008952FB7F894609134047091A5
:1034A000350480913604909137042FBF08951F9200
:1034B0000F920FB60F9211242F933F938F939F93E8
:1034C000AF93BF938091340490913504A09136045A
:1034D000B09137043091330423E0230F2D3720F4CB
:1034E0000196A11DB11D05C026E8230F0296A11D5E
:1034F000B11D209333048093340490933504A0933A
:103500003604B09337048091380490913904A09127
:103510003A04B0913B040196A11DB11D809338047B
:1035200090933904A0933A04B0933B04BF91AF91B8
:103530009F918F913F912F910F900FBE0F901F90F1
:103540001895CF93DF93CDB7DEB76A970FB6F8948F
:10355000DEBF0FBECDBF789484B5826084BD84B5D4
:10356000816084BD85B5826085BD85B5816085BD7E
:1035700080916E00816080936E0010928100809136
:1035800081008260809381008091810081608093BE
:103590008100809180008160809380008091B100E3
:1035A00084608093B1008091B00081608093B0000E
:1035B00080917A00846080937A0080917A008260A2
:1035C00080937A0080917A00816080937A00809164
:1035D0007A00806880937A001092C1000E94150CD6
:1035E0000E944B1A4B015C014C9B07C08091A402C6
:1035F0009091A50290FF4FC306C08091A4029091C4
:10360000A50290FD53C38091A4029091A50280FD74
:10361000DEC08091630190916401892B09F460C040
:10362000609163017091640110916201072E000C9A
:10363000880B990B0E945A2E6B017C01612F70E060
:1036400080E090E00E945A2E9B01AC01C701B601B8
:103650000E94B02D609358017093590180935A01D4
:1036600090935B0120E030E040EC51E40E94EB2EAF
:103670009B01AC0160E070E68AE697E40E94B02D01
:103680000E94222E209152013091530126173707B4
:1036900049F070935301609352018091A1028160BF
:1036A0008093A1021092640110926301C501B401DC
:1036B0000E94582E60935E0170935F0180936001B9
:1036C0009093610180915D0191E0980F90935D016D
:1036D000811720F481E00E943308F4CF10925D013D
:1036E00080915C018F3F39F490915D01809162017E
:1036F000981708F06CC08091A4029091A50286FFF3
:103700000FC0C0905801D0905901E0905A01F0903C
:103710005B01C501B4010E94582EA70196014DC05E
:10372000C501B4010E94582E6B017C0120915E01FD
:1037300030915F0140916001509161010E94E62E3D
:1037400018160CF044C080915D018F5F80935D017D
:1037500081E00E9433086091580170915901809175
:103760005A0190915B0120915E0130915F0140917F
:103770006001509161010E94442D60935E0170933D
:103780005F01809360019093610120915E0130910F
:103790005F014091600150916101C701B6010E9433
:1037A000E62E1816A4F42091580130915901409149
:1037B0005A0150915B01C701B6010E94442D6093EC
:1037C0005E0170935F01809360019093610180912D
:1037D000A4029091A5028F7B9093A5028093A402EE
:1037E0008091A4029091A50281FF30C08091A40233
:1037F0009091A50284FF08C06CEF84E893E00E94DA
:103800005D151092570113C08091A4029091A502FA
:1038100083FF02C06AEF07C08091A4029091A502C5
:1038200085FF05C06BEF84E893E00E945D158091F1
:1038300057011816C4F480915701815080935701A5
:1038400068EF84E893E00E945D150DC08091A402AA
:103850009091A50284FF05C06CEF84E893E00E947C
:103860005D15109257018091A4029091A502877C6A
:103870009093A5028093A40280915C018F3F09F48C
:103880004FC081112EC08091560110916201082E07
:10389000000C990B212F30E0821793070CF440C0E5
:1038A00080915501882349F02091A2023091A30212
:1038B00036FD03C061E00E94A61980915601811B6C
:1038C0008093560181E080935C018091A2029091E7
:1038D000A30297FD02C086E001C08CE080936201E4
:1038E0001FC0909154019815D9F0809254018F5FB8
:1038F000843118F480935C0102C010925C018091C5
:103900005C018A3069F480915501882349F0209147
:10391000A2023091A30236FD03C060E00E94A61906
:103920008091A4029091A50282FF1AC061E080E11B
:103930000E94A619D501C4010596A11DB11D809351
:10394000130290931402A0931502B0931602809173
:10395000A4029091A5028B7F9093A5028093A4026C
:103960009E012F5F3F4F190180E1D9011D928A9579
:10397000E9F713E090916E0180916D019817D1F0F5
:103980008091A4029091A50280FF0DC08091250234
:1039900084FD99C108C08B3F08F0A2C1883F19F48B
:1039A00083E00E94330880916E018F5F877080935F
:1039B0006E01E0CF8091980283FF07C0D090200273
:1039C000D094DD1CDD24DD1C01C0D12CA5019401A7
:1039D0002C5E3F4F4F4F5F4F2C8B3D8B4E8B5F8B41
:1039E000E2E05E2E4424439484E893E00E9425158F
:1039F0003C01892B09F492C184E893E00E940315ED
:103A00009C01207F3327203F310509F050C09927C2
:103A10008A3F9105D1F024F4883F910541F0E4CF2D
:103A20008B3F910501F18C3F910579F1DDCF8091BC
:103A3000A4029091A50280FFD7CF8091250283FF39
:103A4000D3CF82E00E943308CFCF8091A40290911F
:103A5000A50280FFC9CF8091250283FFC5CF82E0F8
:103A60000E942608C1CF8091A4029091A50280FFF8
:103A7000BBCF8091250283FFB7CF50926F01809119
:103A8000A4029091A502806244C18091A402909109
:103A9000A50280FFA9CF8091250283FFA5CF1092B8
:103AA0006F018091A4029091A502806132C187FFCD
:103AB00010C01092740180937301203C310519F0FD
:103AC000203D310519F4409272018ECF509272015F
:103AD0008BCF70907301772009F486CFE091740149
:103AE00091E09E0F909374010E2E000CFF0BEB548F
:103AF000FD4F808360907201892F990F990B262DBD
:103B000030E0821793070CF46FCF1092740161E0DC
:103B100088E00E94A6198C899D89AE89BF8980930F
:103B20001B0290931C02A0931D02B0931E02809171
:103B300026028F3F21F0972D9F708913A1C0972DEA
:103B4000907FC92E80912502A0E99A1731F0B0EB41
:103B50009B1799F0E0E89E136EC081FD03C0DD2045
:103B600009F40EC185017401262D4091B6026091C1
:103B7000B502872D0E943B0903C185FF05C08091D6
:103B8000B502883708F030CF2091A2023091A3020D
:103B900030FF51C08091B502873481F050F48634F3
:103BA00009F049C08091B6028F77805480937101EB
:103BB00042C0883451F0893489F03DC08091B6020A
:103BC0008F7780548093700136C06091B60270E0A8
:103BD00080E090E040E00E946D012DC03E7F309378
:103BE000A3022093A202F2E1F98B809171018A8BEA
:103BF000809170018B8B43E050E0BE016F5E7F4F80
:103C000087EF9FE10E940C02882399F040913002D7
:103C100060E170E080E090E00E94670B68EE73E086
:103C200080E090E00E94111A8091A102816080934F
:103C3000A1020E947803C0902502C2FC04C08091BA
:103C4000980283FF0CC0850174012091720140919C
:103C5000B6026091B502809173010E943B09C0FEDB
:103C6000C3CE80917301807F9091270285017401FA
:103C7000209172014091B6026091B502892B08C073
:103C800085017401262D4091B6026091B502872D01
:103C90000E943B09A9CE8091A4029091A502916057
:103CA0009093A5028093A4028BEF0AC08091A40296
:103CB0009091A5029E7F9093A5028093A4028CEF21
:103CC0000E94DE07A0CCE0916E01F0E0EB59FE4FC0
:103CD00080818A3F09F05FCE83E00E94260863CE90
:103CE0008B3F41F410936F018091A4029091A50243
:103CF00080620AC08C3F09F056CE10926F0180910D
:103D0000A4029091A50280619093A5028093A402E1
:103D10004ACE9093A5028093A40266CE8091980229
:103D200082FD0EC08091220290912302892B41F4E2
:103D300080916A0290916B02892B11F00E943B07DF
:103D40008091A60280FF09C00E9484038091A60290
:103D50008E7F8093A602109221028091A4029091FE
:103D6000A50293FFFAC080912E0290912F02892B19
:103D700009F4F3C020917C0221110C94C629EDC0F6
:103D80001091B502F0E9CF1298C00091B60200235D
:103D900009F496C0112309F493C07090980273FE41
:103DA00019C080911F029091200297FF1DCE809133
:103DB0002D028F3F09F418CE181B10934E028091EC
:103DC000A60281608093A6028091A1028160809307
:103DD000A1020ACEA0916A02B0916B02E2E5F2E084
:103DE000E12CF12CCC24CA9480E090E0412F50E0EB
:103DF0008A179B0784F421913191B9016F77772756
:103E00006417750709F4C82E37FF03C02FEFE21AB5
:103E1000F20A0196EDCFF0922302E0922202C7FC53
:103E200017C0E114F104A1F0EC2DEE0FFF0BED5BD8
:103E3000FD4F8785908997FDD7CD9068908B8787B8
:103E40003FEFE31AF30AF0922302E0922202CCCD74
:103E5000E114F10491F410926B0210926A0272FE66
:103E60000AC08091A4029091A50280689093A50257
:103E70008093A40202C00E94F50780916A0290918B
:103E80006B028B3091050CF0AFCDFC01EE0FFF1FE4
:103E9000ED5BFD4F212F30E03068302B308B2787D2
:103EA000019690936B0280936A024FEFE41AF40A32
:103EB000F0922302E09222024AC050E8C51294CD4B
:103EC00080916A0290916B02E3E4F2E060E070E0BE
:103ED000FF24FA9440E050E0A12FB0E048175907C2
:103EE000ACF42785308989010F7711270A171B0742
:103EF00029F43F77308B2787F42E04C037FF02C0A8
:103F00006F5F7F4F4F5F5F4F3296E8CF7093230212
:103F1000609322022091980222FD66CDF7FC64CDC9
:103F20002F2DFF0C330BF901EE0FFF1FEE5AFD4F43
:103F30000197281739073CF42F5F3F4F4281538187
:103F400041935193F6CF90936B0280936A028091D4
:103F5000A60281608093A60247CD8091B70290911E
:103F6000B802A091B902B091BA020097A105B105BB
:103F700031F088159905AA05BB0538F01CC0809161
:103F80002E0290912F02892BB1F440E050E0C50140
:103F9000B4010E94A20A1092B7021092B8021092C5
:103FA000B9021092BA028091B402833021F460E029
:103FB0008EE00E94A61980910A0290910B02A091B6
:103FC0000C02B0910D0288159905AA05BB05C8F42D
:103FD00010910902612F8DE00E94A61981E0111154
:103FE00080E080930902D501C4018C509E4FAF4FF1
:103FF000BF4F80930A0290930B02A0930C02B093E0
:104000000D0280911B0290911C02A0911D02B091A3
:104010001E020097A105B10589F088159905AA052A
:10402000BB0560F460E088E00E94A61910921B02B4
:1040300010921C0210921D0210921E028091170213
:1040400090911802A0911902B0911A020097A1054F
:10405000B10589F088159905AA05BB0560F460E0F3
:1040600081E10E94A6191092170210921802109274
:10407000190210921A028091130290911402A091D9
:104080001502B09116020097A105B10589F08815B7
:104090009905AA05BB0560F460E080E10E94A619BD
:1040A000109213021092140210921502109216022E
:1040B000C0900F02D0901002E0901102F090120216
:1040C000D701C6018C599F4FAF4FBF4F8816990635
:1040D000AA06BB0608F43DC08CE00E947D19209121
:1040E0009802892BE1F420FD04C0216020939802FE
:1040F00028C0822F827169F580919002909191027F
:10410000C80ED91EE11CF11CC814D904EA04FB0432
:1041100000F52A602093980210920E021AC020FF28
:1041200018C0822F827141F423FF02C0277F02C092
:1041300084E0282720939802809198028C7E8093B7
:10414000980280920F0290921002A0921102B092F7
:104150001202F0909802F3FE06C060910E02661FF4
:104160006627661F03C0F2FA662760F989E00E949D
:10417000A6199091A102292F2170522E392F3E7F2E
:104180003093A102482C082D007F8091A002807FEF
:10419000801719F08092A002016010919F021F3FCA
:1041A00089F08FEF80939F02B501A401405F584DC5
:1041B0006F4F7F4F40939B0250939C0260939D02F0
:1041C00070939E0280919A028F3F49F480919902E8
:1041D000833009F04CC084E08093990248C02FEFEF
:1041E00020939A022F2D23702130B1F42091B40234
:1041F0002350223088F42F2D2061209398028430A0
:1042000031F0883031F0882331F080E005C081E45E
:1042100003C082E401C080E44091970250E0682F1F
:10422000082E000C770B6417750721F42091990272
:10423000243079F48093970281E080939902109260
:1042400093021092940210929502109296025524B5
:104250005394B501A401405F584D6F4F7F4F409379
:104260009B0250939C0260939D0270939E028091EA
:1042700092028F3F09F440C032603093A1028091D6
:10428000930290919402A0919502B09196020097AA
:10429000A105B10599F48091900290919102A50138
:1042A0009401280F391F411D511D20939302309313
:1042B000940240939502509396022AC0881599055E
:1042C000AA05BB0528F580919902823020F482E08E
:1042D000809399020EC083E0809399028FEF9FEF45
:1042E000DC018093930290939402A0939502B09383
:1042F0009602552453940CC09C7F94609093A10225
:1043000010929302109294021092950210929602CB
:1043100080919B0290919C02A0919D02B0919E027F
:104320000097A105B105B9F088169906AA06BB0643
:1043300090F08091A20284FF04C010929702109224
:10434000990210929B0210929C0210929D02109270
:104350009E025524539480919702863009F4AAC393
:1043600090F4823009F440C338F4882309F40CC770
:10437000813009F45BC108C7909199028430C1F083
:1043800008F441C59FC18A3009F4D2C340F490912A
:104390009902883009F451C008F48EC5C4C28B302C
:1043A00009F4E8C590EC980F933008F462C6ECC6A7
:1043B000933060F1103100F52FE030E0211B31091E
:1043C00017FD339581E090E002C0880F991F2A9570
:1043D000E2F79C012F71232B79F02091A2023091FA
:1043E000A302822793279093A3028093A2020E94A4
:1043F00078030E942E0303C0552009F4C9C66091BA
:10440000A2027091A3028FE19FEF43C0103120F40C
:104410001F5F10937C0203C0552009F4B9C60E94A7
:10442000770B60917C0270E04091410280E090E067
:104430000E94670BE0917C0268C3933068F11031F1
:10444000F8F42FE030E0211B310917FD339581E0AE
:1044500090E002C0880F991F2A95E2F79C0122275D
:10446000307A232B69F020911F023091200282279D
:1044700093279093200280931F020E944E0703C04F
:10448000552009F485C660911F027091200280E0DA
:1044900090EA0E943B0B7CC61C30D1F05CF41630D5
:1044A00008F0A8C0109346028091A6028160809314
:1044B000A602A3C01E3009F48CC00CF45CC01F30EF
:1044C00009F098C0ECE6F2E08CE792E021E08DC0C4
:1044D00003E412E023E5E22E22E0F22ED8019996C1
:1044E0008C919997817099968C938823E9F10E9419
:1044F000732C28E030E040E050E00E94E02C653072
:1045000071058105910519F184F463307105810508
:104510009105C9F0643071058105910529F5D8012F
:1045200099968C91999784601BC0663071058105BE
:10453000910589F06730710581059105A9F4F801AD
:1045400081A5826110C0F80181A588600CC0F801C6
:1045500081A5826008C0D80199968C919997806155
:1045600099968C9301C081A70F5F1F4FE016F1064B
:1045700009F0B4CF3FC003E412E083E5E82E82E007
:10458000F82EDD24D39499E0C92E0E94732C25E0E7
:1045900030E040E050E00E94E02C97FD11C0623016
:1045A00071058105910544F064307105810591051F
:1045B00039F4F801C1A607C0D80199961C9203C02E
:1045C000D8019996DC920F5F1F4FE016F106E9F6CD
:1045D00011C0ECE6F2E08CE792E011928E179F0793
:1045E000E1F780E180937C0205C021938E179F073D
:1045F000E1F7F7CF552009F4CBC50E94770B109156
:104600004202412F66E070E080E090E00E94670B7C
:10461000E0914602F0E080913002EF5CFD4F808334
:10462000412F64E070E08CE090E072C480919902C8
:10463000833048F11C3040F410934F028091A60261
:1046400081608093A60203C0552009F4A1C50E9491
:10465000770B409142026CE070E080E090E00E94B5
:10466000670B8091410280933202809334028093E1
:1046700037028093390280933B02E0914F020E2E65
:10468000000CFF0B72C4173048F41350109347020C
:104690008091A60281608093A60203C0552009F490
:1046A00077C50E94770B4091410267E070E080E09F
:1046B00090E00E94670B8091420280933402E09167
:1046C0004702CEC4933008F413C117FD7FC0812F79
:1046D000110F990BAA0BBB0B8031910508F070C02C
:1046E000FC01EC5CFF4F0C949C2F80915002909148
:1046F00051028F6F9F6060C0809150029091510273
:104700008827907F856D9A6057C080915002909164
:1047100051028827907F86659B604EC08091500231
:10472000909151028827907F8A659D6045C0809155
:104730005002909151028827907F856B9A603CC00F
:1047400080915002909151028827907F866D9A60E7
:1047500033C080915002909151028827907F8A65E2
:104760009B602AC080915002909151028827907FCF
:104770008A669D6021C080915002909151029F787D
:104780001BC080915002909151029F78906114C09B
:1047900080915002909151029F7890620DC080915B
:1047A0005002909151029F78906306C08091500210
:1047B000909151029F78906490935102809350029F
:1047C0008091A60281608093A60203C0552009F45F
:1047D000DFC40E94770B10914102412F68E070E026
:1047E00080E090E00E94670B412F65E070E08BE075
:1047F00090E00E94670B8091420280933102809387
:104800003F022091500230915102C9019F708635BC
:10481000BBE09B0779F180F4853DFAE09F0729F121
:10482000863D4AE0940781F1853B9A40B1F580913D
:1048300030028093350231C08A356DE09607F9F079
:1048400040F48A359B4049F58091300280933702CD
:1048500024C08A36EDE09E07E1F08F3F9F40E9F4E7
:10486000809130028093310218C080913002809391
:10487000320213C080913002809333020EC08091C7
:1048800030028093340209C0809130028093360256
:1048900004C08091300280933802C9018827907744
:1048A000811520E29207D1F058F4009791F081151C
:1048B000904109F06DC48091300280933D0268C43C
:1048C000811550E3950779F08115904409F42BC1C7
:1048D0005FC48091300280933C025AC480913002C0
:1048E00080933E0255C48091300280933F0250C4B1
:1048F000143048F41F5F109348028091A602816033
:104900008093A60203C0552009F442C40E94770B8D
:104910004091410264E070E080E090E00E94670B0B
:10492000E0914802F2C09230B1F40E943B0710922D
:104930002102D12C0E944B1A7B018C01809127020D
:1049400022E040E06D2D80680E943B09D39480E80E
:10495000D812F0CF1DC48EE0E8E0F1E0D101019063
:104960000D928A95E1F71E3060F4F101E10FF11D1F
:1049700017FDFA95808190E0909345028093440260
:1049800003C0552009F404C40E94770B40914102F2
:104990006DE070E080E090E00E94670B8091420241
:1049A00080933102809333028093360280933902E0
:1049B00080933C0280933E02409144025091450214
:1049C000F10180E090E0219130E04217530739F483
:1049D00020913002FC01EF5CFD4F2083D9C301968A
:1049E0008E30910581F7D4C380919902833050F1C4
:1049F00080E1E6E1F1E0D10101900D928A95E1F7C5
:104A0000103148F4F101E10FF11D17FDFA95808195
:104A100080934C0203C0552009F4BAC30E94770B5F
:104A200030914C0220914202DE0151968FE090E0DD
:104A30004E91FC01EF5CFD4F3417C8F520830197C0
:104A4000B8F7A6C380E1E6E1F1E0D10101900D9253
:104A50008A95E1F711110BC080914B02811109C0B9
:104A600080914A02882329F010924A021EC6103112
:104A700060F4F101E10FF11D17FDFA95808180933B
:104A80004B0281E080934A0210C6552009F480C38E
:104A90000CC630914B0220914202D10180E090E09F
:104AA0004D91FC01EF5CFD4F431708F409C680915E
:104AB0003002DDC21F3048F4110F1E5FE12FEE0FF0
:104AC000EE0F1E0F10934D0208C01F3019F4109204
:104AD0004D0203C0552009F45BC30E94770B8091FF
:104AE0004D028823C1F01AE0612F0E947C2F682FAD
:104AF00070E04091420280E090E00E94670B80915C
:104B00004D02612F0E947C2FE82FF0E0809130024F
:104B1000E05DFD4FACC24091420260E170E080E098
:104B200090E00E94670B809130028093400230C376
:104B300080919902833008F477C0103108F044C0A6
:104B400081E090E002C0880F991F1A95E2F720914A
:104B50008E0230918F028227932790938F02809349
:104B60008E02109223021092220220E330E041E0F4
:104B700050E0BC0164237523672B81F0FBE06F16C6
:104B8000710464F4F301EE0FFF1FED5BFD4FB901FB
:104B90007F67708B67876FEF661A760A440F551F21
:104BA0002F5F3F4F2034310521F770926B026092E6
:104BB0006A028091A60281608093A6028091980289
:104BC00084608093980203C0552009F4E1C260918B
:104BD0008E0270918F021091300200914202F0908B
:104BE000410221E030E080E090E0AB01422353231A
:104BF000DC01AF5CBD4F8F30910548F4FC01EC5BEC
:104C0000FF4F0C949C2F452B31F4402F05C0452BB2
:104C100011F44F2D01C0412F4C93220F331F0196E9
:104C20008031910511F7B4C2812F012E000C990B30
:104C3000AA0BBB0B8031910508F0C9C0FC01ED5AED
:104C4000FF4F0C949C2F109349028091A602816023
:104C50008093A602BFC00E94732C23E030E040E0A6
:104C600050E00E94E02C6E5F7F4F70936B02609368
:104C70006A02F2E5CF2EF2E0DF2E00E010E0809134
:104C80006A0290916B02081719070CF092C00E94FB
:104C9000732C2CE030E040E050E00E94E02C7B01DF
:104CA000A0E3EA0EF11CE2E5F2E080E090E00817F4
:104CB000190749F0219131912F773327E216F30636
:104CC00031F30196F4CF0E94732C20E430E040E0F1
:104CD00050E00E94E02CDC01CB01805C9F4FAF4F85
:104CE000BF4FBA2FA92F982F8827B701682B792B90
:104CF000F601619371936F010F5F1F4FC0CF80E387
:104D00009FE7909353028093520283E39FE71DC075
:104D100080E39FE7909353028093520284E39FE7DE
:104D2000909355028093540287E39FE79093570234
:104D3000809356028BE39FE714C080E39FE7909334
:104D400053028093520284E39FE79093550280932D
:104D5000540287E39FE790935702809356028AE3B9
:104D60009FE7909359028093580284E090E01DC021
:104D700080E39FE7909353028093520283E39FE77F
:104D800008C080E39FE7909353028093520284E32C
:104D90009FE7909355028093540287E39FE7909397
:104DA00057028093560283E090E090936B028093C9
:104DB0006A0210928F0210928E028091A602816088
:104DC0008093A60280919802846080939802552077
:104DD00009F4DEC10E94770B4091410265E070E06A
:104DE00080E090E00E94670BE0914902F0E0809142
:104DF0003002EF5CFD4F80834091420266E070E03C
:104E00008AE090E085C0933008F451C0111104C0CD
:104E10006091250281E023C0113021F460912502C8
:104E200082E01DC0123021F46091250284E017C099
:104E3000133021F46091250288E011C0143021F470
:104E40006091250280E10BC0153021F460912502AC
:104E500080E205C0163049F46091250280E468279D
:104E60006093250288E690E01BC0173079F46091CA
:104E7000250260586093250288E690E00E94B318EE
:104E80008091250280780E94180B21C4183059F4B3
:104E90006091240281E06827609324028DE690E00F
:104EA0000E94B31814C4552009F472C110C4652DB2
:104EB000812F0E9411106CC1933068F11031C8F439
:104EC0008091260290E0212F012E000C330B8217D7
:104ED000930729F48FEF809326026FEF03C010939E
:104EE0002602612F84E690E00E94B3180E943B07DF
:104EF00003C0552009F44CC10E94770BE0912602B3
:104F0000EF3F91F54091300260E170E080E090E089
:104F10000E94670B3DC11031C0F48091270290E0E0
:104F2000212F012E000C330B8217930731F00E94C2
:104F30004B1A40E050E00E94A20A10932702612F12
:104F400085E690E00E94B31803C0552009F420C103
:104F50000E94770B4091410260E170E080E090E0B8
:104F60000E94670BE0912702F0E080913002EF5C35
:104F7000FD4F7DC0103108F043C08091A10281FF38
:104F80002EC082FF0BC010922A0210928D02109246
:104F90002902109228028B7F8093A102A0918D029A
:104FA000AF3088F581E090E0012E02C0880F991F94
:104FB0000A94E2F72091280230912902822B932B48
:104FC000909329028093280281E08A0F80938D02BA
:104FD000B0E0AD5BBD4F1350DA961C9314C0109235
:104FE0002A0210928D021092290210922802135068
:104FF00010934E028091A60281608093A60203C0A6
:10500000552009F4C5C04091410260E170E080E0A4
:1050100090E00E94670B20912802309129022860BD
:1050200030932902209328026091420280E090E0B0
:1050300041E050E0F901E423F523EF2B21F0FC01DE
:10504000EF5CFD4F6083440F551F01968031910541
:1050500089F7E0914E0283E08E0F803108F098C00E
:105060000E2E000CFF0B80913002EC5CFD4F808314
:105070008FC0103108F051C08134E9F1823409F455
:1050800042C0812F0E941303882309F446C04DE4D7
:1050900050E063E472E080E0912F990F0E94790262
:1050A00010922F0210922E028FEF80932D021092F9
:1050B0002C0210922B0210922A02109229021092B6
:1050C0002802809198028C7E8460809398021092CE
:1050D000990281E08093A1028091A6028160809371
:1050E000A6028091A4029091A50280689093A502E7
:1050F0008093A40212C080EA809343024DE450E002
:1051000063E472E004C0198241E050E0B10180E044
:10511000912F990F0E940C0202C05520B1F000E0BF
:1051200010E0802F0E941303882319F0809142021F
:1051300002C080914102F801EF5CFD4F80830F5F58
:105140001F4F0031110569F723C000FF21C0007F08
:1051500090914102409130025091420220E030E0B3
:10516000F901EF5CFD4F8081891721F0002321F0C8
:10517000842F03C0892F01C0852F80832F5F3F4F6D
:105180002031310569F704C0652D812F0E94CB00C5
:105190008091B402833009F058C08091B302841525
:1051A00009F4F0C08092B3024091AF025091B00276
:1051B0006091B1027091B20241155105610571050E
:1051C00009F4E0C08091AB029091AC02A091AD02D5
:1051D000B091AE02840F951FA61FB71F8093AB023C
:1051E0009093AC02A093AD02B093AE020091A702DF
:1051F0001091A8022091A9023091AA021416150656
:105200001606170634F480179107A207B30734F483
:1052100015C0081719072A073B0784F00093AB0253
:105220001093AC022093AD023093AE021092AF0205
:105230001092B0021092B1021092B2028091AD02AF
:105240009091AE020E9450019DC0813009F09AC039
:10525000D501C40124E0B695A795979587952A9521
:10526000D1F72091B302281709F48CC08093B302C0
:105270008091A6028D7F8093A6028091A4029091D6
:10528000A5029B7F9093A5028093A402E090A202C6
:10529000F090A302C701882793708115F2E09F0761
:1052A00059F0811523E0920759F08115914089F456
:1052B0009501840141E007C09501840140E803C0E5
:1052C0009501840142E165E070E081E394E00E9491
:1052D0008509C70188279C70811548E0940759F01B
:1052E00081155CE0950759F08115944089F495018A
:1052F000840142E807C09501840143E803C0950199
:10530000840141E164E070E08FE294E00E9485094D
:10531000C701882790738115A0E29A0759F081157B
:10532000B0E39B0759F08115904189F49501840100
:1053300041E807C09501840144E803C09501840158
:1053400040E160E070E08DE294E00E9485098BE02E
:10535000F6FE0FC00E947D19892BA1F48091A40252
:105360009091A502806896609093A5028093A40214
:1053700009C00E947D19892B29F48091A6028260C0
:105380008093A6020E94CC150C94F01A609105023D
:1053900070910602809107029091080230E040E08F
:1053A00050E00E94122D60930402611120C0809190
:1053B0008D028823E1F0E0912A02F0E0ED5BFD4FE1
:1053C00082AD80934E020E9484031092210280914C
:1053D0002A028F5F80932A0290918D02891710F024
:1053E00010922A028091A10281608093A102009113
:1053F000040210E08091B4020D5B1D4F833079F4FC
:105400008091A2029091A30296FF09C0D8019996BB
:105410006C9163FB662760F98BE00E94A619F80186
:1054200041A440FC06C080911F029091200295FF8C
:105430002EC142FC05C041FAFF27F0F9F88F02C0E7
:1054400022E0288FC0902E02D0902F0280912B0254
:1054500090912C028C159D0524F010922C02109234
:105460002B02441C4424441C342D330F3C8B512C00
:10547000A801475D5F4F5A8F498FE0912B02F09151
:105480002C025C89523061F0DF01AA0FBB1FA457C8
:10549000BE4F11964C90441C4424441C4C8A02C0BC
:1054A00061E06C8BA98DBA8D8C9180FF71C0EE0F7D
:1054B000FF1FE457FE4F608191816F77562E85FF65
:1054C00006C0BCE0B61718F4E4EF5E0E0FC084FF10
:1054D00006C0F3E7F51518F02CE0520E07C086FF62
:1054E00005C034E0351510F44BEF540E2091A602A0
:1054F00021FD0FC083FF03C040904C020BC0809180
:105500004A02882319F040904B0204C09F77492E2D
:1055100001C0412C5520E1F18091250286FF12C087
:1055200080918501841571F00E944B1A7B018C01DA
:105530008091270222E0442D69E2806B0E943B09A2
:1055400040928501809127028501740122E0442D5B
:10555000652D80690E943B09852D8770A1E0B0E030
:1055600002C0AA0FBB1F8A95E2F7CD01E52DF0E03E
:1055700033E0F595E7953A95E1F7DF01AB58BE4F7B
:105580009C91982B9C93E20DF31D9081892B808335
:1055900080912B0290912C02019690932C02809383
:1055A0002B02BC89B11103C0511006C027C08C1555
:1055B0009D050CF462CFF8CF20918B01652D70E032
:1055C00080E090E0222321F041E00E946D010DC0B7
:1055D00040E00E946D0160E08EE00E94A61961E04B
:1055E00070E080E090E00E94111A61E08EE00E947D
:1055F000A619A101C501B4010E94A20AE88DE230FA
:1056000061F41092B7021092B8021092B90210928F
:10561000BA0281E080938B013AC0F88DF13049F4F1
:105620008091870190918801A0918901B0918A01B0
:1056300017C0A0914D02AA2301F12091870130915A
:1056400088014091890150918A01B0E00E94FF2CAD
:1056500026E930E040E050E00E94122DDA01C90155
:10566000880D991DAA1DBB1D8093B7029093B802A7
:10567000A093B902B093BA0208C01092B702109278
:10568000B8021092B9021092BA0210928B0181E016
:10569000809386018091A4029091A502977F9093B8
:1056A000A5028093A4020C94DB1F0E94770B8091CB
:1056B0004A028111EEC9809130028093310235CACD
:1056C000208301968031910509F0EAC961CD0E94DD
:1056D000770B8091250280FF03C09091300202C0B9
:1056E000909141029093310281FF03C0909130026A
:1056F00002C0909141029093320282FF03C09091C8
:10570000300202C0909141029093330283FF03C0A4
:105710009091300202C0909141029093340284FF34
:1057200003C09091300202C09091410290933502E3
:1057300085FF03C09091300202C090914102909386
:10574000360286FF03C09091300202C09091410260
:105750009093370287FF03C08091300202C080918E
:105760004102809338028091240280FF03C080911F
:10577000300202C0809141028093390209CDE3E4F6
:10578000F2E0DC0120E030E08FEF40916A025091BE
:105790006B0224173507A4F4478550894D935D9318
:1057A0008F3F49F067857089482F082E000C550BF4
:1057B0006417750708F487852F5F3F4F3296E5CF52
:1057C0000895E4E8F3E01382128288EE93E0A0E00B
:1057D000B0E084839583A683B78322E331E03183ED
:1057E000208325EC30E03587248724EC30E03787B0
:1057F000268720EC30E0318B208B21EC30E0338B9E
:10580000228B22EC30E0358B248B26EC30E0378B7A
:10581000268B118E128E138E148EE1E2F4E0138229
:10582000128284839583A683B78384E491E0918375
:1058300080838FEF9FEF9093320480933104909395
:10584000300480932F0490932E0480932D040895A8
:105850008F929F92AF92BF92CF92DF92EF92FF9280
:10586000CF93DF93EC01688179818A819B816115F7
:1058700071058105910521F464E279ED8BE597E0EE
:105880002DE133EF41E050E00E94E02C49015A0144
:105890009B01AC01A7EAB1E40E94FF2C6B017C01E3
:1058A000ACEEB4EFA50194010E940D2DDC01CB01FB
:1058B0008C0D9D1DAE1DBF1DB7FF03C00197A10933
:1058C000B04888839983AA83BB83BC01CD019F77AD
:1058D000DF91CF91FF90EF90DF90CF90BF90AF908E
:1058E0009F908F9008958F929F92AF92BF92CF9288
:1058F000DF92EF92FF926091040170910501809117
:10590000060190910701611571058105910521F44A
:1059100064E279ED8BE597E02DE133EF41E050E073
:105920000E94E02C49015A019B01AC01A7EAB1E4B5
:105930000E94FF2C6B017C01ACEEB4EFA501940139
:105940000E940D2DDC01CB018C0D9D1DAE1DBF1DD8
:10595000B7FF03C00197A109B04880930401909359
:105960000501A0930601B0930701BC01CD019F770B
:10597000FF90EF90DF90CF90BF90AF909F908F906F
:10598000089560930401709305018093060190933C
:1059900007010895F999FECF92BD81BDF89A992724
:1059A00080B50895262FF999FECF1FBA92BD81BD0B
:1059B00020BD0FB6F894FA9AF99A0FBE0196089591
:1059C000052E97FB1EF400940E94F72C57FD07D07C
:1059D0000E94122D07FC03D04EF40C94F72C509526
:1059E0004095309521953F4F4F4F5F4F08959095CB
:1059F0008095709561957F4F8F4F9F4F08950E94BE
:105A0000342DA59F900DB49F900DA49F800D911DE6
:105A100011240895B7FF0C94FF2C0E94FF2C821BC9
:105A2000930B0895A1E21A2EAA1BBB1BFD010DC00A
:105A3000AA1FBB1FEE1FFF1FA217B307E407F5073E
:105A400020F0A21BB30BE40BF50B661F771F881F1A
:105A5000991F1A9469F760957095809590959B01B0
:105A6000AC01BD01CF010895A29FB001B39FC00159
:105A7000A39F700D811D1124911DB29F700D811D7A
:105A80001124911D08955058BB27AA270E945B2D11
:105A90000C94AC2E0E949E2E38F00E94A52E20F071
:105AA00039F49F3F19F426F40C949B2E0EF4E095E4
:105AB000E7FB0C94952EE92F0E94BD2E58F3BA17E0
:105AC000620773078407950720F079F4A6F50C9414
:105AD000DF2E0EF4E0950B2EBA2FA02D0B01B9018D
