:100000000C94AC000C94BD190C9496190C94D4006B
:100010000C94DD070C94D4000C94D4000C94D40000
:100020000C94D4000C944C110C94D4000C94D40077
:100030000C94D4000C94D4000C94D4000C94D400F0
:100040000C944C190C94D4000C943F180C9419186F
:100050000C94D4000C94D4000C94D4000C94D400D0
:100060000C94E4190C94D400DD24E424ED24F6244B
:10007000FF24082511251A2548254825482523252C
:100080002925302537253E257D2781277D27812776
:100090007D277D2781277D2781277D2781277D2734
:1000A0007D2781277D279E279E279E279E279E2787
:1000B00047284728472847284728A627DF27E82733
:1000C000FD27182821284A014F01540159015E01DA
:1000D000630168016D01720177017C01040C2E0C33
:1000E000F40C790C790C790C790C790C790C790C6D
:1000F000790C790CF40C7E0CBC0CD20C00000000C6
:10010000240027002A0000000000250028002B0002
:100110000000000023002600290004040404040455
:1001200004040202020202020303030303030102A6
:100130000408102040800102040810200102040875
:100140001020000000080002010000030407000066
:100150000000000000004F2D11241FBECFEFD8E09B
:10016000DEBFCDBF11E0A0E0B1E0EAECF1E602C0F5
:1001700005900D92A235B107D9F724E0A2E5B1E0D0
:1001800001C01D92AD33B207E1F710E0CCEAD0E038
:1001900004C02197FE010E94C430CB3AD107C9F7B1
:1001A0000E94BE1B0C94E3300C940000909353010A
:1001B0008093520128E1289FB001299F700D1124DE
:1001C000072E000C880B990B0E94872F9B01AC0116
:1001D00060E070E68AE697E40E94DD2E60935901A4
:1001E00070935A0180935B0190935C010895CF93C3
:1001F000DF931F92CDB7DEB7682F81E080936A034B
:1002000080E680938C0310926B0310928D03292F4C
:10021000392F330F330BC9018F70992769830E94DF
:100220003A1B69818BE294E00E941B120F90DF91D0
:10023000CF910C943F1B8F929F92AF92BF92CF921F
:10024000DF92EF92FF920F931F93CF934B015C01CC
:10025000C42F8091A3029091A402E0907201F090CB
:10026000710195FF90C068E486169104A104B10461
:1002700009F447C0882D6CE00E94A430092F10E0DB
:10028000F8013197EB30F10508F040C0ED59FF4F10
:100290000C94C43007E418E020E030E03BC005ECEB
:1002A00018E020E030E036C00AE419E020E030E059
:1002B00031C008ED19E020E030E02CC00EE61AE075
:1002C00020E030E027C00CE01BE020E030E022C05E
:1002D00005EB1BE020E030E01DC007E61CE020E05D
:1002E00030E018C004E21DE020E030E013C00CEE66
:1002F0001DE020E030E00EC00FEB1EE020E030E01B
:1003000009C000EA1FE020E030E004C000ED17E083
:1003100020E030E0882D6CE00E94A430863008F0A8
:1003200085E045E050E0BA01681B7109A901980118
:1003300004C055954795379527956A95D2F7AE2D08
:10034000EE0CBB0BB05F0E94322EDC01CB012CE027
:10035000B595A795979587952A95D1F7CF2CFF0C42
:10036000DD08EE08FF08C80ED91EEA1EFB1EC114E8
:1003700070E1D706E104F1040CF440C0F594E79471
:10038000D794C794F4CFA50194012C5031094109A9
:100390005109A4EFB1E00E94272E2CE030E040E0AC
:1003A00050E00E94082EAE2DEE0CBB0BB05F0E94F9
:1003B000322E20E030E140E050E00E94082ECF2CA9
:1003C000FF0CDD08EE08FF08C20ED31EE41EF51E6A
:1003D000F7FE07C084EFC80E81E0D81EE11CF11CB7
:1003E000F7CFC11470E1D706E104F1043CF064EFEB
:1003F000C61A61E0D60AE108F108F3CFD6019927C1
:1004000088278093A8029093A902A093AA02B09390
:10041000AB02209188013091890140918A0150916D
:100420008B018090AC029090AD02A090AE02B09093
:10043000AF02BC01CD01681979098A099B090E94A4
:10044000082E2093B0023093B1024093B202509331
:10045000B302CC2321F0232B242B252BD9F4C60166
:100460000E94F7008091A8029091A902A091AA028F
:10047000B091AB028093AC029093AD02A093AE0218
:10048000B093AF021092B0021092B1021092B20279
:100490001092B302CF911F910F91FF90EF90DF90D8
:1004A000CF90BF90AF909F908F900895AF92BF92E2
:1004B000CF92DF92EF92FF920F931F93CF93DF9330
:1004C0008C017B01EA01BB24B39480E5A82E1C16A5
:1004D0001D060CF040C0B0926A03A0928C031092EB
:1004E0006B0310928D03812F912F990F990B0E940E
:1004F0003A1BC80199270E943A1BCE01C131D10590
:1005000014F080E190E0080F191FC81BD90B670198
:10051000E80EF91EF60161916F018BE294E00E94F2
:100520001B12CE14DF04B1F70E943F1BB0926A0386
:10053000A0928C0310926B0310928D0380E090E0E8
:100540000E943A1B80E090E00E943A1B0E943F1BF1
:10055000823061F3BCCFDF91CF911F910F91FF905B
:10056000EF90DF90CF90BF90AF9008958F929F92C1
:10057000AF92BF92CF92DF92EF92FF920F931F93B1
:10058000CF93DF937C018B01EA0181E080936A03C2
:1005900080E580938C0310926B0310928D038F2D56
:1005A0009F2D990F990B0E943A1BC70199270E9412
:1005B0003A1B0E943F1BDD24D394CC24CA9485EEC1
:1005C000982E95EC892E21EDE22E22E0F22E1C16BB
:1005D0001D060CF063C0FE01C132D10514F0E0E24B
:1005E000F0E0CE1BDF0B809169038111FCCF2E2F31
:1005F000D0926903D0926803C09267031092660399
:100600009FEF9E0F90936503D09244039091440313
:10061000906A9093440390914303913069F410924F
:100620004303909144039093BB009091BC0093FDD1
:10063000F8CF8092BC0002C09092BC0090916903F8
:100640009130E1F390916603921710F420916603C4
:1006500045E453E061ED72E0962F9E19921738F44D
:10066000DA019D91AD01DB019D93BD01F5CF1092A3
:10067000F2022093F10230E02E173F0781F4580177
:100680000E0F1F1FA016B10609F4A1CF8BE294E054
:100690000E940318F50181935F01F4CF81E0DF919F
:1006A000CF911F910F91FF90EF90DF90CF90BF906F
:1006B000AF909F908F900895CF93DF931F92CDB707
:1006C000DEB71982982F990F41E050E0BE016F5FAD
:1006D0007F4F80E00E94B602882321F081E099815B
:1006E000903A09F080E00F90DF91CF9108958091CA
:1006F000A3029091A4029C0123703327223031057C
:1007000081F023303105A9F02130310511F024E6C4
:1007100001C02FEF2093310223E02093430221E018
:100720000FC02FEF2093310229E12093430224E0F0
:1007300007C02FEF2093310223E2209343022AE0E7
:10074000209342028C7099278430910569F018F447
:10075000892B39F008958830910549F00C9751F0B4
:1007600008958AEF90E008C084EF91E005C088EE1C
:1007700093E002C08CED95E09093920280939102F9
:1007800008956091A30289E690E00E949112609121
:10079000A4028AE690E00C9491122F923F924F921D
:1007A0005F926F927F928F929F92AF92BF92CF9201
:1007B000DF92EF92FF920F931F93CF93DF93CDB70A
:1007C000DEB7C55AD1090FB6F894DEBF0FBECDBF54
:1007D0008FEF8093860180932E0210923002109248
:1007E0002F0280916B0290916C02892B09F4ACC3AB
:1007F00080914702833008F041C0CE0187589F4F57
:100800000E942D2D20916B0230916C0221503109F4
:10081000FE01E758FF4F80E090E0DD24D39482177B
:100820009307BCF441915191608171817A01E89400
:10083000E7F8FF24DB01AF77BB27AE15BF053CF41B
:10084000DF0112976D937C9351834083D12C0196E5
:10085000E6CFDD20E9F28091530280932E02E1E0A1
:10086000F0E0612C712C2FE730E0CF56DF4F398359
:100870002883C159D040E12CF12C6DC0CE0187589E
:100880009F4F0E942D2DE9CF6CE3E616F1040CF08A
:1008900060C24091470220916B0230916C0242305D
:1008A00009F41FC108F46CC0433009F48DC0463010
:1008B00008F4F5C020916B0230916C02C656DF4FF0
:1008C00039832883CA59D04080915002482F880F1D
:1008D000550BC456DF4F59834883CC59D0402091E3
:1008E000510230915202C856DF4F39832883C859CC
:1008F000D0404901882430E79322A201440F551FBC
:10090000C256DF4F59834883CE59D0409801220FF9
:10091000331FC056DF4F39832883C05AD040CC568E
:10092000DF4F19821882C459D04041E017FF33C10C
:100930004FEFC41AD40A50914902852F90E0C8168F
:10094000D9060CF4A1CF309709F403C27CE3E71673
:10095000F1040CF0FEC18091510290915202905826
:100960009093520280935102392F331F3327331F44
:10097000CD56DF4F3883C359D040C12CD12CDBCFAB
:10098000442309F48CC0413009F094CF890101500F
:10099000110920914F0230914802830F911D37FDBC
:1009A0009A958C199D0901973CE0389F1001399F59
:1009B000300C1124220E311C27FD3A9444244A9411
:1009C000542CA12CB12C8AC0FE01E758FF4F80E0C7
:1009D00090E08217930724F4119211920196F9CFB7
:1009E000B3E5AB2EB2E0BB2E00E010E080916B02CD
:1009F00090916C02081719070CF051C020916B02FE
:100A000030916C02032E000C440B550B211531055F
:100A10004105510571F1CE55DF4F2883C25AD040B0
:100A2000CD55DF4F3883C35AD040CC55DF4F488374
:100A3000C45AD040CB55DF4F5883C55AD0400E948E
:100A4000E42DCE55DF4F2881C25AD040CD55DF4F1F
:100A50003881C35AD040CC55DF4F4881C45AD0406A
:100A6000CB55DF4F5881C55AD0400E94082E9B01BC
:100A7000AC01220F331FE9E7F0E0EC0FFD1FE20F9E
:100A8000F31F80819181892B09F0B8CFD5018D9119
:100A90009D915D01918380830F5F1F4FA7CFA09031
:100AA0006B02B0906C02B1E0AB1AB10880914F02BA
:100AB000909148029601290F311D97FD3A959CE0CF
:100AC000929F1001939F300C1124280E311C87FD3A
:100AD0003A9444244394512C00E010E0E0E0F0E02C
:100AE000E9CE60914F0270914802E130F10501F5C5
:100AF000590141E0A41AB1089601270F311D77FD75
:100B00003A954CE0429F1001439F300C1124260E71
:100B1000311C67FD3A94019744244394512C00E022
:100B200010E0C816D90609F0C5CEE2E0F0E0C2CE6A
:100B3000513021F489010250110910C0C114D104AF
:100B400021F48901025011090FC0AC014150510933
:100B5000890101501109C416D50631F4AA24A394C1
:100B6000B12CE0E0F0E002C0A12CB12C870F911D68
:100B700077FD9A958C199D0901972CE0289F10010B
:100B8000299F300C1124260E311C67FD3A94442411
:100B90004A94542C8FCEC656DF4F28813981CA59CA
:100BA000D040021713070CF0C3CE3CE3E316F10468
:100BB0000CF0BECECC56DF4FA881B981C459D040CD
:100BC000C056DF4F28813981C05AD040A20FB31FD1
:100BD00069E770E06C0F7D1FA60FB71F2D913C9148
:100BE000CA56DF4F39832883C659D0402F77332721
:100BF000220D331DC901C456DF4F68817981CC595C
:100C0000D040861B970B97FF02C00C96FCCF6CE080
:100C100070E00E94B030A0E0B8E002C0B595A795A2
:100C20008A95E2F7CD01C856DF4F68817981C859AE
:100C3000D04086239723892BB1F5811470E2970663
:100C4000A9F058F48114910409F468C0811490E16A
:100C5000990649F520E030E026C08114A0E39A0609
:100C600041F08114B0E49B0639F01DC021503109D8
:100C70001AC02F5F3F4F17C0CD56DF4F5881C35961
:100C8000D040552319F02F5F3F4F02C0215031094A
:100C9000CD56DF4F6881C359D0406427CD56DF4F12
:100CA0006883C359D040203831051CF02C503109DD
:100CB000FACF37FF03C0245F3F4FFBCFC956DF4F4A
:100CC0008881C759D0408F77D901B82BCD01B301A6
:100CD0006F777727621773070CF43D01CF56DF4F0C
:100CE00068817981C159D0406F77772726173707F8
:100CF00034F4CF56DF4F99838883C159D040D70150
:100D0000AA0FBB1F21E030E02C0F3D1FA20FB31F25
:100D10008D939C93B7016F5F7F4F7B01CC56DF4F64
:100D200028813981C459D040C256DF4F688179810A
:100D3000CE59D040260F371FCC56DF4F398328833A
:100D4000C459D0400A151B0509F4F2CD040D151D38
:100D5000EDCD1092300210922F0280914702853023
:100D6000A1F4DE01119680E090E08E159F0509F454
:100D700085C02D913D91FC01EE0FFF1FE357FE4F03
:100D80003068318320830196F0CF80914A0282300F
:100D9000D1F060F48823F1F0813009F0D5C0DE0194
:100DA000119680E090E020E030E041C0833009F40B
:100DB0006AC0843009F0C8C020E030E040E050E074
:100DC00080E090E0B7C0DE01119680E090E020E086
:100DD00030E051C0DE01119680E090E08E159F0555
:100DE00009F44CC02D913D91FC01EE0FFF1FE3571C
:100DF000FE4F318320830196F1CF8C339105F4F5BA
:100E00004D915D914615570581F0FC01EE0FFF1FD6
:100E1000E357FE4F71826082FC013196EE0FFF1F97
:100E20000296E357FE4F518340832F5F3F4F2E15AD
:100E30003F0519F723C08C33910504F54D915D9161
:100E4000CF56DF4F68817981C159D0404617570787
:100E500081F0FC01EE0FFF1FE357FE4F71836083AB
:100E6000FC013196EE0FFF1F0296E357FE4F5183B0
:100E700040832F5F3F4F2E153F05E9F690933002D8
:100E800080932F0261C0E0E0F0E000E010E020E09D
:100E900030E0A3E0CA2ED12C2E153F053CF5EC33F3
:100EA000F10521F1D801AA0FBB1FBD0163577E4F89
:100EB000C901880F991FA1E0B0E0AC0FBD1F8A0FD8
:100EC0009B1FDC018D919C91DB018D939C930F5FA7
:100ED0001F4FC801B6010E94B030892B19F4215070
:100EE000310902C02F5F3F4F3196D6CFF0933002C9
:100EF000E0932F0229C02C33310511F1FA01EE0FD6
:100F0000FF1FE357FE4FDC01AA0FBB1F61E070E03B
:100F10006C0F7D1FA60FB71F6D917C91718360834D
:100F20004F5F5F4FBA0163707727672B39F40297E1
:100F30002F5F3F4F8E159F05F4F202C00196F8CF48
:100F40003093300220932F02CB55DF4F0FB6F89429
:100F5000DEBF0FBECDBFDF91CF911F910F91FF90EC
:100F6000EF90DF90CF90BF90AF909F908F907F9049
:100F70006F905F904F903F902F90089510926C0269
:100F800010926B021092900210928F028091A20236
:100F900081608093A2028091A70281608093A70262
:100FA0000895609120028BE690E00E94911260917A
:100FB00021028CE690E00C9491121F920F920FB6D2
:100FC0000F9211242F933F934F935F936F937F93CF
:100FD0008F939F93AF93BF93EF93FF93309B4FC03B
:100FE0008091B502823061F48091A5029091A602B1
:100FF00080FF06C0809158018F5F809358013FC0E9
:101000000E944019AB01BC018091C5029091C602BB
:10101000A091C702B091C802892B8A2B8B2B29F192
:101020008091C5029091C602A091C702B091C802FA
:1010300084179507A607B707C0F48091C502909161
:10104000C602A091C702B091C8029A01281B390BB1
:1010500030936501209364014093C5025093C6020A
:101060006093C7027093C8020AC08091A502909154
:10107000A60292609093A6028093A502EDCFFF9105
:10108000EF91BF91AF919F918F917F916F915F9100
:101090004F913F912F910F900FBE0F901F90189579
:1010A000909166019F5F977020916F01921741F0B8
:1010B000E0916601F0E0E959FE4F8083909366016C
:1010C000089588EF0C9450088AEF0C9450080E9401
:1010D00040196093C9027093CA028093CB02909327
:1010E000CC021092BC021092BD021092BE0210926D
:1010F000BF0210920602109207021092080210928C
:10110000090210925701109256018091A502909108
:10111000A60284609093A6028093A5028091A50206
:101120009091A60298609093A6028093A5020895DC
:10113000809370018091A5029091A602886090939F
:10114000A6028093A5020C946708CF92DF92EF92DB
:10115000FF920F931F93CF93C82F8091A502909178
:10116000A60292FF11C01092BC021092BD02109212
:10117000BE021092BF021092060210920702109255
:10118000080210920902B7C08091A5029091A602B0
:1011900091FF12C08091A5029091A6029D7F90932D
:1011A000A6028093A5021092BC021092BD0210927A
:1011B000BE021092BF0213C08091BC029091BD028A
:1011C000A091BE02B091BF020196A11DB11D8093F6
:1011D000BC029093BD02A093BE02B093BF02609187
:1011E000BC027091BD028091BE029091BF0220911D
:1011F000450230914602032E000C440B550B0E9411
:101200003A2E672B682B692B09F04FC00E944019BA
:101210000091C9021091CA022091CB023091CC02F8
:10122000012B022B032BB1F00091C9021091CA02CD
:101230002091CB023091CC026B017C01C01AD10A03
:10124000E20AF30AC0928801D0928901E0928A01F1
:10125000F0928B016093C9027093CA028093CB0213
:101260009093CC028091A5029091A60280FF06C0C7
:10127000809170018C1711F08430B9F48091A5022F
:101280009091A60287FF4DC01092060210920702AD
:1012900010920802109209028091A5029091A60274
:1012A00098609093A6028093A5028091A5029091E8
:1012B000A6028F779093A6028093A5026091BC024C
:1012C0007091BD028091BE029091BF0228E130E092
:1012D00040E050E00E943A2E672B682B692B59F4AE
:1012E000109256018091A5029091A602846090937D
:1012F000A6028093A5028091A5029091A60281FF8B
:1013000005C0809157018F5F809357018091B5028E
:1013100082508230D0F4809156018F5F80935601C5
:1013200014C08091060290910702A0910802B0912A
:1013300009020196A11DB11D809306029093070238
:10134000A0930802B0930902A7CFCF911F910F91EC
:10135000FF90EF90DF90CF900895AF92BF92CF9221
:10136000DF92EF92FF920F931F93CF93DF93C82FDB
:10137000A62EB42ED22F67017801807F803F11F412
:101380006C2F15C0809122028C1739F06C2F8EE8DB
:1013900093E00E942717C0932202DD2361F06A2D9B
:1013A0008EE893E00E942717D23028F06B2D8EE84C
:1013B00093E00E94271761E081E10E949A1884E17E
:1013C000C80ED11CE11CF11CC0921802D092190267
:1013D000E0921A02F0921B02DF91CF911F910F91C0
:1013E000FF90EF90DF90CF90BF90AF900895CF9295
:1013F000DF92EF92FF920F931F93FC016E3008F083
:101400006E506770606460937C0080917A008064A5
:1014100080937A0080917A0086FDFCCF60917800FD
:101420008091790070E0782B808191818F3F5FEF10
:10143000950719F471836083F0C0DB01A81BB90B19
:10144000CD01B7FF03C091958195910905970CF4E3
:10145000E4C071836083423809F465C06801790192
:10146000942F433828F4403851F0413869F197C03F
:10147000433809F47DC0443809F46CC090C0CB01F6
:101480000E944A12BC01990F880B990B0E94872F6A
:1014900020E030E040E054E40E946B2E20E030E099
:1014A00040E451E40E94373020E030E84FEF53E44D
:1014B0000E94DD2E0E944F2F60934F028091A70261
:1014C00081608093A70229C0643071053CF06C3FB5
:1014D000B3E07B072CF06FEF73E002C060E070E0D8
:1014E000072E000C880B990B0E94872F20E030EC10
:1014F0004FE754E40E94DD2E20E030E04AE753E459
:101500000E94373020E030E040EF51E40E946C2E22
:101510000E944F2FCB010E94D6008091A2028160D1
:101520008093A2027AC0643071053CF06C3F53E0B6
:1015300075072CF06FEF73E002C060E070E043E0ED
:10154000759567954A95E1F760934C0281E0809329
:101550004B02E3CF643071053CF06C3F83E07807C9
:10156000E4F110924E02D9CF81E080934E02D5CFA4
:10157000CB010E944A1224E0880F991F2A95E1F7B7
:10158000AC01440F452F441F550B4F77682F6F77E1
:10159000809128028701760122E0806E1BC06430B2
:1015A00071053CF06C3FA3E07A072CF06FEF73E01D
:1015B00002C060E070E0191684F5AB0183E0559538
:1015C00047958A95E1F7809128028701760122E00C
:1015D000692F806B0E94AD0920C06A30710524F22A
:1015E000072E000C880B990B0E94872F20E030E01B
:1015F00046E153E40E94373020E030EC4FE754E4FA
:101600000E94DD2E20E030E040E251E40E946C2E8A
:101610000E94562F60934E0280CF1F910F91FF9032
:10162000EF90DF90CF9008952F923F924F925F926C
:101630006F927F928F929F92AF92BF92CF92DF92E2
:10164000EF92FF920F931F93CF93DF9300D000D0C0
:10165000CDB7DEB71B012C014A0186E791E09C83E0
:101660008B83C12CD12CEB81FC819081911123C003
:10167000FFEFCF1ADF0A8B819C8101969C838B83BD
:1016800090E1C916D10479F70F900F900F900F9049
:10169000DF91CF911F910F91FF90EF90DF90CF904E
:1016A000BF90AF909F908F907F906F905F904F9082
:1016B0003F902F900895BC2CBB0CBB0CBB0C38E0AA
:1016C0003B0DAA24A39434016C0C7D1C8A2D892324
:1016D00011F18114910421F0F30180818A21D9F460
:1016E000209125028091280220FF02C0806801C05D
:1016F00080698201710122E040E06B2D3A83998379
:101700000E94AD09EB81FC8120818A2D8095822386
:10171000808399813A81B394AA0CB312D7CFA8CF12
:10172000EF92FF920F931F93CF93DF93D82F1092D6
:101730002202C0E00E944019D11102C04FE701C04F
:1017400040E07B018C0122E06AE78C2F806B0E94D5
:10175000AD09CF5FC03171F7DF91CF911F910F912C
:10176000FF90EF9008950F931F93CF93DF93EC01B9
:101770008B01909131027091420220E030E040E014
:1017800050E8F901EE5CFD4FDA01A023B123AB2B49
:1017900011F0908308C0DA01AC23BD23AB2B11F00C
:1017A000708301C01082569547952F5F3F4F2031BF
:1017B000310539F7DF91CF911F910F9108959B016A
:1017C000803191055CF41216130644F4FC01EE5CC2
:1017D000FD4F4083215031090196F2CF0895CF92F9
:1017E000DF92EF92FF92CF93C62F482F082E000C66
:1017F000550B660B770B4031510508F0F5C0FA0127
:10180000E259FF4F0C94C4308091A5029091A6023A
:1018100021E082279093A6028093A5028091A502E1
:101820009091A60280FD11C08091A5029091A60220
:1018300080689093A6028093A5021092C502109230
:10184000C6021092C7021092C8026091A502709160
:10185000A6026170772786E690E048C08091A502D5
:101860009091A60281FF13C08091A5029091A602DB
:1018700080619093A6028093A5028091A502909129
:10188000A6028D7F9093A6028093A50226C0809128
:10189000A5029091A60288609093A6028093A5026B
:1018A0008091A5029091A60280649093A6028093F5
:1018B000A5028091A5029091A60288609093A6024D
:1018C0008093A5028091A5029091A60282609093D8
:1018D000A6028093A5020E9467086091A5027091FC
:1018E000A60276956795617087E690E00E94911256
:1018F0007EC064E18602C001112473C08091A502FC
:101900009091A60280FF08C0109270018091A502FC
:101910009091A602806154C00E9440196B017C0125
:101920008091C1029091C202A091C302B091C40201
:101930008C159D05AE05BF05B0F4A7019601281BC7
:10194000390B4A0B5B0B283E73E037074105510505
:1019500050F460E67AEE80E090E00E943A2EC901F1
:101960000E94D600C1E0C092C102D092C202E092B1
:10197000C302F092C40238C08091A5029091A602E1
:1019800080FF04C084E00E9498082EC0809152011C
:1019900090915301459744F18091520190915301E8
:1019A00001971FC08091A5029091A60280FF0DC0F3
:1019B00084E0809370018091A5029091A6028062DC
:1019C0009093A6028093A5020FC08091520190913E
:1019D00053018C32914044F4809152019091530113
:1019E00001960E94D60003C0CC2309F4AFC340E0A7
:1019F00060E170E080E090E00E94DF0B2091A502A2
:101A00003091A602909131028091430220FF11C0D3
:101A1000909332022091A5023091A60220FF982FC8
:101A20009093330280933F0280934002809341025F
:101A30008DC3282F809332024091A5025091A602B7
:101A400041FF02C0392F01C0382F3093330240913B
:101A5000520150915301493251050CF459C0609123
:101A60005201709153014CE350E0FA01E61BF70B71
:101A70001E161F0654F46091520170915301461BCB
:101A8000570B4530510544F009C040915201509127
:101A900053014134510514F4392F40C06091520173
:101AA000709153014CE350E0FA01E61BF70B1E1650
:101AB0001F0654F46091520170915301461B570B5D
:101AC0004C30510544F107C04091520150915301EF
:101AD0004834510504F160915201709153014CE377
:101AE00050E0FA01E61BF70B1E161F0654F4609136
:101AF000520170915301461B570B4431510544F07C
:101B00000CC04091520150915301403551052CF4C5
:101B10003091420203C0382F01C030E030933502CB
:101B2000609152017091530140E550E0FA01E61BCB
:101B3000F70B1E161F0654F4609152017091530169
:101B4000461B570B4530510544F009C040915201E6
:101B5000509153014535510514F4392F40C060911F
:101B600052017091530140E550E0FA01E61BF70B7A
:101B70001E161F0654F46091520170915301461BCA
:101B8000570B4C30510544F107C040915201509120
:101B900053014C35510504F160915201709153018C
:101BA00040E550E0FA01E61BF70B1E161F0654F441
:101BB0006091520170915301461B570B44315105FE
:101BC00044F00CC0409152015091530144365105EC
:101BD0002CF43091420203C0382F01C030E0309322
:101BE0003602609152017091530144E650E0FA01CF
:101BF000E61BF70B1E161F0654F4609152017091FC
:101C00005301461B570B4530510544F009C0409124
:101C10005201509153014936510514F4392F40C0F7
:101C2000609152017091530144E650E0FA01E61BC5
:101C3000F70B1E161F0654F4609152017091530168
:101C4000461B570B4C30510544F107C040915201DF
:101C5000509153014037510504F160915201709148
:101C6000530144E650E0FA01E61BF70B1E161F066F
:101C700054F46091520170915301461B570B44314B
:101C8000510544F00CC04091520150915301483726
:101C900051052CF43091420203C0382F01C030E0CE
:101CA00030933702609152017091530148E750E040
:101CB000FA01E61BF70B1E161F0654F46091520141
:101CC00070915301461B570B4530510544F009C034
:101CD00040915201509153014D37510514F4392F61
:101CE00040C0609152017091530148E750E0FA0101
:101CF000E61BF70B1E161F0654F4609152017091FB
:101D00005301461B570B4C30510544F107C040911D
:101D10005201509153014438510504F16091520130
:101D20007091530148E750E0FA01E61BF70B1E16CD
:101D30001F0654F46091520170915301461B570BDA
:101D40004431510544F00CC040915201509153016F
:101D50004C3851052CF43091420203C0382F01C099
:101D600030E03093380260915201709153014CE899
:101D700050E0FA01E61BF70B1E161F0654F46091A3
:101D8000520170915301461B570B4530510544F0E9
:101D900009C040915201509153014139510514F449
:101DA000392F40C060915201709153014CE850E0CE
:101DB000FA01E61BF70B1E161F0654F46091520140
:101DC00070915301461B570B4C30510544F107C02D
:101DD00040915201509153014839510504F16091ED
:101DE0005201709153014CE850E0FA01E61BF70BE9
:101DF0001E161F0654F46091520170915301461B48
:101E0000570B4431510544F00CC0409152015091A0
:101E10005301403A51052CF43091420203C0382F4F
:101E200001C030E03093390260915201709153014A
:101E300040EA50E0FA01E61BF70B1E161F0654F4A9
:101E40006091520170915301461B570B453051056B
:101E500044F009C04091520150915301453A510557
:101E600014F4392F40C0609152017091530140EA3F
:101E700050E0FA01E61BF70B1E161F0654F46091A2
:101E8000520170915301461B570B4C30510544F1E0
:101E900007C040915201509153014C3A510504F151
:101EA000609152017091530140EA50E0FA01E61B43
:101EB000F70B1E161F0654F46091520170915301E6
:101EC000461B570B4431510544F00CC04091520160
:101ED00050915301443B51052CF43091420203C010
:101EE000382F01C030E030933A0260915201709176
:101EF000530144EB50E0FA01E61BF70B1E161F06D8
:101F000054F46091520170915301461B570B4530B8
:101F1000510544F009C04091520150915301493B91
:101F2000510514F4392F40C0609152017091530152
:101F300044EB50E0FA01E61BF70B1E161F0654F4A3
:101F40006091520170915301461B570B4C30510563
:101F500044F107C04091520150915301403C51055A
:101F600004F1609152017091530144EB50E0FA0189
:101F7000E61BF70B1E161F0654F460915201709178
:101F80005301461B570B4431510544F00CC040919E
:101F9000520150915301483C51052CF430914202BA
:101FA00003C0382F01C030E030933B0260915201F2
:101FB0007091530148EC50E0FA01E61BF70B1E1636
:101FC0001F0654F46091520170915301461B570B48
:101FD0004530510544F009C04091520150915301E0
:101FE0004D3C510514F4892F3EC06091520170910F
:101FF000530148EC50E0FA01E61BF70B1E161F06D2
:1020000054F46091520170915301461B570B4C30B0
:1020100051054CF107C04091520150915301443D8C
:1020200051050CF1609152017091530148EC50E060
:10203000FA01E61BF70B1E161F0654F460915201BD
:1020400070915301461B570B4431510544F00AC0AF
:1020500040915201509153014C3D51051CF4809127
:10206000420201C080E080933C02409152015091B5
:102070005301403F51052CF08091420280933D0274
:102080005FC060915201709153014CED50E0FA0134
:10209000E61BF70B1E161F0654F460915201709157
:1020A0005301461B570B4530510544F009C0409180
:1020B000520150915301413E510514F4292F3EC065
:1020C00060915201709153014CED50E0FA01E61B12
:1020D000F70B1E161F0654F46091520170915301C4
:1020E000461B570B4C3051054CF107C04091520133
:1020F00050915301483E51050CF1409152015091CD
:1021000053012CED30E0B901641B750B1616170650
:1021100054F44091520150915301241B350B24314A
:10212000310544F00AC02091520130915301203F03
:1021300031051CF42091420201C020E020933D02B1
:1021400090933F029093400290934102CF91FF9071
:10215000EF90DF90CF90089580E090E0FC01EE5C7E
:10216000FD4F1082019680319105C1F70895E82F47
:102170008091A202982F907181FF0CC0911104C030
:1021800080618093A20261E0E850E830E0F4E093DF
:10219000C00220C09923A1F08F7E8093A202EF3F5E
:1021A000C9F00E2E000CFF0BEC5BFD4FA091C0029E
:1021B000B0E0AA5DBE4F91A58C91892781A70AC086
:1021C000EF3F79F71EC0611105C080918701882318
:1021D00009F461C08091A20284FF15C00E94AC1076
:1021E0004091430268E070E088E090E00E94DF0BDD
:1021F000E091C002F0E080913102E65CFD4F808307
:1022000039C0662311F3E091C00250914302E111FD
:1022100013C080E090E0FC01EC5BFD4F31A5232F63
:10222000217030FD252FFC01EE5CFD4F20830196CF
:102230008031910581F71EC04091420280E090E01C
:10224000F0E0EA5DFE4FDC01AC5BBD4F99962C914E
:10225000DC01AE5CBD4F308120FF04C0232321F0A0
:10226000252F03C0232309F0242F2C9301968031BE
:10227000910549F780912F0290913002892B41F00E
:10228000E0910502F0E080913102EE5CFD4F808329
:1022900010928701089508951F920F920FB60F9222
:1022A00011242F933F934F935F938F939F93EF93BB
:1022B000FF9341988091CD02882341F08091CD0217
:1022C00080958093B2001092CD026CC080910F0275
:1022D0008F5F80930F028091CE028F3018F05D984F
:1022E0005F9A5D9A5F985D985D9A8091CE029FE0BB
:1022F000981B292F30E0F901EE5CFD4F80818111A0
:10230000419A80958093CD024091CF0241111EC029
:102310001A9B10C04091D002042E000C550B42179E
:102320005307C9F09093A0024091A0024093D002BD
:1023300042E30FC04091D002042E000C550B24172D
:10234000350749F44FEF4093D00205C04091CF02CA
:1023500041504093CF024E9B0DC040919302042EFA
:10236000000C550B2417350781F090939B02909138
:102370009B0209C040919302042E000C550B2417B8
:10238000350719F49FEF909393029091CE0291112B
:1023900002C09FE003C09091CE0291509093CE0274
:1023A0008093B200FF91EF919F918F915F914F9138
:1023B0003F912F910F900FBE0F901F901895809115
:1023C000F10290E02091F202821B91090895089594
:1023D00080E090E00895CF92DF92EF92FF920F930A
:1023E0001F93CF93DF937C01262F972F8A01809133
:1023F0006A03882391F0C62FD72F6E01C40ED51E15
:10240000CC15DD0571F06991D701ED91FC9101903A
:10241000F081E02DC7010995F3CF642F822F0E9430
:10242000121BC801DF91CF911F910F91FF90EF9088
:10243000DF90CF900895CF93DF931F92CDB7DEB793
:10244000698320916A032223D1F020918D032032E9
:1024500040F021E030E0FC013383228380E090E013
:1024600015C080916B03E82FF0E0E459FC4F99818F
:1024700090838F5F80936B0380938D0305C061E031
:10248000CE0101960E94121B81E090E00F90DF9137
:10249000CF910895803E21E092079CF4BC01990FF2
:1024A000880B990B0E94872F20E030E040EF53E427
:1024B0000E94DD2E20E030E040E054E40E943730FE
:1024C0001FC0803222E0920704F1BC016F517240BC
:1024D000072E000C880B990B0E94872F20E030E01C
:1024E00040E054E40E94373020E030E040EF53E415
:1024F0000E94DD2E20E030E040E054E40E946C2E8B
:102500000E944F2F77FF03C009C060E072E0CB014B
:10251000611574402CF08FEF93E0089580E090E017
:1025200008950C94FA2D0F931F93CF93DF9300D04F
:102530001F92CDB7DEB740E06FEF8EE60E949C1B86
:102540008093B50240E06FEF8AE60E949C1B1092D8
:10255000A3028093A40240E06FEF89E60E949C1BD7
:102560002091A3023091A402282B3093A40220933F
:10257000A3020E947703E0919E03F0919F0382E003
:102580008083E0919A03F0919B031082E0919C0379
:10259000F0919D038FE380831092A603E091A20344
:1025A000F091A30386E08083E091A003F091A10362
:1025B000808180618083E091A003F091A1038081FC
:1025C00088608083E091A003F091A10380818068FE
:1025D0008083E091A003F091A10380818F7D8083AF
:1025E0008EE893E00E946E171092740110922202FE
:1025F000109273011092750140E06FE085E60E9431
:102600009C1B809328024FEF6FE084E60E949C1B86
:102610008093270249E16FEF88E60E949C1B80931C
:10262000260240E061E08DE60E949C1B809325021B
:102630001092240210922302109287011092A70296
:102640008FEF809386011092C00210924702109281
:10265000480291E09093490210924A0284E68093E6
:102660004C022FE720934D0290934B0210926C0284
:1026700010926B0290E190937D0280934E02109233
:102680004F02109250028FEF9FE39093520280937B
:1026900051021092900210928F0210928E0240E02E
:1026A0006FEF8CE60E949C1B082F10E0102F002774
:1026B00040E06FEF8BE60E949C1B0027107A809110
:1026C0002002909121029F75082B192B1093210253
:1026D00000932002EDE6F2E081E0819392E0ED3795
:1026E000F907D9F7E6E7F1E0119281E0E638F8075B
:1026F000D9F71092300210922F028FEF80932E02A2
:1027000010922D0210922C0210922B0210922A028B
:102710001092290261E08DE00E94CA1810920B020B
:1027200010920C0210920D0210920E0210920A02E8
:102730001092980210929A0281E08093A202109265
:102740009C0210929D0210929E0210929F02109283
:102750009402109295021092960210929702109293
:10276000C1021092C2021092C3021092C4021092CF
:10277000A102F8941092A6021092A502109266018E
:1027800010926F0140E061E086E60E949C1B882366
:1027900049F08091A5029091A60281609093A602D3
:1027A0008093A50240E061E087E60E949C1B88239D
:1027B00049F08091A5029091A60282609093A602B2
:1027C0008093A502109257011092700186E090E06C
:1027D00090934602809345021092C9021092CA0259
:1027E0001092CB021092CC021092880110928901B3
:1027F00010928A0110928B010E94670888E790E08E
:1028000090935301809352018BEA9AEAA6EAB1E4CD
:102810008093590190935A01A0935B01B0935C019E
:1028200010925F011092600110926101109262019A
:1028300062E082E00E94CA1862E083E00E94CA1847
:1028400062E084E00E94CA1884E698E09093010157
:102850008093000180916900836080936900E89A09
:1028600081E698E0909303018093020180916900D2
:102870008C6080936900E99A1092560110925D0174
:10288000109254011092C5021092C6021092C70213
:102890001092C802109265011092640110925E01BC
:1028A00010925501109258018091A3029091A402B8
:1028B00097FD02C086E001C08CE0809363018091A7
:1028C000B502823049F561E082E10E94CA1860E0F9
:1028D0008EE00E94CA1862E083E10E94CA186AE092
:1028E00070E080E090E00E94061935990EC08FEFED
:1028F00080935D01809168008260809368001092EF
:102900006C0080916C00816003C080916C008E7FB0
:1029100080936C0082E107C0833039F461E08BE082
:102920000E94CA188BE080935501789461E085E09D
:102930000E94CA1861E087E00E94CA1860E08AE03D
:102940000E94CA1860E086E00E94CA1861E08FE029
:102950000E94CA1862E08CE00E94CA1861E088E018
:102960000E94CA1861E081E10E94CA1861E080E11A
:102970000E94CA1861E089E00E94CA1880E090E0D5
:10298000FC01EE5CFD4F1082019680319105C1F78C
:102990008FEF8093A0028093D00280939B021092CD
:1029A000CF029FE09093CE021092CD0210921C02B3
:1029B00010921D0210921E0210921F021092180215
:1029C0001092190210921A0210921B021092140215
:1029D0001092150210921602109217021092100215
:1029E0001092110210921202109213021092990288
:1029F00010920F022CED35E0309392022093910259
:102A00008093310289E18093430284E08093420203
:102A10001092B00083E08093B10081E08093700059
:102A20001092B20078940E9477038CE00E94711893
:102A3000892B09F05FC0809142028093320280931B
:102A40003302809334028093350280933602909152
:102A50003102909337028093380290933902809329
:102A60003A0280933B0280933C0280933D02809324
:102A70003E0290933F0290934002909341028CE07B
:102A80000E947118892BD9F380919B02883009F438
:102A9000D5C040E06FEF83E60E949C1B843209F0B2
:102AA000CDC08091A00287FF20C18091A0028F3FFE
:102AB00009F140E060E170E080E090E00E94DF0B0F
:102AC0004091430265E070E080E090E00E94DF0BFF
:102AD0008091B5024091310261E070E090E00E9487
:102AE000DF0B68EE73E080E090E00E940619E0E002
:102AF000F0E009958091B502813081F462E08BE0CD
:102B00000E94CA1860E083E10E94CA1860E082E176
:102B10000E94CA1860E08EE00E94CA188FEF9FEFF3
:102B200090933C0480933B0490933A04809339043F
:102B300090933804809337041092B402109272017B
:102B4000109271011092AC021092AD021092AE027E
:102B50001092AF021092A8021092A9021092AA023B
:102B60001092AB021092B0021092B1021092B20217
:102B70001092B30210928C018091B502833009F05B
:102B800055C01092F2021092F10210926B03109253
:102B90008D031092690311E01093680310924303B0
:102BA00061E082E10E949A1861E083E10E949A1834
:102BB0008091B9008E7F8093B9008091B9008D7F9C
:102BC0008093B90088E48093B80085E48093BC00CA
:102BD00010936A0380E680938C0310926B0310922B
:102BE0008D0389E990E00E943A1B0E943F1B61E03F
:102BF0008EE00E94CA1860E08EE00E949A18198246
:102C00001A821B8243E050E0BE016F5F7F4F87EF67
:102C10009FE10E94B602882349F08981823131F414
:102C20008A81809372018B81809371018091260249
:102C300087FF72C081E00E94900B6EC01092280244
:102C40008FEF8093270289E1809326021092A602DB
:102C50001092A5028AE190E09093A4028093A302CF
:102C600080E090E2909321028093200260E085E66C
:102C700090E00E9491126091270284E690E00E9409
:102C8000911269E188E690E00E94911260E08DE681
:102C900090E00E94911260E086E690E00E9491121E
:102CA00060E087E690E00E94911260E08EE690E09E
:102CB0000E9491120E94C1030E94D10764E283E640
:102CC00090E00E9491124091310260E170E080E05A
:102CD00090E00E94DF0B68EE73E080E090E00E94DD
:102CE0000619E0E0F0E00995DCCE8091A002853085
:102CF0000CF0DBCE6091A0026093B5028091A3023C
:102D00009091A40299279093A4028093A3028EE647
:102D100090E00E949112C9CE0F900F900F90DF911A
:102D2000CF911F910F910895CF92DF92EF92FF9272
:102D30000F931F93CF93DF936C017A018B01C0E057
:102D4000D0E0CE15DF0589F0D8016D918D01D60157
:102D5000ED91FC910190F081E02DC6010995892B40
:102D600011F47E0102C02196ECCFC701DF91CF9113
:102D70001F910F91FF90EF90DF90CF900895FC018D
:102D8000538D448D252F30E0842F90E0821B930BD0
:102D9000541710F0CF96089501970895FC01918D76
:102DA000828D981761F0828DDF01A80FB11D5D96AD
:102DB0008C91928D9F5F9F73928F90E008958FEF1B
:102DC0009FEF0895FC01918D828D981731F0828DCF
:102DD000E80FF11D858D90E008958FEF9FEF089526
:102DE000FC01918D228D892F90E0805C9F4F821B8A
:102DF00091098F73992708958EE893E00E94F01649
:102E000021E0892B09F420E0822F0895FC01848DB4
:102E1000DF01A80FB11DA35ABF4F2C91848D90E004
:102E200001968F739927848FA689B7892C93A089DF
:102E3000B1898C9180648C93938D848D981306C096
:102E40000288F389E02D80818F7D80830895EF9241
:102E5000FF920F931F93CF93DF93EC0181E0888F54
:102E60009B8D8C8D981305C0E889F989808185FD3B
:102E700024C0F62E0B8D10E00F5F1F4F0F7311272C
:102E8000E02E8C8DE8120CC00FB607FCFACFE88953
:102E9000F989808185FFF5CFCE010E940617F1CF19
:102EA0008B8DFE01E80FF11DE35AFF4FF0820B8F6F
:102EB000EA89FB898081806207C0EE89FF8960838F
:102EC000E889F98980818064808381E090E0DF91E6
:102ED000CF911F910F91FF90EF900895CF93DF93C3
:102EE000EC01888D8823C9F0EA89FB89808185FD02
:102EF00005C0A889B9898C9186FD0FC00FB607FC63
:102F0000F5CF808185FFF2CFA889B9898C9185FFA3
:102F1000EDCFCE010E940617E7CFDF91CF91089544
:102F200080E090E0892B29F00E94FC1681110C941E
:102F300000000895833081F028F4813099F08230C8
:102F4000A1F008958730A9F08830B9F08430D1F429
:102F5000809180008F7D03C0809180008F77809367
:102F60008000089584B58F7702C084B58F7D84BDBD
:102F700008958091B0008F7703C08091B0008F7D5D
:102F80008093B00008953FB7F89480913F039091EB
:102F90004003A0914103B091420326B5A89B05C010
:102FA0002F3F19F00196A11DB11D3FBFBA2FA92FC8
:102FB000982F8827820F911DA11DB11DBC01CD0145
:102FC00042E0660F771F881F991F4A95D1F7089531
:102FD000089585ED8093BC008091BC0084FDFCCFFA
:102FE0001092690308950895E091F2028091F10230
:102FF000E81730F4F0E0EF52FD4F808190E0089543
:103000008FEF9FEF08959091F2028091F10298174F
:1030100050F4E92FF0E0EF52FD4F208130E09F5F48
:103020009093F20202C02FEF3FEFC90108950E9472
:10303000DE301F920F920FB60F9211242F933F9301
:103040004F935F936F937F938F939F93AF93BF93B0
:10305000EF93FF938EE893E00E940617FF91EF91A4
:10306000BF91AF919F918F917F916F915F914F91A0
:103070003F912F910F900FBE0F901F9018951F92A8
:103080000F920FB60F9211242F938F939F93EF936C
:10309000FF93E0919E03F0919F038081E091A40350
:1030A000F091A50382FD12C090818091A7038F5FEC
:1030B0008F732091A803821751F0E091A703F0E0ED
:1030C000E257FC4F958F8093A70301C08081FF9149
:1030D000EF919F918F912F910F900FBE0F901F90A6
:1030E0001895CF93DF93282F30E0F901EE5BFE4F68
:1030F0008491F901E25DFE4FD491F901E65EFE4F45
:10310000C491CC2391F081110E949A17EC2FF0E02A
:10311000EE0FFF1FE05FFE4FA591B491EC91ED2300
:1031200081E090E021F480E002C080E090E0DF9157
:10313000CF9108951F93CF93DF93282F30E0F901AB
:10314000EE5BFE4F8491F901E25DFE4FD491F901EF
:10315000E65EFE4FC491CC23C9F0162F81110E9468
:103160009A17EC2FF0E0EE0FFF1FEA5FFE4FA591DC
:10317000B4918FB7F894111105C09C91ED2FE09593
:10318000E92302C0EC91ED2BEC938FBFDF91CF913F
:103190001F910895CF93DF9390E0FC01E25DFE4F15
:1031A0002491FC01E65EFE4F8491882361F190E05A
:1031B000880F991FFC01E450FF4FC591D491FC0189
:1031C000EA5FFE4FA591B491611109C09FB7F894D1
:1031D0008881209582238883EC912E230BC0623056
:1031E00061F49FB7F8943881822F80958323888378
:1031F000EC912E2B2C939FBF06C08FB7F894E881DB
:103200002E2B28838FBFDF91CF9108958F929F92AD
:10321000AF92BF92CF92DF92EF92FF926B017C014F
:103220000E94C3174B015C01C114D104E104F104F5
:10323000F1F00E94C317DC01CB0188199909AA0992
:10324000BB09883E9340A105B10570F321E0C21A85
:10325000D108E108F10888EE880E83E0981EA11CD1
:10326000B11CC114D104E104F10419F7DDCFFF90C2
:10327000EF90DF90CF90BF90AF909F908F90089588
:103280002FB7F89460913B0370913C0380913D030C
:1032900090913E032FBF08951F920F920FB60F9289
:1032A00011242F933F938F939F93AF93BF9380915C
:1032B0003B0390913C03A0913D03B0913E033091BC
:1032C0003A0323E0230F2D3720F40196A11DB11DF1
:1032D00005C026E8230F0296A11DB11D20933A03D5
:1032E00080933B0390933C03A0933D03B0933E0334
:1032F00080913F0390914003A0914103B09142031C
:103300000196A11DB11D80933F0390934003A093AC
:103310004103B0934203BF91AF919F918F913F9131
:103320002F910F900FBE0F901F9018951F920F9224
:103330000FB60F9211242F933F934F935F936F9388
:103340007F938F939F93AF93BF93EF93FF93E091FE
:103350000201F09103010995FF91EF91BF91AF91A7
:103360009F918F917F916F915F914F913F912F919D
:103370000F900FBE0F901F9018951F920F920FB6CF
:103380000F9211242F933F934F935F936F937F93EB
:103390008F939F93AF93BF93EF93FF93E0910001BF
:1033A000F09101010995FF91EF91BF91AF919F912C
:1033B0008F917F916F915F914F913F912F910F90DE
:1033C0000FBE0F901F9018951F920F920FB60F927D
:1033D00011242F933F934F935F936F937F938F931A
:1033E0009F93AF93BF93EF93FF938091B900887F32
:1033F000803609F49CC068F5883209F45BC090F40B
:10340000803109F454C038F4882309F4F6C08830B8
:1034100009F44DC0F6C0883109F44CC0803209F47B
:103420005DC0EFC0803409F468C048F4803309F40B
:1034300055C0883309F0E5C080936703D8C0803554
:1034400009F44FC0883509F45DC0883409F0D9C04B
:10345000D6C0883909F4C7C0A8F4883709F467C012
:1034600038F4883609F463C0803709F460C0C9C0F5
:10347000883809F4B8C0803909F45FC0803809F091
:10348000C0C05BC0803B09F486C038F4803A09F4C0
:1034900066C0883A09F47FC0B4C0803C09F4A7C074
:1034A000883C09F4A4C0883B09F48AC0AAC0809172
:1034B000440310C09091660380916503981770F5DE
:1034C000E091660381E08E0F80936603F0E0EB5B92
:1034D000FC4F80818093BB0085EC86C0809367039E
:1034E0008EC0E091660381E08E0F80936603809129
:1034F000BB00F0E0EB5BFC4F808390916603809112
:1035000065036EC0E091660381E08E0F80936603D1
:103510008091BB00F0E0EB5BFC4F808380916803FF
:1035200081116DC081E08093430384EA61C083E030
:103530008093690310923903CFCF80913903803291
:1035400008F051C0E091390381E08E0F8093390378
:103550008091BB00F0E0E75EFC4F8083BDCF85EC3F
:103560008093BC001092690380913903803230F45B
:10357000E0913903F0E0E75EFC4F1082609139037F
:1035800070E0E0911703F091180389E193E0099549
:103590001092390336C084E08093690310921603B9
:1035A00010921503E0911303F09114030995809193
:1035B0001503811105C081E0809315031092F30279
:1035C000E091160381E08E0F80931603F0E0ED503A
:1035D000FD4F80818093BB0090911603809115036D
:1035E000981708F479CF85E88093BC000AC085EC71
:1035F0008093BC001092690304C0109267030E947C
:10360000E917FF91EF91BF91AF919F918F917F91BA
:103610006F915F914F913F912F910F900FBE0F903F
:103620001F90189540911503262F30E0240F311D6F
:1036300021323105DCF4209169032430C9F4FC0106
:1036400080E090E0861758F4309115032191DC0159
:10365000AD50BD4FA30FB11D2C930196F3CF8091B8
:103660001503680F6093150380E0089581E00895C5
:1036700082E00895682F8BE294E00C941B12209155
:103680008D0390918C03213208F04AC08091690328
:103690008111FCCF32E03093690331E0309368034D
:1036A0003FEF309367031092660320936503ACE607
:1036B000B3E045E453E0FA013E2F341B321718F40F
:1036C0003D913193F9CF1092440320914403990F17
:1036D000922B9093440390914303913061F41092A4
:1036E0004303909144039093BB009091BC0093FDE1
:1036F000F8CF95EC01C095EE9093BC0090916903D2
:103700009230E1F3909167039F3F79F080916703D6
:10371000803241F080916703803331F084E005C04E
:1037200081E003C082E001C083E010926B0310923D
:103730008D0310926A030895FF920F931F93CF9306
:10374000DF931F92CDB7DEB7F42E082F10E0C8012B
:1037500069830E94F22D69818F1541F0681728F462
:103760006F2DC8010E94911201C0F82E8F2D0F906D
:10377000DF91CF911F910F91FF900895CF93DF9329
:10378000CDB7DEB76B970FB6F894DEBF0FBECDBFD7
:10379000789484B5826084BD84B5816084BD85B52C
:1037A000826085BD85B5816085BD80916E00816038
:1037B00080936E00109281008091810082608093DE
:1037C00081008091810081608093810080918000E0
:1037D0008160809380008091B10084608093B1000B
:1037E0008091B00081608093B00080917A00846005
:1037F00080937A0080917A00826080937A00809131
:103800007A00816080937A0080917A00806880934A
:103810007A001092C1000E9493120E9440194B013D
:103820005C014C9B07C08091A5029091A60290FF7D
:1038300096C406C08091A5029091A60290FD9AC4FC
:103840008091A5029091A60280FDE8C0809164015C
:1038500090916501892B09F460C0609164017091B9
:10386000650110916301072E000C880B990B0E94D3
:10387000872F6B017C01612F70E080E090E00E9457
:10388000872F9B01AC01C701B6010E94DD2E60931A
:10389000590170935A0180935B0190935C0120E081
:1038A00030E040EC51E40E9437309B01AC0160E015
:1038B00070E68AE697E40E94DD2E0E944F2F209149
:1038C0005201309153012617370749F07093530185
:1038D000609352018091A20281608093A2021092B3
:1038E000650110926401C501B4010E94852F6093A7
:1038F0005F017093600180936101909362018091F8
:103900005E0191E0980F90935E01811720F481E0B1
:103910000E94A508F4CF10925E0180915D018F3F57
:1039200039F490915E0180916301981708F0BDC051
:103930008091A5029091A60286FF15C020915901A1
:1039400030915A0140915B0150915C01C501B40175
:103950002A8F3B8F488F598F0E94852F2A8D3B8D50
:10396000488D598D50C040905F015090600160902B
:10397000610170906201C501B4010E94852F6B0145
:103980007C019B01AC01C301B2010E94D82E87FFCC
:103990008CC080915E018F5F80935E0181E00E9408
:1039A000A5082091590130915A0140915B01509135
:1039B0005C0160915F017091600180916101909163
:1039C00062010E946C2E60935F017093600180938E
:1039D00061019093620160915F017091600180913B
:1039E000610190916201A70196010E94D82E87FF84
:1039F0005CC02091590130915A0140915B01509176
:103A00005C01C701B6010E946C2E60935F01709348
:103A10006001809361019093620147C080915801D9
:103A2000882309F442C08091580181508093580145
:103A30008091A5029091A60287FF09C0109206020C
:103A400010920702109208021092090213C080918E
:103A5000060290910702A0910802B0910902019616
:103A6000A11DB11D8093060290930702A093080246
:103A7000B09309028091A5029091A602986090935C
:103A8000A6028093A5028091A5029091A6028F774D
:103A90009093A6028093A5028091A5029091A60220
:103AA00084609093A6028093A5028091A5029091D4
:103AB000A6028F7B9093A6028093A5028091A50217
:103AC0009091A60281FF30C08091A5029091A6023C
:103AD00084FF08C06CEF8EE893E00E9427171092D5
:103AE000570113C08091A5029091A60283FF02C0E6
:103AF0006AEF07C08091A5029091A60285FF05C0DC
:103B00006BEF8EE893E00E942717809157011816FB
:103B1000C4F48091570181508093570168EF8EE87B
:103B200093E00E9427170DC08091A5029091A602F4
:103B300084FF05C06CEF8EE893E00E942717109277
:103B400057018091A5029091A602877C9093A602CE
:103B50008093A50280915D018F3F09F44FC08111D0
:103B60002EC08091560110916301082E000C990B14
:103B7000212F30E0821793070CF440C0809155014B
:103B8000882349F02091A3023091A40236FD03C09E
:103B900061E00E949A1880915601811B8093560122
:103BA00081E080935D018091A3029091A40297FD32
:103BB00002C086E001C08CE0809363011FC0909139
:103BC00054019815D9F0809254018F5F843118F414
:103BD00080935D0102C010925D0180915D018A3089
:103BE00069F480915501882349F02091A302309116
:103BF000A40236FD03C060E00E949A188091A502DD
:103C00009091A60282FF1AC061E080E10E949A189A
:103C1000D501C4010596A11DB11D80931402909396
:103C20001502A0931602B09317028091A5029091FD
:103C3000A6028B7F9093A6028093A5029E012F5F20
:103C40003F4F290180E1D9011D928A95E9F713E0E0
:103C500090916F01809166019817D1F08091A50233
:103C60009091A60280FF0DC08091260284FD8FC234
:103C700008C08B3F08F098C2883F19F483E00E9487
:103C8000A50880916F018F5F877080936F01E0CFEF
:103C90008091990283FF07C0C0902102C094CC1C80
:103CA000CC24CC1C01C0C12CA50194012C5E3F4F3B
:103CB0004F4F5F4F2C8B3D8B4E8B5F8BB2E06B2E4B
:103CC0002224239412E1312E8EE893E00E94F01614
:103CD000892B09F487C28EE893E00E94CE169C01DE
:103CE000207F3327203F310509F050C099278A3FB4
:103CF0009105D1F024F4883F910541F0E5CF8B3F49
:103D0000910501F18C3F910579F1DECF8091A502FB
:103D10009091A60280FFD8CF8091260283FFD4CF56
:103D200082E00E94A508D0CF8091A5029091A602C2
:103D300080FFCACF8091260283FFC6CF82E00E9417
:103D40009808C2CF8091A5029091A60280FFBCCFB7
:103D50008091260283FFB8CF609270018091A50206
:103D60009091A602806239C28091A5029091A6022C
:103D700080FFAACF8091260283FFA6CF1092700108
:103D80008091A5029091A602806127C287FF10C092
:103D90001092750180937401203C310519F0203D8B
:103DA000310519F4209273018FCF609273018CCF8B
:103DB00030917401332309F487CFE091750191E0CC
:103DC0009E0F909375010E2E000CFF0BEA54FD4FD1
:103DD000808320917301892F990F990B422F50E016
:103DE000841795070CF470CF1092750161E088E09C
:103DF0002A8F3B8F0E949A184C895D896E897F8932
:103E000040931C0250931D0260931E0270931F0288
:103E1000809127022A8D3B8D8F3F21F0932F9F7039
:103E20009813A9C0932F907F80912602903929F092
:103E3000903BD1F0903809F079C081FD02C0CC20D0
:103E400059F0850174014091B7026091B602832F49
:103E5000988F0E94AD09988DD090B6027090B702ED
:103E6000903909F027C191C085FF05C08091B60245
:103E7000883708F029CF8091B502833009F056C009
:103E80002091A3023091A40230FF50C08091B6026D
:103E9000873481F050F4863409F048C08091B7022D
:103EA0008F7780548093720141C0883451F08934F7
:103EB00089F03CC08091B7028F7780548093710164
:103EC00035C06091B70270E080E090E040E00E9471
:103ED0001B012CC03E7F3093A4022093A302398A99
:103EE000809172018A8B809171018B8B43E050E04D
:103EF000BE016F5E7F4F87EF9FE10E9456028823CD
:103F000099F04091310260E170E080E090E00E9421
:103F1000DF0B68EE73E080E090E00E94061980916C
:103F2000A20281608093A2020E94C103D090260267
:103F3000D2FC04C08091990283FF0CC085017401FA
:103F4000209173014091B7026091B6028091740193
:103F50000E94AD09D0FEB8CE80917401807F90910F
:103F6000280285017401209173014091B70260918C
:103F7000B602892B07C0850174014091B702609198
:103F8000B602832F0E94AD099FCE772009F495C019
:103F9000DD2009F492C09091990293FF19C080919D
:103FA00020029091210297FF8FCE80912E028F3FA9
:103FB00009F48ACED81AD0924F028091A70281606C
:103FC0008093A7028091A20281608093A2027CCE9E
:103FD00060916B0270916C02E3E5F2E000E010E0AA
:103FE0008FEF20E030E0AD2DB0E0261737078CF4DE
:103FF000419151917A01E894E7F8FF24EA16FB0613
:1040000009F4822F57FF02C00F5F1F4F2F5F3F4FF2
:10401000ECCF109324020093230287FD16C00115F4
:10402000110599F0880F990BFC01EC5BFD4F87851A
:10403000908997FD49CE9068908B87870F5F1F4FBF
:1040400010932402009323023FCE0115110591F431
:1040500010926C0210926B0292FF0AC08091A5022E
:104060009091A60280689093A6028093A50202C058
:104070000E94670820916B0230916C022B30310551
:104080000CF022CEF901EE0FFF1FEC5BFD4F8D2DE2
:1040900090E090689729908B87872F5F3F4F3093F0
:1040A0006C0220936B020F5F1F4F1093240200934A
:1040B00023024FC0903809F007CE20916B02309157
:1040C0006C02E4E4F2E0A0E0B0E0FF24FA9460E0E7
:1040D00070E08D2D90E0621773079CF4478550893E
:1040E0008A010F7711270817190729F45F77508B7A
:1040F0004787F62E02C057FD11966F5F7F4F3296AD
:10410000EACFB0932402A09323028091990282FD0A
:10411000DBCDF7FCD9CD8F2DFF0C990BBC01660FC1
:10412000771F40E050E0215031094E5F5F4F82170A
:1041300093075CF40196FA01E60FF71FEC5BFD4F65
:10414000A785B089B687A587F0CF30936C022093FE
:104150006B028091A70281608093A702B5CD809108
:10416000A5029091A60291609093A6028093A50269
:104170008BEF0AC08091A5029091A6029E7F90933A
:10418000A6028093A5028CEF0E94500859CBE091C3
:104190006F01F0E0E959FE4F80818A3F09F069CD57
:1041A00083E00E9498086DCD8B3F41F4109370011D
:1041B0008091A5029091A60280620AC08C3F09F00E
:1041C00060CD109270018091A5029091A60280614D
:1041D0009093A6028093A50254CD9093A60280935B
:1041E000A50272CD8091990282FD0EC080912302BA
:1041F00090912402892B41F480916B0290916C0282
:10420000892B11F00E94BE078091A70280FF09C090
:104210000E94CD038091A7028E7F8093A702109207
:1042200022028091A5029091A60293FF0BC080917B
:104230002F0290913002892B29F020917D022111CB
:104240000C947D2B8091B8029091B902A091BA0292
:10425000B091BB020097A105B10531F08815990511
:10426000AA05BB0538F01CC080912F029091300246
:10427000892BB1F440E050E0C501B4010E94140B59
:104280001092B8021092B9021092BA021092BB02B8
:104290008091B502833021F460E08EE00E949A188C
:1042A00080910B0290910C02A0910D02B0910E0230
:1042B00088159905AA05BB05C8F410910A02612F5B
:1042C0008DE00E949A1881E0111180E080930A022B
:1042D000D501C4018C509E4FAF4FBF4F80930B024E
:1042E00090930C02A0930D02B0930E0280911C02D9
:1042F00090911D02A0911E02B0911F020097A1058E
:10430000B10589F088159905AA05BB0560F460E040
:1043100088E00E949A1810921C0210921D021092BE
:104320001E0210921F028091180290911902A09112
:104330001A02B0911B020097A105B10589F08815FA
:104340009905AA05BB0560F460E081E10E949A1816
:10435000109218021092190210921A0210921B0267
:104360008091140290911502A0911602B09117024B
:104370000097A105B10589F088159905AA05BB0527
:1043800060F460E080E10E949A181092140210928A
:1043900015021092160210921702C0901002D090CF
:1043A0001102E0901202F0901302D701C6018C595D
:1043B0009F4FAF4FBF4F88169906AA06BB0608F459
:1043C0003FC08CE00E94711820919902892BF1F472
:1043D00020FD04C02160209399022AC0822F82719F
:1043E00079F58091910290919202B701A601480F50
:1043F000591F611D711D481559056A057B0500F59A
:104400002A602093990210920F021AC020FF18C050
:10441000822F827141F423FF02C0277F02C084E013
:10442000282720939902809199028C7E809399028B
:104430008092100290921102A0921202B092130286
:10444000F0909902F3FE06C060910F02661F662786
:10445000661F03C0F2FA662760F989E00E949A1885
:104460009091A202592F5170652E692F6E7F609333
:10447000A202782C082D007F2091A102207F201716
:1044800019F08092A10201601091A0021F3F89F0F3
:104490008FEF8093A002A5019401205F384D4F4F0C
:1044A0005F4F20939C0230939D0240939E02509355
:1044B0009F0280919B028F3F49F480919A02833042
:1044C00009F04EC084E080939A024AC02FEF2093F7
:1044D0009B022F2D23702130B1F42091B50223507F
:1044E000223088F42F2D206120939902843031F0FE
:1044F000883031F0882331F080E005C081E403C0CA
:1045000082E401C080E42091980230E0482F082E18
:10451000000C550B4217530721F420919A022430C6
:1045200079F48093980281E080939A021092940229
:10453000109295021092960210929702662463944C
:104540007501640170E1C70E77E2D71EE11CF11C12
:10455000C0929C02D0929D02E0929E02F0929F0235
:10456000809193028F3F09F441C0862F826080932F
:10457000A2028091940290919502A0919602B0912E
:1045800097020097A105B10599F48091910290914D
:104590009202A5019401280F391F411D511D20933E
:1045A00094023093950240939602509397022AC04A
:1045B00088159905AA05BB0528F580919A028230D5
:1045C00020F482E080939A020EC083E080939A02E6
:1045D0008FEF9FEFDC018093940290939502A0935C
:1045E0009602B0939702662463940CC09C7F9460FB
:1045F0009093A20210929402109295021092960249
:104600001092970280919C0290919D02A0919E022F
:10461000B0919F020097A105B105B9F088169906DF
:10462000AA06BB0690F08091A30284FF04C01092FA
:10463000980210929A0210929C0210929D0210927F
:104640009E0210929F0266246394809198028630A5
:1046500009F4ABC390F4823009F42EC338F48823F4
:1046600009F449C7813009F449C145C790919A02BC
:104670008430C1F008F427C58DC18A3009F4D1C354
:1046800040F490919A02883009F451C008F4CBC5E7
:10469000B2C28B3009F425C690EC980F933008F421
:1046A0009FC629C7933060F1103100F52FE030E04C
:1046B000211B310917FD339581E090E002C0880F7E
:1046C000991F2A95E2F79C012F71232B79F02091F5
:1046D000A3023091A402822793279093A40280938F
:1046E000A3020E94C1030E94770303C0662009F45D
:1046F00006C76091A3027091A4028FE19FEF43C0AF
:10470000103120F41F5F10937D0203C0662009F46E
:10471000F6C60E94AC1060917D0270E040914202AA
:1047200080E090E00E94DF0BE0917D0269C393304E
:1047300068F11031F8F42FE030E0211B310917FD4A
:10474000339581E090E002C0880F991F2A95E2F727
:104750009C012227307A232B69F02091200230918E
:1047600021028227932790932102809320020E94A6
:10477000D10703C0662009F4C2C66091200270917F
:10478000210280E090EA0E94B30BB9C61C30C1F050
:104790005CF4163008F096C0109347028091A7028F
:1047A00081608093A70291C01E3009F47AC00CF496
:1047B0004FC01F3009F086C0EDE6F2E081E07CC01A
:1047C0000DE612E0D8018C9181708C938823C1F1A1
:1047D0000E94E42D28E030E040E050E00E94082EE6
:1047E000653071058105910509F174F46330710537
:1047F00081059105B9F0643071058105910501F5D8
:10480000D8018C91846019C06630710581059105CD
:1048100089F0673071058105910591F4F801808177
:1048200082610DC0F8018081886009C0F801808133
:10483000826005C0D8018C9180618C9301C0808317
:104840000F5F1F4FF2E00D371F0709F0BBCF3AC0D3
:104850000DE612E0FF24F39489E0E82E0E94E42D97
:1048600025E030E040E050E00E94082E97FD10C0A7
:10487000623071058105910544F064307105810550
:10488000910531F4F801E08205C0D8011C9202C004
:10489000D801FC920F5F1F4FB2E00D371B07F1F6F6
:1048A00011C0EDE6F2E0119222E0ED37F207D9F700
:1048B00080E180937D0206C0819332E0ED37F307FB
:1048C000D9F7F6CF662009F41AC60E94AC101091F1
:1048D0004302412F66E070E080E090E00E94DF0B31
:1048E000E0914702F0E080913102EE5CFD4F808361
:1048F000412F64E070E08CE090E0C1C480919A02A6
:10490000833048F11C3040F4109350028091A7028C
:1049100081608093A70203C0662009F4F0C50E945D
:10492000AC10409143026CE070E080E090E00E94A7
:10493000DF0B809142028093330280933502809393
:10494000380280933A0280933C02E09150020E2E8E
:10495000000CFF0BC1C4173048F4135010934802E9
:104960008091A70281608093A70203C0662009F4AA
:10497000C6C50E94AC104091420267E070E080E042
:1049800090E00E94DF0B8091430280933502E0911A
:1049900048021DC5933008F413C117FD7FC0812F55
:1049A000110F990BAA0BBB0B8031910508F070C059
:1049B000FC01EC5CFF4F0C94C4308091510290914B
:1049C00052028F6F9F6060C080915102909152029D
:1049D0008827907F856D9A6057C080915102909191
:1049E00052028827907F86659B604EC0809151025D
:1049F000909152028827907F8A659D6045C0809182
:104A00005102909152028827907F856B9A603CC03A
:104A100080915102909152028827907F866D9A6012
:104A200033C080915102909152028827907F8A650D
:104A30009B602AC080915102909152028827907FFA
:104A40008A669D6021C080915102909152029F78A8
:104A50001BC080915102909152029F78906114C0C6
:104A600080915102909152029F7890620DC0809186
:104A70005102909152029F78906306C0809151023A
:104A8000909152029F7890649093520280935102C9
:104A90008091A70281608093A70203C0662009F479
:104AA0002EC50E94AC1010914202412F68E070E0C8
:104AB00080E090E00E94DF0B412F65E070E08BE02A
:104AC00090E00E94DF0B809143028093320280933A
:104AD00040022091510230915202C9019F708635E7
:104AE0004BE0940779F180F4853D6AE0960729F15F
:104AF000863D7AE0970781F1853B9A40B1F5809138
:104B000031028093360231C08A35BDE09B07F9F04F
:104B100040F48A359B4049F58091310280933802F8
:104B200024C08A364DE09407E1F08F3F9F40E9F4BE
:104B3000809131028093320218C0809131028093BB
:104B4000330213C080913102809334020EC08091F1
:104B500031028093350209C080913102809337027F
:104B600004C08091310280933902C901882790776F
:104B7000811560E29607D1F058F4009791F0811505
:104B8000904109F0BCC48091310280933E02B7C4C9
:104B90008115B0E39B0779F08115904409F43EC17B
:104BA000AEC48091310280933D02A9C4809131024C
:104BB00080933F02A4C480913102809340029FC43D
:104BC000143048F41F5F109349028091A70281605E
:104BD0008093A70203C0662009F491C40E94AC1020
:104BE0004091420264E070E080E090E00E94DF0BC0
:104BF000E091490205C19230B1F40E94BE071092C3
:104C00002202D12C0E9440197B018C018091280244
:104C100022E040E06D2D80680E94AD09D394F0E859
:104C2000DF12F0CF6CC48EE0E8E0F1E0D201019039
:104C30000D928A95E1F71E3060F4F201E10FF11D4B
:104C400017FDFA95808190E090934602809345028B
:104C500003C0662009F453C40E94AC104091420284
:104C60006DE070E080E090E00E94DF0B80914302F5
:104C700080933202809334028093370280933A0209
:104C800080933D0280933F0240914502509146023D
:104C9000F20180E090E0219130E04217530739F4AF
:104CA00020913102FC01EE5CFD4F208328C4019667
:104CB0008E30910581F723C480919A02833060F190
:104CC00080E1E6E1F1E0D20101900D928A95E1F7F1
:104CD000103148F4F201E10FF11D17FDFA958081C2
:104CE00080934D0203C0662009F409C40E94AC10F1
:104CF00030914D02209143028FE090E0F201E80FE5
:104D0000F91F4081FC01EE5CFD4F341708F044C0F0
:104D10002083019798F7F3C380E1E6E1F1E0D20147
:104D200001900D928A95E1F711110BC080914C0210
:104D3000811109C080914B02882329F010924B0207
:104D400011C0103160F4F201E10FF11D17FDFA9569
:104D5000808180934C0281E080934B0203C06620E7
:104D600009F4CDC30E94AC1080914B02811107C0A1
:104D7000809131028093320280934102C0C330910E
:104D80004C0220914302D20180E090E04D91FC0161
:104D9000EE5CFD4F431718F0809131021FC3208352
:104DA00001968031910591F7AAC31F3048F4110F85
:104DB0001E5FE12FEE0FEE0F1E0F10934E0208C084
:104DC0001F3019F410924E0203C0662009F497C3F5
:104DD0000E94AC1080914E028823C1F01AE0612F2E
:104DE0000E94A430682F70E04091430280E090E080
:104DF0000E94DF0B80914E02612F0E94A430E82FA9
:104E0000F0E080913102EF5CFD4FE8C24091430237
:104E100060E170E080E090E00E94DF0B8091310261
:104E2000ABCF80919A02833008F479C0103108F03A
:104E300043C041E050E002C0440F551F1A95E2F70D
:104E400080918F02909190024827592750939002A9
:104E500040938F02109224021092230280E090E08F
:104E600020E330E061E070E0FB01E423F523EF2B69
:104E700069F08B30910554F4FC01EE0FFF1FEC5BE1
:104E8000FD4FD901BF67B08BA7870196660F771FCB
:104E90002F5F3F4F2034310539F790936C02809398
:104EA0006B028091A70281608093A7028091990292
:104EB00084608093990203C0662009F420C3A09106
:104EC0008F02B09190021091310200914302F09054
:104ED000420221E030E080E090E0A9014A235B2318
:104EE000BC016E5C7D4F6B018F30910550F4BC01AD
:104EF0006C5B7F4FFB010C94C430452B31F4402F89
:104F000005C0452B11F44F2D01C0412FF601408300
:104F1000220F331F019680319105F9F6F0C2812FDF
:104F2000012E000C990BAA0BBB0B8031910508F0E8
:104F3000AEC0FC01ED5AFF4F0C94C43010934A02EE
:104F40008091A70281608093A702A4C00E94E42DF3
:104F500023E030E040E050E00E94082E6E5F7F4F7B
:104F600070936C0260936B02E3E5CE2EE2E0DE2EDE
:104F700000E010E080916B0290916C020817190715
:104F80000CF077C00E94E42D2CE030E040E050E0CF
:104F90000E94082E7B01F0E3EF0EF11CE3E5F2E046
:104FA00080E090E0801791070CF03BC52191319192
:104FB0002F7733272E153F0529F30196F3CF80E392
:104FC0009FE7909354028093530283E39FE71DC0B1
:104FD00080E39FE7909354028093530284E39FE71A
:104FE000909356028093550287E39FE7909358026F
:104FF000809357028BE39FE714C080E39FE7909371
:1050000054028093530284E39FE790935602809367
:10501000550287E39FE790935802809357028AE3F3
:105020009FE790935A028093590284E090E01DC05C
:1050300080E39FE7909354028093530283E39FE7BA
:1050400008C080E39FE7909354028093530284E367
:105050009FE7909356028093550287E39FE79093D2
:1050600058028093570283E090E090936C02809303
:105070006B021092900210928F028091A7028160C1
:105080008093A702809199028460809399026620A0
:1050900009F435C20E94AC104091420265E070E014
:1050A00080E090E00E94DF0BE0914A02F0E0809106
:1050B0003102EE5CFD4F80834091430266E070E078
:1050C0008AE090E0DCC0933008F4A8C0111104C05D
:1050D0006091260281E023C0113021F46091260204
:1050E00082E01DC0123021F46091260284E017C0D6
:1050F000133021F46091260288E011C0143021F4AD
:105100006091260280E10BC0153021F460912602E7
:1051100080E205C0163049F46091260280E46827D9
:105120006093260288E690E01BC0173079F4609106
:10513000260260586093260288E690E00E94911251
:105140008091260280780E94900B10C0183059F48C
:105150006091250281E06827609325028DE690E04A
:105160000E94911203C0662009F4C9C10E94AC10CC
:105170008091260280FF03C09091310202C090917D
:1051800042029093320281FF03C09091310202C02B
:10519000909142029093330282FF03C090913102BA
:1051A00002C0909142029093340283FF03C0909119
:1051B000310202C0909142029093350284FF03C0F5
:1051C0009091310202C0909142029093360285FF85
:1051D00003C09091310202C0909142029093370235
:1051E00086FF03C09091310202C0909142029093D9
:1051F000380287FF03C08091310202C080914202D1
:10520000809339028091250280FF03C08091310292
:1052100002C08091420280933A0271C1662D812FB3
:105220000E94EF0B6CC1933068F11031C8F480918B
:10523000270290E0212F012E000C330B82179307D9
:1052400029F48FEF809327026FEF03C0109327029A
:10525000612F84E690E00E9491120E94BE0703C075
:10526000662009F44CC10E94AC10E0912702EF3F88
:1052700091F54091310260E170E080E090E00E94A1
:10528000DF0B3DC11031C0F48091280290E0212F46
:10529000012E000C330B8217930731F00E94401946
:1052A00040E050E00E94140B10932802612F85E625
:1052B00090E00E94911203C0662009F420C10E9470
:1052C000AC104091420260E170E080E090E00E940A
:1052D000DF0BE0912802F0E080913102EE5CFD4F9F
:1052E0007DC0103108F043C08091A20281FF2EC022
:1052F00082FF0BC010922B0210928E0210922A0293
:10530000109229028B7F8093A202A0918E02AF306F
:1053100088F581E090E0012E02C0880F991F0A9461
:10532000E2F72091290230912A02822B932B90934D
:105330002A028093290281E08A0F80938E02B0E0D6
:10534000AC5BBD4F1350DA961C9314C010922B0225
:1053500010928E0210922A0210922902135010937A
:105360004F028091A70281608093A70203C066204C
:1053700009F4C5C04091420260E170E080E090E035
:105380000E94DF0B2091290230912A02286030937D
:105390002A02209329026091430280E090E041E0DC
:1053A00050E0FA01E223F323EF2B21F0FC01EE5C45
:1053B000FD4F6083440F551F01968031910589F799
:1053C000E0914F0283E08E0F803108F098C00E2EDE
:1053D000000CFF0B80913102EB5CFD4F80838FC08E
:1053E000103108F051C08134E9F1823409F442C02F
:1053F000812F0E945C03882309F446C04DE450E0ED
:1054000064E472E080E0912F990F0E94B60210923E
:10541000300210922F028FEF80932E0210922D02F5
:1054200010922C0210922B0210922A021092290242
:10543000809199028C7E84608093990210929A02E6
:1054400081E08093A2028091A70281608093A702ED
:105450008091A5029091A60280689093A602809305
:10546000A50212C080EA809344024DE450E064E457
:1054700072E004C0198241E050E0B20180E0912F57
:10548000990F0E94560202C06620B1F000E010E0C1
:10549000802F0E945C03882319F08091430202C090
:1054A00080914202F801EE5CFD4F80830F5F1F4F39
:1054B0000031110569F723C000FF21C0007F9091E2
:1054C0004202509143024091310220E030E0F90164
:1054D000EE5CFD4F8081891721F0002321F0842F9D
:1054E00003C0892F01C0852F80832F5F3F4F20315C
:1054F000310569F704C0662D812F0E94B710809195
:10550000B502833009F058C08091B402781609F4CE
:10551000F0C08092B4024091B0025091B10260910B
:10552000B2027091B302411551056105710509F48C
:10553000E0C08091AC029091AD02A091AE02B0911A
:10554000AF02840F951FA61FB71F8093AC029093E4
:10555000AD02A093AE02B093AF020091A8021091E9
:10556000A9022091AA023091AB0214161506160664
:10557000170634F480179107A207B30734F415C057
:10558000081719072A073B0784F00093AC02109311
:10559000AD022093AE023093AF021092B00210928F
:1055A000B1021092B2021092B3028091AE029091B9
:1055B000AF020E94F7009DC0813009F09AC0D5016A
:1055C000C40134E0B695A795979587953A95D1F79C
:1055D0002091B402281709F48CC08093B402809102
:1055E000A7028D7F8093A7028091A5029091A602C9
:1055F0009B7F9093A6028093A502E090A302F09077
:10560000A402C70188279370811522E0920759F000
:10561000811533E0930759F08115914089F4950184
:10562000840141E007C09501840140E803C0950171
:10563000840142E165E070E08BE394E00E94F709A9
:10564000C70188279C70811558E0950759F081158E
:105650006CE0960759F08115944089F49501840116
:1056600042E807C09501840143E803C09501840125
:1056700041E164E070E089E394E00E94F709C7012A
:10568000882790738115A0E29A0759F08115B0E33D
:105690009B0759F08115904189F49501840141E8F7
:1056A00007C09501840144E803C09501840140E1ED
:1056B00060E070E087E394E00E94F7098BE0F6FE7B
:1056C0000FC00E947118892BA1F48091A5029091BE
:1056D000A602806896609093A6028093A50209C0F6
:1056E0000E947118892B29F48091A702826080930F
:1056F000A7020E9490170C940D1C609106027091F5
:105700000702809108029091090230E040E050E0E9
:105710000E943A2E60930502672B682B692B01F5D6
:1057200080918E028823E1F0E0912B02F0E0EC5BA7
:10573000FD4F82AD80934F020E94CD031092220252
:1057400080912B028F5F80932B0290918E0289179C
:1057500010F010922B028091A20281608093A2022D
:105760003090B50253E0351212C0E0910502F0E02E
:10577000EC5BFD4F61A58091A3029091A40296FF7E
:1057800006C063FB662760F98BE00E949A18E091DF
:105790000502F0E0EC5BFD4F81A580FD06C0209185
:1057A00020023091210235FF2EC182FD04C081FB11
:1057B000662460F802C052E0652EC0902F02D0909F
:1057C000300220912C0230912D022C153D0524F041
:1057D00010922D0210922C02881F8827881F880F94
:1057E00030E0BF01675D7F4F7D8B6C8BE0912C02B9
:1057F000F0912D02823059F0DF01AA0FBB1FA35791
:10580000BE4F11967C90771C7724771C02C07724BA
:105810007394AC89BD898C9180FF6EC0EE0FFF1F21
:10582000E357FE4F308191813F7785FF04C03D30C3
:1058300010F03C500BC084FF04C0343710F4345FC8
:1058400005C086FF03C0353008F035502091A7020F
:1058500021FD0FC083FF03C020904D020BC080913B
:105860004B02882319F020904C0204C09F77292E08
:1058700001C0212C332309F43FC08091260286FF0A
:1058800014C080918601821581F03B8F0E944019DF
:105890007B018C018091280222E0422D69E2806B1D
:1058A0000E94AD09209286013B8D809128028501DE
:1058B000740122E0422D632F80693B8F0E94AD0965
:1058C0003B8D832F877041E050E001C0440F8A95E3
:1058D000EAF7832F90E023E0959587952A95E1F7E5
:1058E000FC01EA58FE4F2081242B2083F201E80FAF
:1058F000F91F8081482B408340912C0250912D024A
:105900004F5F5F4F50932D0240932C02711003C0E4
:10591000311107C02BC081E04C155D050CF466CF3A
:10592000F7CFB3E03B121DC020918C01632F70E0D4
:1059300080E090E0222321F041E00E941B010DC095
:1059400040E00E941B0160E08EE00E949A1861E036
:1059500070E080E090E00E94061961E08EE00E9415
:105960009A18A201C501B4010E94140BE2E06E1264
:105970000CC01092B8021092B9021092BA021092A2
:10598000BB0281E080938C013EC0F1E06F120DC03C
:105990008091880190918901A0918A01B0918B0139
:1059A000880D991DAA1DBB1D1BC0A0914E02AA23E4
:1059B00001F1209188013091890140918A01509133
:1059C0008B01B0E00E94272E26E930E040E050E055
:1059D0000E943A2ED501C401820F931FA41FB51F48
:1059E0008093B8029093B902A093BA02B093BB021D
:1059F00008C01092B8021092B9021092BA02109226
:105A0000BB0210928C0181E0809387018091A502F6
:105A10009091A602977F9093A6028093A5020C9482
:105A200050210E94E42D20E430E040E050E00E944C
:105A3000082EDC01CB01805C9F4FAF4FBF4FBA2FC8
:105A4000A92F982F8827B701682B792BD6016D9342
:105A50007D936D010F5F1F4F8DCAE4E4F2E0DC011E
:105A600020E030E08FEF40916B0250916C022417E0
:105A70003507A4F4478550894D935D938F3F49F0D6
:105A800067857089482F082E000C550B6417750721
:105A900008F487852F5F3F4F3296E5CF0895EEE8F3
:105AA000F3E01382128288EE93E0A0E0B0E08483FA
:105AB0009583A683B78322E331E03183208325ECED
:105AC00030E03587248724EC30E03787268720ECC8
:105AD00030E0318B208B21EC30E0338B228B22ECB9
