:100000000C94B3000C94CB190C94A4190C94DB0041
:100010000C9456080C94DB000C94DB000C94DB0071
:100020000C94DB000C94180D0C94DB000C94DB009A
:100030000C94DB000C94DB000C94DB000C94DB00D4
:100040000C945A190C94DB000C944D180C9427183E
:100050000C94DB000C94DB000C94DB000C94DB00B4
:100060000C94F2190C94DB00E726EE26F726002705
:10007000092712271B2724275227522752272D27CB
:1000800033273A274127482785298929852989291E
:1000900085298529892985298929852989298529E4
:1000A000852989298529A629A629A629A629A62937
:1000B0004F2A4F2A4F2A4F2A4F2AAE29E729F029E3
:1000C000052A202A292A300135013A013F0144013D
:1000D00049014E01530158015D01620115053505C5
:1000E0005405AA04AA0415051505FA112412EA12EA
:1000F0006F126F126F126F126F126F126F126F12F8
:100100006F12EA127412B212C8120000000024002A
:1001100027002A0000000000250028002B00000016
:10012000000023002600290004040404040404043D
:100130000202020202020303030303030102040892
:100140001020408001020408102001020408102041
:100150000000000800020100000304070000000086
:10016000000000001F2E11241FBECFEFD8E0DEBF1D
:10017000CDBF11E0A0E0B1E0EAE6F3E602C00590F1
:100180000D92A235B107D9F724E0A2E5B1E001C094
:100190001D92AD33B207E1F710E0C3EBD0E004C02D
:1001A0002197FE010E949431C23BD107C9F70E94FA
:1001B000CC1B0C94B3310C940000CF93DF931F92AF
:1001C000CDB7DEB7682F81E080936A0380E6809325
:1001D0008C0310926B0310928D03292F392F330F4C
:1001E000330BC9018F70992769830E94481B69816D
:1001F0008BE294E00E94E70D0F90DF91CF910C9479
:100200004D1B8F929F92AF92BF92CF92DF92EF924F
:10021000FF920F931F93CF934B015C01C42F8091EA
:10022000A7029091A802E0906F01F0906E0195FFF7
:1002300090C068E486169104A104B10409F447C093
:10024000882D6CE00E947431092F10E0F80131977D
:10025000EB30F10508F040C0ED59FF4F0C9494319C
:1002600007E418E020E030E03BC005EC18E020E0B7
:1002700030E036C00AE419E020E030E031C008ED9B
:1002800019E020E030E02CC00EE61AE020E030E07B
:1002900027C00CE01BE020E030E022C005EB1BE0B3
:1002A00020E030E01DC007E61CE020E030E018C090
:1002B00004E21DE020E030E013C00CEE1DE020E081
:1002C00030E00EC00FEB1EE020E030E009C000EA95
:1002D0001FE020E030E004C000ED17E020E030E057
:1002E000882D6CE00E947431863008F085E045E08E
:1002F00050E0BA01681B7109A901980104C0559525
:100300004795379527956A95D2F7AE2DEE0CBB0B26
:10031000B05F0E94022FDC01CB012CE0B595A795C0
:10032000979587952A95D1F7CF2CFF0CDD08EE081D
:10033000FF08C80ED91EEA1EFB1EC11470E1D706C5
:10034000E104F1040CF440C0F594E794D794C79409
:10035000F4CFA50194012C50310941095109A4EFB2
:10036000B1E00E94F72E2CE030E040E050E00E9427
:10037000D82EAE2DEE0CBB0BB05F0E94022F20E0FA
:1003800030E140E050E00E94D82ECF2CFF0CDD0879
:10039000EE08FF08C20ED31EE41EF51EF7FE07C0CE
:1003A00084EFC80E81E0D81EE11CF11CF7CFC11408
:1003B00070E1D706E104F1043CF064EFC61A61E095
:1003C000D60AE108F108F3CFD60199278827809350
:1003D000AC029093AD02A093AE02B093AF02209115
:1003E000850130918601409187015091880180906C
:1003F000B0029090B102A090B202B090B302BC01E2
:10040000CD01681979098A099B090E94D82E209389
:10041000B4023093B5024093B6025093B702CC2396
:1004200021F0232B242B252BD9F4C6010E94DD00BB
:100430008091AC029091AD02A091AE02B091AF025A
:100440008093B0029093B102A093B202B093B30232
:100450001092B4021092B5021092B6021092B70236
:10046000CF911F910F91FF90EF90DF90CF90BF90B1
:10047000AF909F908F900895AF92BF92CF92DF92EE
:10048000EF92FF920F931F93CF93DF938C017B0129
:10049000EA01BB24B39480E5A82E1C161D060CF0BF
:1004A00040C0B0926A03A0928C0310926B0310922A
:1004B0008D03812F912F990F990B0E94481BC80122
:1004C00099270E94481BCE01C131D10514F080E16B
:1004D00090E0080F191FC81BD90B6701E80EF91E21
:1004E000F60161916F018BE294E00E94E70DCE145A
:1004F000DF04B1F70E944D1BB0926A03A0928C03F7
:1005000010926B0310928D0380E090E00E94481BD4
:1005100080E090E00E94481B0E944D1B823061F3F6
:10052000BCCFDF91CF911F910F91FF90EF90DF90A3
:10053000CF90BF90AF9008958F929F92AF92BF924D
:10054000CF92DF92EF92FF920F931F93CF93DF939F
:100550007C018B01EA0181E080936A0380E580934E
:100560008C0310926B0310928D038F2D9F2D990F8A
:10057000990B0E94481BC70199270E94481B0E94A3
:100580004D1BDD24D394CC24CA9485EE982E95EC93
:10059000892E21EDE22E22E0F22E1C161D060CF013
:1005A00063C0FE01C132D10514F0E0E2F0E0CE1BE1
:1005B000DF0B809169038111FCCF2E2FD09269034C
:1005C000D0926803C0926703109266039FEF9E0F5C
:1005D00090936503D092440390914403906A909362
:1005E000440390914303913069F410924303909136
:1005F00044039093BB009091BC0093FDF8CF809290
:10060000BC0002C09092BC00909169039130E1F36C
:1006100090916603921710F42091660345E453E02D
:1006200061ED72E0962F9E19921738F4DA019D91D0
:10063000AD01DB019D93BD01F5CF1092F202209335
:10064000F10230E02E173F0781F458010E0F1F1FF3
:10065000A016B10609F4A1CF8BE294E00E94111814
:10066000F50181935F01F4CF81E0DF91CF911F917C
:100670000F91FF90EF90DF90CF90BF90AF909F9041
:100680008F900895CF93DF931F92CDB7DEB7198275
:10069000982F990F41E050E0BE016F5F7F4F80E0DF
:1006A0000E949C02882321F081E09981903A09F010
:1006B00080E00F90DF91CF9108958091A7029091F3
:1006C000A8029C01237033272230310599F0233092
:1006D0003105C1F02130310529F024E620933402A0
:1006E00023E004C02FEF2093340229E12093460237
:1006F00021E00FC02FEF2093340229E1209346021E
:1007000024E007C02FEF2093340223E22093460217
:100710002AE0209345028C7099278430910569F076
:1007200018F4892B39F008958830910549F00C9719
:1007300051F008958AEF90E008C084EF91E005C081
:1007400088EE93E002C08CED95E090939602809342
:10075000950208956091A70289E690E00E945D0EDF
:100760006091A8028AE690E00C945D0E2F923F9271
:100770004F925F926F927F928F929F92AF92BF92B1
:10078000CF92DF92EF92FF920F931F93CF93DF935D
:10079000CDB7DEB7C55AD1090FB6F894DEBF0FBE8C
:1007A000CDBF8FEF8093830180933102109233028B
:1007B0001092320280916F0290917002892B09F49D
:1007C000A4C380914B02833008F041C0CE0187580A
:1007D0009F4F0E94FD2D20916F0230917002215099
:1007E0003109FE01E758FF4F80E090E0DD24D3940B
:1007F00082179307BCF441915191608171817A0114
:10080000E894E7F8FF24DB01AF77BB27AE15BF05FF
:100810003CF4DF0112976D937C9351834083D12C7C
:100820000196E6CFDD20E9F28091570280933102F4
:1008300021E030E0612C712C4FE750E0CF56DF4FC4
:1008400059834883C159D040E12CF12C64C0CE01BA
:1008500087589F4F0E94FD2DE9CF5CE3E516F10418
:100860000CF058C2E0914B024E2F50E0473051053A
:1008700008F467C020916F0230917002C656DF4FB6
:1008800039832883CA59D04080915402482F880F59
:10089000550BC456DF4F59834883CC59D040209123
:1008A000550230915602C856DF4F39832883C85904
:1008B000D040F901EE27F077A201440F551FC25630
:1008C000DF4F59834883CE59D0409801220F331F00
:1008D000C056DF4F39832883C05AD040CC56DF4FF3
:1008E00019821882C459D04041E017FF36C14FEF3A
:1008F000A41AB40A20914D02822F90E0A816B906DE
:100900000CF4ABCF9601CD2809F404C26CE3E616D3
:10091000F1040CF0FFC1809155029091560290585D
:100920009093560280935502592F551F5527551FF6
:10093000CD56DF4F5883C359D0406901A12CB12C4B
:10094000D9CFFA01E259FF4F00916F021091700266
:100950000C949431FE01E758FF4F80E090E080173F
:10096000910724F4119211920196F9CF57E5C52E03
:1009700052E0D52E00E010E080916F02909170025D
:10098000081719070CF051C020916F0230917002C6
:10099000032E000C440B550B211531054105510563
:1009A00071F1CE55DF4F2883C25AD040CD55DF4F6D
:1009B0003883C35AD040CC55DF4F4883C45AD04007
:1009C000CB55DF4F5883C55AD0400E94B42ECE5528
:1009D000DF4F2881C25AD040CD55DF4F3881C35AEE
:1009E000D040CC55DF4F4881C45AD040CB55DF4F63
:1009F0005881C55AD0400E94D82E9B01AC01220FCD
:100A0000331FE9E7F0E0EC0FFD1FE20FF31F8081D9
:100A10009181892B09F0B8CFD6018D919D916D01FF
:100A2000918380830F5F1F4FA7CF80906F029090BC
:100A30007002B1E08B1A91088091530290914C02A0
:100A40009501290F311D97FD3A959CE0929F100169
:100A5000939F300C1124280E311C87FD3A944424B6
:100A60004394512C00E010E01CC00150110920916A
:100A7000530230914C02830F911D37FD9A958A19CC
:100A80009B0901973CE0389F1001399F300C1124DD
:100A9000220E311C27FD3A9444244A94542C812C74
:100AA000912CC12CD12CE6CE4091530250914C0296
:100AB00031E0C316D10409F5480161E0861A9108B6
:100AC0009501250F311D57FD3A955CE0529F1001AD
:100AD000539F300C1124240E311C47FD3A9401978A
:100AE00044244394512C00E010E0A816B90609F004
:100AF000C1CE72E0C72ED12CBDCE213019F40250E8
:100B000011090EC0A114B10419F4025011090EC04C
:100B10009C012150310901501109A216B30631F48C
:100B200088248394912CC12CD12C02C0812C912C2F
:100B3000850F911D57FD9A958A199B0901972CE005
:100B4000289F1001299F300C1124240E311C47FDD1
:100B50003A9444244A94542C8DCEC656DF4F2881B3
:100B60003981CA59D040021713070CF0C0CE3CE3BC
:100B7000E316F1040CF0BBCECC56DF4FA881B9814F
:100B8000C459D040C056DF4F28813981C05AD04067
:100B9000A20FB31F69E770E06C0F7D1FA60FB71F90
:100BA0002D913C91CA56DF4F39832883C659D040D6
:100BB0002F773327220D331DC901C456DF4F6881BB
:100BC0007981CC59D040861B970B97FF02C00C96B9
:100BD000FCCF6CE070E00E948031A0E0B8E002C081
:100BE000B595A7958A95E2F7CD01C856DF4F688184
:100BF0007981C859D04086239723892BA9F5E1151F
:100C000070E2F707A1F050F4309709F468C0E115DD
:100C100090E1F90749F520E030E026C0E115A0E3B6
:100C2000FA0741F0E115B0E4FB0739F01DC021508F
:100C300031091AC02F5F3F4F17C0CD56DF4F588183
:100C4000C359D040552319F02F5F3F4F02C02150A8
:100C50003109CD56DF4F6881C359D0406427CD5646
:100C6000DF4F6883C359D040203831051CF02C5029
:100C70003109FACF37FF03C0245F3F4FFBCFC9567E
:100C8000DF4F8881C759D0408F77D901B82BCD016C
:100C9000B3016F777727621773070CF43D01CF56C6
:100CA000DF4F68817981C159D0406F777727261748
:100CB000370734F4CF56DF4F99838883C159D0402A
:100CC000D701AA0FBB1F21E030E02C0F3D1FA20F60
:100CD000B31F8D939C93B7016F5F7F4F7B01CC5601
:100CE000DF4F28813981C459D040C256DF4F688117
:100CF0007981CE59D040260F371FCC56DF4F39832C
:100D00002883C459D0400815190509F4F0CD040D05
:100D1000151DEBCD109233021092320280914B02DE
:100D20008630A1F4DE01119680E090E08E159F05DB
:100D300009F485C02D913D91FC01EE0FFF1FE65790
:100D4000FE4F3068318320830196F0CF80914E02B0
:100D50008230D1F060F48823F1F0813009F0D5C001
:100D6000DE01119680E090E020E030E041C0833069
:100D700009F46AC0843009F0C8C020E030E040E0E7
:100D800050E080E090E0B7C0DE01119680E090E096
:100D900020E030E051C0DE01119680E090E08E1539
:100DA0009F0509F44CC02D913D91FC01EE0FFF1FF2
:100DB000E657FE4F318320830196F1CF8C339105A6
:100DC000F4F54D915D914615570581F0FC01EE0F4C
:100DD000FF1FE657FE4F71826082FC013196EE0FD5
:100DE000FF1F0296E657FE4F518340832F5F3F4F10
:100DF0002E153F0519F723C08C33910504F54D914D
:100E00005D91CF56DF4F68817981C159D040461737
:100E1000570781F0FC01EE0FFF1FE657FE4F71836D
:100E20006083FC013196EE0FFF1F0296E657FE4FDE
:100E3000518340832F5F3F4F2E153F05E9F6909376
:100E400033028093320261C0E0E0F0E000E010E0A5
:100E500020E030E0A3E0CA2ED12C2E153F053CF552
:100E6000EC33F10521F1D801AA0FBB1FBD01665774
:100E70007E4FC901880F991FA1E0B0E0AC0FBD1FE4
:100E80008A0F9B1FDC018D919C91DB018D939C93BC
:100E90000F5F1F4FC801B6010E948031892B19F4E2
:100EA0002150310902C02F5F3F4F3196D6CFF093CA
:100EB0003302E093320229C02C33310511F1FA01DB
:100EC000EE0FFF1FE657FE4FDC01AA0FBB1F61E0CC
:100ED00070E06C0F7D1FA60FB71F6D917C91718321
:100EE00060834F5F5F4FBA0163707727672B39F4D8
:100EF00002972F5F3F4F8E159F05F4F202C00196B7
:100F0000F8CF3093330220933202CB55DF4F0FB628
:100F1000F894DEBF0FBECDBFDF91CF911F910F912F
:100F2000FF90EF90DF90CF90BF90AF909F908F9009
:100F30007F906F905F904F903F902F900895109208
:100F4000700210926F02109294021092930280919C
:100F5000A60281608093A6028091AB02816080939B
:100F6000AB020895CF93DF931092270210922602CE
:100F7000109284011092AB028FEF80938301109244
:100F8000C40210924B0210924C0291E090934D02D9
:100F900010924E0284E6809350022FE72093510274
:100FA00090934F021092700210926F0290E1909312
:100FB00081028093520210925302109254028FEFDA
:100FC0009FE39093560280935502109294021092E0
:100FD00093021092920240E06FEF8CE60E94AA1BEF
:100FE000C82FD0E0DC2FCC2740E06FEF8BE60E94CB
:100FF000AA1BCC27D07A80912302909124029F755E
:10100000C82BD92BD0932402C0932302E1E7F2E04E
:1010100081E0819392E0E138F907D9F7E3E7F1E065
:10102000119281E0E338F807D9F710923302109259
:1010300032028FEF809331021092300210922F0211
:1010400010922E0210922D0210922C02DF91CF915D
:101050000895609123028BE690E00E945D0E6091FE
:1010600024028CE690E00C945D0E90932202809313
:10107000210228E1289FB001299F700D1124072E1D
:10108000000C880B990B0E9457309B01AC0160E06B
:1010900070E68AE697E40E94AD2F60931D0270937C
:1010A0001E0280931F029093200208951F920F92B8
:1010B0000FB60F9211242F933F934F935F936F932B
:1010C0007F938F939F93AF93BF93EF93FF93309B47
:1010D0004FC08091B902823061F48091A902909151
:1010E000AA0280FF06C080915A018F5F80935A0147
:1010F0003FC00E944E19AB01BC018091C502909186
:10110000C602A091C702B091C802892B8A2B8B2BF3
:1011100029F18091C5029091C602A091C702B091B9
:10112000C80284179507A607B707C0F48091C502C7
:101130009091C602A091C702B091C8029A01281BE3
:10114000390B30936201209361014093C5025093A3
:10115000C6026093C7027093C8020AC08091A902B8
:101160009091AA0292609093AA028093A902EDCF77
:10117000FF91EF91BF91AF919F918F917F916F916F
:101180005F914F913F912F910F900FBE0F901F9045
:101190001895909163019F5F977020916C01921751
:1011A00041F0E0916301F0E0EC59FE4F80839093B1
:1011B0006301089588EF0C94C9088AEF0C94C9085C
:1011C0000E944E1960935601709357018093580105
:1011D000909359011092C0021092C1021092C20263
:1011E0001092C302109203021092040210920502A0
:1011F0001092060210925501109254018091A9029A
:101200009091AA0284609093AA028093A90280918F
:10121000A9029091AA0298609093AA028093A902D1
:10122000089580936D018091A9029091AA0288602F
:101230009093AA028093A9020C94E008CF92DF92C7
:10124000EF92FF920F931F93CF93C82F8091A90223
:101250009091AA0292FF11C01092C0021092C10296
:101260001092C2021092C302109203021092040262
:101270001092050210920602B7C08091A9029091C7
:10128000AA0291FF12C08091A9029091AA029D7FAB
:101290009093AA028093A9021092C0021092C102F8
:1012A0001092C2021092C30213C08091C0029091AA
:1012B000C102A091C202B091C3020196A11DB11D4D
:1012C0008093C0029093C102A093C202B093C30264
:1012D0006091C0027091C1028091C2029091C302DC
:1012E0002091490230914A02032E000C440B550B09
:1012F0000E940A2F672B682B692B09F04FC00E94B0
:101300004E190091560110915701209158013091CA
:101310005901012B022B032BB1F0009156011091C2
:10132000570120915801309159016B017C01C01A7D
:10133000D10AE20AF30AC0928501D0928601E092B6
:101340008701F09288016093560170935701809352
:101350005801909359018091A9029091AA0280FFAF
:1013600006C080916D018C1711F08430B9F4809122
:10137000A9029091AA0287FF4DC010920302109219
:10138000040210920502109206028091A902909127
:10139000AA0298609093AA028093A9028091A90260
:1013A0009091AA028F779093AA028093A9026091EC
:1013B000C0027091C1028091C2029091C30228E1E3
:1013C00030E040E050E00E940A2F672B682B692B29
:1013D00059F4109254018091A9029091AA0284605C
:1013E0009093AA028093A9028091A9029091AA02E7
:1013F00081FF05C0809155018F5F809355018091D9
:10140000B90282508230D0F4809154018F5F809372
:10141000540114C08091030290910402A09105022E
:10142000B09106020196A11DB11D80930302909315
:101430000402A0930502B0930602A7CFCF911F919B
:101440000F91FF90EF90DF90CF900895AF92BF92F1
:10145000CF92DF92EF92FF920F931F93CF93DF9380
:10146000C82FA62EB42ED22F67017801807F803F2F
:1014700011F46C2F15C0809125028C1739F06C2F58
:101480008EE893E00E943517C0932502DD2361F0BA
:101490006A2D8EE893E00E943517D23028F06B2D2C
:1014A0008EE893E00E94351761E081E10E94A81860
:1014B00084E1C80ED11CE11CF11CC0921502D0922F
:1014C0001602E0921702F0921802DF91CF911F915D
:1014D0000F91FF90EF90DF90CF90BF90AF90089565
:1014E000CF92DF92EF92FF920F931F93FC016E3029
:1014F00008F06E506770606460937C0080917A00A1
:10150000806480937A0080917A0086FDFCCF6091A0
:1015100078008091790070E0782B808191818F3FF5
:101520005FEF950719F471836083F0C0DB01A81B9E
:10153000B90BCD01B7FF03C091958195910905972E
:101540000CF4E4C071836083423809F465C068011B
:101550007901942F433828F4403851F0413869F12B
:1015600097C0433809F47DC0443809F46CC090C07A
:10157000CB010E94160EBC01990F880B990B0E949B
:10158000573020E030E040E054E40E943B2F20E060
:1015900030E040E451E40E94073120E030E84FEFB2
:1015A00053E40E94AD2F0E941F306093530280913C
:1015B000AB0281608093AB0229C0643071053CF0BE
:1015C0006C3FB3E07B072CF06FEF73E002C060E08C
:1015D00070E0072E000C880B990B0E94573020E01A
:1015E00030EC4FE754E40E94AD2F20E030E04AE7B2
:1015F00053E40E94073120E030E040EF51E40E94C4
:101600003C2F0E941F30CB010E9435088091A6021A
:1016100081608093A6027AC0643071053CF06C3F13
:1016200053E075072CF06FEF73E002C060E070E0EC
:1016300043E0759567954A95E1F76093500281E024
:1016400080934F02E3CF643071053CF06C3F83E040
:101650007807E4F110925202D9CF81E080935202D0
:10166000D5CFCB010E94160E24E0880F991F2A9532
:10167000E1F7AC01440F452F441F550B4F77682FFE
:101680006F7780912B028701760122E0806E1BC06C
:10169000643071053CF06C3FA3E07A072CF06FEFEB
:1016A00073E002C060E070E0191684F5AB0183E0DE
:1016B000559547958A95E1F780912B028701760130
:1016C00022E0692F806B0E94260A20C06A307105D3
:1016D00024F2072E000C880B990B0E94573020E053
:1016E00030E046E153E40E94073120E030EC4FE760
:1016F00054E40E94AD2F20E030E040E251E40E942B
:101700003C2F0E9426306093520280CF1F910F9190
:10171000FF90EF90DF90CF9008952F923F924F92DD
:101720005F926F927F928F929F92AF92BF92CF9271
:10173000DF92EF92FF920F931F93CF93DF9300D02E
:1017400000D0CDB7DEB71B012C014A0183E791E041
:101750009C838B83C12CD12CEB81FC8190819111D6
:1017600023C0FFEFCF1ADF0A8B819C8101969C83F7
:101770008B8390E1C916D10479F70F900F900F90E9
:101780000F90DF91CF911F910F91FF90EF90DF901D
:10179000CF90BF90AF909F908F907F906F905F9011
:1017A0004F903F902F900895BC2CBB0CBB0CBB0CF2
:1017B00038E03B0DAA24A39434016C0C7D1C8A2DC7
:1017C000892311F18114910421F0F30180818A2190
:1017D000D9F42091280280912B0220FF02C080685A
:1017E00001C080698201710122E040E06B2D3A83E3
:1017F00099830E94260AEB81FC8120818A2D8095A5
:101800008223808399813A81B394AA0CB312D7CFF3
:10181000A8CFEF92FF920F931F93CF93DF93D82F10
:1018200010922502C0E00E944E19D11102C04FE76C
:1018300001C040E07B018C0122E06AE78C2F806BC5
:101840000E94260ACF5FC03171F7DF91CF911F91BF
:101850000F91FF90EF9008950F931F93CF93DF9315
:10186000EC018B01909134027091450220E030E050
:1018700040E050E8F901EB5CFD4FDA01A023B12311
:10188000AB2B11F0908308C0DA01AC23BD23AB2B46
:1018900011F0708301C01082569547952F5F3F4F1E
:1018A0002031310539F7DF91CF911F910F910895C4
:1018B0009B01803191055CF41216130644F4FC017F
:1018C000EB5CFD4F4083215031090196F2CF089522
:1018D00080E090E0FC01EB5CFD4F108201968031CE
:1018E0009105C1F70895E82F8091A602982F907175
:1018F00081FF13C0911104C080618093A60261E052
:1019000087EF8E0F873020F4E850E093C40225C0A3
:10191000E7FD1CC01092C40220C09923A1F08F7E65
:101920008093A602EF3FC9F00E2E000CFF0BE85B80
:10193000FD4FA091C402B0E0AA5DBE4F91A58C916D
:10194000892781A70AC0EF3F79F727C0611105C039
:1019500080918401882309F46AC08091A60284FFE3
:101960001EC00E94680C4091460267E070E089E06A
:1019700090E00E94580CE091C40280913402E11181
:1019800003C08093350242C0909146029093350285
:10199000F0E0E35CFD4F808339C06623C9F2E0913B
:1019A000C40250914602E11113C080E090E0FC01B6
:1019B000E85BFD4F31A5232F217030FD252FFC0161
:1019C000EB5CFD4F208301968031910581F71EC0AD
:1019D0004091450280E090E0F0E0EA5DFE4FDC01DE
:1019E000A85BBD4F99962C91DC01AB5CBD4F30815B
:1019F00020FF04C0232321F0252F03C0232309F057
:101A0000242F2C9301968031910549F78091320261
:101A100090913302892B41F0E0910202F0E0809135
:101A20003402EB5CFD4F8083109284010895089589
:101A30001F920F920FB60F9211242F933F934F9343
:101A40005F938F939F93EF93FF9341988091C90287
:101A5000882341F08091C90280958093B200109252
:101A6000C9026CC080910C028F5F80930C02809140
:101A7000CA028F3018F05D985F9A5D9A5F985D9802
:101A80005D9A8091CA029FE0981B292F30E0F901EE
:101A9000EB5CFD4F80818111419A80958093C90252
:101AA0004091CB0241111EC01A9B10C04091CC0244
:101AB000042E000C550B42175307C9F09093A40253
:101AC0004091A4024093CC0242E30FC04091CC026B
:101AD000042E000C550B2417350749F44FEF4093A3
:101AE000CC0205C04091CB0241504093CB024E9BAB
:101AF0000DC040919702042E000C550B241735079A
:101B000081F090939F0290919F0209C040919702AB
:101B1000042E000C550B2417350719F49FEF9093F2
:101B200097029091CA02911102C09FE003C0909168
:101B3000CA0291509093CA028093B200FF91EF9134
:101B40009F918F915F914F913F912F910F900FBE79
:101B50000F901F9018958091F10290E02091F20271
:101B6000821B91090895089580E090E00895CF9236
:101B7000DF92EF92FF920F931F93CF93DF937C013D
:101B8000262F972F8A0180916A03882391F0C62F10
:101B9000D72F6E01C40ED51ECC15DD0571F06991ED
:101BA000D701ED91FC910190F081E02DC7010995DD
:101BB000F3CF642F822F0E94201BC801DF91CF91A9
:101BC0001F910F91FF90EF90DF90CF900895CF93EA
:101BD000DF931F92CDB7DEB7698320916A0322237A
:101BE000D1F020918D03203240F021E030E0FC0163
:101BF0003383228380E090E015C080916B03E82F4F
:101C0000F0E0E459FC4F998190838F5F80936B03E0
:101C100080938D0305C061E0CE0101960E94201BD8
:101C200081E090E00F90DF91CF910895803E21E018
:101C300092079CF4BC01990F880B990B0E945730B6
:101C400020E030E040EF53E40E94AD2F20E030E090
:101C500040E054E40E9407311FC0803222E0920726
:101C600004F1BC016F517240072E000C880B990BD8
:101C70000E94573020E030E040E054E40E940731F9
:101C800020E030E040EF53E40E94AD2F20E030E050
:101C900040E054E40E943C2F0E941F3077FF03C0B5
:101CA00009C060E072E0CB01611574402CF08FEF49
:101CB00093E0089580E090E008950C94CA2E1F935D
:101CC000CF93DF9300D01F92CDB7DEB740E06FEF28
:101CD0008EE60E94AA1B8093B90240E06FEF8AE66D
:101CE0000E94AA1B1092A7028093A80240E06FEF07
:101CF00089E60E94AA1B2091A7023091A802282BF6
:101D00003093A8022093A7020E945D03E0919E03F6
:101D1000F0919F0382E08083E0919A03F0919B030E
:101D20001082E0919C03F0919D038FE380831092D9
:101D3000A603E091A203F091A30386E08083E091E3
:101D4000A003F091A103808180618083E091A003D2
:101D5000F091A103808188608083E091A003F091DD
:101D6000A103808180688083E091A003F091A103AA
:101D700080818F7D80838EE893E00E947C17109293
:101D8000710110922502109270011092720140E0D0
:101D90006FE085E60E94AA1B80932B024FEF6FE055
:101DA00084E60E94AA1B80932A0249E16FEF88E62D
:101DB0000E94AA1B8093290240E061E08DE60E9408
:101DC000AA1B809328020E94B20761E08DE00E9466
:101DD000D818109208021092090210920A0210926A
:101DE0000B021092070210929C0210929E0281E058
:101DF0008093A6021092A0021092A1021092A20259
:101E00001092A302109298021092990210929A02D4
:101E100010929B021092CD021092CE021092CF022D
:101E20001092D0021092A502F8941092AA02109279
:101E3000A9021092630110926C0110925501109248
:101E40006D01109256011092570110925801109294
:101E5000590110928501109286011092870110920B
:101E6000880110925D0110925E0110925F01109244
:101E7000600140E061E086E60E94AA1B882349F0E9
:101E80008091A9029091AA0281609093AA02809306
:101E9000A90240E061E087E60E94AA1B882349F07E
:101EA0008091A9029091AA0282609093AA028093E5
:101EB000A90286E090E090934A028093490288E765
:101EC00090E090932202809321028BEA9AEAA6EA9C
:101ED000B1E480931D0290931E02A0931F02B09361
:101EE00020020E94E00862E082E00E94D81862E0CE
:101EF00083E00E94D81862E084E00E94D8188DED3B
:101F000098E09093010180930001809169008360C3
:101F100080936900E89A8AED98E09093030180939A
:101F20000201809169008C6080936900E99A1092A7
:101F3000540110925B01109252011092C50210924E
:101F4000C6021092C7021092C8021092620110924B
:101F5000610110925C011092530110925A0180911C
:101F6000B902823049F561E082E10E94D81860E050
:101F70008EE00E94D81862E083E10E94D8186AE0DF
:101F800070E080E090E00E94141935990EC08FEF48
:101F900080935B018091680082608093680010925A
:101FA0006C0080916C00816003C080916C008E7F1A
:101FB00080936C0082E107C0833039F461E08BE0EC
:101FC0000E94D8188BE080935301789461E085E0FB
:101FD0000E94D81861E087E00E94D81860E08AE08B
:101FE0000E94D81860E086E00E94D81861E08FE077
:101FF0000E94D81862E08CE00E94D81861E088E066
:102000000E94D81861E081E10E94D81861E080E167
:102010000E94D81861E089E00E94D81880E090E022
:10202000FC01EB5CFD4F1082019680319105C1F7F8
:102030008FEF8093A4028093CC0280939F02109232
:10204000CB029FE09093CA021092C902109219022B
:1020500010921A0210921B0210921C02109215028A
:10206000109216021092170210921802109211028A
:1020700010921202109213021092140210920D028A
:1020800010920E0210920F021092100210929D02F6
:1020900010920C022CED35E03093960220939502BD
:1020A0008093340289E18093460284E08093450264
:1020B0001092B00083E08093B10081E080937000C3
:1020C0001092B20078940E945D038CE00E947F1809
:1020D000892B09F05FC0809145028093350280937F
:1020E00036028093370280933802809339029091B0
:1020F000340290933A0290933B0280933C02809387
:102100003D0280933E0280933F0280934002809381
:1021100041028093420280934302809344028CE008
:102120000E947F18892BD9F380919F02883009F48F
:10213000D7C040E06FEF83E60E94AA1B843209F00B
:10214000CFC08091A40287FF22C18091A4028F3F5B
:1021500009F140E060E170E080E090E00E94580CFE
:102160004091460265E070E080E090E00E94580CEB
:102170008091B9024091340261E070E090E00E94E9
:10218000580C68EE73E080E090E00E941419E0E0E3
:10219000F0E009958091B902813081F462E08BE032
:1021A0000E94D81860E083E10E94D81860E082E1C4
:1021B0000E94D81860E08EE00E94D8188FEF9FEF41
:1021C00090933C0480933B0490933A0480933904A9
:1021D00090933804809337041092B80210926F01E4
:1021E00010926E011092B0021092B1021092B202DF
:1021F0001092B3021092AC021092AD021092AE0295
:102200001092AF021092B4021092B5021092B60270
:102210001092B70210928901809347028091B9020F
:10222000833009F055C01092F2021092F102109220
:102230006B0310928D031092690311E010936803F1
:102240001092430361E082E10E94A81861E083E1FB
:102250000E94A8188091B9008E7F8093B900809168
:10226000B9008D7F8093B90088E48093B80085E43D
:102270008093BC0010936A0380E680938C031092D5
:102280006B0310928D0389E990E00E94481B0E9425
:102290004D1B61E08EE00E94D81860E08EE00E9445
:1022A000A81819821A821B8243E050E0BE016F5FBA
:1022B0007F4F87EF9FE10E949C02882349F089812C
:1022C000823131F48A8180936F018B8180936E011A
:1022D0008091290287FF72C081E00E94090C6EC0C4
:1022E00010922B028FEF80932A0289E180932902BA
:1022F0001092AA021092A9028AE190E09093A8029B
:102300008093A70280E090E29093240280932302BE
:1023100060E085E690E00E945D0E60912A0284E60E
:1023200090E00E945D0E69E188E690E00E945D0EFB
:1023300060E08DE690E00E945D0E60E086E690E051
:102340000E945D0E60E087E690E00E945D0E60E016
:102350008EE690E00E945D0E0E94AA030E9429086A
:1023600064E283E690E00E945D0E4091340260E1F9
:1023700070E080E090E00E94580C68EE73E080E02E
:1023800090E00E941419E0E0F0E00995DACE809127
:10239000A40285300CF0D9CE6091A4026093B902FA
:1023A0008091A7029091A80299279093A802809308
:1023B000A7028EE690E00E945D0EC7CE0F900F90B0
:1023C0000F90DF91CF911F910895CF92DF92EF92FE
:1023D000FF92CF93C62F482F082E000C550B660B8B
:1023E000770B4031510508F0F5C0FA01EB58FF4F6B
:1023F0000C9494318091A9029091AA0221E0822745
:102400009093AA028093A9028091A9029091AA02B6
:1024100080FD11C08091A9029091AA0280689093DA
:10242000AA028093A9021092C5021092C6021092CD
:10243000C7021092C8026091A9027091AA0261704D
:10244000772786E690E048C08091A9029091AA0281
:1024500081FF13C08091A9029091AA02806190939C
:10246000AA028093A9028091A9029091AA028D7F6D
:102470009093AA028093A90226C08091A90290910C
:10248000AA0288609093AA028093A9028091A9026F
:102490009091AA0280649093AA028093A9028091ED
:1024A000A9029091AA0288609093AA028093A9023F
:1024B0008091A9029091AA0282609093AA028093CF
:1024C000A9020E94E0086091A9027091AA02769583
:1024D0006795617087E690E00E945D0E7EC064E1C2
:1024E0008602C001112473C08091A9029091AA02B2
:1024F00080FF08C010926D018091A9029091AA02FC
:10250000806154C00E944E196B017C018091CD0204
:102510009091CE02A091CF02B091D0028C159D0572
:10252000AE05BF05B0F4A7019601281B390B4A0B75
:102530005B0B283E73E037074105510550F460E618
:102540007AEE80E090E00E940A2FC9010E943508CF
:10255000C1E0C092CD02D092CE02E092CF02F092C2
:10256000D00238C08091A9029091AA0280FF04C0D5
:1025700084E00E9411092EC08091210290912202D4
:10258000459744F1809121029091220201971FC04A
:102590008091A9029091AA0280FF0DC084E08093EF
:1025A0006D018091A9029091AA0280629093AA0283
:1025B0008093A9020FC080912102909122028C3257
:1025C000914044F4809121029091220201960E9450
:1025D000350803C0CC2309F4AFC340E060E170E0EC
:1025E00080E090E00E94580C2091A9023091AA024C
:1025F000909134028091460220FF11C090933502E1
:102600002091A9023091AA0221FF982F90933602BF
:102610008093420280934302809344028DC3282F0B
:10262000809335024091A9025091AA0241FF02C055
:10263000392F01C0382F309336024091210250913A
:102640002202493251050CF459C060912102709167
:1026500022024CE350E0FA01E61BF70B1E161F06A0
:1026600054F46091210270912202461B570B4530B1
:10267000510544F009C04091210250912202413499
:10268000510514F4392F40C060912102709122024B
:102690004CE350E0FA01E61BF70B1E161F0654F43C
:1026A0006091210270912202461B570B4C3051055C
:1026B00044F107C040912102509122024834510553
:1026C00004F160912102709122024CE350E0FA0182
:1026D000E61BF70B1E161F0654F460912102709141
:1026E0002202461B570B4431510544F00CC0409167
:1026F000210250912202403551052CF430914502BF
:1027000003C0382F01C030E03093380260912102BD
:102710007091220240E550E0FA01E61BF70B1E160D
:102720001F0654F46091210270912202461B570B40
:102730004530510544F009C04091210250912202D8
:102740004535510514F4392F40C060912102709134
:10275000220240E550E0FA01E61BF70B1E161F06A9
:1027600054F46091210270912202461B570B4C30A9
:10277000510544F107C040912102509122024C358D
:10278000510504F1609121027091220240E550E070
:10279000FA01E61BF70B1E161F0654F46091210286
:1027A00070912202461B570B4431510544F00CC076
:1027B0004091210250912202443651052CF430916F
:1027C000450203C0382F01C030E0309339026091D8
:1027D00021027091220244E650E0FA01E61BF70B59
:1027E0001E161F0654F46091210270912202461BAE
:1027F000570B4530510544F009C0409121025091DA
:1028000022024936510514F4392F40C0609121024B
:102810007091220244E650E0FA01E61BF70B1E1607
:102820001F0654F46091210270912202461B570B3F
:102830004C30510544F107C04091210250912202D1
:102840004037510504F1609121027091220244E663
:1028500050E0FA01E61BF70B1E161F0654F46091B8
:10286000210270912202461B570B4431510544F05E
:102870000CC04091210250912202483751052CF49E
:102880003091450203C0382F01C030E030933A0246
:10289000609121027091220248E750E0FA01E61BA4
:1028A000F70B1E161F0654F460912102709122024C
:1028B000461B570B4530510544F009C04091210299
:1028C000509122024D37510514F4392F40C06091C8
:1028D00021027091220248E750E0FA01E61BF70B53
:1028E0001E161F0654F46091210270912202461BAD
:1028F000570B4C30510544F107C0409121025091D3
:1029000022024438510504F16091210270912202A3
:1029100048E750E0FA01E61BF70B1E161F0654F4B9
:102920006091210270912202461B570B44315105E0
:1029300044F00CC040912102509122024C385105C4
:102940002CF43091450203C0382F01C030E03093A1
:102950003B0260912102709122024CE850E0FA01A2
:10296000E61BF70B1E161F0654F4609121027091AE
:102970002202461B570B4530510544F009C04091D7
:102980002102509122024139510514F4392F40C0DF
:1029900060912102709122024CE850E0FA01E61B9E
:1029A000F70B1E161F0654F460912102709122024B
:1029B000461B570B4C30510544F107C04091210292
:1029C000509122024839510504F160912102709121
:1029D00022024CE850E0FA01E61BF70B1E161F0618
:1029E00054F46091210270912202461B570B44312E
:1029F000510544F00CC04091210250912202403A0E
:102A000051052CF43091450203C0382F01C030E04D
:102A100030933C02609121027091220240EA50E022
:102A2000FA01E61BF70B1E161F0654F460912102F3
:102A300070912202461B570B4530510544F009C0E6
:102A40004091210250912202453A510514F4392F48
:102A500040C0609121027091220240EA50E0FA01E8
:102A6000E61BF70B1E161F0654F4609121027091AD
:102A70002202461B570B4C30510544F107C04091D0
:102A80002102509122024C3A510504F16091210239
:102A90007091220240EA50E0FA01E61BF70B1E1685
:102AA0001F0654F46091210270912202461B570BBD
:102AB0004431510544F00CC0409121025091220252
:102AC000443B51052CF43091450203C0382F01C01E
:102AD00030E030933D02609121027091220244EB7C
:102AE00050E0FA01E61BF70B1E161F0654F4609126
:102AF000210270912202461B570B4530510544F0CC
:102B000009C04091210250912202493B510514F421
:102B1000392F40C0609121027091220244EB50E0B5
:102B2000FA01E61BF70B1E161F0654F460912102F2
:102B300070912202461B570B4C30510544F107C0DF
:102B40004091210250912202403C510504F16091D4
:102B500021027091220244EB50E0FA01E61BF70BD0
:102B60001E161F0654F46091210270912202461B2A
:102B7000570B4431510544F00CC040912102509153
:102B80002202483C51052CF43091450203C0382FF5
:102B900001C030E030933E02609121027091220228
:102BA00048EC50E0FA01E61BF70B1E161F0654F422
:102BB0006091210270912202461B570B453051054E
:102BC00044F009C040912102509122024D3C510530
:102BD00014F4892F3EC0609121027091220248ECCA
:102BE00050E0FA01E61BF70B1E161F0654F4609125
:102BF000210270912202461B570B4C3051054CF1BB
:102C000007C04091210250912202443D51050CF130
:102C1000609121027091220248EC50E0FA01E61B1B
:102C2000F70B1E161F0654F46091210270912202C8
:102C3000461B570B4431510544F00AC04091210214
:102C4000509122024C3D51051CF48091450201C077
:102C500080E080933F024091210250912202403F48
:102C600051052CF080914502809340025FC0609135
:102C70002102709122024CED50E0FA01E61BF70BA5
:102C80001E161F0654F46091210270912202461B09
:102C9000570B4530510544F009C040912102509135
:102CA0002202413E510514F4292F3EC060912102B9
:102CB000709122024CED50E0FA01E61BF70B1E1654
:102CC0001F0654F46091210270912202461B570B9B
:102CD0004C3051054CF107C0409121025091220225
:102CE000483E51050CF140912102509122022CEDF9
:102CF00030E0B901641B750B1616170654F44091A9
:102D0000210250912202241B350B2431310544F05D
:102D10000AC02091210230912202203F31051CF48B
:102D20002091450201C020E020934002909342028E
:102D30009093430290934402CF91FF90EF90DF90E5
:102D4000CF900895CF92DF92EF92FF920F931F934F
:102D5000CF93DF936C017A018B01C0E0D0E0CE15F8
:102D6000DF0589F0D8016D918D01D601ED91FC91BF
:102D70000190F081E02DC6010995892B11F47E01A7
:102D800002C02196ECCFC701DF91CF911F910F9127
:102D9000FF90EF90DF90CF900895FC01538D448D0C
:102DA000252F30E0842F90E0821B930B541710F0F6
:102DB000CF96089501970895FC01918D828D981703
:102DC00061F0828DDF01A80FB11D5D968C91928D0F
:102DD0009F5F9F73928F90E008958FEF9FEF08950C
:102DE000FC01918D828D981731F0828DE80FF11DD5
:102DF000858D90E008958FEF9FEF0895FC01918DF0
:102E0000228D892F90E0805C9F4F821B91098F73E8
:102E1000992708958EE893E00E94FE1621E0892B01
:102E200009F420E0822F0895FC01848DDF01A80FB2
:102E3000B11DA35ABF4F2C91848D90E001968F73E2
:102E40009927848FA689B7892C93A089B1898C9101
:102E500080648C93938D848D981306C00288F389C7
:102E6000E02D80818F7D80830895EF92FF920F93F4
:102E70001F93CF93DF93EC0181E0888F9B8D8C8D26
:102E8000981305C0E889F989808185FD24C0F62E54
:102E90000B8D10E00F5F1F4F0F731127E02E8C8DED
:102EA000E8120CC00FB607FCFACFE889F9898081D7
:102EB00085FFF5CFCE010E941417F1CF8B8DFE0157
:102EC000E80FF11DE35AFF4FF0820B8FEA89FB896F
:102ED0008081806207C0EE89FF896083E889F98973
:102EE00080818064808381E090E0DF91CF911F91A9
:102EF0000F91FF90EF900895CF93DF93EC01888DB1
:102F00008823C9F0EA89FB89808185FD05C0A889ED
:102F1000B9898C9186FD0FC00FB607FCF5CF808173
:102F200085FFF2CFA889B9898C9185FFEDCFCE01BD
:102F30000E941417E7CFDF91CF91089580E090E0D1
:102F4000892B29F00E940A1781110C940000089522
:102F5000833081F028F4813099F08230A1F0089517
:102F60008730A9F08830B9F08430D1F480918000A6
:102F70008F7D03C0809180008F77809380000895BB
:102F800084B58F7702C084B58F7D84BD089580910C
:102F9000B0008F7703C08091B0008F7D8093B00028
:102FA00008953FB7F89480913F0390914003A0911A
:102FB0004103B091420326B5A89B05C02F3F19F0ED
:102FC0000196A11DB11D3FBFBA2FA92F982F8827A9
:102FD000820F911DA11DB11DBC01CD0142E0660F04
:102FE000771F881F991F4A95D1F70895089585ED99
:102FF0008093BC008091BC0084FDFCCF10926903DB
:1030000008950895E091F2028091F102E81730F4FA
:10301000F0E0EF52FD4F808190E008958FEF9FEF39
:1030200008959091F2028091F102981750F4E92FDF
:10303000F0E0EF52FD4F208130E09F5F9093F2026D
:1030400002C02FEF3FEFC90108950E94AE311F92D9
:103050000F920FB60F9211242F933F934F935F93CC
:103060006F937F938F939F93AF93BF93EF93FF9350
:103070008EE893E00E941417FF91EF91BF91AF91FA
:103080009F918F917F916F915F914F913F912F9180
:103090000F900FBE0F901F9018951F920F920FB6B2
:1030A0000F9211242F938F939F93EF93FF93E091AF
:1030B0009E03F0919F038081E091A403F091A5030A
:1030C00082FD12C090818091A7038F5F8F73209142
:1030D000A803821751F0E091A703F0E0E257FC4FFC
:1030E000958F8093A70301C08081FF91EF919F91FD
:1030F0008F912F910F900FBE0F901F901895CF9327
:10310000DF93282F30E0F901E05BFE4F8491F90155
:10311000E45CFE4FD491F901E85DFE4FC491CC23ED
:1031200091F081110E94A817EC2FF0E0EE0FFF1F25
:10313000E25EFE4FA591B491EC91ED2381E090E029
:1031400021F480E002C080E090E0DF91CF9108950B
:103150001F93CF93DF93282F30E0F901E05BFE4F00
:103160008491F901E45CFE4FD491F901E85DFE4FD2
:10317000C491CC23C9F0162F81110E94A817EC2FFF
:10318000F0E0EE0FFF1FEC5EFE4FA591B4918FB7FC
:10319000F894111105C09C91ED2FE095E92302C030
:1031A000EC91ED2BEC938FBFDF91CF911F910895A0
:1031B000CF93DF9390E0FC01E45CFE4F2491FC018F
:1031C000E85DFE4F8491882361F190E0880F991F9C
:1031D000FC01E65FFE4FC591D491FC01EC5EFE4F11
:1031E000A591B491611109C09FB7F8948881209589
:1031F00082238883EC912E230BC0623061F49FB749
:10320000F8943881822F809583238883EC912E2B2C
:103210002C939FBF06C08FB7F894E8812E2B28838C
:103220008FBFDF91CF9108958F929F92AF92BF92FF
:10323000CF92DF92EF92FF926B017C010E94D11737
:103240004B015C01C114D104E104F104F1F00E94CE
:10325000D117DC01CB0188199909AA09BB09883E5D
:103260009340A105B10570F321E0C21AD108E1082D
:10327000F10888EE880E83E0981EA11CB11CC114D1
:10328000D104E104F10419F7DDCFFF90EF90DF9056
:10329000CF90BF90AF909F908F9008952FB7F894E4
:1032A00060913B0370913C0380913D0390913E03FC
:1032B0002FBF08951F920F920FB60F9211242F93D4
:1032C0003F938F939F93AF93BF9380913B039091D4
:1032D0003C03A0913D03B0913E0330913A0323E0BB
:1032E000230F2D3720F40196A11DB11D05C026E83E
:1032F000230F0296A11DB11D20933A0380933B0337
:1033000090933C03A0933D03B0933E0380913F0311
:1033100090914003A0914103B09142030196A11DF9
:10332000B11D80933F0390934003A0934103B0935A
:103330004203BF91AF919F918F913F912F910F9039
:103340000FBE0F901F9018951F920F920FB60F92FD
:1033500011242F933F934F935F936F937F938F939A
:103360009F93AF93BF93EF93FF93E0910201F0918E
:1033700003010995FF91EF91BF91AF919F918F91BB
:103380007F916F915F914F913F912F910F900FBE61
:103390000F901F9018951F920F920FB60F92112445
:1033A0002F933F934F935F936F937F938F939F934D
:1033B000AF93BF93EF93FF93E0910001F091010170
:1033C0000995FF91EF91BF91AF919F918F917F915F
:1033D0006F915F914F913F912F910F900FBE0F9082
:1033E0001F9018951F920F920FB60F9211242F93D2
:1033F0003F934F935F936F937F938F939F93AF937D
:10340000BF93EF93FF938091B900887F803609F4D2
:103410009CC068F5883209F45BC090F4803109F4EF
:1034200054C038F4882309F4F6C0883009F44DC03C
:10343000F6C0883109F44CC0803209F45DC0EFC099
:10344000803409F468C048F4803309F455C08833E7
:1034500009F0E5C080936703D8C0803509F44FC0F8
:10346000883509F45DC0883409F0D9C0D6C08839E0
:1034700009F4C7C0A8F4883709F467C038F488365F
:1034800009F463C0803709F460C0C9C0883809F402
:10349000B8C0803909F45FC0803809F0C0C05BC093
:1034A000803B09F486C038F4803A09F466C0883A53
:1034B00009F47FC0B4C0803C09F4A7C0883C09F47B
:1034C000A4C0883B09F48AC0AAC08091440310C0FC
:1034D0009091660380916503981770F5E0916603FB
:1034E00081E08E0F80936603F0E0EB5BFC4F808100
:1034F0008093BB0085EC86C0809367038EC0E0910B
:10350000660381E08E0F809366038091BB00F0E03C
:10351000EB5BFC4F808390916603809165036EC0E6
:10352000E091660381E08E0F809366038091BB007B
:10353000F0E0EB5BFC4F80838091680381116DC0EC
:1035400081E08093430384EA61C083E08093690350
:1035500010923903CFCF80913903803208F051C0E7
:10356000E091390381E08E0F809339038091BB0095
:10357000F0E0E75EFC4F8083BDCF85EC8093BC001C
:103580001092690380913903803230F4E09139035D
:10359000F0E0E75EFC4F10826091390370E0E0914B
:1035A0001703F091180389E193E00995109239030C
:1035B00036C084E0809369031092160310921503BD
:1035C000E0911303F0911403099580911503811183
:1035D00005C081E0809315031092F302E091160379
:1035E00081E08E0F80931603F0E0ED50FD4F808157
:1035F0008093BB009091160380911503981708F4EF
:1036000079CF85E88093BC000AC085EC8093BC002C
:103610001092690304C0109267030E94F717FF918C
:10362000EF91BF91AF919F918F917F916F915F913A
:103630004F913F912F910F900FBE0F901F901895B3
:1036400040911503262F30E0240F311D2132310522
:10365000DCF4209169032430C9F4FC0180E090E09F
:10366000861758F4309115032191DC01AD50BD4F00
:10367000A30FB11D2C930196F3CF80911503680F12
:103680006093150380E0089581E0089582E0089535
:10369000682F8BE294E00C94E70D20918D039091BC
:1036A0008C03213208F04AC0809169038111FCCF5C
:1036B00032E03093690331E0309368033FEF309399
:1036C00067031092660320936503ACE6B3E045E41C
:1036D00053E0FA013E2F341B321718F43D91319319
:1036E000F9CF1092440320914403990F922B9093A9
:1036F000440390914303913061F4109243039091FD
:1037000044039093BB009091BC0093FDF8CF95ECDF
:1037100001C095EE9093BC00909169039230E1F363
:10372000909167039F3F79F080916703803241F069
:1037300080916703803331F084E005C081E003C0ED
:1037400082E001C083E010926B0310928D0310920F
:103750006A030895FF920F931F93CF93DF931F92F5
:10376000CDB7DEB7F42E082F10E0C80169830E94A0
:10377000C22E69818F1541F0681728F46F2DC8019A
:103780000E945D0E01C0F82E8F2D0F90DF91CF911A
:103790001F910F91FF900895CF93DF93CDB7DEB7C0
:1037A0006B970FB6F894DEBF0FBECDBF789484B58B
:1037B000826084BD84B5816084BD85B5826085BD2D
:1037C00085B5816085BD80916E00816080936E00BB
:1037D00010928100809181008260809381008091AD
:1037E000810081608093810080918000816080935E
:1037F00080008091B10084608093B1008091B0001E
:1038000081608093B00080917A00846080937A0018
:1038100080917A00826080937A0080917A00816042
:1038200080937A0080917A00806880937A00109269
:10383000C1000E945F0E0E944E194B015C014C9B1F
:1038400007C08091A9029091AA0290FF6DC406C0A2
:103850008091A9029091AA0290FD71C48091A90261
:103860009091AA0280FD91C08091610190916201C6
:10387000892B09F472C06091610170916201072E79
:10388000000C880B990B0E9457306B017C01009152
:10389000A7021091A80217FD03C066E070E002C005
:1038A0006CE070E0072E000C880B990B0E945730DB
:1038B0009B01AC01C701B6010E94AD2F60931D02B0
:1038C00070931E0280931F029093200220E030E04C
:1038D00040EC51E40E9407319B01AC0160E070E6CE
:1038E0008AE697E40E94AD2F0E941F3020912102AA
:1038F000309122022617370749F070932202609315
:1039000021028091A60281608093A602109262013A
:1039100010926101C501B4010E94553060935D01B0
:1039200070935E0180935F019093600180915C01D0
:1039300091E0980F90935C0190E017FD03C026E0A2
:1039400030E002C02CE030E08217930724F481E0DD
:103950000E941E09EBCF10925C0180915B018F3FAA
:1039600009F0FAC380915C0190E02091A7023091A8
:10397000A80237FD03C026E030E002C02CE030E0B2
:10398000821793070CF4E8C373C080915A0188230F
:1039900009F46EC080915A01815080935A010E94AF
:1039A0004E19009156011091570120915801309104
:1039B0005901012B022B032BB1F0009156011091FC
:1039C000570120915801309159016B017C01C01AB7
:1039D000D10AE20AF30AC0928501D0928601E092F0
:1039E0008701F0928801609356017093570180938C
:1039F0005801909359018091A9029091AA0287FFE2
:103A000009C0109203021092040210920502109253
:103A1000060213C08091030290910402A091050256
:103A2000B09106020196A11DB11D809303029093EF
:103A30000402A0930502B09306028091A90290911E
:103A4000AA0298609093AA028093A9028091A90289
:103A50009091AA028F779093AA028093A9028091F5
:103A6000A9029091AA0284609093AA028093A9026D
:103A70008091A9029091AA028F7B9093AA028093D1
:103A8000A9028091A9029091AA0281FF30C0809181
:103A9000A9029091AA0284FF08C06CEF8EE893E01F
:103AA0000E9435171092550113C08091A902909180
:103AB000AA0283FF02C06AEF07C08091A902909119
:103AC000AA0285FF05C06BEF8EE893E00E943517D0
:103AD000809155011816C4F480915501815080934E
:103AE000550168EF8EE893E00E9435170DC0809174
:103AF000A9029091AA0284FF05C06CEF8EE893E0C2
:103B00000E943517109255018091A9029091AA0246
:103B1000877C9093AA028093A90280915B018F3FDA
:103B200009F451C0811130C080915401082E000C5D
:103B3000990B0091A7021091A80217FD03C026E07F
:103B400030E002C02CE030E082179307E4F180916E
:103B50005301882329F016FD03C061E00E94A818D4
:103B600017FD03C026E030E002C02CE030E0809179
:103B70005401082E000C990B821B930B8093540167
:103B800081E080935B011FC0909152019815D9F09C
:103B9000809252018F5F843118F480935B0102C0E0
:103BA00010925B0180915B018A3069F4809153012E
:103BB000882349F02091A7023091A80236FD03C066
:103BC00060E00E94A8188091A9029091AA0282FF49
:103BD0001AC061E080E10E94A818D501C4010596D1
:103BE000A11DB11D8093110290931202A0931302A4
:103BF000B09314028091A9029091AA028B7F9093B6
:103C0000AA028093A9029E012F5F3F4F290180E104
:103C1000D9011D928A95E9F713E090916C0180918A
:103C200063019817D1F08091A9029091AA0280FFB8
:103C30000DC08091290284FD05C308C08B3F08F0A8
:103C40000EC3883F19F483E00E941E0980916C0125
:103C50008F5F877080936C01E0CF80919D0283FF1E
:103C600007C0C0902402C094CC1CCC24CC1C01C042
:103C7000C12CA50194012C5E3F4F4F4F5F4F2C8B01
:103C80003D8B4E8B5F8B72E0672E22242394E2E102
:103C90003E2E8EE893E00E94FE16892B09F4FDC2A9
:103CA0008EE893E00E94DC169C01207F3327203FA2
:103CB000310509F050C099278A3F9105D1F024F4CD
:103CC000883F910541F0E5CF8B3F910501F18C3F95
:103CD000910579F1DECF8091A9029091AA0280FF2F
:103CE000D8CF8091290283FFD4CF82E00E941E09A1
:103CF000D0CF8091A9029091AA0280FFCACF809173
:103D0000290283FFC6CF82E00E941109C2CF8091B1
:103D1000A9029091AA0280FFBCCF8091290283FF63
:103D2000B8CF60926D018091A9029091AA02806241
:103D3000AFC28091A9029091AA0280FFAACF809180
:103D4000290283FFA6CF10926D018091A902909164
:103D5000AA0280619DC287FF10C0109272018093F9
:103D60007101203C310519F0203D310519F42092F4
:103D700070018FCF609270018CCF3091710133232D
:103D800009F487CFE091720191E09E0F9093720148
:103D90000E2E000CFF0BE654FD4F80832091700126
:103DA000892F990F990B422F50E0841795070CF437
:103DB00070CF1092720161E088E02A8F3B8F0E94E1
:103DC000A8184C895D896E897F89409319025093A8
:103DD0001A0260931B0270931C0280912A022A8DA2
:103DE0003B8D8F3F21F0932F9F709813A9C0932F85
:103DF000907F80912902903929F0903BD1F0903842
:103E000009F079C081FD02C0CC2059F08501740110
:103E10004091BB026091BA02832F988F0E94260ABC
:103E2000988DD090BA027090BB02903909F027C1EA
:103E300091C085FF05C08091BA02883708F029CF6C
:103E40008091B902833009F056C02091A7023091C9
:103E5000A80230FF50C08091BA02873481F050F43C
:103E6000863409F048C08091BB028F7780548093DC
:103E70006F0141C0883451F0893489F03CC0809191
:103E8000BB028F77805480936E0135C06091BB0276
:103E900070E080E090E040E00E9401012CC03E7F95
:103EA0003093A8022093A702398A80916F018A8BF0
:103EB00080916E018B8B43E050E0BE016F5E7F4FBF
:103EC00087EF9FE10E943C02882399F040913402E1
:103ED00060E170E080E090E00E94580C68EE73E0D2
:103EE00080E090E00E9414198091A6028160809386
:103EF000A6020E94AA03D0902902D2FC04C080919D
:103F00009D0283FF0CC085017401209170014091D6
:103F1000BB026091BA02809171010E94260AD0FE14
:103F2000B8CE80917101807F90912B028501740140
:103F3000209170014091BB026091BA02892B07C0A9
:103F4000850174014091BB026091BA02832F0E94E7
:103F5000260A9FCE772009F495C0DD2009F492C08F
:103F600090919D0293FF19C08091230290912402A9
:103F700097FF8FCE809131028F3F09F48ACED81AF5
:103F8000D09253028091AB0281608093AB0280910A
:103F9000A60281608093A6027CCE60916F02709130
:103FA0007002E7E5F2E000E010E08FEF20E030E0A3
:103FB000AD2DB0E0261737078CF4419151917A016D
:103FC000E894E7F8FF24EA16FB0609F4822F57FF6E
:103FD00002C00F5F1F4F2F5F3F4FECCF10932702A0
:103FE0000093260287FD16C00115110599F0880F70
:103FF000990BFC01E85BFD4F8785908997FD49CEC1
:104000009068908B87870F5F1F4F10932702009354
:1040100026023FCE0115110591F410927002109204
:104020006F0292FF0AC08091A9029091AA02806853
:104030009093AA028093A90202C00E94E0082091F6
:104040006F02309170022B3031050CF022CEF90155
:10405000EE0FFF1FE85BFD4F8D2D90E090689729D4
:10406000908B87872F5F3F4F3093700220936F02B2
:104070000F5F1F4F10932702009326024FC0903806
:1040800009F007CE20916F0230917002E8E4F2E06F
:10409000A0E0B0E0FF24FA9460E070E08D2D90E0A5
:1040A000621773079CF4478550898A010F7711279F
:1040B0000817190729F45F77508B4787F62E02C03F
:1040C00057FD11966F5F7F4F3296EACFB09327026C
:1040D000A093260280919D0282FDDBCDF7FCD9CD15
:1040E0008F2DFF0C990BBC01660F771F40E050E04D
:1040F000215031094E5F5F4F821793075CF40196A0
:10410000FA01E60FF71FE85BFD4FA785B089B68778
:10411000A587F0CF3093700220936F028091AB029D
:1041200081608093AB02B5CD8091A9029091AA02E3
:1041300091609093AA028093A9028BEF0AC08091AC
:10414000A9029091AA029E7F9093AA028093A9024D
:104150008CEF0E94C90882CB8091A9029091AA029B
:1041600086FF15C020911D0230911E0240911F0252
:1041700050912002C501B4012A8F3B8F488F598F7F
:104180000E9455302A8D3B8D488D598D50C04090EE
:104190005D0150905E0160905F0170906001C5010B
:1041A000B4010E9455306B017C019B01AC01C3013D
:1041B000B2010E94A82F87FF5BCC80915C018F5FCA
:1041C00080935C0181E00E941E0920911D023091C4
:1041D0001E0240911F025091200260915D0170917A
:1041E0005E0180915F01909160010E943C2F60937D
:1041F0005D0170935E0180935F0190936001609117
:104200005D0170915E0180915F0190916001A70155
:1042100096010E94A82F87FF2BCC20911D02309180
:104220001E0240911F0250912002C701B6010E9458
:104230003C2F60935D0170935E0180935F019093CA
:10424000600116CCE0916C01F0E0EC59FE4F8081EA
:104250008A3F09F0F3CC83E00E941109F7CC8B3F31
:1042600041F410936D018091A9029091AA0280629D
:104270000AC08C3F09F0EACC10926D018091A9022E
:104280009091AA0280619093AA028093A902DECC49
:104290009093AA028093A902FCCC80919D0282FD9A
:1042A0000EC08091260290912702892B41F48091C3
:1042B0006F0290917002892B11F00E949F078091EC
:1042C000AB0280FF09C00E94B6038091AB028E7FD3
:1042D0008093AB02109225028091A9029091AA02CC
:1042E00093FFA6C18091320290913302892B09F489
:1042F0009FC120918102222309F49AC16091030297
:1043000070910402809105029091060230E040E035
:1043100050E00E940A2F60930202672B682B692BE2
:1043200001F5809192028823E1F0E0912E02F0E005
:10433000E85BFD4F82AD809353020E94B60310925A
:10434000250280912E028F5F80932E02909192021F
:10435000891710F010922E028091A602816080933E
:10436000A60260900202862D90E0BC01685B7D4F42
:104370003B01DB0199962C9120FD06C08091230220
:104380009091240295FF47C1C0903202D090330231
:1043900080912F02909130028C159D056CF0109247
:1043A000300210922F0280914B02843029F48091C8
:1043B000AB0281608093AB02221F2227221F220FB3
:1043C00030E0F301B996FD8BEC8B80912F02909138
:1043D0003002223051F0FC01EE0FFF1FE657FE4F76
:1043E0003180331C3324331C02C033243394AC8912
:1043F000BD892C9120FF82C0880F991FFC01E657D0
:10440000FE4F308181813F7725FF04C03D3010F0A1
:104410003C500BC024FF04C0343710F4345F05C097
:1044200026FF03C0353008F035509091AB0291FD66
:104430000FC023FF03C0209051020BC090914F0288
:10444000992319F02090500204C08F77282E01C0C4
:10445000212C8091B902833071F48091A702909150
:10446000A80296FF08C023FB662760F98BE03B8F0C
:104470000E94A8183B8D332309F440C08091290283
:1044800086FF15C080918301821589F03B8F0E94C1
:104490004E1950912B027B018C0122E0422D69E2E2
:1044A000852F806B0E94260A209283013B8D80918C
:1044B0002B028501740122E0422D632F80693B8F1E
:1044C0000E94260A3B8D832F877041E050E001C097
:1044D000440F8A95EAF7832F90E023E0959587951E
:1044E0002A95E1F7FC01ED58FE4F2081242B208313
:1044F000F201E80FF91F8081482B408380912F0241
:104500009091300201969093300280932F023110E7
:1045100003C0311107C051C021E08C159D050CF47A
:1045200054CFF7CFF30111A512FD03C016951170FA
:1045300001C012E08091B9028330E9F42091890131
:10454000632F70E080E090E0222321F041E00E94A0
:1045500001010DC040E00E94010160E08EE00E9478
:10456000A81861E070E080E090E00E94141961E01A
:104570008EE00E94A818A201C501B4010E948D0B13
:10458000123061F41092BC021092BD021092BE0271
:104590001092BF0281E0809389013DC0113069F41F
:1045A0008091850190918601A0918701B091880149
:1045B000880D991DAA1DBB1D1BC0A0915202AA23E4
:1045C00001F1209185013091860140918701509140
:1045D0008801B0E00E94F72E26E930E040E050E08C
:1045E0000E940A2FD501C401820F931FA41FB51F7B
:1045F0008093BC029093BD02A093BE02B093BF0211
:1046000008C01092BC021092BD021092BE0210921D
:10461000BF021092890181E0809384018091A902F8
:104620009091AA02977F9093AA028093A90215C045
:104630008091BC029091BD02A091BE02B091BF02D8
:104640000097A105B10511F40C94BF2D88159905AB
:10465000AA05BB0510F40C94C72D80910802909117
:104660000902A0910A02B0910B0288159905AA05CA
:10467000BB05C8F410910702612F8DE00E94A818B5
:1046800081E0111180E080930702D501C4018C50B4
:104690009E4FAF4FBF4F8093080290930902A093A3
:1046A0000A02B0930B028091190290911A02A09114
:1046B0001B02B0911C020097A105B10589F0881575
:1046C0009905AA05BB0560F460E088E00E94A8187F
:1046D0001092190210921A0210921B0210921C02E0
:1046E0008091150290911602A0911702B0911802C4
:1046F0000097A105B10589F088159905AA05BB05A4
:1047000060F460E081E10E94A818109215021092F6
:1047100016021092170210921802809111029091C5
:104720001202A0911302B09114020097A105B105E5
:1047300089F088159905AA05BB0560F460E080E161
:104740000E94A818109211021092120210921302E5
:1047500010921402C0900D02D0900E02E0900F0251
:10476000F0901002D701C6018C599F4FAF4FBF4F39
:1047700088169906AA06BB0608F43FC08CE00E9482
:104780007F1820919D02892BF1F420FD04C0216047
:1047900020939D022AC0822F827179F58091950223
:1047A00090919602B701A601480F591F611D711D16
:1047B000481559056A057B0500F52A6020939D027E
:1047C00010920C021AC020FF18C0822F827141F48F
:1047D00023FF02C0277F02C084E0282720939D0288
:1047E00080919D028C7E80939D0280920D0290921A
:1047F0000E02A0920F02B0921002F0909D02F3FE02
:1048000006C060910C02661F6627661F03C0F2FA9D
:10481000662760F989E00E94A8189091A602592F96
:104820005170652E692F6E7F6093A602782C082D3B
:10483000007F8091A502807F801719F08092A502E9
:1048400001601091A4021F3F89F08FEF8093A402B2
:10485000A5019401205F384D4F4F5F4F2093A00278
:104860003093A1024093A2025093A30280919F0231
:104870008F3F49F480919E02833009F04EC084E05E
:1048800080939E024AC02FEF20939F022F2D23700A
:104890002130B1F42091B9022350223088F42F2D19
:1048A000206120939D02843031F0883031F08823DC
:1048B00031F080E005C081E403C082E401C080E4FF
:1048C00020919C0230E0482F082E000C550B421717
:1048D000530721F420919E02243079F480939C02A6
:1048E00081E080939E021092980210929902109299
:1048F0009A0210929B02662463947501640170E130
:10490000C70E77E2D71EE11CF11CC092A002D09224
:10491000A102E092A202F092A302809197028F3F3F
:1049200009F441C0862F82608093A602809198028C
:1049300090919902A0919A02B0919B020097A105D3
:10494000B10599F4809195029091960275016401E8
:10495000C80ED91EE11CF11CC0929802D092990297
:10496000E0929A02F0929B022AC088159905AA0546
:10497000BB0528F580919E02823020F482E080936E
:104980009E020EC083E080939E028FEF9FEFDC01BA
:104990008093980290939902A0939A02B0939B02FD
:1049A000662463940CC09C7F94609093A60210923E
:1049B00098021092990210929A0210929B02809192
:1049C000A0029091A102A091A202B091A30200972F
:1049D000A105B105B9F088169906AA06BB0690F0A4
:1049E0008091A70284FF04C010929C0210929E0244
:1049F0001092A0021092A1021092A2021092A302A1
:104A00006624639480919C02863009F4D6C390F4A6
:104A1000823009F45BC338F4882309F4AEC78130CF
:104A200009F476C1AAC790919E028430C1F008F4BF
:104A300052C5BAC18A3009F4FCC340F490919E0279
:104A4000883009F453C008F406C6DFC28B3009F47D
:104A500060C690EC980F933008F4DAC68EC7933096
:104A600070F1103100F52FE030E0211B310917FD06
:104A7000339581E090E002C0880F991F2A95E2F7F4
:104A80009C012F71232B79F02091A7023091A8026D
:104A9000822793279093A8028093A7020E94AA03DB
:104AA0000E945D0303C0662009F46BC76091A702F2
:104AB0007091A8028FE19FEF0E942C0C62C7103109
:104AC00020F41F5F1093810203C0662009F459C7C8
:104AD0000E94680C6091810270E04091450280E084
:104AE00090E00E94580CE091810292C3933008F448
:104AF00057C01F3041F50E944E1940E050E00E941F
:104B00008D0B86E090E090934A028093490288E7FB
:104B100090E090932202809321028BEA9AEAA6EA1F
:104B2000B1E480931D0290931E02A0931F02B093E4
:104B300020020E94E0080E94B20780919D02887EB8
:104B400080939D0221C01031F8F42FE030E0211B4A
:104B5000310917FD339581E090E002C0880F991F5D
:104B60002A95E2F79C012227307A232B69F02091C5
:104B7000230230912402822793279093240280936A
:104B800023020E94290803C0662009F4FAC6609136
:104B900023027091240280E090EA0E942C0C51C5FF
:104BA0001C30C1F05CF4173008F096C010934B0233
:104BB0008091AB0281608093AB0291C01E3009F4FA
:104BC0007AC00CF44FC01F3009F086C0E1E7F2E074
:104BD00081E07CC001E712E0D8018C9181708C9358
:104BE0008823C1F10E94B42E28E030E040E050E07C
:104BF0000E94D82E653071058105910509F174F484
:104C00006330710581059105B9F064307105810546
:104C1000910501F5D8018C91846019C06630710549
:104C20008105910589F0673071058105910591F441
:104C3000F801808182610DC0F8018081886009C01F
:104C4000F8018081826005C0D8018C9180618C93CD
:104C500001C080830F5F1F4FF2E001381F0709F08A
:104C6000BBCF3AC001E712E0FF24F39489E0E82EBD
:104C70000E94B42E25E030E040E050E00E94D82EA3
:104C800097FD10C0623071058105910544F06430D4
:104C900071058105910531F4F801E08205C0D80164
:104CA0001C9202C0D801FC920F5F1F4FB2E0013886
:104CB0001B07F1F611C0E1E7F2E0119222E0E138C2
:104CC000F207D9F780E18093810206C0819332E038
:104CD000E138F307D9F7F6CF662009F452C60E94EF
:104CE000680C10914602412F67E070E080E090E090
:104CF0000E94580CE0914B02F0E080913402EB5C92
:104D0000FD4F8083412F64E070E08CE090E0CFC4E1
:104D100080919E02833048F11C3040F4109354027D
:104D20008091AB0281608093AB0203C0662009F4DE
:104D300028C60E94680C409146026CE070E080E05A
:104D400090E00E94580C8091450280933602809337
:104D5000380280933B0280933D0280933F02E091B2
:104D600054020E2E000CFF0BCFC4173048F4135022
:104D700010934C028091AB0281608093AB0203C020
:104D8000662009F4FEC50E94680C4091450267E068
:104D900070E080E090E00E94580C80914602809381
:104DA0003802E0914C022BC5933008F413C117FD73
:104DB0007FC0812F110F990BAA0BBB0B803191057E
:104DC00008F070C0FC01EC5CFF4F0C9494318091B2
:104DD0005502909156028F6F9F6060C0809155027E
:104DE000909156028827907F856D9A6057C0809178
:104DF0005502909156028827907F86659B604EC031
:104E000080915502909156028827907F8A659D6017
:104E100045C080915502909156028827907F856BFE
:104E20009A603CC080915502909156028827907FED
:104E3000866D9A6033C08091550290915602882702
:104E4000907F8A659B602AC080915502909156029E
:104E50008827907F8A669D6021C08091550290913D
:104E600056029F781BC080915502909156029F7800
:104E7000906114C080915502909156029F78906283
:104E80000DC080915502909156029F78906306C0A4
:104E900080915502909156029F78906490935602AB
:104EA000809355028091AB0281608093AB0203C076
:104EB000662009F466C50E94680C10914502412FD6
:104EC00068E070E080E090E00E94580C412F65E0BF
:104ED00070E08BE090E00E94580C80914602809335
:104EE0003502809343022091550230915602C90148
:104EF0009F7086354BE0940779F180F4853D6AE038
:104F0000960729F1863D7AE0970781F1853B9A4023
:104F1000B1F5809134028093390231C08A35BDE009
:104F20009B07F9F040F48A359B4049F580913402A3
:104F300080933B0224C08A364DE09407E1F08F3F16
:104F40009F40E9F4809134028093350218C080912B
:104F500034028093360213C080913402809337026A
:104F60000EC0809134028093380209C080913402CF
:104F700080933A0204C08091340280933C02C901BC
:104F800088279077811560E29607D1F058F4009752
:104F900091F08115904109F0F4C48091340280931E
:104FA0004102EFC48115B0E39B0779F0811590446D
:104FB00009F43CC1E6C48091340280934002E1C40C
:104FC0008091340280934202DCC480913402809349
:104FD0004302D7C4143048F41F5F10934D028091F0
:104FE000AB0281608093AB0203C0662009F4C9C4A0
:104FF0000E94680C4091450264E070E080E090E01F
:105000000E94580CE0914D0203C19230B1F40E940D
:105010009F0710922502D12C0E944E197B018C0112
:1050200080912B0222E040E06D2D80680E94260ACC
:10503000D394F0E8DF12F0CFA4C48EE0E8E0F1E012
:10504000D20101900D928A95E1F71E3060F4F201D1
:10505000E10FF11D17FDFA95808190E090934A02CF
:105060008093490203C0662009F48BC40E94680C37
:10507000409145026DE070E080E090E00E94580CA5
:1050800080914602809335028093370280933A02E2
:1050900080933D02809340028093420240914902F6
:1050A00050914A02F20180E090E0219130E04217F5
:1050B000530739F420913402FC01EB5CFD4F20834F
:1050C00060C401968E30910581F75BC480919E0289
:1050D000833060F180E1E6E1F1E0D20101900D92D0
:1050E0008A95E1F7103148F4F201E10FF11D17FD47
:1050F000FA9580818093510203C0662009F441C46F
:105100000E94680C30915102209146028FE090E09D
:10511000F201E80FF91F4081FC01EB5CFD4F3417F1
:1051200008F042C02083019798F72BC480E1E6E1A4
:10513000F1E0D20101900D928A95E1F711110BC0B7
:1051400080915002811109C080914F02882329F07B
:1051500010924F0211C0103160F4F201E10FF11D05
:1051600017FDFA9580818093500281E080934F0271
:1051700003C0662009F405C40E94680C80914F02A8
:10518000811105C080913402809335025CC2309158
:10519000500220914602D20180E090E04D91FC0146
:1051A000EB5CFD4F431718F0809134022FC320832E
:1051B00001968031910591F7E4C31F3048F4110F37
:1051C0001E5FE12FEE0FEE0F1E0F1093520208C06C
:1051D0001F3019F41092520203C0662009F4D1C3A3
:1051E0000E94680C809152028823C1F01AE0612F5E
:1051F0000E947431682F70E04091460280E090E098
:105200000E94580C80915202612F0E947431E82F45
:10521000F0E080913402EC5CFD4FF8C24091460210
:1052200060E170E080E090E00E94580C80913402D0
:105230000AC280919E02833008F479C0103108F0D0
:1052400043C041E050E002C0440F551F1A95E2F7F9
:105250008091930290919402482759275093940289
:1052600040939302109227021092260280E090E071
:1052700020E330E061E070E0FB01E423F523EF2B55
:1052800069F08B30910554F4FC01EE0FFF1FE85BD1
:10529000FD4FD901BF67B08BA7870196660F771FB7
:1052A0002F5F3F4F2034310539F790937002809380
:1052B0006F028091AB0281608093AB0280919D026E
:1052C000846080939D0203C0662009F45AC3A091B4
:1052D0009302B09194021091340200914602F09032
:1052E000450221E030E080E090E0A9014A235B2301
:1052F000BC016B5C7D4F6B018F30910550F4BC019C
:105300006C5B7F4FFB010C949431452B31F4402FA3
:1053100005C0452B11F44F2D01C0412FF6014083EC
:10532000220F331F019680319105F9F62AC3812F90
:10533000012E000C990BAA0BBB0B8031910508F0D4
:10534000AEC0FC01ED5AFF4F0C94943110934E0205
:105350008091AB0281608093AB02A4C00E94B42E06
:1053600023E030E040E050E00E94D82E6E5F7F4F97
:105370007093700260936F02E7E5CE2EE2E0DE2EBE
:1053800000E010E080916F029091700208171907F9
:105390000CF077C00E94B42E2CE030E040E050E0EA
:1053A0000E94D82E7B01F0E3EF0EF11CE7E5F2E05E
:1053B00080E090E0801791070CF003C421913191B7
:1053C0002F7733272E153F0529F30196F3CF80E37E
:1053D0009FE7909358028093570283E39FE71DC095
:1053E00080E39FE7909358028093570284E39FE7FE
:1053F00090935A028093590287E39FE790935C024F
:1054000080935B028BE39FE714C080E39FE7909358
:1054100058028093570284E39FE790935A02809347
:10542000590287E39FE790935C0280935B028AE3D3
:105430009FE790935E0280935D0284E090E01DC040
:1054400080E39FE7909358028093570283E39FE79E
:1054500008C080E39FE7909358028093570284E34B
:105460009FE790935A028093590287E39FE79093B6
:105470005C0280935B0283E090E0909370028093E3
:105480006F0210929402109293028091AB0281609D
:105490008093AB0280919D02846080939D02662080
:1054A00009F46FC20E94680C4091450265E070E00B
:1054B00080E090E00E94580CE0914E02F0E0809174
:1054C0003402EB5CFD4F80834091460266E070E061
:1054D0008AE090E0ECC0933008F4B8C0111104C029
:1054E0006091290281E023C0113021F460912902EA
:1054F00082E01DC0123021F46091290284E017C0BF
:10550000133021F46091290288E011C0143021F495
:105510006091290280E10BC0153021F460912902CD
:1055200080E205C0163049F46091290280E46827C2
:105530006093290288E690E01BC0173079F46091EF
:10554000290260586093290288E690E00E945D0E6F
:105550008091290280780E94090C1CC0183059F4EF
:105560006091280281E06827609328028DE690E030
:105570000E945D0E0FC01F3051F48091A9029091DE
:10558000AA02806892609093AA028093A902662082
:1055900009F4F7C10E94680C8091290280FF03C0C2
:1055A0009091340202C0909145029093350281FFA0
:1055B00003C09091340202C090914502909336024C
:1055C00082FF03C09091340202C0909145029093F3
:1055D000370283FF03C09091340202C090914502CC
:1055E0009093380284FF03C09091340202C09091DE
:1055F00045029093390285FF03C09091340202C0A6
:105600009091450290933A0286FF03C09091340234
:1056100002C09091450290933B0287FF03C08091A6
:10562000340202C08091450280933C02809128029E
:1056300080FF03C08091340202C0809145028093B4
:105640003D0280914602809344029BC1662D812FCA
:105650000E94E51196C1933068F11031C8F4809131
:105660002A0290E0212F012E000C330B82179307A2
:1056700029F48FEF80932A026FEF03C010932A0260
:10568000612F84E690E00E945D0E0E949F0703C098
:10569000662009F476C10E94680CE0912A02EF3F6F
:1056A00091F54091340260E170E080E090E00E946A
:1056B000580C67C11031C0F480912B0290E0212F6B
:1056C000012E000C330B8217930731F00E944E1904
:1056D00040E050E00E948D0B10932B02612F85E675
:1056E00090E00E945D0E03C0662009F44AC10E944A
:1056F000680C4091450260E170E080E090E00E941B
:10570000580CE0912B02F0E080913402EB5CFD4FED
:105710007DC0103108F043C08091A60281FF2EC0E9
:1057200082FF0BC010922E021092920210922D0254
:1057300010922C028B7F8093A602A0919202AF3030
:1057400088F581E090E0012E02C0880F991F0A942D
:10575000E2F720912C0230912D02822B932B909313
:105760002D0280932C0281E08A0F80939202B0E098
:10577000A85BBD4F1350DA961C9314C010922E02F2
:105780001092920210922D0210922C02135010933C
:1057900053028091AB0281608093AB0203C066200C
:1057A00009F4EFC04091450260E170E080E090E0D4
:1057B0000E94580C20912C0230912D0228603093C9
:1057C0002D0220932C026091460280E090E041E09F
:1057D00050E0FA01E223F323EF2B21F0FC01EB5C14
:1057E000FD4F6083440F551F01968031910589F765
:1057F000E091530283E08E0F803108F0C2C00E2E7C
:10580000000CFF0B80913402E85CFD4F8083B9C02F
:10581000103108F062C0813409F43FC0823409F4C9
:105820004BC0812F0E944203882309F456C04DE4E7
:1058300050E068E472E080E0912F990F0E949C0292
:1058400010923302109232028FEF80933102109245
:10585000300210922F0210922E0210922D021092FE
:105860002C0280919D028C7E846080939D02109218
:105870009E0281E08093A6028091AB0281608093BA
:10588000AB028091A9029091AA0280689093AA022B
:105890008093A9021093470220C080EA80934802B7
:1058A0004DE450E068E472E080E0912F990F0E948F
:1058B0003C021093470213C0198241E050E0B2014C
:1058C00080E0912F990F0E943C02809147021813AB
:1058D00006C08FEF8093470202C06620B1F000E05F
:1058E00010E0802F0E944203882319F08091460225
:1058F00002C080914502F801EB5CFD4F80830F5F91
:105900001F4F0031110569F73CC000FF3AC0007F0E
:1059100091E009F090E040914702042E000C550BF5
:1059200080914502109146027091340220E030E0EF
:10593000DA01AB5CBD4FF901EB5CFD4F60812417D0
:10594000350759F4681721F0992321F0672F03C018
:10595000682F01C0612F6C930AC0681721F0911164
:1059600004C0672F03C0682F01C0612F60832F5FC1
:105970003F4F20313105F9F604C0662D812F0E947A
:10598000730C8091B902833009F058C08091B8023D
:10599000781609F4F0C08092B8024091B402509198
:1059A000B5026091B6027091B702411551056105CB
:1059B000710509F4E0C08091B0029091B102A0910C
:1059C000B202B091B302840F951FA61FB71F809338
:1059D000B0029093B102A093B202B093B3020091CF
:1059E000AC021091AD022091AE023091AF021416BC
:1059F00015061606170634F480179107A207B30799
:105A000034F415C0081719072A073B0784F00093E0
:105A1000B0021093B1022093B2023093B3021092FD
:105A2000B4021092B5021092B6021092B7028091A1
:105A3000B2029091B3020E94DD009DC0813009F056
:105A40009AC0D501C40134E0B695A795979587957E
:105A50003A95D1F72091B802281709F48CC08093A9
:105A6000B8028091AB028D7F8093AB028091A90236
:105A70009091AA029B7F9093AA028093A902E09042
:105A8000A702F090A802C70188279370811522E031
:105A9000920759F0811533E0930759F08115914031
:105AA00089F49501840141E007C09501840140E833
:105AB00003C09501840142E165E070E08BE394E06E
:105AC0000E94700AC70188279C70811558E09507CD
:105AD00059F081156CE0960759F08115944089F4CE
