:100000000C94B3000C94D6190C94AF190C94DB002B
:100010000C9456080C94DB000C94DB000C94DB0071
:100020000C94DB000C94180D0C94DB000C94DB009A
:100030000C94DB000C94DB000C94DB000C94DB00D4
:100040000C9465190C94DB000C9458180C9432181D
:100050000C94DB000C94DB000C94DB000C94DB00B4
:100060000C94FD190C94DB00D326DA26E326EC264B
:10007000F526FE26072710273E273E273E2719276D
:100080001F2726272D2734277329772973297729B6
:100090007329732977297329772973297729732974
:1000A00073297729732994299429942994299429C7
:1000B0003D2A3D2A3D2A3D2A3D2A9C29D529DE2973
:1000C000F3290E2A172A300135013A013F01440174
:1000D00049014E01530158015D01620115053505C5
:1000E0005405AA04AA041505150505122F12F512C8
:1000F0007A127A127A127A127A127A127A127A12A0
:100100007A12F5127F12BD12D312000000002400F3
:1001100027002A0000000000250028002B00000016
:10012000000023002600290004040404040404043D
:100130000202020202020303030303030102040892
:100140001020408001020408102001020408102041
:100150000000000800020100000304070000000086
:1001600000000000FD2D11241FBECFEFD8E0DEBF40
:10017000CDBF11E0A0E0B1E0E6E2F3E602C00590F9
:100180000D92A235B107D9F724E0A2E5B1E001C094
:100190001D92AE33B207E1F710E0C3EBD0E004C02C
:1001A0002197FE010E947231C23BD107C9F70E941C
:1001B000D71B0C9491310C940000CF93DF931F92C6
:1001C000CDB7DEB7682F81E080936B0380E6809324
:1001D0008D0310926C0310928E03292F392F330F49
:1001E000330BC9018F70992769830E94531B698162
:1001F0008CE294E00E94E70D0F90DF91CF910C9478
:10020000581B8F929F92AF92BF92CF92DF92EF9244
:10021000FF920F931F93CF934B015C01C42F8091EA
:10022000A8029091A902E0907001F0906F0195FFF3
:1002300090C068E486169104A104B10409F447C093
:10024000882D6CE00E945231092F10E0F80131979F
:10025000EB30F10508F040C0ED59FF4F0C947231BE
:1002600007E418E020E030E03BC005EC18E020E0B7
:1002700030E036C00AE419E020E030E031C008ED9B
:1002800019E020E030E02CC00EE61AE020E030E07B
:1002900027C00CE01BE020E030E022C005EB1BE0B3
:1002A00020E030E01DC007E61CE020E030E018C090
:1002B00004E21DE020E030E013C00CEE1DE020E081
:1002C00030E00EC00FEB1EE020E030E009C000EA95
:1002D0001FE020E030E004C000ED17E020E030E057
:1002E000882D6CE00E945231863008F085E045E0B0
:1002F00050E0BA01681B7109A901980104C0559525
:100300004795379527956A95D2F7AE2DEE0CBB0B26
:10031000B05F0E94E02EDC01CB012CE0B595A795E3
:10032000979587952A95D1F7CF2CFF0CDD08EE081D
:10033000FF08C80ED91EEA1EFB1EC11470E1D706C5
:10034000E104F1040CF440C0F594E794D794C79409
:10035000F4CFA50194012C50310941095109A4EFB2
:10036000B1E00E94D52E2CE030E040E050E00E9449
:10037000B62EAE2DEE0CBB0BB05F0E94E02E20E03F
:1003800030E140E050E00E94B62ECF2CFF0CDD089B
:10039000EE08FF08C20ED31EE41EF51EF7FE07C0CE
:1003A00084EFC80E81E0D81EE11CF11CF7CFC11408
:1003B00070E1D706E104F1043CF064EFC61A61E095
:1003C000D60AE108F108F3CFD60199278827809350
:1003D000AD029093AE02A093AF02B093B002209111
:1003E0008601309187014091880150918901809068
:1003F000B1029090B202A090B302B090B402BC01DE
:10040000CD01681979098A099B090E94B62E2093AB
:10041000B5023093B6024093B7025093B802CC2392
:1004200021F0232B242B252BD9F4C6010E94DD00BB
:100430008091AD029091AE02A091AF02B091B00256
:100440008093B1029093B202A093B302B093B4022E
:100450001092B5021092B6021092B7021092B80232
:10046000CF911F910F91FF90EF90DF90CF90BF90B1
:10047000AF909F908F900895AF92BF92CF92DF92EE
:10048000EF92FF920F931F93CF93DF938C017B0129
:10049000EA01BB24B39480E5A82E1C161D060CF0BF
:1004A00040C0B0926B03A0928D0310926C03109227
:1004B0008E03812F912F990F990B0E94531BC80116
:1004C00099270E94531BCE01C131D10514F080E160
:1004D00090E0080F191FC81BD90B6701E80EF91E21
:1004E000F60161916F018CE294E00E94E70DCE1459
:1004F000DF04B1F70E94581BB0926B03A0928D03EA
:1005000010926C0310928E0380E090E00E94531BC7
:1005100080E090E00E94531B0E94581B823061F3E0
:10052000BCCFDF91CF911F910F91FF90EF90DF90A3
:10053000CF90BF90AF9008958F929F92AF92BF924D
:10054000CF92DF92EF92FF920F931F93CF93DF939F
:100550007C018B01EA0181E080936B0380E580934D
:100560008D0310926C0310928E038F2D9F2D990F87
:10057000990B0E94531BC70199270E94531B0E948D
:10058000581BDD24D394CC24CA9485EE982E95EC88
:10059000892E22EDE22E22E0F22E1C161D060CF012
:1005A00063C0FE01C132D10514F0E0E2F0E0CE1BE1
:1005B000DF0B80916A038111FCCF2E2FD0926A034A
:1005C000D0926903C0926803109267039FEF9E0F59
:1005D00090936603D092450390914503906A90935F
:1005E000450390914403913069F410924403909133
:1005F00045039093BB009091BC0093FDF8CF80928F
:10060000BC0002C09092BC0090916A039130E1F36B
:1006100090916703921710F42091670346E453E02A
:1006200062ED72E0962F9E19921738F4DA019D91CF
:10063000AD01DB019D93BD01F5CF1092F302209334
:10064000F20230E02E173F0781F458010E0F1F1FF2
:10065000A016B10609F4A1CF8CE294E00E941C1808
:10066000F50181935F01F4CF81E0DF91CF911F917C
:100670000F91FF90EF90DF90CF90BF90AF909F9041
:100680008F900895CF93DF931F92CDB7DEB7198275
:10069000982F990F41E050E0BE016F5F7F4F80E0DF
:1006A0000E949C02882321F081E09981903A09F010
:1006B00080E00F90DF91CF9108958091A8029091F2
:1006C000A9029C01237033272230310599F0233091
:1006D0003105C1F02130310529F024E6209335029F
:1006E00023E004C02FEF2093350229E12093470235
:1006F00021E00FC02FEF2093350229E1209347021C
:1007000024E007C02FEF2093350223E22093470215
:100710002AE0209346028C7099278430910569F075
:1007200018F4892B39F008958830910549F00C9719
:1007300051F008958AEF90E008C084EF91E005C081
:1007400088EE93E002C08CED95E090939702809341
:10075000960208956091A80289E690E00E945D0EDD
:100760006091A9028AE690E00C945D0E2F923F9270
:100770004F925F926F927F928F929F92AF92BF92B1
:10078000CF92DF92EF92FF920F931F93CF93DF935D
:10079000CDB7DEB7C55AD1090FB6F894DEBF0FBE8C
:1007A000CDBF8FEF80938401809332021092340288
:1007B000109233028091700290917102892B09F49A
:1007C000A4C380914C02833008F041C0CE01875809
:1007D0009F4F0E94DB2D20917002309171022150B9
:1007E0003109FE01E758FF4F80E090E0DD24D3940B
:1007F00082179307BCF441915191608171817A0114
:10080000E894E7F8FF24DB01AF77BB27AE15BF05FF
:100810003CF4DF0112976D937C9351834083D12C7C
:100820000196E6CFDD20E9F28091580280933202F2
:1008300021E030E0612C712C4FE750E0CF56DF4FC4
:1008400059834883C159D040E12CF12C64C0CE01BA
:1008500087589F4F0E94DB2DE9CF5CE3E516F1043A
:100860000CF058C2E0914C024E2F50E04730510539
:1008700008F467C02091700230917102C656DF4FB4
:1008800039832883CA59D04080915502482F880F58
:10089000550BC456DF4F59834883CC59D040209123
:1008A000560230915702C856DF4F39832883C85902
:1008B000D040F901EE27F077A201440F551FC25630
:1008C000DF4F59834883CE59D0409801220F331F00
:1008D000C056DF4F39832883C05AD040CC56DF4FF3
:1008E00019821882C459D04041E017FF36C14FEF3A
:1008F000A41AB40A20914E02822F90E0A816B906DD
:100900000CF4ABCF9601CD2809F404C26CE3E616D3
:10091000F1040CF0FFC1809156029091570290585B
:100920009093570280935602592F551F5527551FF4
:10093000CD56DF4F5883C359D0406901A12CB12C4B
:10094000D9CFFA01E259FF4F009170021091710264
:100950000C947231FE01E758FF4F80E090E0801761
:10096000910724F4119211920196F9CF58E5C52E02
:1009700052E0D52E00E010E080917002909171025B
:10098000081719070CF051C02091700230917102C4
:10099000032E000C440B550B211531054105510563
:1009A00071F1CE55DF4F2883C25AD040CD55DF4F6D
:1009B0003883C35AD040CC55DF4F4883C45AD04007
:1009C000CB55DF4F5883C55AD0400E94922ECE554A
:1009D000DF4F2881C25AD040CD55DF4F3881C35AEE
:1009E000D040CC55DF4F4881C45AD040CB55DF4F63
:1009F0005881C55AD0400E94B62E9B01AC01220FEF
:100A0000331FE9E7F0E0EC0FFD1FE20FF31F8081D9
:100A10009181892B09F0B8CFD6018D919D916D01FF
:100A2000918380830F5F1F4FA7CF809070029090BB
:100A30007102B1E08B1A91088091540290914D029D
:100A40009501290F311D97FD3A959CE0929F100169
:100A5000939F300C1124280E311C87FD3A944424B6
:100A60004394512C00E010E01CC00150110920916A
:100A7000540230914D02830F911D37FD9A958A19CA
:100A80009B0901973CE0389F1001399F300C1124DD
:100A9000220E311C27FD3A9444244A94542C812C74
:100AA000912CC12CD12CE6CE4091540250914D0294
:100AB00031E0C316D10409F5480161E0861A9108B6
:100AC0009501250F311D57FD3A955CE0529F1001AD
:100AD000539F300C1124240E311C47FD3A9401978A
:100AE00044244394512C00E010E0A816B90609F004
:100AF000C1CE72E0C72ED12CBDCE213019F40250E8
:100B000011090EC0A114B10419F4025011090EC04C
:100B10009C012150310901501109A216B30631F48C
:100B200088248394912CC12CD12C02C0812C912C2F
:100B3000850F911D57FD9A958A199B0901972CE005
:100B4000289F1001299F300C1124240E311C47FDD1
:100B50003A9444244A94542C8DCEC656DF4F2881B3
:100B60003981CA59D040021713070CF0C0CE3CE3BC
:100B7000E316F1040CF0BBCECC56DF4FA881B9814F
:100B8000C459D040C056DF4F28813981C05AD04067
:100B9000A20FB31F69E770E06C0F7D1FA60FB71F90
:100BA0002D913C91CA56DF4F39832883C659D040D6
:100BB0002F773327220D331DC901C456DF4F6881BB
:100BC0007981CC59D040861B970B97FF02C00C96B9
:100BD000FCCF6CE070E00E945E31A0E0B8E002C0A3
:100BE000B595A7958A95E2F7CD01C856DF4F688184
:100BF0007981C859D04086239723892BA9F5E1151F
:100C000070E2F707A1F050F4309709F468C0E115DD
:100C100090E1F90749F520E030E026C0E115A0E3B6
:100C2000FA0741F0E115B0E4FB0739F01DC021508F
:100C300031091AC02F5F3F4F17C0CD56DF4F588183
:100C4000C359D040552319F02F5F3F4F02C02150A8
:100C50003109CD56DF4F6881C359D0406427CD5646
:100C6000DF4F6883C359D040203831051CF02C5029
:100C70003109FACF37FF03C0245F3F4FFBCFC9567E
:100C8000DF4F8881C759D0408F77D901B82BCD016C
:100C9000B3016F777727621773070CF43D01CF56C6
:100CA000DF4F68817981C159D0406F777727261748
:100CB000370734F4CF56DF4F99838883C159D0402A
:100CC000D701AA0FBB1F21E030E02C0F3D1FA20F60
:100CD000B31F8D939C93B7016F5F7F4F7B01CC5601
:100CE000DF4F28813981C459D040C256DF4F688117
:100CF0007981CE59D040260F371FCC56DF4F39832C
:100D00002883C459D0400815190509F4F0CD040D05
:100D1000151DEBCD109234021092330280914C02DB
:100D20008630A1F4DE01119680E090E08E159F05DB
:100D300009F485C02D913D91FC01EE0FFF1FE55791
:100D4000FE4F3068318320830196F0CF80914F02AF
:100D50008230D1F060F48823F1F0813009F0D5C001
:100D6000DE01119680E090E020E030E041C0833069
:100D700009F46AC0843009F0C8C020E030E040E0E7
:100D800050E080E090E0B7C0DE01119680E090E096
:100D900020E030E051C0DE01119680E090E08E1539
:100DA0009F0509F44CC02D913D91FC01EE0FFF1FF2
:100DB000E557FE4F318320830196F1CF8C339105A7
:100DC000F4F54D915D914615570581F0FC01EE0F4C
:100DD000FF1FE557FE4F71826082FC013196EE0FD6
:100DE000FF1F0296E557FE4F518340832F5F3F4F11
:100DF0002E153F0519F723C08C33910504F54D914D
:100E00005D91CF56DF4F68817981C159D040461737
:100E1000570781F0FC01EE0FFF1FE557FE4F71836E
:100E20006083FC013196EE0FFF1F0296E557FE4FDF
:100E3000518340832F5F3F4F2E153F05E9F6909376
:100E400034028093330261C0E0E0F0E000E010E0A3
:100E500020E030E0A3E0CA2ED12C2E153F053CF552
:100E6000EC33F10521F1D801AA0FBB1FBD01655775
:100E70007E4FC901880F991FA1E0B0E0AC0FBD1FE4
:100E80008A0F9B1FDC018D919C91DB018D939C93BC
:100E90000F5F1F4FC801B6010E945E31892B19F404
:100EA0002150310902C02F5F3F4F3196D6CFF093CA
:100EB0003402E093330229C02C33310511F1FA01D9
:100EC000EE0FFF1FE557FE4FDC01AA0FBB1F61E0CD
:100ED00070E06C0F7D1FA60FB71F6D917C91718321
:100EE00060834F5F5F4FBA0163707727672B39F4D8
:100EF00002972F5F3F4F8E159F05F4F202C00196B7
:100F0000F8CF3093340220933302CB55DF4F0FB626
:100F1000F894DEBF0FBECDBFDF91CF911F910F912F
:100F2000FF90EF90DF90CF90BF90AF909F908F9009
:100F30007F906F905F904F903F902F900895109208
:100F40007102109270021092950210929402809198
:100F5000A70281608093A7028091AC028160809398
:100F6000AC020895CF93DF931092280210922702CB
:100F7000109285011092AC028FEF80938401109241
:100F8000C50210924C0210924D0291E090934E02D5
:100F900010924F0284E6809351022FE72093520271
:100FA00090935002109271021092700290E190930F
:100FB00082028093530210925402109255028FEFD6
:100FC0009FE39093570280935602109295021092DD
:100FD00094021092930240E06FEF8CE60E94B51BE2
:100FE000C82FD0E0DC2FCC2740E06FEF8BE60E94CB
:100FF000B51BCC27D07A80912402909125029F7551
:10100000C82BD92BD0932502C0932402E2E7F2E04B
:1010100081E0819392E0E238F907D9F7E4E7F1E063
:10102000119281E0E438F807D9F710923402109257
:1010300033028FEF8093320210923102109230020D
:1010400010922F0210922E0210922D02DF91CF915A
:101050000895609124028BE690E00E945D0E6091FD
:1010600025028CE690E00C945D0E90932302809311
:10107000220228E1289FB001299F700D1124072E1C
:10108000000C880B990B0E9435309B01AC0160E08D
:1010900070E68AE697E40E948B2F60931E0270939D
:1010A0001F02809320029093210208951F920F92B5
:1010B0000FB60F9211242F933F934F935F936F932B
:1010C0007F938F939F93AF93BF93EF93FF93309B47
:1010D0004FC08091BA02823061F48091AA0290914F
:1010E000AB0280FF06C080915A018F5F80935A0146
:1010F0003FC00E945919AB01BC018091C60290917A
:10110000C702A091C802B091C902892B8A2B8B2BF0
:1011100029F18091C6029091C702A091C802B091B6
:10112000C90284179507A607B707C0F48091C602C5
:101130009091C702A091C802B091C9029A01281BE0
:10114000390B30936301209362014093C6025093A0
:10115000C7026093C8027093C9020AC08091AA02B4
:101160009091AB0292609093AB028093AA02EDCF74
:10117000FF91EF91BF91AF919F918F917F916F916F
:101180005F914F913F912F910F900FBE0F901F9045
:101190001895909164019F5F977020916D0192174F
:1011A00041F0E0916401F0E0EB59FE4F80839093B1
:1011B0006401089588EF0C94C9088AEF0C94C9085B
:1011C0000E945919609356017093570180935801FA
:1011D000909359011092C1021092C2021092C30260
:1011E0001092C4021092040210920502109206029C
:1011F0001092070210925501109254018091AA0298
:101200009091AB0284609093AB028093AA0280918C
:10121000AA029091AB0298609093AB028093AA02CD
:10122000089580936E018091AA029091AB0288602C
:101230009093AB028093AA020C94E008CF92DF92C5
:10124000EF92FF920F931F93CF93C82F8091AA0222
:101250009091AB0292FF11C01092C1021092C20293
:101260001092C3021092C40210920402109205025E
:101270001092060210920702B7C08091AA029091C4
:10128000AB0291FF12C08091AA029091AB029D7FA8
:101290009093AB028093AA021092C1021092C202F4
:1012A0001092C3021092C40213C08091C1029091A7
:1012B000C202A091C302B091C4020196A11DB11D4A
:1012C0008093C1029093C202A093C302B093C40260
:1012D0006091C1027091C2028091C3029091C402D8
:1012E00020914A0230914B02032E000C440B550B07
:1012F0000E94E82E672B682B692B09F04FC00E94D3
:1013000059190091560110915701209158013091BF
:101310005901012B022B032BB1F0009156011091C2
:10132000570120915801309159016B017C01C01A7D
:10133000D10AE20AF30AC0928601D0928701E092B4
:101340008801F09289016093560170935701809350
:101350005801909359018091AA029091AB0280FFAD
:1013600006C080916E018C1711F08430B9F4809121
:10137000AA029091AB0287FF4DC010920402109216
:10138000050210920602109207028091AA02909123
:10139000AB0298609093AB028093AA028091AA025C
:1013A0009091AB028F779093AB028093AA026091E9
:1013B000C1027091C2028091C3029091C40228E1DF
:1013C00030E040E050E00E94E82E672B682B692B4C
:1013D00059F4109254018091AA029091AB0284605A
:1013E0009093AB028093AA028091AA029091AB02E3
:1013F00081FF05C0809155018F5F809355018091D9
:10140000BA0282508230D0F4809154018F5F809371
:10141000540114C08091040290910502A09106022B
:10142000B09107020196A11DB11D80930402909313
:101430000502A0930602B0930702A7CFCF911F9198
:101440000F91FF90EF90DF90CF900895AF92BF92F1
:10145000CF92DF92EF92FF920F931F93CF93DF9380
:10146000C82FA62EB42ED22F67017801807F803F2F
:1014700011F46C2F15C0809126028C1739F06C2F57
:101480008FE893E00E944017C0932602DD2361F0AD
:101490006A2D8FE893E00E944017D23028F06B2D20
:1014A0008FE893E00E94401761E081E10E94B31849
:1014B00084E1C80ED11CE11CF11CC0921602D0922E
:1014C0001702E0921802F0921902DF91CF911F915A
:1014D0000F91FF90EF90DF90CF90BF90AF90089565
:1014E000CF92DF92EF92FF920F931F93FC016E3029
:1014F00008F06E506770606460937C0080917A00A1
:10150000806480937A0080917A0086FDFCCF6091A0
:1015100078008091790070E0782B808191818F3FF5
:101520005FEF950719F471836083F0C0DB01A81B9E
:10153000B90BCD01B7FF03C091958195910905972E
:101540000CF4E4C071836083423809F465C068011B
:101550007901942F433828F4403851F0413869F12B
:1015600097C0433809F47DC0443809F46CC090C07A
:10157000CB010E94160EBC01990F880B990B0E949B
:10158000353020E030E040E054E40E94192F20E0A4
:1015900030E040E451E40E94E53020E030E84FEFD5
:1015A00053E40E948B2F0E94FD2F60935402809180
:1015B000AC0281608093AC0229C0643071053CF0BC
:1015C0006C3FB3E07B072CF06FEF73E002C060E08C
:1015D00070E0072E000C880B990B0E94353020E03C
:1015E00030EC4FE754E40E948B2F20E030E04AE7D4
:1015F00053E40E94E53020E030E040EF51E40E94E7
:101600001A2F0E94FD2FCB010E9435088091A7025E
:1016100081608093A7027AC0643071053CF06C3F12
:1016200053E075072CF06FEF73E002C060E070E0EC
:1016300043E0759567954A95E1F76093510281E023
:1016400080935002E3CF643071053CF06C3F83E03F
:101650007807E4F110925302D9CF81E080935302CE
:10166000D5CFCB010E94160E24E0880F991F2A9532
:10167000E1F7AC01440F452F441F550B4F77682FFE
:101680006F7780912C028701760122E0806E1BC06B
:10169000643071053CF06C3FA3E07A072CF06FEFEB
:1016A00073E002C060E070E0191684F5AB0183E0DE
:1016B000559547958A95E1F780912C02870176012F
:1016C00022E0692F806B0E94260A20C06A307105D3
:1016D00024F2072E000C880B990B0E94353020E075
:1016E00030E046E153E40E94E53020E030EC4FE783
:1016F00054E40E948B2F20E030E040E251E40E944D
:101700001A2F0E9404306093530280CF1F910F91D3
:10171000FF90EF90DF90CF9008952F923F924F92DD
:101720005F926F927F928F929F92AF92BF92CF9271
:10173000DF92EF92FF920F931F93CF93DF9300D02E
:1017400000D0CDB7DEB71B012C014A0184E791E040
:101750009C838B83C12CD12CEB81FC8190819111D6
:1017600023C0FFEFCF1ADF0A8B819C8101969C83F7
:101770008B8390E1C916D10479F70F900F900F90E9
:101780000F90DF91CF911F910F91FF90EF90DF901D
:10179000CF90BF90AF909F908F907F906F905F9011
:1017A0004F903F902F900895BC2CBB0CBB0CBB0CF2
:1017B00038E03B0DAA24A39434016C0C7D1C8A2DC7
:1017C000892311F18114910421F0F30180818A2190
:1017D000D9F42091290280912C0220FF02C0806858
:1017E00001C080698201710122E040E06B2D3A83E3
:1017F00099830E94260AEB81FC8120818A2D8095A5
:101800008223808399813A81B394AA0CB312D7CFF3
:10181000A8CFEF92FF920F931F93CF93DF93D82F10
:1018200010922602C0E00E945919D11102C04FE760
:1018300001C040E07B018C0122E06AE78C2F806BC5
:101840000E94260ACF5FC03171F7DF91CF911F91BF
:101850000F91FF90EF9008950F931F93CF93DF9315
:10186000EC018B01909135027091460220E030E04E
:1018700040E050E8F901EA5CFD4FDA01A023B12312
:10188000AB2B11F0908308C0DA01AC23BD23AB2B46
:1018900011F0708301C01082569547952F5F3F4F1E
:1018A0002031310539F7DF91CF911F910F910895C4
:1018B0009B01803191055CF41216130644F4FC017F
:1018C000EA5CFD4F4083215031090196F2CF089523
:1018D00080E090E0FC01EA5CFD4F108201968031CF
:1018E0009105C1F70895E82F8091A702982F907174
:1018F00081FF13C0911104C080618093A70261E051
:1019000087EF8E0F873020F4E850E093C50225C0A2
:10191000E7FD1CC01092C50220C09923A1F08F7E64
:101920008093A702EF3FC9F00E2E000CFF0BE75B80
:10193000FD4FA091C502B0E0AA5DBE4F91A58C916C
:10194000892781A70AC0EF3F79F727C0611105C039
:1019500080918501882309F46AC08091A70284FFE1
:101960001EC00E94680C4091470267E070E089E069
:1019700090E00E94580CE091C50280913502E1117F
:1019800003C08093360242C0909147029093360282
:10199000F0E0E25CFD4F808339C06623C9F2E0913C
:1019A000C50250914702E11113C080E090E0FC01B4
:1019B000E75BFD4F31A5232F217030FD252FFC0162
:1019C000EA5CFD4F208301968031910581F71EC0AE
:1019D0004091460280E090E0F0E0EA5DFE4FDC01DD
:1019E000A75BBD4F99962C91DC01AA5CBD4F30815D
:1019F00020FF04C0232321F0252F03C0232309F057
:101A0000242F2C9301968031910549F78091330260
:101A100090913402892B41F0E0910302F0E0809133
:101A20003502EA5CFD4F8083109285010895089588
:101A30001F920F920FB60F9211242F933F934F9343
:101A40005F938F939F93EF93FF9341988091CA0286
:101A5000882341F08091CA0280958093B200109251
:101A6000CA026CC080910D028F5F80930D0280913D
:101A7000CB028F3018F05D985F9A5D9A5F985D9801
:101A80005D9A8091CB029FE0981B292F30E0F901ED
:101A9000EA5CFD4F80818111419A80958093CA0252
:101AA0004091CC0241111EC01A9B10C04091CD0242
:101AB000042E000C550B42175307C9F09093A50252
:101AC0004091A5024093CD0242E30FC04091CD0268
:101AD000042E000C550B2417350749F44FEF4093A3
:101AE000CD0205C04091CC0241504093CC024E9BA8
:101AF0000DC040919802042E000C550B2417350799
:101B000081F09093A0029091A00209C040919802A8
:101B1000042E000C550B2417350719F49FEF9093F2
:101B200098029091CB02911102C09FE003C0909166
:101B3000CB0291509093CB028093B200FF91EF9132
:101B40009F918F915F914F913F912F910F900FBE79
:101B50000F901F9018958091F20290E02091F3026F
:101B6000821B91090895089580E090E00895CF9236
:101B7000DF92EF92FF920F931F93CF93DF937C013D
:101B8000262F972F8A0180916B03882391F0C62F0F
:101B9000D72F6E01C40ED51ECC15DD0571F06991ED
:101BA000D701ED91FC910190F081E02DC7010995DD
:101BB000F3CF642F822F0E942B1BC801DF91CF919E
:101BC0001F910F91FF90EF90DF90CF900895CF93EA
:101BD000DF931F92CDB7DEB7698320916B03222379
:101BE000D1F020918E03203240F021E030E0FC0162
:101BF0003383228380E090E015C080916C03E82F4E
:101C0000F0E0E359FC4F998190838F5F80936C03E0
:101C100080938E0305C061E0CE0101960E942B1BCC
:101C200081E090E00F90DF91CF910895803E21E018
:101C300092079CF4BC01990F880B990B0E943530D8
:101C400020E030E040EF53E40E948B2F20E030E0B2
:101C500040E054E40E94E5301FC0803222E0920749
:101C600004F1BC016F517240072E000C880B990BD8
:101C70000E94353020E030E040E054E40E94E5303E
:101C800020E030E040EF53E40E948B2F20E030E072
:101C900040E054E40E941A2F0E94FD2F77FF03C0FA
:101CA00009C060E072E0CB01611574402CF08FEF49
:101CB00093E0089580E090E008950C94A82E1F937F
:101CC000CF93DF9300D01F92CDB7DEB740E06FEF28
:101CD0008EE60E94B51B8093BA0240E06FEF8AE661
:101CE0000E94B51B1092A8028093A90240E06FEFFA
:101CF00089E60E94B51B2091A8023091A902282BE9
:101D00003093A9022093A8020E945D03E0919F03F3
:101D1000F091A00382E08083E0919B03F0919C030B
:101D20001082E0919D03F0919E038FE380831092D7
:101D3000A703E091A303F091A40386E08083E091E0
:101D4000A103F091A203808180618083E091A103CF
:101D5000F091A203808188608083E091A103F091DB
:101D6000A203808180688083E091A103F091A203A7
:101D700080818F7D80838FE893E00E948717109287
:101D8000720110922602109271011092730140E0CC
:101D90006FE085E60E94B51B80932C024FEF6FE049
:101DA00084E60E94B51B80932B0249E16FEF88E621
:101DB0000E94B51B80932A0240E061E08DE60E94FC
:101DC000B51B809329020E94B20761E08DE00E945A
:101DD000E3181092090210920A0210920B0210925C
:101DE0000C021092080210929D0210929F0281E054
:101DF0008093A7021092A1021092A2021092A30255
:101E00001092A4021092990210929A0210929B02D0
:101E100010929C021092CE021092CF021092D00229
:101E20001092D1021092A602F8941092AB02109276
:101E3000AA021092640110926D0110925501109245
:101E40006E01109256011092570110925801109293
:101E50005901109286011092870110928801109208
:101E6000890110925D0110925E0110925F01109243
:101E7000600140E061E086E60E94B51B882349F0DE
:101E80008091AA029091AB0281609093AB02809303
:101E9000AA0240E061E087E60E94B51B882349F072
:101EA0008091AA029091AB0282609093AB028093E2
:101EB000AA0286E090E090934B0280934A0288E762
:101EC00090E090932302809322028BEA9AEAA6EA9A
:101ED000B1E480931E0290931F02A0932002B0935E
:101EE00021020E94E00862E082E00E94E31862E0C2
:101EF00083E00E94E31862E084E00E94E3188DED25
:101F000098E09093010180930001809169008360C3
:101F100080936900E89A8AED98E09093030180939A
:101F20000201809169008C6080936900E99A1092A7
:101F3000540110925B01109252011092C60210924D
:101F4000C7021092C8021092C90210926301109247
:101F5000620110925C011092530110925A0180911B
:101F6000A8029091A90297FD02C086E001C08CE012
:101F7000809361018091BA02823049F561E082E18B
:101F80000E94E31860E08EE00E94E31862E083E1C3
:101F90000E94E3186AE070E080E090E00E941F1960
:101FA00035990EC08FEF80935B018091680082604D
:101FB0008093680010926C0080916C00816003C077
:101FC00080916C008E7F80936C0082E107C083302B
:101FD00039F461E08BE00E94E3188BE080935301B9
:101FE000789461E085E00E94E31861E087E00E9458
:101FF000E31860E08AE00E94E31860E086E00E9457
:10200000E31861E08FE00E94E31862E08CE00E9438
:10201000E31861E088E00E94E31861E081E10E943A
:10202000E31861E080E10E94E31861E089E00E942A
:10203000E31880E090E0FC01EA5CFD4F108201961D
:1020400080319105C1F78FEF8093A5028093CD0277
:102050008093A0021092CC029FE09093CB0210924A
:10206000CA0210921A0210921B0210921C021092C5
:102070001D0210921602109217021092180210926E
:10208000190210921202109213021092140210926E
:10209000150210920E0210920F021092100210926E
:1020A000110210929E0210920D022CED35E0309339
:1020B0009702209396028093350289E1809347022C
:1020C00084E0809346021092B00083E08093B100D8
:1020D00081E0809370001092B20078940E945D03BA
:1020E0008CE00E948A18892B09F05FC0809146021B
:1020F00080933602809337028093380280933902AE
:1021000080933A029091350290933B0280933C0277
:1021100090933D0280933E0280933F028093400261
:102120009093410280934202809343028093440241
:10213000809345028CE00E948A18892BD9F3809104
:10214000A002883009F4D7C040E06FEF83E60E9418
:10215000B51B843209F0CFC08091A50287FF22C150
:102160008091A5028F3F09F140E060E170E080E0DE
:1021700090E00E94580C4091470265E070E080E0DA
:1021800090E00E94580C8091BA024091350261E0C3
:1021900070E090E00E94580C68EE73E080E090E000
:1021A0000E941F19E0E0F0E009958091BA028130A9
:1021B00081F462E08BE00E94E31860E083E10E941A
:1021C000E31860E082E10E94E31860E08EE00E9484
:1021D000E3188FEF9FEF90933D0480933C0490931E
:1021E0003B0480933A04909339048093380410920E
:1021F000B9021092700110926F011092B102109208
:10220000B2021092B3021092B4021092AD02109278
:10221000AE021092AF021092B0021092B50210926C
:10222000B6021092B7021092B80210928A018093FF
:1022300048028091BA02833009F055C01092F3022F
:102240001092F20210926C0310928E0310926A03A5
:1022500011E0109369031092440361E082E10E944F
:10226000B31861E083E10E94B3188091B9008E7FBA
:102270008093B9008091B9008D7F8093B90088E484
:102280008093B80085E48093BC0010936B0380E6D4
:1022900080938D0310926C0310928E0389E990E075
:1022A0000E94531B0E94581B61E08EE00E94E318BD
:1022B00060E08EE00E94B31819821A821B8243E00C
:1022C00050E0BE016F5F7F4F87EF9FE10E949C024D
:1022D000882349F08981823131F48A8180937001A9
:1022E0008B8180936F0180912A0287FF72C081E009
:1022F0000E94090C6EC010922C028FEF80932B026B
:1023000089E180932A021092AB021092AA028AE11C
:1023100090E09093A9028093A80280E090E29093CD
:1023200025028093240260E085E690E00E945D0E25
:1023300060912B0284E690E00E945D0E69E188E6E0
:1023400090E00E945D0E60E08DE690E00E945D0EE0
:1023500060E086E690E00E945D0E60E087E690E037
:102360000E945D0E60E08EE690E00E945D0E0E948D
:10237000AA030E94290864E283E690E00E945D0EB1
:102380004091350260E170E080E090E00E94580CDE
:1023900068EE73E080E090E00E941F19E0E0F0E05A
:1023A0000995DACE8091A50285300CF0D9CE6091E6
:1023B000A5026093BA028091A8029091A902992780
:1023C0009093A9028093A8028EE690E00E945D0E91
:1023D000C7CE0F900F900F90DF91CF911F9108956E
:1023E000CF92DF92EF92FF92CF93C62F482F082E05
:1023F000000C550B660B770B4031510508F0F5C00A
:10240000FA01EB58FF4F0C9472318091AA0290911F
:10241000AB0221E082279093AB028093AA028091C5
:10242000AA029091AB0280FD11C08091AA02909106
:10243000AB0280689093AB028093AA021092C6020E
:102440001092C7021092C8021092C9026091AA02AB
:102450007091AB026170772786E690E048C080916A
:10246000AA029091AB0281FF13C08091AA029091C1
:10247000AB0280619093AB028093AA028091AA0282
:102480009091AB028D7F9093AB028093AA0226C0FD
:102490008091AA029091AB0288609093AB028093E6
:1024A000AA028091AA029091AB0280649093AB0241
:1024B0008093AA028091AA029091AB0288609093C7
:1024C000AB028093AA028091AA029091AB02826033
:1024D0009093AB028093AA020E94E0086091AA0246
:1024E0007091AB0276956795617087E690E00E94E7
:1024F0005D0E7EC064E18602C001112473C080912C
:10250000AA029091AB0280FF08C010926E018091E8
:10251000AA029091AB02806154C00E9459196B01CC
:102520007C018091CE029091CF02A091D002B09117
:10253000D1028C159D05AE05BF05B0F4A70196012B
:10254000281B390B4A0B5B0B283E73E0370741050C
:10255000510550F460E67AEE80E090E00E94E82EAB
:10256000C9010E943508C1E0C092CE02D092CF02CC
:10257000E092D002F092D10238C08091AA029091EC
:10258000AB0280FF04C084E00E9411092EC080913C
:10259000220290912302459744F18091220290916A
:1025A000230201971FC08091AA029091AB0280FF85
:1025B0000DC084E080936E018091AA029091AB02DD
:1025C00080629093AB028093AA020FC08091220296
:1025D000909123028C32914044F480912202909198
:1025E000230201960E94350803C0CC2309F4AFC32F
:1025F00040E060E170E080E090E00E94580C2091A3
:10260000AA023091AB02909135028091470220FFDF
:1026100011C0909336022091AA023091AB0220FFA4
:10262000982F9093370280934302809344028093C3
:1026300045028DC3282F809336024091AA02509103
:10264000AB0241FF02C0392F01C0382F309337024F
:102650004091220250912302493251050CF459C095
:1026600060912202709123024CE350E0FA01E61BD4
:10267000F70B1E161F0654F460912202709123027C
:10268000461B570B4530510544F009C040912202CA
:10269000509123024134510514F4392F40C0609108
:1026A0002202709123024CE350E0FA01E61BF70B83
:1026B0001E161F0654F46091220270912302461BDD
:1026C000570B4C30510544F107C040912202509104
:1026D00023024834510504F16091220270912302D3
:1026E0004CE350E0FA01E61BF70B1E161F0654F4EC
:1026F0006091220270912302461B570B4431510511
:1027000044F00CC040912202509123024035510503
:102710002CF43091460203C0382F01C030E03093D2
:102720003902609122027091230240E550E0FA01E3
:10273000E61BF70B1E161F0654F4609122027091DF
:102740002302461B570B4530510544F009C0409108
:102750002202509123024535510514F4392F40C00F
:10276000609122027091230240E550E0FA01E61BDD
:10277000F70B1E161F0654F460912202709123027B
:10278000461B570B4C30510544F107C040912202C3
:10279000509123024C35510504F160912202709151
:1027A000230240E550E0FA01E61BF70B1E161F0658
:1027B00054F46091220270912302461B570B44315E
:1027C000510544F00CC0409122025091230244363E
:1027D00051052CF43091460203C0382F01C030E07F
:1027E00030933A02609122027091230244E650E055
:1027F000FA01E61BF70B1E161F0654F46091220225
:1028000070912302461B570B4530510544F009C017
:1028100040912202509123024936510514F4392F78
:1028200040C0609122027091230244E650E0FA0118
:10283000E61BF70B1E161F0654F4609122027091DE
:102840002302461B570B4C30510544F107C0409101
:102850002202509123024037510504F16091220277
:102860007091230244E650E0FA01E61BF70B1E16B6
:102870001F0654F46091220270912302461B570BED
:102880004431510544F00CC0409122025091230282
:10289000483751052CF43091460203C0382F01C04F
:1028A00030E030933B02609122027091230248E7AE
:1028B00050E0FA01E61BF70B1E161F0654F4609158
:1028C000220270912302461B570B4530510544F0FC
:1028D00009C040912202509123024D37510514F452
:1028E000392F40C0609122027091230248E750E0E6
:1028F000FA01E61BF70B1E161F0654F46091220224
:1029000070912302461B570B4C30510544F107C010
:1029100040912202509123024438510504F1609104
:1029200022027091230248E750E0FA01E61BF70B00
:102930001E161F0654F46091220270912302461B5A
:10294000570B4431510544F00CC040912202509184
:1029500023024C3851052CF43091460203C0382F25
:1029600001C030E030933C0260912202709123025A
:102970004CE850E0FA01E61BF70B1E161F0654F454
:102980006091220270912302461B570B453051057E
:1029900044F009C04091220250912302413951056F
:1029A00014F4392F40C060912202709123024CE848
:1029B00050E0FA01E61BF70B1E161F0654F4609157
:1029C000220270912302461B570B4C30510544F1F3
:1029D00007C040912202509123024839510504F169
:1029E00060912202709123024CE850E0FA01E61B4C
:1029F000F70B1E161F0654F46091220270912302F9
:102A0000461B570B4431510544F00CC04091220243
:102A100050912302403A51052CF43091460203C0F4
:102A2000382F01C030E030933D0260912202709156
:102A3000230240EA50E0FA01E61BF70B1E161F06C0
:102A400054F46091220270912302461B570B4530CB
:102A5000510544F009C04091220250912302453AA9
:102A6000510514F4392F40C0609122027091230265
:102A700040EA50E0FA01E61BF70B1E161F0654F45D
:102A80006091220270912302461B570B4C30510576
:102A900044F107C040912202509123024C3A510563
:102AA00004F1609122027091230240EA50E0FA01A1
:102AB000E61BF70B1E161F0654F46091220270915C
:102AC0002302461B570B4431510544F00CC0409182
:102AD000220250912302443B51052CF430914602CE
:102AE00003C0382F01C030E030933E0260912202D3
:102AF0007091230244EB50E0FA01E61BF70B1E161F
:102B00001F0654F46091220270912302461B570B5A
:102B10004530510544F009C04091220250912302F2
:102B2000493B510514F4392F40C060912202709145
:102B3000230244EB50E0FA01E61BF70B1E161F06BA
:102B400054F46091220270912302461B570B4C30C3
:102B5000510544F107C04091220250912302403CAC
:102B6000510504F1609122027091230244EB50E080
:102B7000FA01E61BF70B1E161F0654F460912202A1
:102B800070912302461B570B4431510544F00CC091
:102B90004091220250912302483C51052CF430917F
:102BA000460203C0382F01C030E030933F026091ED
:102BB00022027091230248EC50E0FA01E61BF70B69
:102BC0001E161F0654F46091220270912302461BC8
:102BD000570B4530510544F009C0409122025091F5
:102BE00023024D3C510514F4892F3EC0609122020E
:102BF0007091230248EC50E0FA01E61BF70B1E1619
:102C00001F0654F46091220270912302461B570B59
:102C10004C3051054CF107C04091220250912302E3
:102C2000443D51050CF1609122027091230248EC61
:102C300050E0FA01E61BF70B1E161F0654F46091D4
:102C4000220270912302461B570B4431510544F078
:102C50000AC040912202509123024C3D51051CF4C0
:102C60008091460201C080E08093400240912202A0
:102C700050912302403F51052CF0809146028093F1
:102C800041025FC060912202709123024CED50E03E
:102C9000FA01E61BF70B1E161F0654F46091220280
:102CA00070912302461B570B4530510544F009C073
:102CB0004091220250912302413E510514F4292FE4
:102CC0003EC060912202709123024CED50E0FA0167
:102CD000E61BF70B1E161F0654F46091220270913A
:102CE0002302461B570B4C3051054CF107C0409155
:102CF000220250912302483E51050CF140912202DC
:102D0000509123022CED30E0B901641B750B1616AF
:102D1000170654F44091220250912302241B350BD4
:102D20002431310544F00AC020912202309123025F
:102D3000203F31051CF42091460201C020E0209381
:102D40004102909343029093440290934502CF91A5
:102D5000FF90EF90DF90CF900895CF92DF92EF92A7
:102D6000FF920F931F93CF93DF936C017A018B0136
:102D7000C0E0D0E0CE15DF0589F0D8016D918D015E
:102D8000D601ED91FC910190F081E02DC6010995ED
:102D9000892B11F47E0102C02196ECCFC701DF918F
:102DA000CF911F910F91FF90EF90DF90CF900895FA
:102DB000FC01538D448D252F30E0842F90E0821B41
:102DC000930B541710F0CF96089501970895FC01C6
:102DD000918D828D981761F0828DDF01A80FB11D52
:102DE0005D968C91928D9F5F9F73928F90E0089576
:102DF0008FEF9FEF0895FC01918D828D981731F030
:102E0000828DE80FF11D858D90E008958FEF9FEF83
:102E10000895FC01918D228D892F90E0805C9F4F59
:102E2000821B91098F73992708958FE893E00E9480
:102E3000091721E0892B09F420E0822F0895FC0175
:102E4000848DDF01A80FB11DA35ABF4F2C91848D33
:102E500090E001968F739927848FA689B7892C9368
:102E6000A089B1898C9180648C93938D848D981303
:102E700006C00288F389E02D80818F7D80830895CC
:102E8000EF92FF920F931F93CF93DF93EC0181E0BA
:102E9000888F9B8D8C8D981305C0E889F989808176
:102EA00085FD24C0F62E0B8D10E00F5F1F4F0F73B2
:102EB0001127E02E8C8DE8120CC00FB607FCFACF5C
:102EC000E889F989808185FFF5CFCE010E941F171F
:102ED000F1CF8B8DFE01E80FF11DE35AFF4FF08219
:102EE0000B8FEA89FB898081806207C0EE89FF89A8
:102EF0006083E889F98980818064808381E090E043
:102F0000DF91CF911F910F91FF90EF900895CF9394
:102F1000DF93EC01888D8823C9F0EA89FB898081E1
:102F200085FD05C0A889B9898C9186FD0FC00FB6B3
:102F300007FCF5CF808185FFF2CFA889B9898C91F4
:102F400085FFEDCFCE010E941F17E7CFDF91CF9114
:102F5000089580E090E0892B29F00E9415178111D7
:102F60000C9400000895833081F028F4813099F0AA
:102F70008230A1F008958730A9F08830B9F084300C
:102F8000D1F4809180008F7D03C0809180008F7785
:102F900080938000089584B58F7702C084B58F7DBB
:102FA00084BD08958091B0008F7703C08091B000F8
:102FB0008F7D8093B00008953FB7F89480914003CF
:102FC00090914103A0914203B091430326B5A89B81
:102FD00005C02F3F19F00196A11DB11D3FBFBA2FAB
:102FE000A92F982F8827820F911DA11DB11DBC010B
:102FF000CD0142E0660F771F881F991F4A95D1F7D0
:103000000895089585ED8093BC008091BC0084FDF7
:10301000FCCF10926A0308950895E091F302809125
:10302000F202E81730F4F0E0EE52FD4F808190E0BC
:1030300008958FEF9FEF08959091F3028091F2022F
:10304000981750F4E92FF0E0EE52FD4F208130E068
:103050009F5F9093F30202C02FEF3FEFC9010895E5
:103060000E948C311F920F920FB60F9211242F9352
:103070003F934F935F936F937F938F939F93AF9300
:10308000BF93EF93FF938FE893E00E941F17FF9188
:10309000EF91BF91AF919F918F917F916F915F91D0
:1030A0004F913F912F910F900FBE0F901F90189549
:1030B0001F920F920FB60F9211242F938F939F930D
:1030C000EF93FF93E0919F03F091A0038081E09143
:1030D000A503F091A60382FD12C090818091A80300
:1030E0008F5F8F732091A903821751F0E091A8039D
:1030F000F0E0E157FC4F958F8093A80301C08081D9
:10310000FF91EF919F918F912F910F900FBE0F9094
:103110001F901895CF93DF93282F30E0F901E05BE3
:10312000FE4F8491F901E45CFE4FD491F901E85D12
:10313000FE4FC491CC2391F081110E94B317EC2F64
:10314000F0E0EE0FFF1FE25EFE4FA591B491EC910F
:10315000ED2381E090E021F480E002C080E090E087
:10316000DF91CF9108951F93CF93DF93282F30E005
:10317000F901E05BFE4F8491F901E45CFE4FD491CC
:10318000F901E85DFE4FC491CC23C9F0162F8111DF
:103190000E94B317EC2FF0E0EE0FFF1FEC5EFE4F26
:1031A000A591B4918FB7F894111105C09C91ED2FA2
:1031B000E095E92302C0EC91ED2BEC938FBFDF91FA
:1031C000CF911F910895CF93DF9390E0FC01E45CD1
:1031D000FE4F2491FC01E85DFE4F8491882361F14C
:1031E00090E0880F991FFC01E65FFE4FC591D491D6
:1031F000FC01EC5EFE4FA591B491611109C09FB72F
:10320000F8948881209582238883EC912E230BC02B
:10321000623061F49FB7F8943881822F80958323C0
:103220008883EC912E2B2C939FBF06C08FB7F89408
:10323000E8812E2B28838FBFDF91CF9108958F9245
:103240009F92AF92BF92CF92DF92EF92FF926B016B
:103250007C010E94DC174B015C01C114D104E10424
:10326000F104F1F00E94DC17DC01CB018819990907
:10327000AA09BB09883E9340A105B10570F321E07E
:10328000C21AD108E108F10888EE880E83E0981E82
:10329000A11CB11CC114D104E104F10419F7DDCF64
:1032A000FF90EF90DF90CF90BF90AF909F908F9066
:1032B00008952FB7F89460913C0370913D0380917D
:1032C0003E0390913F032FBF08951F920F920FB6B8
:1032D0000F9211242F933F938F939F93AF93BF939C
:1032E00080913C0390913D03A0913E03B0913F0338
:1032F00030913B0323E0230F2D3720F40196A11DCD
:10330000B11D05C026E8230F0296A11DB11D209313
:103310003B0380933C0390933D03A0933E03B09303
:103320003F038091400390914103A0914203B091EB
:1033300043030196A11DB11D809340039093410367
:10334000A0934203B0934303BF91AF919F918F919C
:103350003F912F910F900FBE0F901F9018951F92C5
:103360000F920FB60F9211242F933F934F935F93B9
:103370006F937F938F939F93AF93BF93EF93FF933D
:10338000E0910201F09103010995FF91EF91BF9146
:10339000AF919F918F917F916F915F914F913F91ED
:1033A0002F910F900FBE0F901F9018951F920F92A4
:1033B0000FB60F9211242F933F934F935F936F9308
:1033C0007F938F939F93AF93BF93EF93FF93E0917E
:1033D0000001F09101010995FF91EF91BF91AF912B
:1033E0009F918F917F916F915F914F913F912F911D
:1033F0000F900FBE0F901F9018951F920F920FB64F
:103400000F9211242F933F934F935F936F937F936A
:103410008F939F93AF93BF93EF93FF938091B900E6
:10342000887F803609F49CC068F5883209F45BC057
:1034300090F4803109F454C038F4882309F4F6C0BC
:10344000883009F44DC0F6C0883109F44CC0803290
:1034500009F45DC0EFC0803409F468C048F48033DB
:1034600009F455C0883309F0E5C080936803D8C0DB
:10347000803509F44FC0883509F45DC0883409F0FF
:10348000D9C0D6C0883909F4C7C0A8F4883709F470
:1034900067C038F4883609F463C0803709F460C027
:1034A000C9C0883809F4B8C0803909F45FC08038D1
:1034B00009F0C0C05BC0803B09F486C038F4803A94
:1034C00009F466C0883A09F47FC0B4C0803C09F4AE
:1034D000A7C0883C09F4A4C0883B09F48AC0AAC0EC
:1034E0008091450310C090916703809166039817FF
:1034F00070F5E091670381E08E0F80936703F0E041
:10350000EA5BFC4F80818093BB0085EC86C0809392
:1035100068038EC0E091670381E08E0F809367039C
:103520008091BB00F0E0EA5BFC4F808390916703E1
:10353000809166036EC0E091670381E08E0F8093F7
:1035400067038091BB00F0E0EA5BFC4F80838091D1
:10355000690381116DC081E08093440384EA61C0F6
:1035600083E080936A0310923A03CFCF80913A03AD
:10357000803208F051C0E0913A0381E08E0F8093D1
:103580003A038091BB00F0E0E65EFC4F8083BDCF44
:1035900085EC8093BC0010926A0380913A038032DC
:1035A00030F4E0913A03F0E0E65EFC4F1082609167
:1035B0003A0370E0E0911803F09119038AE193E077
:1035C000099510923A0336C084E080936A03109202
:1035D000170310921603E0911403F0911503099557
:1035E00080911603811105C081E08093160310922B
:1035F000F402E091170381E08E0F80931703F0E04F
:10360000EC50FD4F80818093BB0090911703809117
:103610001603981708F479CF85E88093BC000AC098
:1036200085EC8093BC0010926A0304C0109268037A
:103630000E940218FF91EF91BF91AF919F918F91DE
:103640007F916F915F914F913F912F910F900FBE9E
:103650000F901F90189540911603262F30E0240FED
:10366000311D21323105DCF420916A032430C9F484
:10367000FC0180E090E0861758F430911603219108
:10368000DC01AC50BD4FA30FB11D2C930196F3CFBD
:1036900080911603680F6093160380E0089581E01F
:1036A000089582E00895682F8CE294E00C94E70D71
:1036B00020918E0390918D03213208F04AC08091B1
:1036C0006A038111FCCF32E030936A0331E030931A
:1036D00069033FEF309368031092670320936603FA
:1036E000ADE6B3E046E453E0FA013E2F341B321757
:1036F00018F43D913193F9CF109245032091450381
:10370000990F922B9093450390914403913061F46B
:1037100010924403909145039093BB009091BC009C
:1037200093FDF8CF95EC01C095EE9093BC0090917D
:103730006A039230E1F3909168039F3F79F08091A2
:103740006803803241F080916803803331F084E077
:1037500005C081E003C082E001C083E010926C03E9
:1037600010928E0310926B030895FF920F931F9394
:10377000CF93DF931F92CDB7DEB7F42E082F10E062
:10378000C80169830E94A02E69818F1541F06817D6
:1037900028F46F2DC8010E945D0E01C0F82E8F2DF8
:1037A0000F90DF91CF911F910F91FF900895CF93CC
:1037B000DF93CDB7DEB76B970FB6F894DEBF0FBEC1
:1037C000CDBF789484B5826084BD84B5816084BDAA
:1037D00085B5826085BD85B5816085BD80916E00AF
:1037E000816080936E0010928100809181008260E0
:1037F000809381008091810081608093810080911D
:1038000080008160809380008091B100846080930B
:10381000B1008091B00081608093B00080917A0007
:10382000846080937A0080917A00826080937A002D
:1038300080917A00816080937A0080917A0080681C
:1038400080937A001092C1000E945F0E0E94591965
:103850004B015C014C9B07C08091AA029091AB0286
:1038600090FFC2C406C08091AA029091AB0290FD65
:10387000C6C48091AA029091AB0280FDE8C08091FD
:10388000620190916301892B09F460C0609162012B
:103890007091630110916101072E000C880B990B48
:1038A0000E9435306B017C01612F70E080E090E078
:1038B0000E9435309B01AC01C701B6010E948B2FDD
:1038C00060931E0270931F02809320029093210246
:1038D00020E030E040EC51E40E94E5309B01AC0177
:1038E00060E070E68AE697E40E948B2F0E94FD2F2D
:1038F00020912202309123022617370749F0709356
:103900002302609322028091A70281608093A70224
:103910001092630110926201C501B4010E9433301C
:1039200060935D0170935E0180935F0190936001ED
:1039300080915C0191E0980F90935C01811720F4D5
:1039400081E00E941E09F4CF10925C0180915B011E
:103950008F3F39F490915C0180916101981708F0D4
:10396000E9C08091AA029091AB0286FF15C0209118
:103970001E0230911F024091200250912102C50188
:10398000B4012A8F3B8F488F598F0E9433302A8D84
:103990003B8D488D598D50C040905D0150905E0127
:1039A00060905F0170906001C501B4010E943330E6
:1039B0006B017C019B01AC01C301B2010E94862F07
:1039C00087FFB8C080915C018F5F80935C0181E0CC
:1039D0000E941E0920911E0230911F024091200278
:1039E0005091210260915D0170915E0180915F01B3
:1039F000909160010E941A2F60935D0170935E01A7
:103A000080935F019093600160915D0170915E0110
:103A100080915F0190916001A70196010E94862F1D
:103A200087FF88C020911E0230911F024091200222
:103A300050912102C701B6010E941A2F60935D01C7
:103A400070935E0180935F019093600173C08091D9
:103A50005A01882309F46EC080915A0181508093E5
:103A60005A010E9459190091560110915701209155
:103A7000580130915901012B022B032BB1F0009119
:103A800056011091570120915801309159016B0155
:103A90007C01C01AD10AE20AF30AC0928601D092D0
:103AA0008701E0928801F09289016093560170933A
:103AB000570180935801909359018091AA029091E7
:103AC000AB0287FF09C01092040210920502109207
:103AD00006021092070213C0809104029091050221
:103AE000A0910602B09107020196A11DB11D80931D
:103AF000040290930502A0930602B09307028091FE
:103B0000AA029091AB0298609093AB028093AA02B4
:103B10008091AA029091AB028F779093AB02809331
:103B2000AA028091AA029091AB0284609093AB02AA
:103B30008093AA028091AA029091AB028F7B90930E
:103B4000AB028093AA028091AA029091AB0281FFFE
:103B500030C08091AA029091AB0284FF08C06CEF44
:103B60008FE893E00E9440171092550113C0809196
:103B7000AA029091AB0283FF02C06AEF07C0809156
:103B8000AA029091AB0285FF05C06BEF8FE893E02E
:103B90000E944017809155011816C4F48091550178
:103BA00081508093550168EF8FE893E00E944017A1
:103BB0000DC08091AA029091AB0284FF05C06CEF0A
:103BC0008FE893E00E944017109255018091AA025D
:103BD0009091AB02877C9093AB028093AA02809174
:103BE0005B018F3F09F44FC081112EC080915401B9
:103BF00010916101082E000C990B212F30E08217E3
:103C000093070CF440C080915301882349F0209120
:103C1000A8023091A90236FD03C061E00E94B318EA
:103C200080915401811B8093540181E080935B015A
:103C30008091A8029091A90297FD02C086E001C080
:103C40008CE0809361011FC0909152019815D9F0CA
:103C5000809252018F5F843118F480935B0102C01F
:103C600010925B0180915B018A3069F4809153016D
:103C7000882349F02091A8023091A90236FD03C0A3
:103C800060E00E94B3188091AA029091AB0282FF7B
:103C90001AC061E080E10E94B318D501C401059605
:103CA000A11DB11D8093120290931302A0931402E0
:103CB000B09315028091AA029091AB028B7F9093F2
:103CC000AB028093AA029E012F5F3F4F290180E142
:103CD000D9011D928A95E9F713E090916D018091C9
:103CE00064019817D1F08091AA029091AB0280FFF5
:103CF0000DC080912A0284FD8FC208C08B3F08F05E
:103D000098C2883F19F483E00E941E0980916D01DA
:103D10008F5F877080936D01E0CF80919E0283FF5B
:103D200007C0C0902502C094CC1CCC24CC1C01C080
:103D3000C12CA50194012C5E3F4F4F4F5F4F2C8B40
:103D40003D8B4E8B5F8B72E0672E22242394E2E141
:103D50003E2E8FE893E00E940917892B09F487C251
:103D60008FE893E00E94E7169C01207F3327203FD5
:103D7000310509F050C099278A3F9105D1F024F40C
:103D8000883F910541F0E5CF8B3F910501F18C3FD4
:103D9000910579F1DECF8091AA029091AB0280FF6C
:103DA000D8CF80912A0283FFD4CF82E00E941E09DF
:103DB000D0CF8091AA029091AB0280FFCACF8091B0
:103DC0002A0283FFC6CF82E00E941109C2CF8091F0
:103DD000AA029091AB0280FFBCCF80912A0283FFA0
:103DE000B8CF60926E018091AA029091AB0280627E
:103DF00039C28091AA029091AB0280FFAACF809134
:103E00002A0283FFA6CF10926E018091AA029091A0
:103E1000AB02806127C287FF10C0109273018093AC
:103E20007201203C310519F0203D310519F4209232
:103E300071018FCF609271018CCF30917201332369
:103E400009F487CFE091730191E09E0F9093730185
:103E50000E2E000CFF0BE554FD4F80832091710165
:103E6000892F990F990B422F50E0841795070CF476
:103E700070CF1092730161E088E02A8F3B8F0E941F
:103E8000B3184C895D896E897F8940931A025093DB
:103E90001B0260931C0270931D0280912B022A8DDD
:103EA0003B8D8F3F21F0932F9F709813A9C0932FC4
:103EB000907F80912A02903929F0903BD1F0903880
:103EC00009F079C081FD02C0CC2059F08501740150
:103ED0004091BC026091BB02832F988F0E94260AFA
:103EE000988DD090BB027090BC02903909F027C128
:103EF00091C085FF05C08091BB02883708F029CFAB
:103F00008091BA02833009F056C02091A802309106
:103F1000A90230FF50C08091BB02873481F050F479
:103F2000863409F048C08091BC028F77805480931A
:103F3000700141C0883451F0893489F03CC08091CF
:103F4000BC028F77805480936F0135C06091BC02B2
:103F500070E080E090E040E00E9401012CC03E7FD4
:103F60003093A9022093A802398A809170018A8B2C
:103F700080916F018B8B43E050E0BE016F5E7F4FFD
:103F800087EF9FE10E943C02882399F0409135021F
:103F900060E170E080E090E00E94580C68EE73E011
:103FA00080E090E00E941F198091A70281608093B9
:103FB000A7020E94AA03D0902A02D2FC04C08091DA
:103FC0009E0283FF0CC08501740120917101409114
:103FD000BC026091BB02809172010E94260AD0FE51
:103FE000B8CE80917201807F90912C02850174017E
:103FF000209171014091BC026091BB02892B07C0E6
:10400000850174014091BC026091BB02832F0E9424
:10401000260A9FCE772009F495C0DD2009F492C0CE
:1040200090919E0293FF19C08091240290912502E5
:1040300097FF8FCE809132028F3F09F48ACED81A33
:10404000D09254028091AC0281608093AC02809146
:10405000A70281608093A7027CCE6091700270916C
:104060007102E8E5F2E000E010E08FEF20E030E0E0
:10407000AD2DB0E0261737078CF4419151917A01AC
:10408000E894E7F8FF24EA16FB0609F4822F57FFAD
:1040900002C00F5F1F4F2F5F3F4FECCF10932802DE
:1040A0000093270287FD16C00115110599F0880FAE
:1040B000990BFC01E75BFD4F8785908997FD49CE01
:1040C0009068908B87870F5F1F4F10932802009393
:1040D00027023FCE0115110591F410927102109242
:1040E000700292FF0AC08091AA029091AB02806890
:1040F0009093AB028093AA0202C00E94E008209134
:104100007002309171022B3031050CF022CEF90192
:10411000EE0FFF1FE75BFD4F8D2D90E09068972914
:10412000908B87872F5F3F4F3093710220937002EF
:104130000F5F1F4F10932802009327024FC0903843
:1041400009F007CE2091700230917102E9E4F2E0AB
:10415000A0E0B0E0FF24FA9460E070E08D2D90E0E4
:10416000621773079CF4478550898A010F771127DE
:104170000817190729F45F77508B4787F62E02C07E
:1041800057FD11966F5F7F4F3296EACFB0932802AA
:10419000A093270280919E0282FDDBCDF7FCD9CD52
:1041A0008F2DFF0C990BBC01660F771F40E050E08C
:1041B000215031094E5F5F4F821793075CF40196DF
:1041C000FA01E60FF71FE75BFD4FA785B089B687B9
:1041D000A587F0CF30937102209370028091AC02DA
:1041E00081608093AC02B5CD8091AA029091AB0220
:1041F00091609093AB028093AA028BEF0AC08091EA
:10420000AA029091AB029E7F9093AB028093AA0288
:104210008CEF0E94C9082DCBE0916D01F0E0EB59C5
:10422000FE4F80818A3F09F069CD83E00E94110929
:104230006DCD8B3F41F410936E018091AA02909155
:10424000AB0280620AC08C3F09F060CD10926E0113
:104250008091AA029091AB0280619093AB0280930F
:10426000AA0254CD9093AB028093AA0272CD8091A2
:104270009E0282FD0EC08091270290912802892B18
:1042800041F48091700290917102892B11F00E948B
:104290009F078091AC0280FF09C00E94B603809105
:1042A000AC028E7F8093AC02109226028091AA020B
:1042B0009091AB0293FFA6C180913302909134029A
:1042C000892B09F49FC120918202222309F49AC10B
:1042D000609104027091050280910602909107029C
:1042E00030E040E050E00E94E82E60930302672B2C
:1042F000682B692B01F5809193028823E1F0E0910E
:104300002F02F0E0E75BFD4F82AD809354020E94E4
:10431000B6031092260280912F028F5F80932F02A6
:1043200090919302891710F010922F028091A702AA
:1043300081608093A70260900302862D90E0BC010B
:10434000675B7D4F3B01DB0199962C9120FD06C0F8
:10435000809124029091250295FF47C1C0903302BD
:10436000D090340280913002909131028C159D05DD
:104370006CF0109231021092300280914C02843025
:1043800029F48091AC0281608093AC02221F222725
:10439000221F220F30E0F301B996FD8BEC8B809148
:1043A000300290913102223051F0FC01EE0FFF1FDC
:1043B000E557FE4F3180331C3324331C02C03324B5
:1043C0003394AC89BD892C9120FF82C0880F991F3E
:1043D000FC01E557FE4F308181813F7725FF04C006
:1043E0003D3010F03C500BC024FF04C0343710F4B3
:1043F000345F05C026FF03C0353008F0355090917A
:10440000AC0291FD0FC023FF03C0209052020BC0ED
:1044100090915002992319F02090510204C08F7797
:10442000282E01C0212C8091BA02833071F4809132
:10443000A8029091A90296FF08C023FB662760F9A5
:104440008BE03B8F0E94B3183B8D332309F440C0AF
:1044500080912A0286FF15C080918401821589F01F
:104460003B8F0E94591950912C027B018C0122E054
:10447000422D69E2852F806B0E94260A20928401DA
:104480003B8D80912C028501740122E0422D632F27
:1044900080693B8F0E94260A3B8D832F877041E005
:1044A00050E001C0440F8A95EAF7832F90E023E0A3
:1044B000959587952A95E1F7FC01EC58FE4F2081F0
:1044C000242B2083F201E80FF91F8081482B4083C1
:1044D0008091300290913102019690933102809345
:1044E0003002311003C0311107C051C021E08C15DA
:1044F0009D050CF454CFF7CFF30111A512FD03C0B5
:104500001695117001C012E08091BA028330E9F46F
:1045100020918A01632F70E080E090E0222321F057
:1045200041E00E9401010DC040E00E94010160E0F5
:104530008EE00E94B31861E070E080E090E00E949D
:104540001F1961E08EE00E94B318A201C501B401F9
:104550000E948D0B123061F41092BD021092BE02C7
:104560001092BF021092C00281E080938A013DC088
:10457000113069F48091860190918701A0918801A2
:10458000B0918901880D991DAA1DBB1D1BC0A0916A
:104590005302AA2301F120918601309187014091B5
:1045A000880150918901B0E00E94D52E26E930E0C3
:1045B00040E050E00E94E82ED501C401820F931F15
:1045C000A41FB51F8093BD029093BE02A093BF02AB
:1045D000B093C00208C01092BD021092BE021092A9
:1045E000BF021092C00210928A0181E0809385017F
:1045F0008091AA029091AB02977F9093AB02809337
:10460000AA0215C08091BD029091BE02A091BF0286
:10461000B091C0020097A105B10511F40C949D2D35
:1046200088159905AA05BB0510F40C94A52D809159
:10463000090290910A02A0910B02B0910C02881518
:104640009905AA05BB05C8F410910802612F8DE0F9
:104650000E94B31881E0111180E080930802D50117
:10466000C4018C509E4FAF4FBF4F8093090290936F
:104670000A02A0930B02B0930C0280911A0290914F
:104680001B02A0911C02B0911D020097A105B1056B
:1046900089F088159905AA05BB0560F460E088E0FB
:1046A0000E94B31810921A0210921B0210921C0260
:1046B00010921D028091160290911702A09118028B
:1046C000B09119020097A105B10589F088159905E7
:1046D000AA05BB0560F460E081E10E94B318109266
:1046E000160210921702109218021092190280916D
:1046F000120290911302A0911402B091150200973A
:10470000A105B10589F088159905AA05BB0560F4D6
:1047100060E080E10E94B31810921202109213021E
:104720001092140210921502C0900E02D0900F0247
:10473000E0901002F0901102D701C6018C599F4FF2
:10474000AF4FBF4F88169906AA06BB0608F43FC0B4
:104750008CE00E948A1820919E02892BF1F420FDA2
:1047600004C0216020939E022AC0822F827179F5B5
:104770008091960290919702B701A601480F591FA8
:10478000611D711D481559056A057B0500F52A60F4
:1047900020939E0210920D021AC020FF18C0822F93
:1047A000827141F423FF02C0277F02C084E02827E2
:1047B00020939E0280919E028C7E80939E02809226
:1047C0000E0290920F02A0921002B0921102F0908D
:1047D0009E02F3FE06C060910D02661F6627661FEB
:1047E00003C0F2FA662760F989E00E94B31890913D
:1047F000A702592F5170652E692F6E7F6093A70213
:10480000782C082D007F8091A602807F801719F0F8
:104810008092A60201601091A5021F3F89F08FEFE0
:104820008093A502A5019401205F384D4F4F5F4F43
:104830002093A1023093A2024093A3025093A402BA
:104840008091A0028F3F49F480919F02833009F04C
:104850004EC084E080939F024AC02FEF2093A002B5
:104860002F2D23702130B1F42091BA022350223031
:1048700088F42F2D206120939E02843031F08830FF
:1048800031F0882331F080E005C081E403C082E488
:1048900001C080E420919D0230E0482F082E000CDA
:1048A000550B4217530721F420919F02243079F4CD
:1048B00080939D0281E080939F0210929902109252
:1048C0009A0210929B0210929C02662463947501D6
:1048D000640170E1C70E77E2D71EE11CF11CC092A3
:1048E000A102D092A202E092A302F092A4028091CF
:1048F00098028F3F09F441C0862F82608093A702FF
:104900008091990290919A02A0919B02B0919C0291
:104910000097A105B10599F48091960290919702B4
:1049200075016401C80ED91EE11CF11CC0929902E8
:10493000D0929A02E0929B02F0929C022AC08815C3
:104940009905AA05BB0528F580919F02823020F4C5
:1049500082E080939F020EC083E080939F028FEFDE
:104960009FEFDC018093990290939A02A0939B029F
:10497000B0939C02662463940CC09C7F94609093D7
:10498000A7021092990210929A0210929B02109222
:104990009C028091A1029091A202A091A302B091E9
:1049A000A4020097A105B105B9F088169906AA06D8
:1049B000BB0690F08091A80284FF04C010929D0273
:1049C00010929F021092A1021092A2021092A302D2
:1049D0001092A4026624639480919D02863009F4AB
:1049E000DAC390F4823009F45DC338F4882309F403
:1049F000A2C7813009F478C19EC790919F0284308C
:104A0000C1F008F456C5BCC18A3009F400C440F4B2
:104A100090919F02883009F453C008F4FAC5E1C2AE
:104A20008B3009F454C690EC980F933008F4CEC63E
:104A300082C7933070F1103100F52FE030E0211B78
:104A4000310917FD339581E090E002C0880F991F6E
:104A50002A95E2F79C012F71232B79F02091A8026F
:104A60003091A902822793279093A9028093A802EC
:104A70000E94AA030E945D0303C0662009F45FC779
:104A80006091A8027091A9028FE19FEF0E942C0C07
:104A900056C7103120F41F5F1093820203C06620B6
:104AA00009F44DC70E94680C6091820270E0409149
:104AB000460280E090E00E94580CE091820296C38A
:104AC000933008F459C01F3041F50E94591940E055
:104AD00050E00E948D0B86E090E090934B02809313
:104AE0004A0288E790E090932302809322028BEAA7
:104AF0009AEAA6EAB1E480931E0290931F02A09363
:104B00002002B09321020E94E0080E94B207809127
:104B10009E02887E80939E0221C01031F8F42FE01F
:104B200030E0211B310917FD339581E090E002C090
:104B3000880F991F2A95E2F79C012227307A232BB0
:104B400069F02091240230912502822793279093C7
:104B50002502809324020E94290803C0662009F4DC
:104B6000EEC6609124027091250280E090EA0E94D6
:104B70002C0C80914702F6C21C30C1F05CF4173057
:104B800008F096C010934C028091AC028160809333
:104B9000AC0291C01E3009F47AC00CF44FC01F3033
:104BA00009F086C0E2E7F2E081E07CC002E712E0B3
:104BB000D8018C9181708C938823C1F10E94922E30
:104BC00028E030E040E050E00E94B62E65307105EC
:104BD0008105910509F174F4633071058105910532
:104BE000B9F0643071058105910501F5D8018C910A
:104BF000846019C0663071058105910589F06730C0
:104C000071058105910591F4F801808182610DC0E3
:104C1000F8018081886009C0F8018081826005C048
:104C2000D8018C9180618C9301C080830F5F1F4FEE
:104C3000F2E002381F0709F0BBCF3AC002E712E0EA
:104C4000FF24F39489E0E82E0E94922E25E030E0C4
:104C500040E050E00E94B62E97FD10C06230710512
:104C60008105910544F0643071058105910531F4A9
:104C7000F801E08205C0D8011C9202C0D801FC9264
:104C80000F5F1F4FB2E002381B07F1F611C0E2E7D9
:104C9000F2E0119222E0E238F207D9F780E1809346
:104CA000820206C0819332E0E238F307D9F7F6CFEB
:104CB000662009F444C60E94680C10914702412FF7
:104CC00067E070E080E090E00E94580CE0914C02B8
:104CD000F0E080913502EA5CFD4F8083412F64E073
:104CE00070E08CE090E0C1C480919F02833048F175
:104CF0001C3040F4109355028091AC028160809387
:104D0000AC0203C0662009F41AC60E94680C4091E8
:104D100047026CE070E080E090E00E94580C8091C7
:104D20004602809337028093390280933C0280933D
:104D30003E0280934002E09155020E2E000CFF0BC4
:104D4000C1C4173048F4135010934D028091AC0247
:104D500081608093AC0203C0662009F4F0C50E9414
:104D6000680C4091460267E070E080E090E00E94AD
:104D7000580C8091470280933902E0914D021DC585
:104D8000933008F413C117FD7FC0812F110F990BC9
:104D9000AA0BBB0B8031910508F070C0FC01EC5CE4
:104DA000FF4F0C94723180915602909157028F6F91
:104DB0009F6060C080915602909157028827907F33
:104DC000856D9A6057C0809156029091570288274E
:104DD000907F86659B604EC08091560290915702ED
:104DE0008827907F8A659D6045C08091560290918A
:104DF00057028827907F856B9A603CC0809156024D
:104E0000909157028827907F866D9A6033C0809179
:104E10005602909157028827907F8A659B602AC02E
:104E200080915602909157028827907F8A669D60F4
:104E300021C080915602909157029F781BC08091AB
:104E40005602909157029F78906114C0809156024B
:104E5000909157029F7890620DC080915602909178
:104E600057029F78906306C0809156029091570236
:104E70009F78906490935702809356028091AC0281
:104E800081608093AC0203C0662009F458C50E947B
:104E9000680C10914602412F68E070E080E090E0DD
:104EA0000E94580C412F65E070E08BE090E00E947A
:104EB000580C8091470280933602809344022091DF
:104EC000560230915702C9019F7086354BE0940716
:104ED00079F180F4853D6AE0960729F1863D7AE014
:104EE000970781F1853B9A40B1F580913502809317
:104EF0003A0231C08A35BDE09B07F9F040F48A35AB
:104F00009B4049F58091350280933C0224C08A364B
:104F10004DE09407E1F08F3F9F40E9F48091350226
:104F20008093360218C0809135028093370213C0F7
:104F300080913502809338020EC0809135028093B3
:104F4000390209C08091350280933B0204C08091F0
:104F5000350280933D02C90188279077811560E270
:104F60009607D1F058F4009791F08115904109F01F
:104F7000E6C48091350280934202E1C48115B0E31A
:104F80009B0779F08115904409F43EC1D8C4809103
:104F9000350280934102D3C480913502809343024D
:104FA000CEC48091350280934402C9C4143048F4C1
:104FB0001F5F10934E028091AC0281608093AC021F
:104FC00003C0662009F4BBC40E94680C40914602ED
:104FD00064E070E080E090E00E94580CE0914E02A6
:104FE00005C19230B1F40E949F0710922602D12C85
:104FF0000E9459197B018C0180912C0222E040E033
:105000006D2D80680E94260AD394F0E8DF12F0CF5D
:1050100096C48EE0E8E0F1E0D20101900D928A950D
:10502000E1F71E3060F4F201E10FF11D17FDFA9572
:10503000808190E090934B0280934A0203C06620E7
:1050400009F47DC40E94680C409146026DE070E056
:1050500080E090E00E94580C8091470280933602D5
:105060008093380280933B0280933E0280934102FA
:105070008093430240914A0250914B02F20180E03A
:1050800090E0219130E04217530739F42091350226
:10509000FC01EA5CFD4F208352C401968E309105DD
:1050A00081F74DC480919F02833060F180E1E6E199
:1050B000F1E0D20101900D928A95E1F7103148F4A8
:1050C000F201E10FF11D17FDFA95808180935202E4
:1050D00003C0662009F433C40E94680C3091520268
:1050E000209147028FE090E0F201E80FF91F408124
:1050F000FC01EA5CFD4F341708F044C0208301979F
:1051000098F71DC480E1E6E1F1E0D20101900D9233
:105110008A95E1F711110BC080915102811109C0EC
:1051200080915002882329F01092500211C0103152
:1051300060F4F201E10FF11D17FDFA958081809373
:10514000510281E08093500203C0662009F4F7C346
:105150000E94680C80915002811107C08091350235
:105160008093360280934502EAC330915102209128
:105170004702D20180E090E04D91FC01EA5CFD4FD6
:10518000431718F0809135021FC3208301968031A8
:10519000910591F7D4C31F3048F4110F1E5FE12F22
:1051A000EE0FEE0F1E0F1093530208C01F3019F4BC
:1051B0001092530203C0662009F4C1C30E94680C18
:1051C000809153028823C1F01AE0612F0E9452316E
:1051D000682F70E04091470280E090E00E94580CF8
:1051E00080915302612F0E945231E82FF0E08091AC
:1051F0003502EB5CFD4FE8C24091470260E170E090
:1052000080E090E00E94580C80913502ABCF8091F5
:105210009F02833008F479C0103108F043C041E0A8
:1052200050E002C0440F551F1A95E2F78091940296
:1052300090919502482759275093950240939402E4
:10524000109228021092270280E090E020E330E0E4
:1052500061E070E0FB01E423F523EF2B69F08B3074
:10526000910554F4FC01EE0FFF1FE75BFD4FD901E0
:10527000BF67B08BA7870196660F771F2F5F3F4FE1
:105280002034310539F79093710280937002809138
:10529000AC0281608093AC0280919E028460809316
:1052A0009E0203C0662009F44AC3A0919402B09103
:1052B00095021091350200914702F090460221E0DC
:1052C00030E080E090E0A9014A235B23BC016A5CE6
:1052D0007D4F6B018F30910550F4BC016C5B7F4FAB
:1052E000FB010C947231452B31F4402F05C0452B46
:1052F00011F44F2D01C0412FF6014083220F331FBF
:10530000019680319105F9F61AC3812F012E000C08
:10531000990BAA0BBB0B8031910508F0AEC0FC01C4
:10532000ED5AFF4F0C94723110934F028091AC02F2
:1053300081608093AC02A4C00E94922E23E030E0F2
:1053400040E050E00E94B62E6E5F7F4F7093710276
:1053500060937002E8E5CE2EE2E0DE2E00E010E081
:105360008091700290917102081719070CF077C0B4
:105370000E94922E2CE030E040E050E00E94B62ED9
:105380007B01F0E3EF0EF11CE8E5F2E080E090E055
:10539000801791070CF0F3C3219131912F773327B8
:1053A0002E153F0529F30196F3CF80E39FE79093F5
:1053B00059028093580283E39FE71DC080E39FE773
:1053C000909359028093580284E39FE790935B0285
:1053D00080935A0287E39FE790935D0280935C027B
:1053E0008BE39FE714C080E39FE79093590280937B
:1053F000580284E39FE790935B0280935A0287E30D
:105400009FE790935D0280935C028AE39FE790930D
:105410005F0280935E0284E090E01DC080E39FE71E
:10542000909359028093580283E39FE708C080E37A
:105430009FE7909359028093580284E39FE79093EB
:105440005B0280935A0287E39FE790935D0280930B
:105450005C0283E090E0909371028093700210925E
:105460009502109294028091AC0281608093AC020C
:1054700080919E02846080939E02662009F45FC240
:105480000E94680C4091460265E070E080E090E088
:105490000E94580CE0914F02F0E080913502EA5CE6
:1054A000FD4F80834091470266E070E08AE090E023
:1054B000DCC0933008F4A8C0111104C060912A0226
:1054C00081E023C0113021F460912A0282E01DC0E6
:1054D000123021F460912A0284E017C0133021F4C5
:1054E00060912A0288E011C0143021F460912A02F0
:1054F00080E10BC0153021F460912A0280E205C0E2
:10550000163049F460912A0280E4682760932A02E9
:1055100088E690E01BC0173079F460912A02605849
:1055200060932A0288E690E00E945D0E80912A0234
:1055300080780E94090C10C0183059F4609129023B
:1055400081E06827609329028DE690E00E945D0E5D
:1055500003C0662009F4F3C10E94680C80912A02FE
:1055600080FF03C09091350202C090914602909353
:10557000360281FF03C09091350202C0909146022D
:105580009093370282FF03C09091350202C0909140
:1055900046029093380283FF03C09091350202C007
:1055A000909146029093390284FF03C09091350296
:1055B00002C09091460290933A0285FF03C09091F9
:1055C000350202C09091460290933B0286FF03C0D1
:1055D0009091350202C09091460290933C0287FF61
:1055E00003C08091350202C08091460280933D0243
:1055F0008091290280FF03C08091350202C0809112
:10560000460280933E029BC1662D812F0E94F011BD
:1056100096C1933068F11031C8F480912B0290E06C
:10562000212F012E000C330B8217930729F48FEFE3
:1056300080932B026FEF03C010932B02612F84E63F
:1056400090E00E945D0E0E949F0703C0662009F44F
:1056500076C10E94680CE0912B02EF3F91F54091DA
:10566000350260E170E080E090E00E94580C67C174
:105670001031C0F480912C0290E0212F012E000CFB
:10568000330B8217930731F00E94591940E050E024
:105690000E948D0B10932C02612F85E690E00E94F2
:1056A0005D0E03C0662009F44AC10E94680C409157
:1056B000460260E170E080E090E00E94580CE091CA
:1056C0002C02F0E080913502EA5CFD4F7DC0103184
:1056D00008F043C08091A70281FF2EC082FF0BC05B
:1056E00010922F021092930210922E0210922D020D
:1056F0008B7F8093A702A0919302AF3088F581E061
:1057000090E0012E02C0880F991F0A94E2F72091C1
:105710002D0230912E02822B932B90932E02809398
:105720002D0281E08A0F80939302B0E0A75BBD4F0A
:105730001350DA961C9314C010922F021092930209
:1057400010922E0210922D02135010935402809149
:10575000AC0281608093AC0203C0662009F4EFC004
:105760004091460260E170E080E090E00E94580CB9
:1057700020912D0230912E02286030932E0220932A
:105780002D026091470280E090E041E050E0FA0194
:10579000E223F323EF2B21F0FC01EA5CFD4F608351
:1057A000440F551F01968031910589F7E09154020D
:1057B00083E08E0F803108F0C2C00E2E000CFF0B6C
:1057C00080913502E75CFD4F8083B9C0103108F04D
:1057D00062C0813409F43FC0823409F44BC0812F88
:1057E0000E944203882309F456C04DE450E069E466
:1057F00072E080E0912F990F0E949C021092340277
:10580000109233028FEF8093320210923102109285
:10581000300210922F0210922E0210922D028091CF
:105820009E028C7E846080939E0210929F0281E093
:105830008093A7028091AC0281608093AC0280913A
:10584000AA029091AB0280689093AB028093AA0267
:105850001093480220C080EA809349024DE450E052
:1058600069E472E080E0912F990F0E943C0210934E
:10587000480213C0198241E050E0B20180E0912F4C
:10588000990F0E943C0280914802181306C08FEFC6
:105890008093480202C06620B1F000E010E0802F43
:1058A0000E944203882319F08091470202C0809130
:1058B0004602F801EA5CFD4F80830F5F1F4F003105
:1058C000110569F73CC000FF3AC0007F91E009F084
:1058D00090E040914802042E000C550B8091460246
:1058E000109147027091350220E030E0DA01AA5CA5
:1058F000BD4FF901EA5CFD4F60812417350759F46B
:10590000681721F0992321F0672F03C0682F01C089
:10591000612F6C930AC0681721F0911104C0672FA2
:1059200003C0682F01C0612F60832F5F3F4F20317C
:105930003105F9F604C0662D812F0E94730C809109
:10594000BA02833009F058C08091B902781609F480
:10595000F0C08092B9024091B5025091B6026091B8
:10596000B7027091B802411551056105710509F43E
:10597000E0C08091B1029091B202A091B302B091C7
:10598000B402840F951FA61FB71F8093B102909396
:10599000B202A093B302B093B4020091AD02109191
:1059A000AE022091AF023091B00214161506160611
:1059B000170634F480179107A207B30734F415C013
:1059C000081719072A073B0784F00093B1021093C8
:1059D000B2022093B3023093B4021092B502109237
:1059E000B6021092B7021092B8028091B302909161
:1059F000B4020E94DD009DC0813009F09AC0D5013B
:105A0000C40134E0B695A795979587953A95D1F757
:105A10002091B902281709F48CC08093B9028091B3
:105A2000AC028D7F8093AC028091AA029091AB0270
:105A30009B7F9093AB028093AA02E090A802F09023
:105A4000A902C70188279370811522E0920759F0B7
:105A5000811533E0930759F08115914089F4950140
:105A6000840141E007C09501840140E803C095012D
:105A7000840142E165E070E08CE394E00E94700AEA
:105A8000C70188279C70811558E0950759F081154A
:105A90006CE0960759F08115944089F495018401D2
:105AA00042E807C09501840143E803C095018401E1
:105AB00041E164E070E08AE394E00E94700AC7016B
:105AC000882790738115A0E29A0759F08115B0E3F9
:105AD0009B0759F08115904189F49501840141E8B3
