:100000000C94A1000C943F140C9418140C94C90087
:100010000C94B9070C94C9000C94C9000C94C90045
:100020000C94C9000C9483100C94C9000C94C90062
:100030000C94C9000C94C9000C94C9000C94C9001C
:100040000C94CE130C94C9000C94C1120C949B1206
:100050000C94C9000C94C9000C94C9000C94C900FC
:100060000C9466140C94C900C023C723D023D92351
:10007000E223EB23F423FD232B242B242B2406241F
:100080000C2413241A242124602664266026642666
:100090006026602664266026642660266426602624
:1000A0006026642660268126812681268126812677
:1000B0002A272A272A272A272A278926C226CB2623
:1000C000E026FB260427D00BFA0BC00C450C450C90
:1000D000450C450C450C450C450C450C450CC00C1D
:1000E0004A0C880C9E0C00000000240027002A0007
:1000F00000000000250028002B0000000000230065
:100100002600290004040404040404040202020278
:1001100002020303030303030102040810204080CA
:100120000102040810200102040810200000000849
:1001300000020100000304070000000000000000AE
:100140002C2C11241FBECFEFD8E0DEBFCDBF11E0B5
:10015000A0E0B1E0E4E8FFE502C005900D92A23511
:10016000B107D9F724E0A2E5B1E001C01D92AC339C
:10017000B207E1F710E0C1EAD0E004C02197FE0128
:100180000E94A12FC03AD107C9F70E94F11A0C941E
:10019000C02F0C940000909353018093520128E1EA
:1001A000289FB001299F700D1124072E000C880B89
:1001B000990B0E94642E9B01AC0160E070E68AE618
:1001C00097E40E94BA2D609358017093590180936F
:1001D0005A0190935B010895E82F8091A102982F16
:1001E000907181FF11C0911104C08F7D8061809357
:1001F000A102E93024F1E850E09331038091A1029B
:1002000080628093A10222C0992329F085FD03C05A
:100210001092310361E08F7C8093A102EF3F79F06F
:100220000E2E000CFF0BED5BFD4FA0913103B0E0F3
:10023000AA5DBE4F91A58C91892781A707C0611146
:1002400005C080918601882309F448C0E0913103FC
:1002500050914202E11121C080E090E0FC01ED5B91
:10026000FD4F31A5232F217030FD252FFC01EF5CC0
:10027000FD4F208301968031910581F780912E02F8
:1002800090912F02892B41F1E0910402F0E08091DE
:100290003002EF5CFD4F80831FC04091410280E03F
:1002A00090E0F0E0EA5DFE4FDC01AD5BBD4F99965A
:1002B0002C91DC01AF5CBD4F308120FF04C02323B3
:1002C00021F0252F03C0232309F0242F2C9301961E
:1002D0008031910549F7D2CF109286010895CF93CE
:1002E000DF931F92CDB7DEB7682F81E0809369035B
:1002F00080E680938B0310926A0310928C03292F5F
:10030000392F330F330BC9018F70992769830E94EE
:100310006D1A69818AE294E00E94F8150F90DF91CE
:10032000CF910C94721A8F929F92AF92BF92CF92FC
:10033000DF92EF92FF92CF93C42F9B01AC012C5020
:10034000310941095109A4EFB1E00E94042D2CE0CC
:1003500030E040E050E00E94E52CA09171010A2EAF
:10036000000CBB0BB05F0E940F2D20E030E140E09D
:1003700050E00E94E52CC09070010C2C000CDD08B0
:10038000EE08FF08C20ED31EE41EF51EF7FE07C0DE
:1003900084EFC80E81E0D81EE11CF11CF7CFC11418
:1003A00080E1D806E104F1043CF084EFC81A81E052
:1003B000D80AE108F108F3CFD6019927882780935E
:1003C000A7029093A802A093A902B093AA02209139
:1003D0008701309188014091890150918A01809074
:1003E000AB029090AC02A090AD02B090AE02BC0106
:1003F000CD01681979098A099B090E94E52C20938F
:10040000AF023093B0024093B1025093B202CC23BA
:1004100021F0232B242B252BD9F4C6010E946F0138
:100420008091A7029091A802A091A902B091AA027E
:100430008093AB029093AC02A093AD02B093AE0256
:100440001092AF021092B0021092B1021092B2025A
:10045000CF91FF90EF90DF90CF90BF90AF909F90A3
:100460008F900895AF92BF92CF92DF92EF92FF925A
:100470000F931F93CF93DF938C017B01EA01BB2481
:10048000B39480E5A82E1C161D060CF040C0B09257
:100490006903A0928B0310926A0310928C03812F40
:1004A000912F990F990B0E946D1AC80199270E94EC
:1004B0006D1ACE01C131D10514F080E190E0080F32
:1004C000191FC81BD90B6701E80EF91EF6016191CF
:1004D0006F018AE294E00E94F815CE14DF04B1F7B0
:1004E0000E94721AB0926903A0928B0310926A0361
:1004F00010928C0380E090E00E946D1A80E090E002
:100500000E946D1A0E94721A823061F3BCCFDF9193
:10051000CF911F910F91FF90EF90DF90CF90BF9000
:10052000AF9008958F929F92AF92BF92CF92DF9239
:10053000EF92FF920F931F93CF93DF937C018B0178
:10054000EA0181E08093690380E580938B03109238
:100550006A0310928C038F2D9F2D990F990B0E9487
:100560006D1AC70199270E946D1A0E94721ADD2424
:10057000D394CC24CA9485EE982E95EC892E2FEB3B
:10058000E22E22E0F22E1C161D060CF063C0FE01C6
:10059000C132D10514F0E0E2F0E0CE1BDF0B809118
:1005A00068038111FCCF2E2FD0926803D09267038D
:1005B000C0926603109265039FEF9E0F90936403B1
:1005C000D092430390914303906A90934303909198
:1005D0004203913069F41092420390914303909347
:1005E000BB009091BC0093FDF8CF8092BC0002C08C
:1005F0009092BC00909168039130E1F39091650373
:10060000921710F42091650344E453E06FEB72E01D
:10061000962F9E19921738F4DA019D91AD01DB01F6
:100620009D93BD01F5CF1092E0022093DF0230E0F0
:100630002E173F0781F458010E0F1F1FA016B10699
:1006400009F4A1CF8AE294E00E948512F50181931A
:100650005F01F4CF81E0DF91CF911F910F91FF9067
:10066000EF90DF90CF90BF90AF909F908F900895C4
:10067000CF93DF931F92CDB7DEB71982982F990FD2
:1006800041E050E0BE016F5F7F4F80E00E94920228
:10069000882321F081E09981903A09F080E00F9061
:1006A000DF91CF9108958091A2029091A3029C01C5
:1006B000237033272230310581F023303105A9F032
:1006C0002130310511F024E601C02FEF20933002D4
:1006D00023E02093420221E00FC02FEF209330024D
:1006E00029E12093420224E007C02FEF209330023B
:1006F00023E2209342022AE0209341028C70992742
:100700008430910569F018F4892B39F00895883008
:10071000910549F00C9751F008958AEF90E008C0D8
:1007200084EF91E005C088EE93E002C08CED95E087
:10073000909391028093900208956091A20289E6BD
:1007400090E00E946E166091A3028AE690E00C94FD
:100750006E162F923F924F925F926F927F928F927E
:100760009F92AF92BF92CF92DF92EF92FF920F9340
:100770001F93CF93DF93CDB7DEB7C55AD1090FB61C
:10078000F894DEBF0FBECDBF8FEF809385018093BD
:100790002D0210922F0210922E0280916A029091E7
:1007A0006B02892B09F4ACC380914602833008F0B8
:1007B00041C0CE0187589F4F0E940A2C20916A02A7
:1007C00030916B0221503109FE01E758FF4F80E064
:1007D00090E0DD24D39482179307BCF441915191AA
:1007E000608171817A01E894E7F8FF24DB01AF773B
:1007F000BB27AE15BF053CF4DF0112976D937C93C8
:1008000051834083D12C0196E6CFDD20E9F280911F
:10081000520280932D02E1E0F0E0612C712C2FE771
:1008200030E0CF56DF4F39832883C159D040E12CC7
:10083000F12C6DC0CE0187589F4F0E940A2CE9CF42
:100840006CE3E616F1040CF060C240914602209180
:100850006A0230916B02423009F41FC108F46CC087
:10086000433009F48DC0463008F4F5C020916A0287
:1008700030916B02C656DF4F39832883CA59D04066
:1008800080914F02482F880F550BC456DF4F598374
:100890004883CC59D0402091500230915102C85623
:1008A000DF4F39832883C859D0404901882430E775
:1008B0009322A201440F551FC256DF4F598348832C
:1008C000CE59D0409801220F331FC056DF4F3983D5
:1008D0002883C05AD040CC56DF4F19821882C459A1
:1008E000D04041E017FF33C14FEFC41AD40A5091F2
:1008F0004802852F90E0C816D9060CF4A1CF309796
:1009000009F403C27CE3E716F1040CF0FEC1809108
:10091000500290915102905890935102809350024E
:10092000392F331F3327331FCD56DF4F3883C35939
:10093000D040C12CD12CDBCF442309F48CC04130F2
:1009400009F094CF89010150110920914E02309194
:100950004702830F911D37FD9A958C199D090197C8
:100960003CE0389F1001399F300C1124220E311CBD
:1009700027FD3A9444244A94542CA12CB12C8AC0CB
:10098000FE01E758FF4F80E090E08217930724F4C0
:10099000119211920196F9CFB2E5AB2EB2E0BB2EC7
:1009A00000E010E080916A0290916B02081719072D
:1009B0000CF051C020916A0230916B02032E000CA2
:1009C000440B550B211531054105510571F1CE55EB
:1009D000DF4F2883C25AD040CD55DF4F3883C35AEA
:1009E000D040CC55DF4F4883C45AD040CB55DF4F61
:1009F0005883C55AD0400E94C12CCE55DF4F288164
:100A0000C25AD040CD55DF4F3881C35AD040CC5563
:100A1000DF4F4881C45AD040CB55DF4F5881C55A6B
:100A2000D0400E94E52C9B01AC01220F331FE9E767
:100A3000F0E0EC0FFD1FE20FF31F80819181892B05
:100A400009F0B8CFD5018D919D915D01918380838F
:100A50000F5F1F4FA7CFA0906A02B0906B02B1E06A
:100A6000AB1AB10880914E02909147029601290F6E
:100A7000311D97FD3A959CE0929F1001939F300C99
:100A80001124280E311C87FD3A9444244394512CA0
:100A900000E010E0E0E0F0E0E9CE60914E027091FD
:100AA0004702E130F10501F5590141E0A41AB1080E
:100AB0009601270F311D77FD3A954CE0429F1001BA
:100AC000439F300C1124260E311C67FD3A94019788
:100AD00044244394512C00E010E0C816D90609F0D4
:100AE000C5CEE2E0F0E0C2CE513021F489010250DF
:100AF000110910C0C114D10421F489010250110957
:100B00000FC0AC0141505109890101501109C416AF
:100B1000D50631F4AA24A394B12CE0E0F0E002C0A1
:100B2000A12CB12C870F911D77FD9A958C199D09E9
:100B300001972CE0289F1001299F300C1124260ECC
:100B4000311C67FD3A9444244A94542C8FCEC656E7
:100B5000DF4F28813981CA59D040021713070CF0A2
:100B6000C3CE3CE3E316F1040CF0BECECC56DF4F0F
:100B7000A881B981C459D040C056DF4F288139813E
:100B8000C05AD040A20FB31F69E770E06C0F7D1F01
:100B9000A60FB71F2D913C91CA56DF4F398328838A
:100BA000C659D0402F773327220D331DC901C456B3
:100BB000DF4F68817981CC59D040861B970B97FF16
:100BC00002C00C96FCCF6CE070E00E948D2FA0E07C
:100BD000B8E002C0B595A7958A95E2F7CD01C85651
:100BE000DF4F68817981C859D04086239723892BAC
:100BF000B1F5811470E29706A9F058F481149104BC
:100C000009F468C0811490E1990649F520E030E0CC
:100C100026C08114A0E39A0641F08114B0E49B063B
:100C200039F01DC0215031091AC02F5F3F4F17C046
:100C3000CD56DF4F5881C359D040552319F02F5F4F
:100C40003F4F02C021503109CD56DF4F6881C35953
:100C5000D0406427CD56DF4F6883C359D040203839
:100C600031051CF02C503109FACF37FF03C0245F47
:100C70003F4FFBCFC956DF4F8881C759D0408F7790
:100C8000D901B82BCD01B3016F77772762177307AE
:100C90000CF43D01CF56DF4F68817981C159D040B6
:100CA0006F7777272617370734F4CF56DF4F9983AE
:100CB0008883C159D040D701AA0FBB1F21E030E083
:100CC0002C0F3D1FA20FB31F8D939C93B7016F5F35
:100CD0007F4F7B01CC56DF4F28813981C459D040EA
:100CE000C256DF4F68817981CE59D040260F371F19
:100CF000CC56DF4F39832883C459D0400A151B05D1
:100D000009F4F2CD040D151DEDCD10922F021092B5
:100D10002E02809146028530A1F4DE01119680E01A
:100D200090E08E159F0509F485C02D913D91FC0141
:100D3000EE0FFF1FE457FE4F30683183208301968A
:100D4000F0CF809149028230D1F060F48823F1F035
:100D5000813009F0D5C0DE01119680E090E020E0FE
:100D600030E041C0833009F46AC0843009F0C8C063
:100D700020E030E040E050E080E090E0B7C0DE01ED
:100D8000119680E090E020E030E051C0DE01119645
:100D900080E090E08E159F0509F44CC02D913D91A7
:100DA000FC01EE0FFF1FE457FE4F318320830196B5
:100DB000F1CF8C339105F4F54D915D9146155705B2
:100DC00081F0FC01EE0FFF1FE457FE4F718260823D
:100DD000FC013196EE0FFF1F0296E457FE4F518340
:100DE00040832F5F3F4F2E153F0519F723C08C33EB
:100DF000910504F54D915D91CF56DF4F6881798162
:100E0000C159D0404617570781F0FC01EE0FFF1F74
:100E1000E457FE4F71836083FC013196EE0FFF1F94
:100E20000296E457FE4F518340832F5F3F4F2E15AC
:100E30003F05E9F690932F0280932E0261C0E0E017
:100E4000F0E000E010E020E030E0A3E0CA2ED12C7A
:100E50002E153F053CF5EC33F10521F1D801AA0F21
:100E6000BB1FBD0164577E4FC901880F991FA1E0C8
:100E7000B0E0AC0FBD1F8A0F9B1FDC018D919C91D0
:100E8000DB018D939C930F5F1F4FC801B6010E9439
:100E90008D2F892B19F42150310902C02F5F3F4F4C
:100EA0003196D6CFF0932F02E0932E0229C02C3337
:100EB000310511F1FA01EE0FFF1FE457FE4FDC017F
:100EC000AA0FBB1F61E070E06C0F7D1FA60FB71F5C
:100ED0006D917C91718360834F5F5F4FBA01637046
:100EE0007727672B39F402972F5F3F4F8E159F05A9
:100EF000F4F202C00196F8CF30932F0220932E0215
:100F0000CB55DF4F0FB6F894DEBF0FBECDBFDF91DC
:100F1000CF911F910F91FF90EF90DF90CF90BF90F6
:100F2000AF909F908F907F906F905F904F903F9089
:100F30002F90089510926B0210926A0210928F0205
:100F400010928E028091A10281608093A102809113
:100F5000A60281608093A602089560911F028BE62D
:100F600090E00E946E16609120028CE690E00C9456
:100F70006E161F920F920FB60F9211242F933F936C
:100F80004F935F936F937F938F939F93AF93BF9391
:100F9000EF93FF93309B3FC00E94C213AB01BC0193
:100FA0008091360390913703A0913803B0913903B3
:100FB000892B8A2B8B2B29F1809136039091370353
:100FC000A0913803B091390384179507A607B70796
:100FD000C0F48091360390913703A0913803B0910B
:100FE00039039A01281B390B309364012093630164
:100FF000409336035093370360933803709339035B
:101000000AC08091A4029091A50292609093A502DB
:101010008093A402EDCFFF91EF91BF91AF919F918B
:101020008F917F916F915F914F913F912F910F9091
:101030000FBE0F901F901895909165019F5F97705C
:1010400020916E01921741F0E0916501F0E0EA59BC
:10105000FE4F808390936501089588EF0C941C08DF
:101060008AEF0C941C080E94C21360933A03709399
:101070003B0380933C0390933D031092BB0210927C
:10108000BC021092BD021092BE0210920502109294
:101090000602109207021092080210925701109255
:1010A00056018091A4029091A50284609093A502BC
:1010B0008093A4028091A4029091A50298609093DD
:1010C000A5028093A402089580936F018091A402E9
:1010D0009091A50288609093A5028093A4020C943D
:1010E0003308CF92DF92EF92FF920F931F93CF932B
:1010F000C82F8091A4029091A50292FF11C0109276
:10110000BB021092BC021092BD021092BE0210925D
:101110000502109206021092070210920802B7C050
:101120008091A4029091A50291FF12C08091A40227
:101130009091A5029D7F9093A5028093A4021092A6
:10114000BB021092BC021092BD021092BE0213C0EC
:101150008091BB029091BC02A091BD02B091BE02F1
:101160000196A11DB11D8093BB029093BC02A09378
:10117000BD02B093BE026091BB027091BC0280912F
:10118000BD029091BE022091440230914502032E8F
:10119000000C440B550B0E94172D672B682B692BF5
:1011A00009F04FC00E94C21300913A0310913B0313
:1011B00020913C0330913D03012B022B032BB1F016
:1011C00000913A0310913B0320913C0330913D0381
:1011D0006B017C01C01AD10AE20AF30AC0928701AE
:1011E000D0928801E0928901F0928A0160933A03DB
:1011F00070933B0380933C0390933D038091A40242
:101200009091A50280FF06C080916F018C1711F0AC
:101210008430B9F48091A4029091A50287FF4DC05B
:101220001092050210920602109207021092080214
:101230008091A4029091A50298609093A50280935A
:10124000A4028091A4029091A5028F779093A502A9
:101250008093A4026091BB027091BC028091BD0298
:101260009091BE0228E130E040E050E00E94172D4E
:10127000672B682B692B59F4109256018091A402B8
:101280009091A50284609093A5028093A40280911E
:10129000A4029091A50281FF05C0809157018F5F44
:1012A000809357018091B40282508230D0F48091B3
:1012B00056018F5F8093560114C080910502909172
:1012C0000602A0910702B09108020196A11DB11D6E
:1012D0008093050290930602A0930702B093080240
:1012E000A7CFCF911F910F91FF90EF90DF90CF90FC
:1012F0000895AF92BF92CF92DF92EF92FF920F9339
:101300001F93CF93DF93C82FA62EB42ED22F670141
:101310007801807F803F11F46C2F15C080912102ED
:101320008C1739F06C2F8DE893E00E94A911C093BF
:101330002102DD2361F06A2D8DE893E00E94A9115E
:10134000D23028F06B2D8DE893E00E94A91161E066
:1013500081E10E941C1384E1C80ED11CE11CF11C28
:10136000C0921702D0921802E0921902F0921A026B
:10137000DF91CF911F910F91FF90EF90DF90CF9071
:10138000BF90AF900895CF92DF92EF92FF920F93AC
:101390001F93FC016E3008F06E50677060646093BC
:1013A0007C0080917A00806480937A0080917A003A
:1013B00086FDFCCF609178008091790070E0782BF9
:1013C000808191818F3F5FEF950719F4718360836E
:1013D000F0C0DB01A81BB90BCD01B7FF03C091958D
:1013E0008195910905970CF4E4C0718360834238BC
:1013F00009F465C068017901942F433828F4403816
:1014000051F0413869F197C0433809F47DC0443840
:1014100009F46CC090C0CB010E942716BC01990F43
:10142000880B990B0E94642E20E030E040E054E4E9
:101430000E94482D20E030E040E451E40E94142F47
:1014400020E030E84FEF53E40E94BA2D0E942C2E8A
:1014500060934E028091A60281608093A60229C00B
:10146000643071053CF06C3FB3E07B072CF06FEF0C
:1014700073E002C060E070E0072E000C880B990B4F
:101480000E94642E20E030EC4FE754E40E94BA2D15
:1014900020E030E04AE753E40E94142F20E030E0DF
:1014A00040EF51E40E94492D0E942C2ECB010E9456
:1014B000CB008091A10281608093A1027AC0643048
:1014C00071053CF06C3F53E075072CF06FEF73E053
:1014D00002C060E070E043E0759567954A95E1F7DA
:1014E00060934B0281E080934A02E3CF6430710540
:1014F0003CF06C3F83E07807E4F110924D02D9CFC5
:1015000081E080934D02D5CFCB010E94271624E0C5
:10151000880F991F2A95E1F7AC01440F452F441F0E
:10152000550B4F77682F6F778091270287017601DF
:1015300022E0806E1BC0643071053CF06C3FA3E07C
:101540007A072CF06FEF73E002C060E070E01916CC
:1015500084F5AB0183E0559547958A95E1F7809135
:1015600027028701760122E0692F806B0E947909AA
:1015700020C06A30710524F2072E000C880B990BED
:101580000E94642E20E030E046E153E40E94142FD4
:1015900020E030EC4FE754E40E94BA2D20E030E028
:1015A00040E251E40E94492D0E94332E60934D0287
:1015B00080CF1F910F91FF90EF90DF90CF90089513
:1015C0002F923F924F925F926F927F928F929F9253
:1015D000AF92BF92CF92DF92EF92FF920F931F9341
:1015E000CF93DF9300D000D0CDB7DEB71B012C0125
:1015F0004A0185E791E09C838B83C12CD12CEB8140
:10160000FC819081911123C0FFEFCF1ADF0A8B81FB
:101610009C8101969C838B8390E1C916D10479F754
:101620000F900F900F900F90DF91CF911F910F911E
:10163000FF90EF90DF90CF90BF90AF909F908F90F2
:101640007F906F905F904F903F902F900895BC2CAB
:10165000BB0CBB0CBB0C38E03B0DAA24A39434019B
:101660006C0C7D1C8A2D892311F18114910421F0C9
:10167000F30180818A21D9F42091240280912702EC
:1016800020FF02C0806801C080698201710122E0F0
:1016900040E06B2D3A8399830E947909EB81FC81AC
:1016A00020818A2D80958223808399813A81B39409
:1016B000AA0CB312D7CFA8CFEF92FF920F931F932C
:1016C000CF93DF93D82F10922102C0E00E94C21363
:1016D000D11102C04FE701C040E07B018C0122E044
:1016E0006AE78C2F806B0E947909CF5FC03171F758
:1016F000DF91CF911F910F91FF90EF9008950F937D
:101700001F93CF93DF93EC018B0190913002709186
:10171000410220E030E040E050E8F901EF5CFD4F8D
:10172000DA01A023B123AB2B11F0908308C0DA01BA
:10173000AC23BD23AB2B11F0708301C010825695F2
:1017400047952F5F3F4F2031310539F7DF91CF911A
:101750001F910F9108959B01803191055CF4121641
:10176000130644F4FC01EF5CFD4F40832150310926
:101770000196F2CF0895CF92DF92EF92FF92CF932E
:10178000C62F482F082E000C550B660B770B4031E7
:10179000510508F0F5C0FA01ED59FF4F0C94A12F47
:1017A0008091A4029091A50221E082279093A50246
:1017B0008093A4028091A4029091A50280FD11C0A3
:1017C0008091A4029091A50280689093A5028093D5
:1017D000A40210923603109237031092380310922D
:1017E00039036091A4027091A5026170772786E6A3
:1017F00090E048C08091A4029091A50281FF13C09F
:101800008091A4029091A50280619093A50280939B
:10181000A4028091A4029091A5028D7F9093A502CD
:101820008093A40226C08091A4029091A5028860B2
:101830009093A5028093A4028091A4029091A502A6
:1018400080649093A5028093A4028091A402909159
:10185000A50288609093A5028093A4028091A402BF
:101860009091A50282609093A5028093A4020E94A9
:1018700033086091A4027091A50276956795617016
:1018800087E690E00E946E167EC064E18602C00189
:10189000112473C08091A4029091A50280FF08C01A
:1018A00010926F018091A4029091A502806154C0B2
:1018B0000E94C2136B017C0180913203909133032B
:1018C000A0913403B09135038C159D05AE05BF057D
:1018D000B0F4A7019601281B390B4A0B5B0B283E7D
:1018E00073E037074105510550F460E67AEE80E079
:1018F00090E00E94172DC9010E94CB00C1E0C09268
:101900003203D0923303E0923403F092350338C0AF
:101910008091A4029091A50280FF04C084E00E94FF
:1019200064082EC08091520190915301459744F173
:10193000809152019091530101971FC08091A402A0
:101940009091A50280FF0DC084E080936F0180918B
:10195000A4029091A50280629093A5028093A402B4
:101960000FC080915201909153018C32914044F408
:10197000809152019091530101960E94CB0003C0C7
:10198000CC2309F4AFC340E060E170E080E090E078
:101990000E94AB0B2091A4023091A50290913002DD
:1019A0008091420220FF11C0909331022091A40245
:1019B0003091A50220FF982F9093320280933E022F
:1019C00080933F02809340028DC3282F8093310281
:1019D0004091A4025091A50241FF02C0392F01C0DD
:1019E000382F3093320240915201509153014932C5
:1019F00051050CF459C060915201709153014CE3B0
:101A000050E0FA01E61BF70B1E161F0654F4609116
:101A1000520170915301461B570B4530510544F05C
:101A200009C040915201509153014134510514F4C1
:101A3000392F40C060915201709153014CE350E046
:101A4000FA01E61BF70B1E161F0654F460915201B3
:101A500070915301461B570B4C30510544F107C0A0
:101A600040915201509153014834510504F1609165
:101A70005201709153014CE350E0FA01E61BF70B61
:101A80001E161F0654F46091520170915301461BBB
:101A9000570B4431510544F00CC040915201509114
:101AA0005301403551052CF43091410203C0382FC9
:101AB00001C030E0309334026091520170915301C3
:101AC00040E550E0FA01E61BF70B1E161F0654F422
:101AD0006091520170915301461B570B45305105DF
:101AE00044F009C0409152015091530145355105D0
:101AF00014F4392F40C0609152017091530140E5B8
:101B000050E0FA01E61BF70B1E161F0654F4609115
:101B1000520170915301461B570B4C30510544F153
:101B200007C040915201509153014C35510504F1C9
:101B3000609152017091530140E550E0FA01E61BBB
:101B4000F70B1E161F0654F4609152017091530159
:101B5000461B570B4431510544F00CC040915201D3
:101B600050915301443651052CF43091410203C089
:101B7000382F01C030E030933502609152017091EE
:101B8000530144E650E0FA01E61BF70B1E161F0650
:101B900054F46091520170915301461B570B45302C
:101BA000510544F009C0409152015091530149360A
:101BB000510514F4392F40C06091520170915301C6
:101BC00044E650E0FA01E61BF70B1E161F0654F41C
:101BD0006091520170915301461B570B4C305105D7
:101BE00044F107C0409152015091530140375105D3
:101BF00004F1609152017091530144E650E0FA0102
:101C0000E61BF70B1E161F0654F4609152017091EB
:101C10005301461B570B4431510544F00CC0409111
:101C2000520150915301483751052CF43091410233
:101C300003C0382F01C030E030933602609152016A
:101C40007091530148E750E0FA01E61BF70B1E16AE
:101C50001F0654F46091520170915301461B570BBB
:101C60004530510544F009C0409152015091530153
:101C70004D37510514F4392F40C0609152017091D5
:101C8000530148E750E0FA01E61BF70B1E161F064A
:101C900054F46091520170915301461B570B4C3024
:101CA000510544F107C0409152015091530144380D
:101CB000510504F1609152017091530148E750E0E1
:101CC000FA01E61BF70B1E161F0654F46091520131
:101CD00070915301461B570B4431510544F00CC021
:101CE00040915201509153014C3851052CF43091E0
:101CF000410203C0382F01C030E0309337026091B9
:101D00005201709153014CE850E0FA01E61BF70BC9
:101D10001E161F0654F46091520170915301461B28
:101D2000570B4530510544F009C040915201509184
:101D300053014139510514F4392F40C060915201CB
:101D4000709153014CE850E0FA01E61BF70B1E16A8
:101D50001F0654F46091520170915301461B570BBA
:101D60004C30510544F107C040915201509153014C
:101D70004839510504F160915201709153014CE8CA
:101D800050E0FA01E61BF70B1E161F0654F4609193
:101D9000520170915301461B570B4431510544F0D9
:101DA0000CC04091520150915301403A51052CF41E
:101DB0003091410203C0382F01C030E03093380227
:101DC000609152017091530140EA50E0FA01E61B24
:101DD000F70B1E161F0654F46091520170915301C7
:101DE000461B570B4530510544F009C04091520144
:101DF00050915301453A510514F4392F40C0609178
:101E000052017091530140EA50E0FA01E61BF70BD2
:101E10001E161F0654F46091520170915301461B27
:101E2000570B4C30510544F107C04091520150917D
:101E300053014C3A510504F16091520170915301E4
:101E400040EA50E0FA01E61BF70B1E161F0654F499
:101E50006091520170915301461B570B443151055B
:101E600044F00CC04091520150915301443B510544
:101E70002CF43091410203C0382F01C030E0309380
:101E80003902609152017091530144EB50E0FA0124
:101E9000E61BF70B1E161F0654F460915201709159
:101EA0005301461B570B4530510544F009C0409182
:101EB000520150915301493B510514F4392F40C050
:101EC000609152017091530144EB50E0FA01E61B1E
:101ED000F70B1E161F0654F46091520170915301C6
:101EE000461B570B4C30510544F107C0409152013D
:101EF00050915301403C510504F1609152017091A1
:101F0000530144EB50E0FA01E61BF70B1E161F06C7
:101F100054F46091520170915301461B570B4431A8
:101F2000510544F00CC04091520150915301483C7E
:101F300051052CF43091410203C0382F01C030E02C
:101F400030933A02609152017091530148EC50E095
:101F5000FA01E61BF70B1E161F0654F4609152019E
:101F600070915301461B570B4530510544F009C091
:101F700040915201509153014D3C510514F4892F69
:101F80003EC0609152017091530148EC50E0FA015B
:101F9000E61BF70B1E161F0654F460915201709158
:101FA0005301461B570B4C3051054CF107C0409173
:101FB000520150915301443D51050CF16091520181
:101FC0007091530148EC50E0FA01E61BF70B1E1626
:101FD0001F0654F46091520170915301461B570B38
:101FE0004431510544F00AC04091520150915301CF
:101FF0004C3D51051CF48091410201C080E080936A
:102000003B024091520150915301403F51052CF049
:102010008091410280933C025FC0609152017091B7
:1020200053014CED50E0FA01E61BF70B1E161F069C
:1020300054F46091520170915301461B570B453087
:10204000510544F009C04091520150915301413E65
:10205000510514F4292F3EC0609152017091530133
:102060004CED50E0FA01E61BF70B1E161F0654F468
:102070006091520170915301461B570B4C30510532
:102080004CF107C04091520150915301483E510517
:102090000CF140915201509153012CED30E0B90107
:1020A000641B750B1616170654F44091520150919B
:1020B0005301241B350B2431310544F00AC0209113
:1020C000520130915301203F31051CF4209141020F
:1020D00001C020E020933C0290933E0290933F0287
:1020E00090934002CF91FF90EF90DF90CF900895B2
:1020F00080E090E0FC01EF5CFD4F108201968031A2
:102100009105C1F708951F920F920FB60F921124F7
:102110002F933F934F935F938F939F93EF93FF93EF
:10212000419880913E03882341F080913E03809541
:102130008093B20010923E036CC080910E028F5FBC
:1021400080930E0280913F038F3018F05D985F9A64
:102150005D9A5F985D985D9A80913F039FE0981B20
:10216000292F30E0F901EF5CFD4F80818111419A08
:10217000809580933E034091400341111EC01A9BFD
:1021800010C040914103042E000C550B4217530719
:10219000C9F090939F0240919F024093410342E314
:1021A0000FC040914103042E000C550B2417350736
:1021B00049F44FEF4093410305C040914003415023
:1021C000409340034E9B0DC040919202042E000CA0
:1021D000550B2417350781F090939A0290919A023B
:1021E00009C040919202042E000C550B24173507AC
:1021F00019F49FEF9093920290913F03911102C0C6
:102200009FE003C090913F03915090933F038093D0
:10221000B200FF91EF919F918F915F914F913F910C
:102220002F910F900FBE0F901F901895CF92DF92B5
:10223000EF92FF920F931F93CF93DF936C017A017C
:102240008B01C0E0D0E0CE15DF0589F0D8016D919B
:102250008D01D601ED91FC910190F081E02DC60138
:102260000995892B11F47E0102C02196ECCFC7019C
:10227000DF91CF911F910F91FF90EF90DF90CF9062
:102280000895FC01538D448D252F30E0842F90E07C
:10229000821B930B541710F0CF9608950197089561
:1022A000FC01918D828D981761F0828DDF01A80F5E
:1022B000B11D5D968C91928D9F5F9F73928F90E080
:1022C00008958FEF9FEF0895FC01918D828D9817EF
:1022D00031F0828DE80FF11D858D90E008958FEF2C
:1022E0009FEF0895FC01918D228D892F90E0805CF5
:1022F0009F4F821B91098F73992708958DE893E072
:102300000E94721121E0892B09F420E0822F0895A8
:10231000FC01848DDF01A80FB11DA35ABF4F2C9182
:10232000848D90E001968F739927848FA689B78951
:102330002C93A089B1898C9180648C93938D848D2A
:10234000981306C00288F389E02D80818F7D8083F9
:102350000895EF92FF920F931F93CF93DF93EC01B9
:1023600081E0888F9B8D8C8D981305C0E889F98951
:10237000808185FD24C0F62E0B8D10E00F5F1F4F6E
:102380000F731127E02E8C8DE8120CC00FB607FCDE
:10239000FACFE889F989808185FFF5CFCE010E94C7
:1023A0008811F1CF8B8DFE01E80FF11DE35AFF4F2D
:1023B000F0820B8FEA89FB898081806207C0EE89F9
:1023C000FF896083E889F98980818064808381E066
:1023D00090E0DF91CF911F910F91FF90EF900895C2
:1023E000CF93DF93EC01888D8823C9F0EA89FB89BC
:1023F000808185FD05C0A889B9898C9186FD0FC0B3
:102400000FB607FCF5CF808185FFF2CFA889B98987
:102410008C9185FFEDCFCE010E948811E7CFDF912F
:10242000CF91089580E090E0892B29F00E947E11E1
:1024300081110C9400000895833081F028F48130DC
:1024400099F08230A1F008958730A9F08830B9F072
:102450008430D1F4809180008F7D03C08091800012
:102460008F7780938000089584B58F7702C084B5FC
:102470008F7D84BD08958091B0008F7703C08091D7
:10248000B0008F7D8093B00008953FB7F89480919D
:102490002D0390912E03A0912F03B091300326B508
:1024A000A89B05C02F3F19F00196A11DB11D3FBF8C
:1024B000BA2FA92F982F8827820F911DA11DB11D1A
:1024C000BC01CD0142E0660F771F881F991F4A9516
:1024D000D1F70895089585ED8093BC008091BC00EC
:1024E00084FDFCCF1092680308950895E091E00206
:1024F0008091DF02E81730F4F0E0E154FD4F808175
:1025000090E008958FEF9FEF08959091E002809101
:10251000DF02981750F4E92FF0E0E154FD4F2081DD
:1025200030E09F5F9093E00202C02FEF3FEFC901C0
:1025300008950E94BB2F1F920F920FB60F92112485
:102540002F933F934F935F936F937F938F939F93BB
:10255000AF93BF93EF93FF938DE893E00E948811B0
:10256000FF91EF91BF91AF919F918F917F916F916B
:102570005F914F913F912F910F900FBE0F901F9041
:1025800018951F920F920FB60F9211242F938F93CD
:102590009F93EF93FF93E0919D03F0919E038081C1
:1025A000E091A303F091A40382FD12C09081809179
:1025B000A6038F5F8F732091A703821751F0E091DC
:1025C000A603F0E0E357FC4F958F8093A60301C06C
:1025D0008081FF91EF919F918F912F910F900FBE6E
:1025E0000F901F901895CF93DF93282F30E0F901BB
:1025F000E45DFE4F8491F901E85EFE4FD491F9014C
:10260000EC5FFE4FC491CC2391F081110E941C120B
:10261000EC2FF0E0EE0FFF1FE650FF4FA591B491B5
:10262000EC91ED2381E090E021F480E002C080E0B5
:1026300090E0DF91CF9108951F93CF93DF93282FE0
:1026400030E0F901E45DFE4F8491F901E85EFE4F50
:10265000D491F901EC5FFE4FC491CC23C9F0162F41
:1026600081110E941C12EC2FF0E0EE0FFF1FE051D1
:10267000FF4FA591B4918FB7F894111105C09C91AB
:10268000ED2FE095E92302C0EC91ED2BEC938FBF89
:10269000DF91CF911F910895CF93DF9390E0FC01DC
:1026A000E85EFE4F2491FC01EC5FFE4F849188238D
:1026B00061F190E0880F991FFC01EA51FF4FC5912D
:1026C000D491FC01E051FF4FA591B491611109C073
:1026D0009FB7F8948881209582238883EC912E23DC
:1026E0000BC0623061F49FB7F8943881822F8095D7
:1026F00083238883EC912E2B2C939FBF06C08FB72A
:10270000F894E8812E2B28838FBFDF91CF91089515
:102710008F929F92AF92BF92CF92DF92EF92FF92F1
:102720006B017C010E9445124B015C01C114D10474
:10273000E104F104F1F00E944512DC01CB0188199B
:102740009909AA09BB09883E9340A105B10570F318
:1027500021E0C21AD108E108F10888EE880E83E072
:10276000981EA11CB11CC114D104E104F10419F795
:10277000DDCFFF90EF90DF90CF90BF90AF909F9014
:102780008F9008952FB7F8946091290370912A03D0
:1027900080912B0390912C032FBF08951F920F92CD
:1027A0000FB60F9211242F933F938F939F93AF9364
:1027B000BF938091290390912A03A0912B03B0919C
:1027C0002C033091280323E0230F2D3720F40196AA
:1027D000A11DB11D05C026E8230F0296A11DB11D44
:1027E000209328038093290390932A03A0932B031B
:1027F000B0932C0380912D0390912E03A0912F0371
:10280000B09130030196A11DB11D80932D039093CB
:102810002E03A0932F03B0933003BF91AF919F91EC
:102820008F913F912F910F900FBE0F901F90189591
:102830001F920F920FB60F9211242F933F934F9335
:102840005F936F937F938F939F93AF93BF93EF9318
:10285000FF93E0910201F09103010995FF91EF913F
:10286000BF91AF919F918F917F916F915F914F91A8
:102870003F912F910F900FBE0F901F9018951F92B0
:102880000F920FB60F9211242F933F934F935F93A4
:102890006F937F938F939F93AF93BF93EF93FF9328
:1028A000E0910001F09101010995FF91EF91BF9135
:1028B000AF919F918F917F916F915F914F913F91D8
:1028C0002F910F900FBE0F901F9018951F920F928F
:1028D0000FB60F9211242F933F934F935F936F93F3
:1028E0007F938F939F93AF93BF93EF93FF938091C9
:1028F000B900887F803609F49CC068F5883209F4F5
:102900005BC090F4803109F454C038F4882309F492
:10291000F6C0883009F44DC0F6C0883109F44CC0C7
:10292000803209F45DC0EFC0803409F468C048F417
:10293000803309F455C0883309F0E5C080936603FD
:10294000D8C0803509F44FC0883509F45DC088349B
:1029500009F0D9C0D6C0883909F4C7C0A8F48837AF
:1029600009F467C038F4883609F463C0803709F485
:1029700060C0C9C0883809F4B8C0803909F45FC0A4
:10298000803809F0C0C05BC0803B09F486C038F4D1
:10299000803A09F466C0883A09F47FC0B4C0803C2C
:1029A00009F4A7C0883C09F4A4C0883B09F48AC094
:1029B000AAC08091430310C0909165038091640385
:1029C000981770F5E091650381E08E0F80936503A1
:1029D000F0E0EC5BFC4F80818093BB0085EC86C00F
:1029E000809366038EC0E091650381E08E0F809333
:1029F00065038091BB00F0E0EC5BFC4F808390911D
:102A00006503809164036EC0E091650381E08E0FE1
:102A1000809365038091BB00F0E0EC5BFC4F80830A
:102A20008091670381116DC081E08093420384EA45
:102A300061C083E08093680310922703CFCF809119
:102A40002703803208F051C0E091270381E08E0F08
:102A5000809327038091BB00F0E0E95FFC4F808307
:102A6000BDCF85EC8093BC00109268038091270352
:102A7000803230F4E0912703F0E0E95FFC4F1082F0
:102A80006091270370E0E0910503F091060387E071
:102A900093E009951092270336C084E08093680381
:102AA0001092040310920303E0910103F0910203DA
:102AB000099580910303811105C081E08093030390
:102AC0001092E102E091040381E08E0F80930403F1
:102AD000F0E0EF51FD4F80818093BB0090910403A3
:102AE00080910303981708F479CF85E88093BC00A0
:102AF0000AC085EC8093BC001092680304C0109259
:102B000066030E946B12FF91EF91BF91AF919F916D
:102B10008F917F916F915F914F913F912F910F9086
:102B20000FBE0F901F90189540910303262F30E0A1
:102B3000240F311D21323105DCF42091680324304B
:102B4000C9F4FC0180E090E0861758F4309103034B
:102B50002191DC01AF51BD4FA30FB11D2C93019604
:102B6000F3CF80910303680F6093030380E008951F
:102B700081E0089582E008958091DF0290E0209145
:102B8000E002821B91090895089580E090E0089585
:102B9000CF92DF92EF92FF920F931F93CF93DF9329
:102BA0007C01262F972F8A0180916903882391F059
:102BB000C62FD72F6E01C40ED51ECC15DD0571F0C2
:102BC0006991D701ED91FC910190F081E02DC70151
:102BD0000995F3CF642F822F0E949415C801DF91CD
:102BE000CF911F910F91FF90EF90DF90CF900895BC
:102BF000CF93DF931F92CDB7DEB76983209169032E
:102C00002223D1F020918C03203240F021E030E0EB
:102C1000FC013383228380E090E015C080916A0339
:102C2000E82FF0E0E559FC4F998190838F5F809306
:102C30006A0380938C0305C061E0CE0101960E9477
:102C4000941581E090E00F90DF91CF910895803E40
:102C500021E092079CF4BC01990F880B990B0E940C
:102C6000642E20E030E040EF53E40E94BA2D20E0D3
:102C700030E040E054E40E94142F1FC0803222E074
:102C8000920704F1BC016F517240072E000C880BB3
:102C9000990B0E94642E20E030E040E054E40E9452
:102CA000142F20E030E040EF53E40E94BA2D20E0E2
:102CB00030E040E054E40E94492D0E942C2E77FF22
:102CC00003C009C060E072E0CB01611574402CF0D4
:102CD0008FEF93E0089580E090E008950C94D72C56
:102CE0000F931F93CF93DF9300D01F92CDB7DEB722
:102CF00040E06FEF8EE60E94CF1A8093B40240E06E
:102D00006FEF8AE60E94CF1A1092A2028093A3026C
:102D100040E06FEF89E60E94CF1A2091A202309125
:102D2000A302282B3093A3022093A2020E945303F4
:102D3000E0919D03F0919E0382E08083E0919903EE
:102D4000F0919A031082E0919B03F0919C038FE332
:102D500080831092A503E091A103F091A20386E085
:102D60008083E0919F03F091A00380818061808344
:102D7000E0919F03F091A003808188608083E091BF
:102D80009F03F091A003808180688083E0919F037E
:102D9000F091A00380818F7D80838DE893E00E9475
:102DA000F011109273011092210210927201109290
:102DB000740140E06FE085E60E94CF1A80932702FD
:102DC0004FEF6FE084E60E94CF1A8093260249E11C
:102DD0006FEF88E60E94CF1A8093250240E061E001
:102DE0008DE60E94CF1A8093240210922302109243
:102DF0002202109286011092A6028FEF8093850125
:102E000010923103109246021092470291E0909383
:102E100048021092490284E680934B022FE72093E8
:102E20004C0290934A0210926B0210926A0290E157
:102E300090937C0280934D0210924E0210924F02AA
:102E40008FEF9FE3909351028093500210928F0274
:102E500010928E0210928D0240E06FEF8CE60E947D
:102E6000CF1A082F10E0102F002740E06FEF8BE6FD
:102E70000E94CF1A0027107A80911F0290912002A1
:102E80009F75082B192B1093200200931F02ECE66C
:102E9000F2E081E0819392E0EC37F907D9F7E5E7BA
:102EA000F1E0119281E0E538F807D9F710922F028E
:102EB00010922E028FEF80932D0210922C0210920E
:102EC0002B0210922A02109229021092280261E02D
:102ED0008DE00E944C1310920A0210920B02109285
:102EE0000C0210920D021092090210929702109299
:102EF000990281E08093A10210929B0210929C02A1
:102F000010929D0210929E021092930210929402CF
:102F1000109295021092960210923203109233038F
:102F200010923403109235031092A002F89410927C
:102F3000A5021092A4021092650110926E0140E069
:102F400061E086E60E94CF1A882349F08091A402AE
:102F50009091A50281609093A5028093A40240E025
:102F600061E087E60E94CF1A882349F08091A4028D
:102F70009091A50282609093A5028093A402109282
:102F8000570110926F0186E090E090934502809384
:102F9000440210923A0310923B0310923C031092A9
:102FA0003D031092870110928801109289011092BE
:102FB0008A010E94330888E790E090935301809340
:102FC00052018BEA9AEAA6EAB1E480935801909301
:102FD0005901A0935A01B0935B0110925E011092C7
:102FE0005F01109260011092610162E082E00E9434
:102FF0004C1362E083E00E944C1362E084E00E9484
:103000004C1380E398E0909301018093000180913C
:103010006900836080936900E89A8DE298E090935C
:10302000030180930201809169008C6080936900A4
:10303000E99A1092560110925C011092540110927C
:10304000360310923703109238031092390310920E
:1030500064011092630110925D01109255018091FC
:10306000A2029091A30297FD02C086E001C08CE00D
:10307000809362018091B402823049F561E082E17F
:103080000E944C1360E08EE00E944C1362E083E1EA
:103090000E944C136AE070E080E090E00E94881388
:1030A00035990EC08FEF80935C018091680082603B
:1030B0008093680010926C0080916C00816003C066
:1030C00080916C008E7F80936C0082E107C083301A
:1030D00039F461E08BE00E944C138BE08093550142
:1030E000789461E085E00E944C1361E087E00E94E3
:1030F0004C1360E08AE00E944C1360E086E00E947E
:103100004C1361E08FE00E944C1362E08CE00E945F
:103110004C1361E088E00E944C1361E081E10E9461
:103120004C1361E080E10E944C1361E089E00E9451
:103130004C1380E090E0FC01EF5CFD4F10820196A3
:1031400080319105C1F78FEF80939F0280934103F7
:1031500080939A02109240039FE090933F03109255
:103160003E0310921B0210921C0210921D0210923C
:103170001E02109217021092180210921902109259
:103180001A02109213021092140210921502109259
:10319000160210920F021092100210921102109259
:1031A00012021092980210920E022CED35E030932C
:1031B0009102209390028093300289E18093420231
:1031C00084E0809341021092B00083E08093B100CC
:1031D00081E0809370001092B20078948091B402E4
:1031E000813081F462E08BE00E944C1360E083E167
:1031F0000E944C1360E082E10E944C1360E08EE07C
:103200000E944C138FEF9FEF90933B0480933A04FE
:103210009093390480933804909337048093360454
:103220001092B30210927101109270011092AB02D1
:103230001092AC021092AD021092AE021092A70250
:103240001092A8021092A9021092AA021092AF0244
:103250001092B0021092B1021092B20210928B0141
:103260008091B402833009F055C01092E0021092B0
:10327000DF0210926A0310928C031092680311E02F
:10328000109367031092420361E082E10E941C13D5
:1032900061E083E10E941C138091B9008E7F8093CE
:1032A000B9008091B9008D7F8093B90088E4809344
:1032B000B80085E48093BC001093690380E6809396
:1032C0008B0310926A0310928C0389E990E00E94AC
:1032D0006D1A0E94721A61E08EE00E944C1360E049
:1032E0008EE00E941C1319821A821B8243E050E078
:1032F000BE016F5F7F4F87EF9FE10E94920288239C
:1033000049F08981823131F48A81809371018B8106
:10331000809370010E9453038CE00E94F312892B6A
:1033200009F05DC0809141028093310280933202A6
:10333000809333028093340280933502909130025F
:10334000909336028093370290933802809339022B
:1033500080933A0280933B0280933C0280933D022B
:1033600080933E0290933F02909340028CE00E9433
:10337000F312892BD9F380919A028830C1F140E091
:103380006FEF83E60E94CF1A843289F580919F0205
:1033900087FF84C080919F028F3F09F140E060E188
:1033A00070E080E090E00E94AB0B4091420265E04B
:1033B00070E080E090E00E94AB0B8091B4024091FD
:1033C000300261E070E090E00E94AB0B68EE73E0C9
:1033D00080E090E00E948813E0E0F0E009958091A1
:1033E000250287FF72C081E00E945C0B6EC01092C4
:1033F00027028FEF8093260289E1809325021092A5
:10340000A5021092A4028AE190E09093A302809317
:10341000A20280E090E29093200280931F0260E07D
:1034200085E690E00E946E166091260284E690E0A8
:103430000E946E1669E188E690E00E946E1660E0D8
:103440008DE690E00E946E1660E086E690E00E94B5
:103450006E1660E087E690E00E946E1660E08EE6F1
:1034600090E00E946E160E949D030E94AD0764E2E8
:1034700083E690E00E946E164091300260E170E0B9
:1034800080E090E00E94AB0B68EE73E080E090E09B
:103490000E948813E0E0F0E0099578CF80919F02C8
:1034A00085300CF077CF60919F026093B4028091D9
:1034B000A2029091A30299279093A3028093A20263
:1034C0008EE690E00E946E1665CF0F900F900F90E1
:1034D000DF91CF911F910F910895682F8AE294E0B8
:1034E0000C94F81520918C0390918B03213208F0F5
:1034F0004AC0809168038111FCCF32E030936803A9
:1035000031E0309367033FEF309366031092650319
:1035100020936403ABE6B3E044E453E0FA013E2FAA
:10352000341B321718F43D913193F9CF10924303B5
:1035300020914303990F922B909343039091420360
:10354000913061F410924203909143039093BB0039
:103550009091BC0093FDF8CF95EC01C095EE90934F
:10356000BC00909168039230E1F3909166039F3F15
:1035700079F080916603803241F080916603803358
:1035800031F084E005C081E003C082E001C083E047
:1035900010926A0310928C03109269030895FF92AF
:1035A0000F931F93CF93DF931F92CDB7DEB7F42E07
:1035B000082F10E0C80169830E94CF2C69818F1504
:1035C00041F0681728F46F2DC8010E946E1601C0E3
:1035D000F82E8F2D0F90DF91CF911F910F91FF90BB
:1035E0000895CF93DF93CDB7DEB76D970FB6F894FC
:1035F000DEBF0FBECDBF789484B5826084BD84B534
:10360000816084BD85B5826085BD85B5816085BDDD
:1036100080916E00816080936E0010928100809195
:10362000810082608093810080918100816080931D
:103630008100809180008160809380008091B10042
:1036400084608093B1008091B00081608093B0006D
:1036500080917A00846080937A0080917A00826001
:1036600080937A0080917A00816080937A008091C3
:103670007A00806880937A001092C1000E947016D0
:103680000E94C2134B015C014C9B07C08091A402B5
:103690009091A50290FF49C406C08091A402909128
:1036A000A50290FD4DC48091A4029091A50280FDD9
:1036B000E7C08091630190916401892B09F460C097
:1036C000609163017091640110916201072E000CFA
:1036D000880B990B0E94642E6B017C01612F70E0B6
:1036E00080E090E00E94642E9B01AC01C701B6010E
:1036F0000E94BA2D609358017093590180935A012A
:1037000090935B0120E030E040EC51E40E94142FE4
:103710009B01AC0160E070E68AE697E40E94BA2D56
:103720000E942C2E20915201309153012617370709
:1037300049F070935301609352018091A10281601E
:103740008093A1021092640110926301C501B4013B
:103750000E94622E60935E0170935F01809360010E
:103760009093610180915D0191E0980F90935D01CC
:10377000811720F481E00E947108F4CF10925D015E
:1037800080915C018F3F39F490915D0180916201DD
:10379000981708F075C08091A4029091A50286FF49
:1037A00015C0209158013091590140915A01509112
:1037B0005B01C501B4012C8F3D8F4A8F5B8F0E9446
:1037C000622E2C8D3D8D4A8D5B8D50C040905E01E8
:1037D00050905F016090600170906101C501B4017B
:1037E0000E94622E6B017C019B01AC01C301B201FE
:1037F0000E94B52D87FF44C080915D018F5F80934B
:103800005D0181E00E9471082091580130915901B9
:1038100040915A0150915B0160915E0170915F018E
:1038200080916001909161010E94492D60935E0139
:1038300070935F01809360019093610160915E01DC
:1038400070915F018091600190916101A7019601E3
:103850000E94B52D87FF14C0209158013091590165
:1038600040915A0150915B01C701B6010E94492D58
:1038700060935E0170935F0180936001909361019A
:103880008091A4029091A5028F7B9093A5028093D2
:10389000A4028091A4029091A50281FF30C0809182
:1038A000A4029091A50284FF08C06CEF8DE893E01C
:1038B0000E94A9111092570113C08091A402909107
:1038C000A50283FF02C06AEF07C08091A402909115
:1038D000A50285FF05C06BEF8DE893E00E94A9115A
:1038E000809157011816C4F480915701815080933C
:1038F000570168EF8DE893E00E94A9110DC08091F7
:10390000A4029091A50284FF05C06CEF8DE893E0BE
:103910000E94A911109257018091A4029091A502D2
:10392000877C9093A5028093A40280915C018F3FD5
:1039300009F44FC081112EC080915601109162018F
:10394000082E000C990B212F30E0821793070CF4FE
:1039500040C080915501882349F02091A202309106
:10396000A30236FD03C061E00E941C138091560142
:10397000811B8093560181E080935C018091A202BB
:103980009091A30297FD02C086E001C08CE0809375
:1039900062011FC0909154019815D9F08092540192
:1039A0008F5F843118F480935C0102C010925C0137
:1039B00080915C018A3069F480915501882349F037
:1039C0002091A2023091A30236FD03C060E00E9464
:1039D0001C138091A4029091A50282FF1AC061E09D
:1039E00080E10E941C13D501C4010596A11DB11DE3
:1039F0008093130290931402A0931502B0931602C1
:103A00008091A4029091A5028B7F9093A502809350
:103A1000A4029E012F5F3F4F290180E1D9011D9231
:103A20008A95E9F713E090916E01809165019817EE
:103A3000D1F08091A4029091A50280FF0DC08091E9
:103A4000250284FD8AC208C08B3F08F093C2883FDC
:103A500019F483E00E94710880916E018F5F877076
:103A600080936E01E0CF8091980283FF07C0C090E1
:103A70002002C094CC1CCC24CC1C01C0C12CA501BC
:103A800094012C5E3F4F4F4F5F4F2C8B3D8B4E8BE5
:103A90005F8BB2E06B2E2224239412E1312E8DE84D
:103AA00093E00E947211892B09F482C28DE893E0A1
:103AB0000E9450119C01207F3327203F310509F0DF
:103AC00050C099278A3F9105D1F024F4883F910591
:103AD00041F0E5CF8B3F910501F18C3F910579F1E4
:103AE000DECF8091A4029091A50280FFD8CF809173
:103AF000250283FFD4CF82E00E947108D0CF80914D
:103B0000A4029091A50280FFCACF8091250283FF75
:103B1000C6CF82E00E946408C2CF8091A402909137
:103B2000A50280FFBCCF8091250283FFB8CF6092B1
:103B30006F018091A4029091A502806234C28091AD
:103B4000A4029091A50280FFAACF8091250283FF55
:103B5000A6CF10926F018091A4029091A50280617E
:103B600022C287FF10C01092740180937301203C21
:103B7000310519F0203D310519F4209272018FCFE3
:103B8000609272018CCF30917301332309F487CF97
:103B9000E091740191E09E0F909374010E2E000C41
:103BA000FF0BEB54FD4F808320917201892F990FF9
:103BB000990B422F50E0841795070CF470CF1092A8
:103BC000740161E088E02C8F3D8F0E941C134C89AA
:103BD0005D896E897F8940931B0250931C0260931C
:103BE0001D0270931E02809126022C8D3D8D8F3F09
:103BF00021F0932F9F709813A4C0932F907F8091F2
:103C00002502903929F0903BD1F0903809F074C02A
:103C100081FD02C0CC2059F0850174014091B602AB
:103C20006091B502832F9A8F0E9479099A8DD09066
:103C3000B5027090B602903909F022C18CC085FFA0
:103C400005C08091B502883708F029CF2091A202E3
:103C50003091A30230FF50C08091B502873481F0CB
:103C600050F4863409F048C08091B6028F778054B2
:103C70008093710141C0883451F0893489F03CC08F
:103C80008091B6028F7780548093700135C0609127
:103C9000B60270E080E090E040E00E9493012CC00A
:103CA0003E7F3093A3022093A202398A8091710152
:103CB0008A8B809170018B8B43E050E0BE016F5E78
:103CC0007F4F87EF9FE10E943202882399F0409155
:103CD000300260E170E080E090E00E94AB0B68EEA3
:103CE00073E080E090E00E9488138091A1028160DF
:103CF0008093A1020E949D03D0902502D2FC04C0B3
:103D00008091980283FF0CC085017401209172019B
:103D10004091B6026091B502809173010E947909C9
:103D2000D0FEBDCE80917301807F909127028501E6
:103D30007401209172014091B6026091B502892B05
:103D400007C0850174014091B6026091B502832FCE
:103D50000E947909A4CE772009F495C0DD2009F4EA
:103D600092C09091980293FF19C080911F02909188
:103D7000200297FF94CE80912D028F3F09F48FCEC1
:103D8000D81AD0924E028091A60281608093A6023A
:103D90008091A10281608093A10281CE60916A022C
:103DA00070916B02E2E5F2E000E010E08FEF20E0BE
:103DB00030E0AD2DB0E0261737078CF441915191DA
:103DC0007A01E894E7F8FF24EA16FB0609F4822F4B
:103DD00057FF02C00F5F1F4F2F5F3F4FECCF109375
:103DE00023020093220287FD16C00115110599F0E8
:103DF000880F990BFC01ED5BFD4F8785908997FD3E
:103E00004ECE9068908B87870F5F1F4F10932302D1
:103E10000093220244CE0115110591F410926B0219
:103E200010926A0292FF0AC08091A4029091A502AA
:103E300080689093A5028093A40202C00E94330878
:103E400020916A0230916B022B3031050CF027CEA5
:103E5000F901EE0FFF1FED5BFD4F8D2D90E0906897
:103E60009729908B87872F5F3F4F30936B0220936A
:103E70006A020F5F1F4F10932302009322024FC06C
:103E8000903809F00CCE20916A0230916B02E3E485
:103E9000F2E0A0E0B0E0FF24FA9460E070E08D2D45
:103EA00090E0621773079CF4478550898A010F7769
:103EB00011270817190729F45F77508B4787F62ECB
:103EC00002C057FD11966F5F7F4F3296EACFB093D5
:103ED0002302A09322028091980282FDE0CDF7FC9C
:103EE000DECD8F2DFF0C990BBC01660F771F40E0D4
:103EF00050E0215031094E5F5F4F821793075CF409
:103F00000196FA01E60FF71FED5BFD4FA785B0891B
:103F1000B687A587F0CF30936B0220936A02809119
:103F2000A60281608093A602BACD8091A4029091EE
:103F3000A50291609093A5028093A4028BEF0AC022
:103F40008091A4029091A5029E7F9093A5028093F8
:103F5000A4028CEF0E941C08A6CBE0916E01F0E059
:103F6000EA59FE4F80818A3F09F06ECD83E00E94BE
:103F7000640872CD8B3F41F410936F018091A402CD
:103F80009091A50280620AC08C3F09F065CD109225
:103F90006F018091A4029091A50280619093A50287
:103FA0008093A40259CD9093A5028093A40277CD6B
:103FB0008091980282FD0EC080912202909123028E
:103FC000892B41F480916A0290916B02892B11F048
:103FD0000E949A078091A60280FF09C00E94A9034F
:103FE0008091A6028E7F8093A6021092210280917A
:103FF000A4029091A50293FF0BC080912E02909194
:104000002F02892B29F020917C0221110C945F2A28
:104010008091B7029091B802A091B902B091BA0212
:104020000097A105B10531F088159905AA05BB05D2
:1040300038F01CC080912E0290912F02892BB1F490
:1040400040E050E0C501B4010E94E00A1092B702BE
:104050001092B8021092B9021092BA028091B40282
:10406000833021F460E08EE00E941C1380910A02EC
:1040700090910B02A0910C02B0910D028815990548
:10408000AA05BB05C8F410910902612F8DE00E94BA
:104090001C1381E0111180E080930902D501C40155
:1040A0008C509E4FAF4FBF4F80930A0290930B02EC
:1040B000A0930C02B0930D0280911B0290911C0200
:1040C000A0911D02B0911E020097A105B10589F0D3
:1040D00088159905AA05BB0560F460E088E00E9498
:1040E0001C1310921B0210921C0210921D021092BF
:1040F0001E028091170290911802A0911902B091AE
:104100001A020097A105B10589F088159905AA053D
:10411000BB0560F460E081E10E941C13109217025D
:10412000109218021092190210921A028091130232
:1041300090911402A0911502B09116020097A1056A
:10414000B10589F088159905AA05BB0560F460E002
:1041500080E10E941C13109213021092140210921C
:10416000150210921602C0900F02D0901002E0903B
:104170001102F0901202D701C6018C599F4FAF4F28
:10418000BF4F88169906AA06BB0608F43DC08CE00E
:104190000E94F31220919802892BE1F420FD04C0C3
:1041A00021602093980228C0822F827169F5809146
:1041B000900290919102C80ED91EE11CF11CC81406
:1041C000D904EA04FB0400F52A60209398021092B7
:1041D0000E021AC020FF18C0822F827141F423FF03
:1041E00002C0277F02C084E0282720939802809194
:1041F00098028C7E8093980280920F029092100217
:10420000A0921102B0921202F0909802F3FE06C042
:1042100060910E02661F6627661F03C0F2FA6627CA
:1042200060F989E00E941C139091A102492F41700E
:10423000642E692F6E7F6093A102782C082D007F79
:104240008091A002807F801719F08092A002016007
:1042500010919F021F3F89F08FEF80939F02A5016D
:104260009401205F384D4F4F5F4F20939B02309356
:104270009C0240939D0250939E0280919A028F3F30
:1042800049F480919902833009F04EC084E0809314
:1042900099024AC02FEF20939A022F2D23702130CC
:1042A000B1F42091B4022350223088F42F2D2061E4
:1042B00020939802843031F0883031F0882331F037
:1042C00080E005C081E403C082E401C080E4209165
:1042D000970230E0482F082E000C550B4217530769
:1042E00021F420919902243079F48093970281E09F
:1042F0008093990210929302109294021092950268
:1043000010929602662463947501640150E1C50E13
:1043100057E2D51EE11CF11CC0929B02D0929C0278
:10432000E0929D02F0929E02809192028F3F09F4EA
:1043300040C062606093A1028091930290919402C8
:10434000A0919502B09196020097A105B10599F44C
:104350008091900290919102A5019401280F391F3C
:10436000411D511D20939302309394024093950276
:10437000509396022AC088159905AA05BB0528F511
:1043800080919902823020F482E0809399020EC0DD
:1043900083E0809399028FEF9FEFDC01809393027B
:1043A00090939402A0939502B0939602662463942E
:1043B0000CC09C7F94609093A10210929302109283
:1043C0009402109295021092960280919B02909115
:1043D0009C02A0919D02B0919E020097A105B1059B
:1043E000B9F088169906AA06BB0690F08091A20241
:1043F00084FF04C0109297021092990210929B02BF
:1044000010929C0210929D0210929E026624639468
:1044100080919702863009F4ABC390F4823009F49E
:104420002EC338F4882309F448C7813009F449C100
:1044300044C7909199028430C1F008F427C58DC11A
:104440008A3009F4D1C340F490919902883009F47C
:1044500051C008F4CBC5B2C28B3009F425C690EC2C
:10446000980F933008F49FC628C7933060F110313D
:1044700000F52FE030E0211B310917FD339581E075
:1044800090E002C0880F991F2A95E2F79C012F71D6
:10449000232B79F02091A2023091A3028227932747
:1044A0009093A3028093A2020E949D030E94530353
:1044B00003C0662009F405C76091A2027091A302AF
:1044C0008FE19FEF43C0103120F41F5F10937C02F7
:1044D00003C0662009F4F5C60E94781060917C0242
:1044E00070E04091410280E090E00E94AB0BE091CF
:1044F0007C0269C3933068F11031F8F42FE030E0AA
:10450000211B310917FD339581E090E002C0880F2F
:10451000991F2A95E2F79C012227307A232B69F014
:1045200020911F023091200282279327909320022E
:1045300080931F020E94AD0703C0662009F4C1C624
:1045400060911F027091200280E090EA0E947F0B30
:10455000B8C61C30C1F05CF4163008F096C0109359
:1045600046028091A60281608093A60291C01E300F
:1045700009F47AC00CF44FC01F3009F086C0ECE695
:10458000F2E081E07CC00CE612E0D8018C918170F1
:104590008C938823C1F10E94C12C28E030E040E0D8
:1045A00050E00E94E52C653071058105910509F107
:1045B00074F46330710581059105B9F064307105BB
:1045C0008105910501F5D8018C91846019C0663090
:1045D00071058105910589F06730710581059105A7
:1045E00091F4F801808182610DC0F80180818860BA
:1045F00009C0F8018081826005C0D8018C9180617A
:104600008C9301C080830F5F1F4FF2E00C371F07B0
:1046100009F0BBCF3AC00CE612E0FF24F39489E026
:10462000E82E0E94C12C25E030E040E050E00E94DE
:10463000E52C97FD10C0623071058105910544F0AD
:10464000643071058105910531F4F801E08205C0FF
:10465000D8011C9202C0D801FC920F5F1F4FB2E03C
:104660000C371B07F1F611C0ECE6F2E0119222E0E4
:10467000EC37F207D9F780E180937C0206C0819382
:1046800032E0EC37F307D9F7F6CF662009F419C604
:104690000E94781010914202412F66E070E080E0A5
:1046A00090E00E94AB0BE0914602F0E08091300276
:1046B000EF5CFD4F8083412F64E070E08CE090E080
:1046C000C1C480919902833048F11C3040F41093AA
:1046D0004F028091A60281608093A60203C06620EB
:1046E00009F4EFC50E947810409142026CE070E03E
:1046F00080E090E00E94AB0B8091410280933202F7
:1047000080933402809337028093390280933B0276
:10471000E0914F020E2E000CFF0BC1C4173048F47D
:104720001350109347028091A60281608093A602E5
:1047300003C0662009F4C5C50E947810409141026B
:1047400067E070E080E090E00E94AB0B8091420255
:1047500080933402E09147021DC5933008F413C1E1
:1047600017FD7FC0812F110F990BAA0BBB0B803156
:10477000910508F070C0FC01EC5CFF4F0C94A12F78
:1047800080915002909151028F6F9F6060C0809124
:104790005002909151028827907F856D9A6057C092
:1047A00080915002909151028827907F86659B608E
:1047B0004EC080915002909151028827907F8A6567
:1047C0009D6045C080915002909151028827907F52
:1047D000856B9A603CC0809150029091510288276D
:1047E000907F866D9A6033C0809150029091510203
:1047F0008827907F8A659B602AC0809150029091A3
:1048000051028827907F8A669D6021C08091500266
:10481000909151029F781BC080915002909151025B
:104820009F78906114C080915002909151029F78BE
:1048300090620DC080915002909151029F789063D8
:1048400006C080915002909151029F78906490939D
:104850005102809350028091A60281608093A6024B
:1048600003C0662009F42DC50E9478101091410202
:10487000412F68E070E080E090E00E94AB0B412F98
:1048800065E070E08BE090E00E94AB0B809142020B
:104890008093310280933F02209150023091510267
:1048A000C9019F7086354BE0940779F180F4853D0E
:1048B0006AE0960729F1863D7AE0970781F1853B0A
:1048C0009A40B1F5809130028093350231C08A352B
:1048D000BDE09B07F9F040F48A359B4049F5809193
:1048E00030028093370224C08A364DE09407E1F00D
:1048F0008F3F9F40E9F4809130028093310218C0CD
:10490000809130028093320213C0809130028093F4
:1049100033020EC0809130028093340209C080912E
:1049200030028093360204C08091300280933802B6
:10493000C90188279077811560E29607D1F058F475
:10494000009791F08115904109F0BBC4809130022D
:1049500080933D02B6C48115B0E39B0779F08115C1
:10496000904409F43EC1ADC48091300280933C0272
:10497000A8C48091300280933E02A3C4809130028B
:1049800080933F029EC4143048F41F5F1093480286
:104990008091A60281608093A60203C0662009F47C
:1049A00090C40E9478104091410264E070E080E081
:1049B00090E00E94AB0BE091480205C19230B1F447
:1049C0000E949A0710922102D12C0E94C2137B01EF
:1049D0008C018091270222E040E06D2D80680E94CA
:1049E0007909D394F0E8DF12F0CF6BC48EE0E8E0F1
:1049F000F1E0D20101900D928A95E1F71E3060F44A
:104A0000F201E10FF11D17FDFA95808190E090937E
:104A100045028093440203C0662009F452C40E94F8
:104A20007810409141026DE070E080E090E00E94DB
:104A3000AB0B8091420280933102809333028093CA
:104A400036028093390280933C0280933E0240916B
:104A5000440250914502F20180E090E0219130E063
:104A60004217530739F420913002FC01EF5CFD4FEF
:104A7000208327C401968E30910581F722C480914E
:104A80009902833060F180E1E6E1F1E0D20101902A
:104A90000D928A95E1F7103148F4F201E10FF11D12
:104AA00017FDFA95808180934C0203C0662009F4BB
:104AB00008C40E94781030914C02209142028FE08D
:104AC00090E0F201E80FF91F4081FC01EF5CFD4F1F
:104AD000341708F044C02083019798F7F2C380E1AF
:104AE000E6E1F1E0D20101900D928A95E1F7111112
:104AF0000BC080914B02811109C080914A0288232A
:104B000029F010924A0211C0103160F4F201E10F55
:104B1000F11D17FDFA95808180934B0281E080930F
:104B20004A0203C0662009F4CCC30E947810809129
:104B30004A02811107C08091300280933102809334
:104B40004002BFC330914B0220914202D20180E06B
:104B500090E04D91FC01EF5CFD4F431718F0809100
:104B600030021FC3208301968031910591F7A9C3BC
:104B70001F3048F4110F1E5FE12FEE0FEE0F1E0FD6
:104B800010934D0208C01F3019F410924D0203C05B
:104B9000662009F496C30E94781080914D02882304
:104BA000C1F01AE0612F0E94812F682F70E04091C0
:104BB000420280E090E00E94AB0B80914D02612F99
:104BC0000E94812FE82FF0E080913002E05DFD4FE0
:104BD000E8C24091420260E170E080E090E00E9413
:104BE000AB0B80913002ABCF80919902833008F4F7
:104BF00079C0103108F043C041E050E002C0440FDA
:104C0000551F1A95E2F780918E0290918F024827E6
:104C1000592750938F0240938E02109223021092D4
:104C2000220280E090E020E330E061E070E0FB01F0
:104C3000E423F523EF2B69F08B30910554F4FC014C
:104C4000EE0FFF1FED5BFD4FD901BF67B08BA7874C
:104C50000196660F771F2F5F3F4F2034310539F7DC
:104C600090936B0280936A028091A6028160809388
:104C7000A6028091980284608093980203C0662007
:104C800009F41FC3A0918E02B0918F0210913002DF
:104C900000914202F090410221E030E080E090E09B
:104CA000A9014A235B23BC016F5C7D4F6B018F30F0
:104CB000910550F4BC016C5B7F4FFB010C94A12F5C
:104CC000452B31F4402F05C0452B11F44F2D01C069
:104CD000412FF6014083220F331F01968031910549
:104CE000F9F6EFC2812F012E000C990BAA0BBB0B1A
:104CF0008031910508F0AEC0FC01ED5AFF4F0C94D5
:104D0000A12F109349028091A60281608093A60290
:104D1000A4C00E94C12C23E030E040E050E00E949B
:104D2000E52C6E5F7F4F70936B0260936A02E2E541
:104D3000CE2EE2E0DE2E00E010E080916A0290913B
:104D40006B02081719070CF077C00E94C12C2CE0E9
:104D500030E040E050E00E94E52C7B01F0E3EF0EF4
:104D6000F11CE2E5F2E080E090E0801791070CF0A2
:104D700035C5219131912F7733272E153F0529F322
:104D80000196F3CF80E39FE7909353028093520202
:104D900083E39FE71DC080E39FE7909353028093D6
:104DA000520284E39FE7909355028093540287E375
:104DB0009FE790935702809356028BE39FE714C0BE
:104DC00080E39FE7909353028093520284E39FE72E
:104DD000909355028093540287E39FE79093570284
:104DE000809356028AE39FE790935902809358027A
:104DF00084E090E01DC080E39FE79093530280938E
:104E0000520283E39FE708C080E39FE79093530239
:104E10008093520284E39FE790935502809354025B
:104E200087E39FE7909357028093560283E090E0D8
:104E300090936B0280936A0210928F0210928E02FE
:104E40008091A60281608093A6028091980284607E
:104E500080939802662009F434C20E947810409131
:104E6000410265E070E080E090E00E94AB0BE091D1
:104E70004902F0E080913002EF5CFD4F8083409169
:104E8000420266E070E08AE090E0DCC0933008F413
:104E9000A8C0111104C06091250281E023C0113027
:104EA00021F46091250282E01DC0123021F460914E
:104EB000250284E017C0133021F46091250288E0B8
:104EC00011C0143021F46091250280E10BC015302F
:104ED00021F46091250280E205C0163049F460910A
:104EE000250280E468276093250288E690E01BC0D5
:104EF000173079F46091250260586093250288E6A6
:104F000090E00E946E168091250280780E945C0BD2
:104F100010C0183059F46091240281E06827609332
:104F200024028DE690E00E946E1603C0662009F40C
:104F3000C8C10E9478108091250280FF03C0909123
:104F4000300202C0909141029093310281FF03C070
:104F50009091300202C0909141029093320282FF00
:104F600003C09091300202C09091410290933302AD
:104F700083FF03C09091300202C090914102909350
:104F8000340284FF03C09091300202C0909141022C
:104F90009093350285FF03C09091300202C090913A
:104FA00041029093360286FF03C09091300202C006
:104FB000909141029093370287FF03C080913002A5
:104FC00002C080914102809338028091240280FFC8
:104FD00003C08091300202C0809141028093390267
:104FE00070C1662D812F0E94BB0B6BC1933068F19D
:104FF0001031C8F48091260290E0212F012E000C80
:10500000330B8217930729F48FEF809326026FEFFB
:1050100003C010932602612F84E690E00E946E1672
:105020000E949A0703C0662009F44BC10E947810C1
:10503000E0912602EF3F91F54091300260E170E08F
:1050400080E090E00E94AB0B3CC11031C0F4809135
:10505000270290E0212F012E000C330B82179307BB
:1050600031F00E94C21340E050E00E94E00A109329
:105070002702612F85E690E00E946E1603C066202D
:1050800009F41FC10E9478104091410260E170E074
:1050900080E090E00E94AB0BE0912702F0E080916D
:1050A0003002EF5CFD4F7DC0103108F043C08091AD
:1050B000A10281FF2EC082FF0BC010922A02109223
:1050C0008D0210922902109228028B7F8093A102F8
:1050D000A0918D02AF3088F581E090E0012E02C0F2
:1050E000880F991F0A94E2F7209128023091290233
:1050F000822B932B909329028093280281E08A0FC0
:1051000080938D02B0E0AD5BBD4F1350DA961C93D7
:1051100014C010922A0210928D021092290210924D
:105120002802135010934E028091A6028160809352
:10513000A60203C0662009F4C4C04091410260E1A8
:1051400070E080E090E00E94AB0B2091280230914B
:10515000290228603093290220932802609142029C
:1051600080E090E041E050E0FA01E223F323EF2BEE
:1051700021F0FC01EF5CFD4F6083440F551F019649
:105180008031910589F7E0914E0283E08E0F8031E6
:1051900008F097C00E2E000CFF0B80913002EC5CE3
:1051A000FD4F80838EC0103108F051C08134E9F189
:1051B000823409F442C0812F0E943803882309F405
:1051C00046C04DE450E063E472E080E0912F990F17
:1051D0000E94920210922F0210922E028FEF809363
:1051E0002D0210922C0210922B0210922A02109281
:1051F000290210922802809198028C7E846080930C
:1052000098021092990281E08093A1028091A602F7
:1052100081608093A6028091A4029091A50280688B
:105220009093A5028093A40212C080EA8093430267
:105230004DE450E063E472E004C0198241E050E0C4
:10524000B20180E0912F990F0E94320202C06620C5
:10525000B1F000E010E0802F0E943803882319F09D
:105260008091420202C080914102F801EF5CFD4F43
:1052700080830F5F1F4F0031110569F722C000FFC7
:1052800020C0007F30914102509142024091300293
:1052900080E090E0FC01EF5CFD4F2081231721F0BE
:1052A000002321F0242F03C0232F01C0252F2083AA
:1052B00001968031910571F704C0662D812F0E94FF
:1052C000EC008091B402833009F058C08091B302A1
:1052D000781609F4F0C08092B3024091AF02509169
:1052E000B0026091B1027091B202411551056105A1
:1052F000710509F4E0C08091AB029091AC02A091DD
:10530000AD02B091AE02840F951FA61FB71F809308
:10531000AB029093AC02A093AD02B093AE020091A9
:10532000A7021091A8022091A9023091AA02141696
:1053300015061606170634F480179107A207B3075F
:1053400034F415C0081719072A073B0784F00093A7
:10535000AB021093AC022093AD023093AE021092D8
:10536000AF021092B0021092B1021092B20280917C
:10537000AD029091AE020E946F019DC0813009F094
:105380009AC0D501C40134E0B695A7959795879545
:105390003A95D1F72091B302281709F48CC0809375
:1053A000B3028091A6028D7F8093A6028091A40211
:1053B0009091A5029B7F9093A5028093A402E09018
:1053C000A202F090A302C70188279370811522E002
:1053D000920759F0811533E0930759F081159140F8
:1053E00089F49501840141E007C09501840140E8FA
:1053F00003C09501840142E165E070E08AE394E036
:105400000E94C309C70188279C70811558E0950741
:1054100059F081156CE0960759F08115944089F494
:105420009501840142E807C09501840143E803C067
:105430009501840141E164E070E088E394E00E941A
:10544000C309C701882790738115A0E29A0759F014
:105450008115B0E39B0759F08115904189F49501BE
:10546000840141E807C09501840144E803C0950127
:10547000840140E160E070E086E394E00E94C309AB
:105480008BE0F6FE0FC00E94F312892BA1F48091ED
:10549000A4029091A502806896609093A5028093E3
:1054A000A40209C00E94F312892B29F48091A6025C
:1054B00082608093A6020E9412120C94401B60919D
:1054C000050270910602809107029091080230E077
:1054D00040E050E00E94172D60930402672B682B78
:1054E000692B01F580918D028823E1F0E0912A0279
:1054F000F0E0ED5BFD4F82AD80934E020E94A90368
:105500001092210280912A028F5F80932A0290914B
:105510008D02891710F010922A028091A1028160F9
:105520008093A1020091040210E00D5B1D4FD80191
:1055300099966C918091B402833061F48091A202BB
:105540009091A30296FF06C063FB662760F98BE08B
:105550000E941C13F80181A580FD06C020911F0246
:105560003091200235FF2CC182FD04C081FB33271E
:1055700030F901C032E03C8BC0902E02D0902F0257
:1055800020912B0230912C022C153D0524F0109215
:105590002C0210922B02881F8827881F880F30E06A
:1055A000A801475D5F4F598F488F66246394712C23
:1055B000E0912B02F0912C02823059F0DF01AA0F0A
:1055C000BB1FA457BE4F11963C90331C3324331C91
:1055D00002C033243394A88DB98D8C9180FF6CC0A8
:1055E000EE0FFF1FE457FE4F308151813F7785FF5B
:1055F00004C03D3010F03C500BC084FF04C0343771
:1056000010F4345F05C086FF03C0353008F0355014
:105610009091A60291FD0FC083FF03C020904C0221
:105620000BC080914A02882319F020904B0204C0DD
:105630005F77252E01C0212C3323F1F180912502C3
:1056400086FF14C080918501821581F03D8F0E94F4
:10565000C2137B018C018091270222E0422D69E276
:10566000806B0E947909209285013D8D80912702EF
:105670008501740122E0422D632F80693D8F0E94D5
:1056800079093D8D832F8770A30101C0440F8A954E
:10569000EAF7832F90E023E0959587952A95E1F727
:1056A000FC01EB58FE4F2081242B2083F201E80FF0
:1056B000F91F8081482B408340912B0250912C028E
:1056C0004F5F5F4F50932C0240932B02311003C069
:1056D000311107C028C081E04C155D050CF468CF7E
:1056E000F7CF20918B01632F70E080E090E02223C0
:1056F00021F041E00E9493010DC040E00E9493011F
:1057000060E08EE00E941C1361E070E080E090E0B9
:105710000E94881361E08EE00E941C13A201C50163
:10572000B4010E94E00A3C89323061F41092B70261
:105730001092B8021092B9021092BA0281E08093DE
:105740008B013EC03C89313069F480918701909192
:105750008801A0918901B0918A01880D991DAA1D27
:10576000BB1D1BC0A0914D02AA2301F1209187010E
:10577000309188014091890150918A01B0E00E94E6
:10578000042D26E930E040E050E00E94172DD501BD
:10579000C401820F931FA41FB51F8093B70290937B
:1057A000B802A093B902B093BA0208C01092B7022F
:1057B0001092B8021092B9021092BA0210928B01A4
:1057C00081E0809386018091A4029091A502977F49
:1057D0009093A5028093A4020C9436200E94C12CC1
:1057E00020E430E040E050E00E94E52CDC01CB01F9
:1057F000805C9F4FAF4FBF4FBA2FA92F982F88279C
:10580000B701682B792BD6016D937D936D010F5FE6
:105810001F4F93CAE3E4F2E0DC0120E030E08FEFB9
:1058200040916A0250916B0224173507A4F4478512
:1058300050894D935D938F3F49F067857089482F5C
:10584000082E000C550B6417750708F487852F5F29
:105850003F4F3296E5CF0895EDE8F3E013821282D0
:1058600088EE93E0A0E0B0E084839583A683B783BD
:1058700022E331E03183208325EC30E03587248733
:1058800024EC30E03787268720EC30E0318B208B0A
:1058900021EC30E0338B228B22EC30E0358B248BF3
:1058A00026EC30E0378B268B118E128E138E148EE1
:1058B000EAE2F4E01382128284839583A683B7839D
:1058C00084E491E0918380838FEF9FEF90933B047A
:1058D00080933A049093390480933804909337046A
:1058E0008093360408958F929F92AF92BF92CF9289
:1058F000DF92EF92FF92CF93DF93EC016881798181
:105900008A819B81611571058105910521F464E20D
:1059100079ED8BE597E02DE133EF41E050E00E9417
:10592000E52C49015A019B01AC01A7EAB1E40E94B0
:10593000042D6B017C01ACEEB4EFA50194010E9433
:10594000122DDC01CB018C0D9D1DAE1DBF1DB7FFBF
:1059500003C00197A109B04888839983AA83BB83B8
:10596000BC01CD019F77DF91CF91FF90EF90DF9049
:10597000CF90BF90AF909F908F9008950E94732C0E
:10598000089584E091E00E94732C089560930401CF
:105990007093050180930601909307010895F9998A
:1059A000FECF92BD81BDF89A992780B50895262F24
:1059B000F999FECF1FBA92BD81BD20BD0FB6F894F4
:1059C000FA9AF99A0FBE01960895052E97FB1EF4D8
:1059D00000940E94FC2C57FD07D00E94172D07FC55
:1059E00003D04EF40C94FC2C5095409530952195A5
:1059F0003F4F4F4F5F4F08959095809570956195FB
:105A00007F4F8F4F9F4F08950E94392DA59F900D76
:105A1000B49F900DA49F800D911D11240895B7FF90
:105A20000C94042D0E94042D821B930B0895A1E277
:105A30001A2EAA1BBB1BFD010DC0AA1FBB1FEE1F08
:105A4000FF1FA217B307E407F50720F0A21BB30B53
:105A5000E40BF50B661F771F881F991F1A9469F7CF
:105A600060957095809590959B01AC01BD01CF012B
:105A70000895A29FB001B39FC001A39F700D811D27
:105A80001124911DB29F700D811D1124911D089547
:105A90005058BB27AA270E94602D0C94DA2E0E9432
:105AA000CC2E38F00E94D32E20F039F49F3F19F409
:105AB00026F40C94C92E0EF4E095E7FB0C94C32E4B
:105AC000E92F0E94EB2E58F3BA1762077307840779
:105AD000950720F079F4A6F50C940D2F0EF4E095BF
